{
  "address": "0x297c457682af928b44a9CE4e18241761aa46F027",
  "abi": [
    {
      "anonymous": false,
      "inputs": [
        {
          "indexed": true,
          "internalType": "address",
          "name": "account",
          "type": "address"
        },
        {
          "indexed": true,
          "internalType": "address",
          "name": "operator",
          "type": "address"
        },
        {
          "indexed": false,
          "internalType": "bool",
          "name": "approved",
          "type": "bool"
        }
      ],
      "name": "ApprovalForAll",
      "type": "event"
    },
    {
      "anonymous": false,
      "inputs": [
        {
          "indexed": true,
          "internalType": "address",
          "name": "previousOwner",
          "type": "address"
        },
        {
          "indexed": true,
          "internalType": "address",
          "name": "newOwner",
          "type": "address"
        }
      ],
      "name": "OwnershipTransferred",
      "type": "event"
    },
    {
      "anonymous": false,
      "inputs": [
        {
          "indexed": false,
          "internalType": "address",
          "name": "account",
          "type": "address"
        }
      ],
      "name": "Paused",
      "type": "event"
    },
    {
      "anonymous": false,
      "inputs": [
        {
          "indexed": true,
          "internalType": "address",
          "name": "operator",
          "type": "address"
        },
        {
          "indexed": true,
          "internalType": "address",
          "name": "from",
          "type": "address"
        },
        {
          "indexed": true,
          "internalType": "address",
          "name": "to",
          "type": "address"
        },
        {
          "indexed": false,
          "internalType": "uint256[]",
          "name": "ids",
          "type": "uint256[]"
        },
        {
          "indexed": false,
          "internalType": "uint256[]",
          "name": "values",
          "type": "uint256[]"
        }
      ],
      "name": "TransferBatch",
      "type": "event"
    },
    {
      "anonymous": false,
      "inputs": [
        {
          "indexed": true,
          "internalType": "address",
          "name": "operator",
          "type": "address"
        },
        {
          "indexed": true,
          "internalType": "address",
          "name": "from",
          "type": "address"
        },
        {
          "indexed": true,
          "internalType": "address",
          "name": "to",
          "type": "address"
        },
        {
          "indexed": false,
          "internalType": "uint256",
          "name": "id",
          "type": "uint256"
        },
        {
          "indexed": false,
          "internalType": "uint256",
          "name": "value",
          "type": "uint256"
        }
      ],
      "name": "TransferSingle",
      "type": "event"
    },
    {
      "anonymous": false,
      "inputs": [
        {
          "indexed": false,
          "internalType": "string",
          "name": "value",
          "type": "string"
        },
        {
          "indexed": true,
          "internalType": "uint256",
          "name": "id",
          "type": "uint256"
        }
      ],
      "name": "URI",
      "type": "event"
    },
    {
      "anonymous": false,
      "inputs": [
        {
          "indexed": false,
          "internalType": "address",
          "name": "account",
          "type": "address"
        }
      ],
      "name": "Unpaused",
      "type": "event"
    },
    {
      "inputs": [
        {
          "internalType": "address",
          "name": "_address",
          "type": "address"
        }
      ],
      "name": "addAdmin",
      "outputs": [],
      "stateMutability": "nonpayable",
      "type": "function"
    },
    {
      "inputs": [
        {
          "internalType": "address[]",
          "name": "_addresses",
          "type": "address[]"
        }
      ],
      "name": "addAdmins",
      "outputs": [],
      "stateMutability": "nonpayable",
      "type": "function"
    },
    {
      "inputs": [
        {
          "internalType": "address",
          "name": "_from",
          "type": "address"
        },
        {
          "internalType": "address",
          "name": "_to",
          "type": "address"
        },
        {
          "internalType": "uint256[]",
          "name": "_ids",
          "type": "uint256[]"
        },
        {
          "internalType": "uint256[]",
          "name": "_amounts",
          "type": "uint256[]"
        }
      ],
      "name": "adminSafeBatchTransferFrom",
      "outputs": [],
      "stateMutability": "nonpayable",
      "type": "function"
    },
    {
      "inputs": [
        {
          "internalType": "address",
          "name": "_from",
          "type": "address"
        },
        {
          "internalType": "address",
          "name": "_to",
          "type": "address"
        },
        {
          "internalType": "uint256",
          "name": "_id",
          "type": "uint256"
        },
        {
          "internalType": "uint256",
          "name": "_amount",
          "type": "uint256"
        }
      ],
      "name": "adminSafeTransferFrom",
      "outputs": [],
      "stateMutability": "nonpayable",
      "type": "function"
    },
    {
      "inputs": [
        {
          "internalType": "address",
          "name": "account",
          "type": "address"
        },
        {
          "internalType": "uint256",
          "name": "id",
          "type": "uint256"
        }
      ],
      "name": "balanceOf",
      "outputs": [
        {
          "internalType": "uint256",
          "name": "",
          "type": "uint256"
        }
      ],
      "stateMutability": "view",
      "type": "function"
    },
    {
      "inputs": [
        {
          "internalType": "address[]",
          "name": "accounts",
          "type": "address[]"
        },
        {
          "internalType": "uint256[]",
          "name": "ids",
          "type": "uint256[]"
        }
      ],
      "name": "balanceOfBatch",
      "outputs": [
        {
          "internalType": "uint256[]",
          "name": "",
          "type": "uint256[]"
        }
      ],
      "stateMutability": "view",
      "type": "function"
    },
    {
      "inputs": [
        {
          "internalType": "uint256",
          "name": "typeId",
          "type": "uint256"
        },
        {
          "internalType": "uint256",
          "name": "qty",
          "type": "uint256"
        },
        {
          "internalType": "address",
          "name": "burnFrom",
          "type": "address"
        }
      ],
      "name": "burn",
      "outputs": [],
      "stateMutability": "nonpayable",
      "type": "function"
    },
    {
      "inputs": [
        {
          "internalType": "uint256",
          "name": "typeId",
          "type": "uint256"
        }
      ],
      "name": "getInfoForType",
      "outputs": [
        {
          "components": [
            {
              "internalType": "uint256",
              "name": "mints",
              "type": "uint256"
            },
            {
              "internalType": "uint256",
              "name": "burns",
              "type": "uint256"
            },
            {
              "internalType": "uint256",
              "name": "maxSupply",
              "type": "uint256"
            }
          ],
          "internalType": "struct ConsumablesState.TypeInfo",
          "name": "",
          "type": "tuple"
        }
      ],
      "stateMutability": "view",
      "type": "function"
    },
    {
      "inputs": [],
      "name": "initialize",
      "outputs": [],
      "stateMutability": "nonpayable",
      "type": "function"
    },
    {
      "inputs": [
        {
          "internalType": "address",
          "name": "_address",
          "type": "address"
        }
      ],
      "name": "isAdmin",
      "outputs": [
        {
          "internalType": "bool",
          "name": "",
          "type": "bool"
        }
      ],
      "stateMutability": "view",
      "type": "function"
    },
    {
      "inputs": [
        {
          "internalType": "address",
          "name": "account",
          "type": "address"
        },
        {
          "internalType": "address",
          "name": "operator",
          "type": "address"
        }
      ],
      "name": "isApprovedForAll",
      "outputs": [
        {
          "internalType": "bool",
          "name": "",
          "type": "bool"
        }
      ],
      "stateMutability": "view",
      "type": "function"
    },
    {
      "inputs": [
        {
          "internalType": "uint256",
          "name": "typeId",
          "type": "uint256"
        },
        {
          "internalType": "uint256",
          "name": "qty",
          "type": "uint256"
        },
        {
          "internalType": "address",
          "name": "recipient",
          "type": "address"
        }
      ],
      "name": "mint",
      "outputs": [],
      "stateMutability": "nonpayable",
      "type": "function"
    },
    {
      "inputs": [
        {
          "internalType": "address",
          "name": "to",
          "type": "address"
        },
        {
          "internalType": "uint256[]",
          "name": "ids",
          "type": "uint256[]"
        },
        {
          "internalType": "uint256[]",
          "name": "amounts",
          "type": "uint256[]"
        }
      ],
      "name": "mintBatch",
      "outputs": [],
      "stateMutability": "nonpayable",
      "type": "function"
    },
    {
      "inputs": [],
      "name": "owner",
      "outputs": [
        {
          "internalType": "address",
          "name": "",
          "type": "address"
        }
      ],
      "stateMutability": "view",
      "type": "function"
    },
    {
      "inputs": [],
      "name": "paused",
      "outputs": [
        {
          "internalType": "bool",
          "name": "",
          "type": "bool"
        }
      ],
      "stateMutability": "view",
      "type": "function"
    },
    {
      "inputs": [
        {
          "internalType": "address",
          "name": "_address",
          "type": "address"
        }
      ],
      "name": "removeAdmin",
      "outputs": [],
      "stateMutability": "nonpayable",
      "type": "function"
    },
    {
      "inputs": [
        {
          "internalType": "address[]",
          "name": "_addresses",
          "type": "address[]"
        }
      ],
      "name": "removeAdmins",
      "outputs": [],
      "stateMutability": "nonpayable",
      "type": "function"
    },
    {
      "inputs": [],
      "name": "renounceOwnership",
      "outputs": [],
      "stateMutability": "nonpayable",
      "type": "function"
    },
    {
      "inputs": [
        {
          "internalType": "address",
          "name": "from",
          "type": "address"
        },
        {
          "internalType": "address",
          "name": "to",
          "type": "address"
        },
        {
          "internalType": "uint256[]",
          "name": "ids",
          "type": "uint256[]"
        },
        {
          "internalType": "uint256[]",
          "name": "amounts",
          "type": "uint256[]"
        },
        {
          "internalType": "bytes",
          "name": "data",
          "type": "bytes"
        }
      ],
      "name": "safeBatchTransferFrom",
      "outputs": [],
      "stateMutability": "nonpayable",
      "type": "function"
    },
    {
      "inputs": [
        {
          "internalType": "address",
          "name": "from",
          "type": "address"
        },
        {
          "internalType": "address",
          "name": "to",
          "type": "address"
        },
        {
          "internalType": "uint256",
          "name": "id",
          "type": "uint256"
        },
        {
          "internalType": "uint256",
          "name": "amount",
          "type": "uint256"
        },
        {
          "internalType": "bytes",
          "name": "data",
          "type": "bytes"
        }
      ],
      "name": "safeTransferFrom",
      "outputs": [],
      "stateMutability": "nonpayable",
      "type": "function"
    },
    {
      "inputs": [
        {
          "internalType": "address",
          "name": "operator",
          "type": "address"
        },
        {
          "internalType": "bool",
          "name": "approved",
          "type": "bool"
        }
      ],
      "name": "setApprovalForAll",
      "outputs": [],
      "stateMutability": "nonpayable",
      "type": "function"
    },
    {
      "inputs": [
        {
          "internalType": "bool",
          "name": "_shouldPause",
          "type": "bool"
        }
      ],
      "name": "setPause",
      "outputs": [],
      "stateMutability": "nonpayable",
      "type": "function"
    },
    {
      "inputs": [
        {
          "internalType": "uint256",
          "name": "typeId",
          "type": "uint256"
        },
        {
          "internalType": "uint256",
          "name": "maxSupply",
          "type": "uint256"
        }
      ],
      "name": "setType",
      "outputs": [],
      "stateMutability": "nonpayable",
      "type": "function"
    },
    {
      "inputs": [
        {
          "internalType": "bytes4",
          "name": "interfaceId",
          "type": "bytes4"
        }
      ],
      "name": "supportsInterface",
      "outputs": [
        {
          "internalType": "bool",
          "name": "",
          "type": "bool"
        }
      ],
      "stateMutability": "view",
      "type": "function"
    },
    {
      "inputs": [
        {
          "internalType": "uint256",
          "name": "",
          "type": "uint256"
        }
      ],
      "name": "traitData",
      "outputs": [
        {
          "internalType": "string",
          "name": "name",
          "type": "string"
        },
        {
          "internalType": "string",
          "name": "png",
          "type": "string"
        }
      ],
      "stateMutability": "view",
      "type": "function"
    },
    {
      "inputs": [
        {
          "internalType": "address",
          "name": "newOwner",
          "type": "address"
        }
      ],
      "name": "transferOwnership",
      "outputs": [],
      "stateMutability": "nonpayable",
      "type": "function"
    },
    {
      "inputs": [
        {
          "internalType": "uint256",
          "name": "",
          "type": "uint256"
        }
      ],
      "name": "typeInfo",
      "outputs": [
        {
          "internalType": "uint256",
          "name": "mints",
          "type": "uint256"
        },
        {
          "internalType": "uint256",
          "name": "burns",
          "type": "uint256"
        },
        {
          "internalType": "uint256",
          "name": "maxSupply",
          "type": "uint256"
        }
      ],
      "stateMutability": "view",
      "type": "function"
    },
    {
      "inputs": [
        {
          "internalType": "uint256",
          "name": "typeId",
          "type": "uint256"
        },
        {
          "components": [
            {
              "internalType": "string",
              "name": "name",
              "type": "string"
            },
            {
              "internalType": "string",
              "name": "png",
              "type": "string"
            }
          ],
          "internalType": "struct ERC1155OnChainBaseUpgradeable.Image",
          "name": "image",
          "type": "tuple"
        }
      ],
      "name": "uploadImage",
      "outputs": [],
      "stateMutability": "nonpayable",
      "type": "function"
    },
    {
      "inputs": [
        {
          "internalType": "uint256",
          "name": "typeId",
          "type": "uint256"
        }
      ],
      "name": "uri",
      "outputs": [
        {
          "internalType": "string",
          "name": "",
          "type": "string"
        }
      ],
      "stateMutability": "view",
      "type": "function"
    }
  ],
  "transactionHash": "0x017307037f9123b5c186868957cf986619a2c4f34d5063ebbcf6a26a11b3db07",
  "args": [],
  "numDeployments": 1,
  "solcInputHash": "b27224762b700ac3dafd5126496854c7",
  "bytecode": "0x608060405234801561001057600080fd5b50613864806100206000396000f3fe608060405234801561001057600080fd5b50600436106101ce5760003560e01c80638129fc1c11610104578063af6827a4116100a2578063e985e9c511610071578063e985e9c51461044a578063f242432a14610487578063f2fde38b1461049a578063f6bb451f146104ad57600080fd5b8063af6827a4146103fe578063bedb86fb14610411578063d81d0a1514610424578063e7d3fe6b1461043757600080fd5b80639ca0f29b116100de5780639ca0f29b14610358578063a22cb4651461038d578063a878b95d146103a0578063a9801ee9146103b357600080fd5b80638129fc1c146103225780638da5cb5b1461032a5780639c54df641461034557600080fd5b80633ac7026611610171578063704802751161014b57806370480275146102e1578063715018a6146102f4578063749388c4146102fc5780637d26c78c1461030f57600080fd5b80633ac70266146102a35780634e1273f4146102b65780635c975abb146102d657600080fd5b80631785f53c116101ad5780631785f53c1461023c57806324d7806c146102515780632eb2c2d61461027d578063377e11e01461029057600080fd5b8062fdd58e146101d357806301ffc9a7146101f95780630e89341c1461021c575b600080fd5b6101e66101e1366004612748565b6104ce565b6040519081526020015b60405180910390f35b61020c610207366004612788565b610568565b60405190151581526020016101f0565b61022f61022a3660046127ac565b6105ba565b6040516101f0919061281d565b61024f61024a366004612830565b6107b3565b005b61020c61025f366004612830565b6001600160a01b031660009081526097602052604090205460ff1690565b61024f61028b366004612994565b6107fe565b61024f61029e366004612a88565b610895565b61024f6102b1366004612ac9565b610936565b6102c96102c4366004612aeb565b6109dd565b6040516101f09190612bf0565b60655460ff1661020c565b61024f6102ef366004612830565b610b06565b61024f610b54565b61024f61030a366004612c03565b610b8a565b61024f61031d366004612c38565b610c1d565b61024f610d2c565b6033546040516001600160a01b0390911681526020016101f0565b61024f610353366004612a88565b610dae565b61036b6103663660046127ac565b610e4a565b60408051825181526020808401519082015291810151908201526060016101f0565b61024f61039b366004612c95565b610ef6565b61024f6103ae366004612cc8565b610f05565b6103e36103c13660046127ac565b6101936020526000908152604090208054600182015460029092015490919083565b604080519384526020840192909252908201526060016101f0565b61024f61040c366004612d0a565b610f87565b61024f61041f366004612d9a565b61106c565b61024f610432366004612db5565b6110bf565b61024f610445366004612c03565b61113a565b61020c610458366004612e28565b6001600160a01b03918216600090815261012f6020908152604080832093909416825291909152205460ff1690565b61024f610495366004612e52565b611250565b61024f6104a8366004612830565b6112d7565b6104c06104bb3660046127ac565b61136f565b6040516101f0929190612eb6565b60006001600160a01b03831661053f5760405162461bcd60e51b815260206004820152602b60248201527f455243313135353a2062616c616e636520717565727920666f7220746865207a60448201526a65726f206164647265737360a81b60648201526084015b60405180910390fd5b50600090815261012e602090815260408083206001600160a01b03949094168352929052205490565b60006001600160e01b03198216636cdb3d1360e11b148061059957506001600160e01b031982166303a24d0760e21b145b806105b457506301ffc9a760e01b6001600160e01b03198316145b92915050565b6000818152610193602052604090206002015460609061060b5760405162461bcd60e51b815260206004820152600c60248201526b696e76616c6964207479706560a01b6044820152606401610536565b60008281526101606020526040808220815180830190925280548290829061063290612ee4565b80601f016020809104026020016040519081016040528092919081815260200182805461065e90612ee4565b80156106ab5780601f10610680576101008083540402835291602001916106ab565b820191906000526020600020905b81548152906001019060200180831161068e57829003601f168201915b505050505081526020016001820180546106c490612ee4565b80601f01602080910402602001604051908101604052809291908181526020018280546106f090612ee4565b801561073d5780601f106107125761010080835404028352916020019161073d565b820191906000526020600020905b81548152906001019060200180831161072057829003601f168201915b50505050508152505090506000816000015161076061075b8661149c565b611634565b604051602001610771929190612f1f565b604051602081830303815290604052905061078b81611634565b60405160200161079b91906130b7565b60405160208183030381529060405292505050919050565b6033546001600160a01b031633146107dd5760405162461bcd60e51b8152600401610536906130fc565b6001600160a01b03166000908152609760205260409020805460ff19169055565b6001600160a01b03851633148061081a575061081a8533610458565b6108815760405162461bcd60e51b815260206004820152603260248201527f455243313135353a207472616e736665722063616c6c6572206973206e6f74206044820152711bdddb995c881b9bdc88185c1c1c9bdd995960721b6064820152608401610536565b61088e858585858561179b565b5050505050565b6033546001600160a01b031633146108bf5760405162461bcd60e51b8152600401610536906130fc565b60005b81811015610931576000609760008585858181106108e2576108e2613131565b90506020020160208101906108f79190612830565b6001600160a01b031681526020810191909152604001600020805460ff1916911515919091179055806109298161315d565b9150506108c2565b505050565b3360009081526097602052604090205460ff16806109575750610957611934565b6109735760405162461bcd60e51b815260040161053690613178565b600082815261019360205260409020548110156109c75760405162461bcd60e51b81526020600482015260126024820152716d617820737570706c7920746f6f206c6f7760701b6044820152606401610536565b6000918252610193602052604090912060020155565b60608151835114610a425760405162461bcd60e51b815260206004820152602960248201527f455243313135353a206163636f756e747320616e6420696473206c656e677468604482015268040dad2e6dac2e8c6d60bb1b6064820152608401610536565b600083516001600160401b03811115610a5d57610a5d61284b565b604051908082528060200260200182016040528015610a86578160200160208202803683370190505b50905060005b8451811015610afe57610ad1858281518110610aaa57610aaa613131565b6020026020010151858381518110610ac457610ac4613131565b60200260200101516104ce565b828281518110610ae357610ae3613131565b6020908102919091010152610af78161315d565b9050610a8c565b509392505050565b6033546001600160a01b03163314610b305760405162461bcd60e51b8152600401610536906130fc565b6001600160a01b03166000908152609760205260409020805460ff19166001179055565b6033546001600160a01b03163314610b7e5760405162461bcd60e51b8152600401610536906130fc565b610b886000611958565b565b60655460ff1615610bad5760405162461bcd60e51b8152600401610536906131a4565b3360009081526097602052604090205460ff1680610bce5750610bce611934565b610bea5760405162461bcd60e51b815260040161053690613178565b6000838152610193602052604081206001018054849290610c0c9084906131ce565b9091555061093190508184846119aa565b3360009081526097602052604090205460ff1680610c3e5750610c3e611934565b610c5a5760405162461bcd60e51b815260040161053690613178565b6040805180820190915280610c6f83806131e6565b8080601f016020809104026020016040519081016040528093929190818152602001838380828437600092019190915250505090825250602090810190610cb8908401846131e6565b8080601f01602080910402602001604051908101604052809392919081815260200183838082843760009201829052509390945250508481526101606020908152604090912083518051919350610d13928492910190612693565b50602082810151805161088e9260018501920190612693565b600054610100900460ff16610d475760005460ff1615610d4b565b303b155b610d675760405162461bcd60e51b81526004016105369061322c565b600054610100900460ff16158015610d89576000805461ffff19166101011790555b610d91611b2a565b610d99611b9f565b8015610dab576000805461ff00191690555b50565b6033546001600160a01b03163314610dd85760405162461bcd60e51b8152600401610536906130fc565b60005b8181101561093157600160976000858585818110610dfb57610dfb613131565b9050602002016020810190610e109190612830565b6001600160a01b031681526020810191909152604001600020805460ff191691151591909117905580610e428161315d565b915050610ddb565b610e6e60405180606001604052806000815260200160008152602001600081525090565b60008281526101936020526040902060020154610ebc5760405162461bcd60e51b815260206004820152600c60248201526b696e76616c6964207479706560a01b6044820152606401610536565b5060009081526101936020908152604091829020825160608101845281548152600182015492810192909252600201549181019190915290565b610f01338383611c0c565b5050565b60655460ff1615610f285760405162461bcd60e51b8152600401610536906131a4565b3360009081526097602052604090205460ff1680610f495750610f49611934565b610f655760405162461bcd60e51b815260040161053690613178565b610f818484848460405180602001604052806000815250611cee565b50505050565b60655460ff1615610faa5760405162461bcd60e51b8152600401610536906131a4565b3360009081526097602052604090205460ff1680610fcb5750610fcb611934565b610fe75760405162461bcd60e51b815260040161053690613178565b611064868686868080602002602001604051908101604052809392919081815260200183836020028082843760009201919091525050604080516020808a0282810182019093528982529093508992508891829185019084908082843760009201829052506040805160208101909152908152925061179b915050565b505050505050565b3360009081526097602052604090205460ff168061108d575061108d611934565b6110a95760405162461bcd60e51b815260040161053690613178565b80156110b757610dab611e1a565b610dab611e8f565b60655460ff16156110e25760405162461bcd60e51b8152600401610536906131a4565b3360009081526097602052604090205460ff16806111035750611103611934565b61111f5760405162461bcd60e51b815260040161053690613178565b61093183838360405180602001604052806000815250611f09565b60655460ff161561115d5760405162461bcd60e51b8152600401610536906131a4565b3360009081526097602052604090205460ff168061117e575061117e611934565b61119a5760405162461bcd60e51b815260040161053690613178565b600083815261019360205260409020600281015460018201549154909184916111c3919061327a565b6111cd91906131ce565b111561120f5760405162461bcd60e51b8152602060048201526011602482015270105b1b081d1bdad95b9cc81b5a5b9d1959607a1b6044820152606401610536565b600083815261019360205260408120805484929061122e9084906131ce565b9250508190555061093181848460405180602001604052806000815250612056565b6001600160a01b03851633148061126c575061126c8533610458565b6112ca5760405162461bcd60e51b815260206004820152602960248201527f455243313135353a2063616c6c6572206973206e6f74206f776e6572206e6f7260448201526808185c1c1c9bdd995960ba1b6064820152608401610536565b61088e8585858585611cee565b6033546001600160a01b031633146113015760405162461bcd60e51b8152600401610536906130fc565b6001600160a01b0381166113665760405162461bcd60e51b815260206004820152602660248201527f4f776e61626c653a206e6577206f776e657220697320746865207a65726f206160448201526564647265737360d01b6064820152608401610536565b610dab81611958565b6101606020526000908152604090208054819061138b90612ee4565b80601f01602080910402602001604051908101604052809291908181526020018280546113b790612ee4565b80156114045780601f106113d957610100808354040283529160200191611404565b820191906000526020600020905b8154815290600101906020018083116113e757829003601f168201915b50505050509080600101805461141990612ee4565b80601f016020809104026020016040519081016040528092919081815260200182805461144590612ee4565b80156114925780601f1061146757610100808354040283529160200191611492565b820191906000526020600020905b81548152906001019060200180831161147557829003601f168201915b5050505050905082565b606060006115eb61016060008581526020019081526020016000206040518060400160405290816000820180546114d290612ee4565b80601f01602080910402602001604051908101604052809291908181526020018280546114fe90612ee4565b801561154b5780601f106115205761010080835404028352916020019161154b565b820191906000526020600020905b81548152906001019060200180831161152e57829003601f168201915b5050505050815260200160018201805461156490612ee4565b80601f016020809104026020016040519081016040528092919081815260200182805461159090612ee4565b80156115dd5780601f106115b2576101008083540402835291602001916115dd565b820191906000526020600020905b8154815290600101906020018083116115c057829003601f168201915b505050505081525050612120565b6040516020016115fb9190613291565b60405160208183030381529060405290508060405160200161161d91906132ad565b604051602081830303815290604052915050919050565b606081516000141561165457505060408051602081019091526000815290565b60006040518060600160405280604081526020016137ef604091399050600060038451600261168391906131ce565b61168d91906133a4565b6116989060046133c6565b905060006116a78260206131ce565b6001600160401b038111156116be576116be61284b565b6040519080825280601f01601f1916602001820160405280156116e8576020820181803683370190505b509050818152600183018586518101602084015b818310156117565760039283018051603f601282901c811687015160f890811b8552600c83901c8216880151811b6001860152600683901c8216880151811b60028601529116860151901b938201939093526004016116fc565b60038951066001811461177057600281146117815761178d565b613d3d60f01b60011983015261178d565b603d60f81b6000198301525b509398975050505050505050565b81518351146117bc5760405162461bcd60e51b8152600401610536906133e5565b6001600160a01b0384166117e25760405162461bcd60e51b81526004016105369061342d565b3360005b84518110156118ce57600085828151811061180357611803613131565b60200260200101519050600085838151811061182157611821613131565b602090810291909101810151600084815261012e835260408082206001600160a01b038e1683529093529190912054909150818110156118735760405162461bcd60e51b815260040161053690613472565b600083815261012e602090815260408083206001600160a01b038e8116855292528083208585039055908b168252812080548492906118b39084906131ce565b92505081905550505050806118c79061315d565b90506117e6565b50846001600160a01b0316866001600160a01b0316826001600160a01b03167f4a39dc06d4c0dbc64b70af90fd698a233a518aa5d07e595d983b8c0526c8f7fb878760405161191e9291906134bc565b60405180910390a461106481878787878761214d565b6000336119496033546001600160a01b031690565b6001600160a01b031614905090565b603380546001600160a01b038381166001600160a01b0319831681179093556040519116919082907f8be0079c531659141344cd1fd0a4f28419497f9722a3daafe3b4186f6b6457e090600090a35050565b6001600160a01b038316611a0c5760405162461bcd60e51b815260206004820152602360248201527f455243313135353a206275726e2066726f6d20746865207a65726f206164647260448201526265737360e81b6064820152608401610536565b33611a3c81856000611a1d876122b8565b611a26876122b8565b5050604080516020810190915260009052505050565b600083815261012e602090815260408083206001600160a01b038816845290915290205482811015611abc5760405162461bcd60e51b8152602060048201526024808201527f455243313135353a206275726e20616d6f756e7420657863656564732062616c604482015263616e636560e01b6064820152608401610536565b600084815261012e602090815260408083206001600160a01b03898116808652918452828520888703905582518981529384018890529092908616917fc3d58168c5ae7397731d063d5bbf3d657854427343f4c083240f7aacaa2d0f62910160405180910390a45050505050565b600054610100900460ff16611b455760005460ff1615611b49565b303b155b611b655760405162461bcd60e51b81526004016105369061322c565b600054610100900460ff16158015611b87576000805461ffff19166101011790555b610d9960405180602001604052806000815250612303565b600054610100900460ff16611bba5760005460ff1615611bbe565b303b155b611bda5760405162461bcd60e51b81526004016105369061322c565b600054610100900460ff16158015611bfc576000805461ffff19166101011790555b611c04612343565b610d996123a8565b816001600160a01b0316836001600160a01b03161415611c805760405162461bcd60e51b815260206004820152602960248201527f455243313135353a2073657474696e6720617070726f76616c20737461747573604482015268103337b91039b2b63360b91b6064820152608401610536565b6001600160a01b03838116600081815261012f6020908152604080832094871680845294825291829020805460ff191686151590811790915591519182527f17307eab39ab6107e8899845ad3d59bd9653f200f220920489ca2b5937696c31910160405180910390a3505050565b6001600160a01b038416611d145760405162461bcd60e51b81526004016105369061342d565b33611d2d818787611d24886122b8565b61088e886122b8565b600084815261012e602090815260408083206001600160a01b038a16845290915290205483811015611d715760405162461bcd60e51b815260040161053690613472565b600085815261012e602090815260408083206001600160a01b038b8116855292528083208785039055908816825281208054869290611db19084906131ce565b909155505060408051868152602081018690526001600160a01b03808916928a821692918616917fc3d58168c5ae7397731d063d5bbf3d657854427343f4c083240f7aacaa2d0f62910160405180910390a4611e11828888888888612418565b50505050505050565b60655460ff1615611e3d5760405162461bcd60e51b8152600401610536906131a4565b6065805460ff191660011790557f62e78cea01bee320cd4e420270b5ea74000d11b0c9f74754ebdbfc544b05a258611e723390565b6040516001600160a01b03909116815260200160405180910390a1565b60655460ff16611ed85760405162461bcd60e51b815260206004820152601460248201527314185d5cd8589b194e881b9bdd081c185d5cd95960621b6044820152606401610536565b6065805460ff191690557f5db9ee0a495bf2e6ff9c91a7834c1ba4fdd244a5e8aa4e537bd38aeae4b073aa33611e72565b6001600160a01b038416611f2f5760405162461bcd60e51b8152600401610536906134e1565b8151835114611f505760405162461bcd60e51b8152600401610536906133e5565b3360005b8451811015611fee57838181518110611f6f57611f6f613131565b602002602001015161012e6000878481518110611f8e57611f8e613131565b602002602001015181526020019081526020016000206000886001600160a01b03166001600160a01b031681526020019081526020016000206000828254611fd691906131ce565b90915550819050611fe68161315d565b915050611f54565b50846001600160a01b031660006001600160a01b0316826001600160a01b03167f4a39dc06d4c0dbc64b70af90fd698a233a518aa5d07e595d983b8c0526c8f7fb878760405161203f9291906134bc565b60405180910390a461088e8160008787878761214d565b6001600160a01b03841661207c5760405162461bcd60e51b8152600401610536906134e1565b3361208d81600087611d24886122b8565b600084815261012e602090815260408083206001600160a01b0389168452909152812080548592906120c09084906131ce565b909155505060408051858152602081018590526001600160a01b0380881692600092918516917fc3d58168c5ae7397731d063d5bbf3d657854427343f4c083240f7aacaa2d0f62910160405180910390a461088e81600087878787612418565b606081602001516040516020016121379190613522565b6040516020818303038152906040529050919050565b6001600160a01b0384163b156110645760405163bc197c8160e01b81526001600160a01b0385169063bc197c819061219190899089908890889088906004016135f6565b602060405180830381600087803b1580156121ab57600080fd5b505af19250505080156121db575060408051601f3d908101601f191682019092526121d891810190613654565b60015b612288576121e7613671565b806308c379a0141561222157506121fc61368d565b806122075750612223565b8060405162461bcd60e51b8152600401610536919061281d565b505b60405162461bcd60e51b815260206004820152603460248201527f455243313135353a207472616e7366657220746f206e6f6e20455243313135356044820152732932b1b2b4bb32b91034b6b83632b6b2b73a32b960611b6064820152608401610536565b6001600160e01b0319811663bc197c8160e01b14611e115760405162461bcd60e51b815260040161053690613716565b604080516001808252818301909252606091600091906020808301908036833701905050905082816000815181106122f2576122f2613131565b602090810291909101015292915050565b600054610100900460ff1661232a5760405162461bcd60e51b81526004016105369061375e565b6123326124e2565b61233a6124e2565b610dab81612509565b600054610100900460ff1661235e5760005460ff1615612362565b303b155b61237e5760405162461bcd60e51b81526004016105369061322c565b600054610100900460ff161580156123a0576000805461ffff19166101011790555b610d99612539565b600054610100900460ff166123c35760005460ff16156123c7565b303b155b6123e35760405162461bcd60e51b81526004016105369061322c565b600054610100900460ff16158015610d99576000805461ffff19166101011790558015610dab576000805461ff001916905550565b6001600160a01b0384163b156110645760405163f23a6e6160e01b81526001600160a01b0385169063f23a6e619061245c90899089908890889088906004016137a9565b602060405180830381600087803b15801561247657600080fd5b505af19250505080156124a6575060408051601f3d908101601f191682019092526124a391810190613654565b60015b6124b2576121e7613671565b6001600160e01b0319811663f23a6e6160e01b14611e115760405162461bcd60e51b815260040161053690613716565b600054610100900460ff16610b885760405162461bcd60e51b81526004016105369061375e565b600054610100900460ff166125305760405162461bcd60e51b81526004016105369061375e565b610dab816125ae565b600054610100900460ff166125545760005460ff1615612558565b303b155b6125745760405162461bcd60e51b81526004016105369061322c565b600054610100900460ff16158015612596576000805461ffff19166101011790555b61259e6125c2565b6125a66125f9565b610d99611e1a565b8051610f0190610130906020840190612693565b600054610100900460ff166125e95760405162461bcd60e51b81526004016105369061375e565b6125f16124e2565b610b88612630565b600054610100900460ff166126205760405162461bcd60e51b81526004016105369061375e565b6126286124e2565b610b88612660565b600054610100900460ff166126575760405162461bcd60e51b81526004016105369061375e565b610b8833611958565b600054610100900460ff166126875760405162461bcd60e51b81526004016105369061375e565b6065805460ff19169055565b82805461269f90612ee4565b90600052602060002090601f0160209004810192826126c15760008555612707565b82601f106126da57805160ff1916838001178555612707565b82800160010185558215612707579182015b828111156127075782518255916020019190600101906126ec565b50612713929150612717565b5090565b5b808211156127135760008155600101612718565b80356001600160a01b038116811461274357600080fd5b919050565b6000806040838503121561275b57600080fd5b6127648361272c565b946020939093013593505050565b6001600160e01b031981168114610dab57600080fd5b60006020828403121561279a57600080fd5b81356127a581612772565b9392505050565b6000602082840312156127be57600080fd5b5035919050565b60005b838110156127e05781810151838201526020016127c8565b83811115610f815750506000910152565b600081518084526128098160208601602086016127c5565b601f01601f19169290920160200192915050565b6020815260006127a560208301846127f1565b60006020828403121561284257600080fd5b6127a58261272c565b634e487b7160e01b600052604160045260246000fd5b601f8201601f191681016001600160401b03811182821017156128865761288661284b565b6040525050565b60006001600160401b038211156128a6576128a661284b565b5060051b60200190565b600082601f8301126128c157600080fd5b813560206128ce8261288d565b6040516128db8282612861565b83815260059390931b85018201928281019150868411156128fb57600080fd5b8286015b8481101561291657803583529183019183016128ff565b509695505050505050565b600082601f83011261293257600080fd5b81356001600160401b0381111561294b5761294b61284b565b604051612962601f8301601f191660200182612861565b81815284602083860101111561297757600080fd5b816020850160208301376000918101602001919091529392505050565b600080600080600060a086880312156129ac57600080fd5b6129b58661272c565b94506129c36020870161272c565b935060408601356001600160401b03808211156129df57600080fd5b6129eb89838a016128b0565b94506060880135915080821115612a0157600080fd5b612a0d89838a016128b0565b93506080880135915080821115612a2357600080fd5b50612a3088828901612921565b9150509295509295909350565b60008083601f840112612a4f57600080fd5b5081356001600160401b03811115612a6657600080fd5b6020830191508360208260051b8501011115612a8157600080fd5b9250929050565b60008060208385031215612a9b57600080fd5b82356001600160401b03811115612ab157600080fd5b612abd85828601612a3d565b90969095509350505050565b60008060408385031215612adc57600080fd5b50508035926020909101359150565b60008060408385031215612afe57600080fd5b82356001600160401b0380821115612b1557600080fd5b818501915085601f830112612b2957600080fd5b81356020612b368261288d565b604051612b438282612861565b83815260059390931b8501820192828101915089841115612b6357600080fd5b948201945b83861015612b8857612b798661272c565b82529482019490820190612b68565b96505086013592505080821115612b9e57600080fd5b50612bab858286016128b0565b9150509250929050565b600081518084526020808501945080840160005b83811015612be557815187529582019590820190600101612bc9565b509495945050505050565b6020815260006127a56020830184612bb5565b600080600060608486031215612c1857600080fd5b8335925060208401359150612c2f6040850161272c565b90509250925092565b60008060408385031215612c4b57600080fd5b8235915060208301356001600160401b03811115612c6857600080fd5b830160408186031215612c7a57600080fd5b809150509250929050565b8035801515811461274357600080fd5b60008060408385031215612ca857600080fd5b612cb18361272c565b9150612cbf60208401612c85565b90509250929050565b60008060008060808587031215612cde57600080fd5b612ce78561272c565b9350612cf56020860161272c565b93969395505050506040820135916060013590565b60008060008060008060808789031215612d2357600080fd5b612d2c8761272c565b9550612d3a6020880161272c565b945060408701356001600160401b0380821115612d5657600080fd5b612d628a838b01612a3d565b90965094506060890135915080821115612d7b57600080fd5b50612d8889828a01612a3d565b979a9699509497509295939492505050565b600060208284031215612dac57600080fd5b6127a582612c85565b600080600060608486031215612dca57600080fd5b612dd38461272c565b925060208401356001600160401b0380821115612def57600080fd5b612dfb878388016128b0565b93506040860135915080821115612e1157600080fd5b50612e1e868287016128b0565b9150509250925092565b60008060408385031215612e3b57600080fd5b612e448361272c565b9150612cbf6020840161272c565b600080600080600060a08688031215612e6a57600080fd5b612e738661272c565b9450612e816020870161272c565b9350604086013592506060860135915060808601356001600160401b03811115612eaa57600080fd5b612a3088828901612921565b604081526000612ec960408301856127f1565b8281036020840152612edb81856127f1565b95945050505050565b600181811c90821680612ef857607f821691505b60208210811415612f1957634e487b7160e01b600052602260045260246000fd5b50919050565b693d913730b6b2911d101160b11b81528251600090612f4581600a8501602088016127c5565b7f222c20226465736372697074696f6e223a20224974656d73206561726e656420600a918401918201527f66726f6d2077697468696e207468652057697a61726473202620447261676f6e602a8201527f73206d65746176657273652e20416c6c20746865206d6574616461746120616e604a8201527f6420696d61676573206172652067656e65726174656420616e642073746f7265606a8201527f642031303025206f6e2d636861696e2e204e6f20495046532e204e4f20415049608a8201527f2e204a7573742074686520457468657265756d20626c6f636b636861696e2e2260aa8201527f2c2022696d616765223a2022646174613a696d6167652f7376672b786d6c3b6260ca82015265185cd94d8d0b60d21b60ea82015283516130758160f08401602088016127c5565b6130ad6130a060f08385010172222c202261747472696275746573223a205b5d60681b815260130190565b607d60f81b815260010190565b9695505050505050565b7f646174613a6170706c69636174696f6e2f6a736f6e3b6261736536342c0000008152600082516130ef81601d8501602087016127c5565b91909101601d0192915050565b6020808252818101527f4f776e61626c653a2063616c6c6572206973206e6f7420746865206f776e6572604082015260600190565b634e487b7160e01b600052603260045260246000fd5b634e487b7160e01b600052601160045260246000fd5b600060001982141561317157613171613147565b5060010190565b6020808252601290820152712737ba1030b236b4b71037b91037bbb732b960711b604082015260600190565b60208082526010908201526f14185d5cd8589b194e881c185d5cd95960821b604082015260600190565b600082198211156131e1576131e1613147565b500190565b6000808335601e198436030181126131fd57600080fd5b8301803591506001600160401b0382111561321757600080fd5b602001915036819003821315612a8157600080fd5b6020808252602e908201527f496e697469616c697a61626c653a20636f6e747261637420697320616c72656160408201526d191e481a5b9a5d1a585b1a5e995960921b606082015260800190565b60008282101561328c5761328c613147565b500390565b600082516132a38184602087016127c5565b9190910192915050565b7f3c7376672069643d22696d61676552656e646572222077696474683d2231303081527f2522206865696768743d2231303025222076657273696f6e3d22312e3122207660208201527f696577426f783d223020302034302034302220786d6c6e733d22687474703a2f60408201527f2f7777772e77332e6f72672f323030302f7376672220786d6c6e733a786c696e60608201527f6b3d22687474703a2f2f7777772e77332e6f72672f313939392f786c696e6b226080820152601f60f91b60a0820152600082516133878160a18501602087016127c5565b651e17b9bb339f60d11b60a193909101928301525060a701919050565b6000826133c157634e487b7160e01b600052601260045260246000fd5b500490565b60008160001904831182151516156133e0576133e0613147565b500290565b60208082526028908201527f455243313135353a2069647320616e6420616d6f756e7473206c656e677468206040820152670dad2e6dac2e8c6d60c31b606082015260800190565b60208082526025908201527f455243313135353a207472616e7366657220746f20746865207a65726f206164604082015264647265737360d81b606082015260800190565b6020808252602a908201527f455243313135353a20696e73756666696369656e742062616c616e636520666f60408201526939103a3930b739b332b960b11b606082015260800190565b6040815260006134cf6040830185612bb5565b8281036020840152612edb8185612bb5565b60208082526021908201527f455243313135353a206d696e7420746f20746865207a65726f206164647265736040820152607360f81b606082015260800190565b7f3c696d61676520783d22342220793d2234222077696474683d2233322220686581527f696768743d2233322220696d6167652d72656e646572696e673d22706978656c60208201527f6174656422207072657365727665417370656374526174696f3d22784d69645960408201527f4d69642220786c696e6b3a687265663d22646174613a696d6167652f706e673b60608201526618985cd94d8d0b60ca1b6080820152600082516135dc8160878501602087016127c5565b6211179f60e91b6087939091019283015250608a01919050565b6001600160a01b0386811682528516602082015260a06040820181905260009061362290830186612bb5565b82810360608401526136348186612bb5565b9050828103608084015261364881856127f1565b98975050505050505050565b60006020828403121561366657600080fd5b81516127a581612772565b600060033d111561368a5760046000803e5060005160e01c5b90565b600060443d101561369b5790565b6040516003193d81016004833e81513d6001600160401b0381602484011181841117156136ca57505050505090565b82850191508151818111156136e25750505050505090565b843d87010160208285010111156136fc5750505050505090565b61370b60208286010187612861565b509095945050505050565b60208082526028908201527f455243313135353a204552433131353552656365697665722072656a656374656040820152676420746f6b656e7360c01b606082015260800190565b6020808252602b908201527f496e697469616c697a61626c653a20636f6e7472616374206973206e6f74206960408201526a6e697469616c697a696e6760a81b606082015260800190565b6001600160a01b03868116825285166020820152604081018490526060810183905260a0608082018190526000906137e3908301846127f1565b97965050505050505056fe4142434445464748494a4b4c4d4e4f505152535455565758595a6162636465666768696a6b6c6d6e6f707172737475767778797a303132333435363738392b2fa2646970667358221220ac25ab1ab47eb8f2e931ae5e7609bab5ad9008eedf7a515dee56246cf034a3f264736f6c63430008090033",
  "devdoc": {
    "kind": "dev",
    "methods": {
      "balanceOf(address,uint256)": {
        "details": "See {IERC1155-balanceOf}. Requirements: - `account` cannot be the zero address."
      },
      "balanceOfBatch(address[],uint256[])": {
        "details": "See {IERC1155-balanceOfBatch}. Requirements: - `accounts` and `ids` must have the same length."
      },
      "isApprovedForAll(address,address)": {
        "details": "See {IERC1155-isApprovedForAll}."
      },
      "owner()": {
        "details": "Returns the address of the current owner."
      },
      "paused()": {
        "details": "Returns true if the contract is paused, and false otherwise."
      },
      "renounceOwnership()": {
        "details": "Leaves the contract without owner. It will not be possible to call `onlyOwner` functions anymore. Can only be called by the current owner. NOTE: Renouncing ownership will leave the contract without an owner, thereby removing any functionality that is only available to the owner."
      },
      "safeBatchTransferFrom(address,address,uint256[],uint256[],bytes)": {
        "details": "See {IERC1155-safeBatchTransferFrom}."
      },
      "safeTransferFrom(address,address,uint256,uint256,bytes)": {
        "details": "See {IERC1155-safeTransferFrom}."
      },
      "setApprovalForAll(address,bool)": {
        "details": "See {IERC1155-setApprovalForAll}."
      },
      "supportsInterface(bytes4)": {
        "details": "See {IERC165-supportsInterface}."
      },
      "transferOwnership(address)": {
        "details": "Transfers ownership of the contract to a new account (`newOwner`). Can only be called by the current owner."
      }
    },
    "version": 1
  },
  "userdoc": {
    "kind": "user",
    "methods": {},
    "version": 1
  },
  "storageLayout": {
    "storage": [
      {
        "astId": 2787,
        "contract": "contracts/wnd/tokens/consumables/Consumables.sol:Consumables",
        "label": "_initialized",
        "offset": 0,
        "slot": "0",
        "type": "t_bool"
      },
      {
        "astId": 2790,
        "contract": "contracts/wnd/tokens/consumables/Consumables.sol:Consumables",
        "label": "_initializing",
        "offset": 1,
        "slot": "0",
        "type": "t_bool"
      },
      {
        "astId": 6838,
        "contract": "contracts/wnd/tokens/consumables/Consumables.sol:Consumables",
        "label": "__gap",
        "offset": 0,
        "slot": "1",
        "type": "t_array(t_uint256)50_storage"
      },
      {
        "astId": 2665,
        "contract": "contracts/wnd/tokens/consumables/Consumables.sol:Consumables",
        "label": "_owner",
        "offset": 0,
        "slot": "51",
        "type": "t_address"
      },
      {
        "astId": 2779,
        "contract": "contracts/wnd/tokens/consumables/Consumables.sol:Consumables",
        "label": "__gap",
        "offset": 0,
        "slot": "52",
        "type": "t_array(t_uint256)49_storage"
      },
      {
        "astId": 2875,
        "contract": "contracts/wnd/tokens/consumables/Consumables.sol:Consumables",
        "label": "_paused",
        "offset": 0,
        "slot": "101",
        "type": "t_bool"
      },
      {
        "astId": 2966,
        "contract": "contracts/wnd/tokens/consumables/Consumables.sol:Consumables",
        "label": "__gap",
        "offset": 0,
        "slot": "102",
        "type": "t_array(t_uint256)49_storage"
      },
      {
        "astId": 12019,
        "contract": "contracts/wnd/tokens/consumables/Consumables.sol:Consumables",
        "label": "admins",
        "offset": 0,
        "slot": "151",
        "type": "t_mapping(t_address,t_bool)"
      },
      {
        "astId": 12179,
        "contract": "contracts/wnd/tokens/consumables/Consumables.sol:Consumables",
        "label": "__gap",
        "offset": 0,
        "slot": "152",
        "type": "t_array(t_uint256)50_storage"
      },
      {
        "astId": 12243,
        "contract": "contracts/wnd/tokens/consumables/Consumables.sol:Consumables",
        "label": "__gap",
        "offset": 0,
        "slot": "202",
        "type": "t_array(t_uint256)50_storage"
      },
      {
        "astId": 7087,
        "contract": "contracts/wnd/tokens/consumables/Consumables.sol:Consumables",
        "label": "__gap",
        "offset": 0,
        "slot": "252",
        "type": "t_array(t_uint256)50_storage"
      },
      {
        "astId": 2996,
        "contract": "contracts/wnd/tokens/consumables/Consumables.sol:Consumables",
        "label": "_balances",
        "offset": 0,
        "slot": "302",
        "type": "t_mapping(t_uint256,t_mapping(t_address,t_uint256))"
      },
      {
        "astId": 3002,
        "contract": "contracts/wnd/tokens/consumables/Consumables.sol:Consumables",
        "label": "_operatorApprovals",
        "offset": 0,
        "slot": "303",
        "type": "t_mapping(t_address,t_mapping(t_address,t_bool))"
      },
      {
        "astId": 3004,
        "contract": "contracts/wnd/tokens/consumables/Consumables.sol:Consumables",
        "label": "_uri",
        "offset": 0,
        "slot": "304",
        "type": "t_string_storage"
      },
      {
        "astId": 4089,
        "contract": "contracts/wnd/tokens/consumables/Consumables.sol:Consumables",
        "label": "__gap",
        "offset": 0,
        "slot": "305",
        "type": "t_array(t_uint256)47_storage"
      },
      {
        "astId": 13000,
        "contract": "contracts/wnd/tokens/consumables/Consumables.sol:Consumables",
        "label": "traitData",
        "offset": 0,
        "slot": "352",
        "type": "t_mapping(t_uint256,t_struct(Image)12995_storage)"
      },
      {
        "astId": 13090,
        "contract": "contracts/wnd/tokens/consumables/Consumables.sol:Consumables",
        "label": "__gap",
        "offset": 0,
        "slot": "353",
        "type": "t_array(t_uint256)50_storage"
      },
      {
        "astId": 18833,
        "contract": "contracts/wnd/tokens/consumables/Consumables.sol:Consumables",
        "label": "typeInfo",
        "offset": 0,
        "slot": "403",
        "type": "t_mapping(t_uint256,t_struct(TypeInfo)18828_storage)"
      }
    ],
    "types": {
      "t_address": {
        "encoding": "inplace",
        "label": "address",
        "numberOfBytes": "20"
      },
      "t_array(t_uint256)47_storage": {
        "base": "t_uint256",
        "encoding": "inplace",
        "label": "uint256[47]",
        "numberOfBytes": "1504"
      },
      "t_array(t_uint256)49_storage": {
        "base": "t_uint256",
        "encoding": "inplace",
        "label": "uint256[49]",
        "numberOfBytes": "1568"
      },
      "t_array(t_uint256)50_storage": {
        "base": "t_uint256",
        "encoding": "inplace",
        "label": "uint256[50]",
        "numberOfBytes": "1600"
      },
      "t_bool": {
        "encoding": "inplace",
        "label": "bool",
        "numberOfBytes": "1"
      },
      "t_mapping(t_address,t_bool)": {
        "encoding": "mapping",
        "key": "t_address",
        "label": "mapping(address => bool)",
        "numberOfBytes": "32",
        "value": "t_bool"
      },
      "t_mapping(t_address,t_mapping(t_address,t_bool))": {
        "encoding": "mapping",
        "key": "t_address",
        "label": "mapping(address => mapping(address => bool))",
        "numberOfBytes": "32",
        "value": "t_mapping(t_address,t_bool)"
      },
      "t_mapping(t_address,t_uint256)": {
        "encoding": "mapping",
        "key": "t_address",
        "label": "mapping(address => uint256)",
        "numberOfBytes": "32",
        "value": "t_uint256"
      },
      "t_mapping(t_uint256,t_mapping(t_address,t_uint256))": {
        "encoding": "mapping",
        "key": "t_uint256",
        "label": "mapping(uint256 => mapping(address => uint256))",
        "numberOfBytes": "32",
        "value": "t_mapping(t_address,t_uint256)"
      },
      "t_mapping(t_uint256,t_struct(Image)12995_storage)": {
        "encoding": "mapping",
        "key": "t_uint256",
        "label": "mapping(uint256 => struct ERC1155OnChainBaseUpgradeable.Image)",
        "numberOfBytes": "32",
        "value": "t_struct(Image)12995_storage"
      },
      "t_mapping(t_uint256,t_struct(TypeInfo)18828_storage)": {
        "encoding": "mapping",
        "key": "t_uint256",
        "label": "mapping(uint256 => struct ConsumablesState.TypeInfo)",
        "numberOfBytes": "32",
        "value": "t_struct(TypeInfo)18828_storage"
      },
      "t_string_storage": {
        "encoding": "bytes",
        "label": "string",
        "numberOfBytes": "32"
      },
      "t_struct(Image)12995_storage": {
        "encoding": "inplace",
        "label": "struct ERC1155OnChainBaseUpgradeable.Image",
        "members": [
          {
            "astId": 12992,
            "contract": "contracts/wnd/tokens/consumables/Consumables.sol:Consumables",
            "label": "name",
            "offset": 0,
            "slot": "0",
            "type": "t_string_storage"
          },
          {
            "astId": 12994,
            "contract": "contracts/wnd/tokens/consumables/Consumables.sol:Consumables",
            "label": "png",
            "offset": 0,
            "slot": "1",
            "type": "t_string_storage"
          }
        ],
        "numberOfBytes": "64"
      },
      "t_struct(TypeInfo)18828_storage": {
        "encoding": "inplace",
        "label": "struct ConsumablesState.TypeInfo",
        "members": [
          {
            "astId": 18823,
            "contract": "contracts/wnd/tokens/consumables/Consumables.sol:Consumables",
            "label": "mints",
            "offset": 0,
            "slot": "0",
            "type": "t_uint256"
          },
          {
            "astId": 18825,
            "contract": "contracts/wnd/tokens/consumables/Consumables.sol:Consumables",
            "label": "burns",
            "offset": 0,
            "slot": "1",
            "type": "t_uint256"
          },
          {
            "astId": 18827,
            "contract": "contracts/wnd/tokens/consumables/Consumables.sol:Consumables",
            "label": "maxSupply",
            "offset": 0,
            "slot": "2",
            "type": "t_uint256"
          }
        ],
        "numberOfBytes": "96"
      },
      "t_uint256": {
        "encoding": "inplace",
        "label": "uint256",
        "numberOfBytes": "32"
      }
    }
  }
}