{
  "address": "0xE5A69ab83D722b5779eCaD4658402c2d8422fAB6",
  "abi": [
    {
      "anonymous": false,
      "inputs": [
        {
          "indexed": true,
          "internalType": "address",
          "name": "owner",
          "type": "address"
        },
        {
          "indexed": true,
          "internalType": "address",
          "name": "spender",
          "type": "address"
        },
        {
          "indexed": false,
          "internalType": "uint256",
          "name": "value",
          "type": "uint256"
        }
      ],
      "name": "Approval",
      "type": "event"
    },
    {
      "anonymous": false,
      "inputs": [
        {
          "indexed": true,
          "internalType": "address",
          "name": "previousOwner",
          "type": "address"
        },
        {
          "indexed": true,
          "internalType": "address",
          "name": "newOwner",
          "type": "address"
        }
      ],
      "name": "OwnershipTransferred",
      "type": "event"
    },
    {
      "anonymous": false,
      "inputs": [
        {
          "indexed": false,
          "internalType": "address",
          "name": "account",
          "type": "address"
        }
      ],
      "name": "Paused",
      "type": "event"
    },
    {
      "anonymous": false,
      "inputs": [
        {
          "indexed": true,
          "internalType": "address",
          "name": "from",
          "type": "address"
        },
        {
          "indexed": true,
          "internalType": "address",
          "name": "to",
          "type": "address"
        },
        {
          "indexed": false,
          "internalType": "uint256",
          "name": "value",
          "type": "uint256"
        }
      ],
      "name": "Transfer",
      "type": "event"
    },
    {
      "anonymous": false,
      "inputs": [
        {
          "indexed": false,
          "internalType": "address",
          "name": "account",
          "type": "address"
        }
      ],
      "name": "Unpaused",
      "type": "event"
    },
    {
      "inputs": [
        {
          "internalType": "address",
          "name": "_address",
          "type": "address"
        }
      ],
      "name": "addAdmin",
      "outputs": [],
      "stateMutability": "nonpayable",
      "type": "function"
    },
    {
      "inputs": [
        {
          "internalType": "address[]",
          "name": "_addresses",
          "type": "address[]"
        }
      ],
      "name": "addAdmins",
      "outputs": [],
      "stateMutability": "nonpayable",
      "type": "function"
    },
    {
      "inputs": [
        {
          "internalType": "address",
          "name": "owner",
          "type": "address"
        },
        {
          "internalType": "address",
          "name": "spender",
          "type": "address"
        }
      ],
      "name": "allowance",
      "outputs": [
        {
          "internalType": "uint256",
          "name": "",
          "type": "uint256"
        }
      ],
      "stateMutability": "view",
      "type": "function"
    },
    {
      "inputs": [
        {
          "internalType": "address",
          "name": "spender",
          "type": "address"
        },
        {
          "internalType": "uint256",
          "name": "amount",
          "type": "uint256"
        }
      ],
      "name": "approve",
      "outputs": [
        {
          "internalType": "bool",
          "name": "",
          "type": "bool"
        }
      ],
      "stateMutability": "nonpayable",
      "type": "function"
    },
    {
      "inputs": [
        {
          "internalType": "address",
          "name": "account",
          "type": "address"
        }
      ],
      "name": "balanceOf",
      "outputs": [
        {
          "internalType": "uint256",
          "name": "",
          "type": "uint256"
        }
      ],
      "stateMutability": "view",
      "type": "function"
    },
    {
      "inputs": [
        {
          "internalType": "address",
          "name": "from",
          "type": "address"
        },
        {
          "internalType": "uint256",
          "name": "amount",
          "type": "uint256"
        }
      ],
      "name": "burn",
      "outputs": [],
      "stateMutability": "nonpayable",
      "type": "function"
    },
    {
      "inputs": [],
      "name": "decimals",
      "outputs": [
        {
          "internalType": "uint8",
          "name": "",
          "type": "uint8"
        }
      ],
      "stateMutability": "view",
      "type": "function"
    },
    {
      "inputs": [
        {
          "internalType": "address",
          "name": "spender",
          "type": "address"
        },
        {
          "internalType": "uint256",
          "name": "subtractedValue",
          "type": "uint256"
        }
      ],
      "name": "decreaseAllowance",
      "outputs": [
        {
          "internalType": "bool",
          "name": "",
          "type": "bool"
        }
      ],
      "stateMutability": "nonpayable",
      "type": "function"
    },
    {
      "inputs": [
        {
          "internalType": "address",
          "name": "spender",
          "type": "address"
        },
        {
          "internalType": "uint256",
          "name": "addedValue",
          "type": "uint256"
        }
      ],
      "name": "increaseAllowance",
      "outputs": [
        {
          "internalType": "bool",
          "name": "",
          "type": "bool"
        }
      ],
      "stateMutability": "nonpayable",
      "type": "function"
    },
    {
      "inputs": [],
      "name": "initialize",
      "outputs": [],
      "stateMutability": "nonpayable",
      "type": "function"
    },
    {
      "inputs": [
        {
          "internalType": "address",
          "name": "_address",
          "type": "address"
        }
      ],
      "name": "isAdmin",
      "outputs": [
        {
          "internalType": "bool",
          "name": "",
          "type": "bool"
        }
      ],
      "stateMutability": "view",
      "type": "function"
    },
    {
      "inputs": [
        {
          "internalType": "address",
          "name": "to",
          "type": "address"
        },
        {
          "internalType": "uint256",
          "name": "amount",
          "type": "uint256"
        }
      ],
      "name": "mint",
      "outputs": [],
      "stateMutability": "nonpayable",
      "type": "function"
    },
    {
      "inputs": [],
      "name": "name",
      "outputs": [
        {
          "internalType": "string",
          "name": "",
          "type": "string"
        }
      ],
      "stateMutability": "view",
      "type": "function"
    },
    {
      "inputs": [],
      "name": "owner",
      "outputs": [
        {
          "internalType": "address",
          "name": "",
          "type": "address"
        }
      ],
      "stateMutability": "view",
      "type": "function"
    },
    {
      "inputs": [],
      "name": "paused",
      "outputs": [
        {
          "internalType": "bool",
          "name": "",
          "type": "bool"
        }
      ],
      "stateMutability": "view",
      "type": "function"
    },
    {
      "inputs": [
        {
          "internalType": "address",
          "name": "_address",
          "type": "address"
        }
      ],
      "name": "removeAdmin",
      "outputs": [],
      "stateMutability": "nonpayable",
      "type": "function"
    },
    {
      "inputs": [
        {
          "internalType": "address[]",
          "name": "_addresses",
          "type": "address[]"
        }
      ],
      "name": "removeAdmins",
      "outputs": [],
      "stateMutability": "nonpayable",
      "type": "function"
    },
    {
      "inputs": [],
      "name": "renounceOwnership",
      "outputs": [],
      "stateMutability": "nonpayable",
      "type": "function"
    },
    {
      "inputs": [
        {
          "internalType": "bool",
          "name": "_shouldPause",
          "type": "bool"
        }
      ],
      "name": "setPause",
      "outputs": [],
      "stateMutability": "nonpayable",
      "type": "function"
    },
    {
      "inputs": [],
      "name": "symbol",
      "outputs": [
        {
          "internalType": "string",
          "name": "",
          "type": "string"
        }
      ],
      "stateMutability": "view",
      "type": "function"
    },
    {
      "inputs": [],
      "name": "totalSupply",
      "outputs": [
        {
          "internalType": "uint256",
          "name": "",
          "type": "uint256"
        }
      ],
      "stateMutability": "view",
      "type": "function"
    },
    {
      "inputs": [
        {
          "internalType": "address",
          "name": "recipient",
          "type": "address"
        },
        {
          "internalType": "uint256",
          "name": "amount",
          "type": "uint256"
        }
      ],
      "name": "transfer",
      "outputs": [
        {
          "internalType": "bool",
          "name": "",
          "type": "bool"
        }
      ],
      "stateMutability": "nonpayable",
      "type": "function"
    },
    {
      "inputs": [
        {
          "internalType": "address",
          "name": "sender",
          "type": "address"
        },
        {
          "internalType": "address",
          "name": "recipient",
          "type": "address"
        },
        {
          "internalType": "uint256",
          "name": "amount",
          "type": "uint256"
        }
      ],
      "name": "transferFrom",
      "outputs": [
        {
          "internalType": "bool",
          "name": "",
          "type": "bool"
        }
      ],
      "stateMutability": "nonpayable",
      "type": "function"
    },
    {
      "inputs": [
        {
          "internalType": "address",
          "name": "newOwner",
          "type": "address"
        }
      ],
      "name": "transferOwnership",
      "outputs": [],
      "stateMutability": "nonpayable",
      "type": "function"
    }
  ],
  "transactionHash": "0xef23804868806248cd43ebbe9419547cb083ea9315a47e8f2c58cbc2dfa1686f",
  "args": [],
  "numDeployments": 1,
  "solcInputHash": "b27224762b700ac3dafd5126496854c7",
  "bytecode": "0x608060405234801561001057600080fd5b506117cd806100206000396000f3fe608060405234801561001057600080fd5b50600436106101585760003560e01c806370a08231116100c35780639dc29fac1161007c5780639dc29fac146102d9578063a457c2d7146102ec578063a9059cbb146102ff578063bedb86fb14610312578063dd62ed3e14610325578063f2fde38b1461035e57600080fd5b806370a082311461026a578063715018a6146102935780638129fc1c1461029b5780638da5cb5b146102a357806395d89b41146102be5780639c54df64146102c657600080fd5b8063313ce56711610115578063313ce56714610204578063377e11e014610213578063395093511461022657806340c10f19146102395780635c975abb1461024c578063704802751461025757600080fd5b806306fdde031461015d578063095ea7b31461017b5780631785f53c1461019e57806318160ddd146101b357806323b872dd146101c557806324d7806c146101d8575b600080fd5b610165610371565b6040516101729190611430565b60405180910390f35b61018e6101893660046114a1565b610403565b6040519015158152602001610172565b6101b16101ac3660046114cb565b610419565b005b60cc545b604051908152602001610172565b61018e6101d33660046114e6565b61046d565b61018e6101e63660046114cb565b6001600160a01b031660009081526097602052604090205460ff1690565b60405160128152602001610172565b6101b1610221366004611522565b6104a5565b61018e6102343660046114a1565b610546565b6101b16102473660046114a1565b610582565b60655460ff1661018e565b6101b16102653660046114cb565b6105cd565b6101b76102783660046114cb565b6001600160a01b0316600090815260ca602052604090205490565b6101b161061b565b6101b1610651565b6033546040516001600160a01b039091168152602001610172565b610165610709565b6101b16102d4366004611522565b610718565b6101b16102e73660046114a1565b6107b4565b61018e6102fa3660046114a1565b6107fb565b61018e61030d3660046114a1565b610894565b6101b1610320366004611597565b6108a1565b6101b76103333660046115b9565b6001600160a01b03918216600090815260cb6020908152604080832093909416825291909152205490565b6101b161036c3660046114cb565b6108f4565b606060cd8054610380906115ec565b80601f01602080910402602001604051908101604052809291908181526020018280546103ac906115ec565b80156103f95780601f106103ce576101008083540402835291602001916103f9565b820191906000526020600020905b8154815290600101906020018083116103dc57829003601f168201915b5050505050905090565b600061041033848461098c565b50600192915050565b6033546001600160a01b0316331461044c5760405162461bcd60e51b815260040161044390611627565b60405180910390fd5b6001600160a01b03166000908152609760205260409020805460ff19169055565b6000610478336101e6565b1561049057610488848484610ab0565b50600161049e565b61049b848484610c7f565b90505b9392505050565b6033546001600160a01b031633146104cf5760405162461bcd60e51b815260040161044390611627565b60005b81811015610541576000609760008585858181106104f2576104f261165c565b905060200201602081019061050791906114cb565b6001600160a01b031681526020810191909152604001600020805460ff19169115159190911790558061053981611688565b9150506104d2565b505050565b33600081815260cb602090815260408083206001600160a01b0387168452909152812054909161041091859061057d9086906116a3565b61098c565b3360009081526097602052604090205460ff16806105a357506105a3610d29565b6105bf5760405162461bcd60e51b8152600401610443906116bb565b6105c98282610d4d565b5050565b6033546001600160a01b031633146105f75760405162461bcd60e51b815260040161044390611627565b6001600160a01b03166000908152609760205260409020805460ff19166001179055565b6033546001600160a01b031633146106455760405162461bcd60e51b815260040161044390611627565b61064f6000610e2c565b565b600054610100900460ff1661066c5760005460ff1615610670565b303b155b61068c5760405162461bcd60e51b8152600401610443906116e7565b600054610100900460ff161580156106ae576000805461ffff19166101011790555b6106ec60405180604001604052806002815260200161047560f41b81525060405180604001604052806002815260200161047560f41b815250610e7e565b6106f4610eb7565b8015610706576000805461ff00191690555b50565b606060ce8054610380906115ec565b6033546001600160a01b031633146107425760405162461bcd60e51b815260040161044390611627565b60005b81811015610541576001609760008585858181106107655761076561165c565b905060200201602081019061077a91906114cb565b6001600160a01b031681526020810191909152604001600020805460ff1916911515919091179055806107ac81611688565b915050610745565b3360009081526097602052604090205460ff16806107d557506107d5610d29565b6107f15760405162461bcd60e51b8152600401610443906116bb565b6105c98282610f1c565b33600090815260cb602090815260408083206001600160a01b03861684529091528120548281101561087d5760405162461bcd60e51b815260206004820152602560248201527f45524332303a2064656372656173656420616c6c6f77616e63652062656c6f77604482015264207a65726f60d81b6064820152608401610443565b61088a338585840361098c565b5060019392505050565b6000610410338484610ab0565b3360009081526097602052604090205460ff16806108c257506108c2610d29565b6108de5760405162461bcd60e51b8152600401610443906116bb565b80156108ec5761070661106a565b610706611102565b6033546001600160a01b0316331461091e5760405162461bcd60e51b815260040161044390611627565b6001600160a01b0381166109835760405162461bcd60e51b815260206004820152602660248201527f4f776e61626c653a206e6577206f776e657220697320746865207a65726f206160448201526564647265737360d01b6064820152608401610443565b61070681610e2c565b6001600160a01b0383166109ee5760405162461bcd60e51b8152602060048201526024808201527f45524332303a20617070726f76652066726f6d20746865207a65726f206164646044820152637265737360e01b6064820152608401610443565b6001600160a01b038216610a4f5760405162461bcd60e51b815260206004820152602260248201527f45524332303a20617070726f766520746f20746865207a65726f206164647265604482015261737360f01b6064820152608401610443565b6001600160a01b03838116600081815260cb602090815260408083209487168084529482529182902085905590518481527f8c5be1e5ebec7d5bd14f71427d1e84f3dd0314c0f7b2291e5b200ac8c7c3b925910160405180910390a3505050565b6001600160a01b038316610b145760405162461bcd60e51b815260206004820152602560248201527f45524332303a207472616e736665722066726f6d20746865207a65726f206164604482015264647265737360d81b6064820152608401610443565b6001600160a01b038216610b765760405162461bcd60e51b815260206004820152602360248201527f45524332303a207472616e7366657220746f20746865207a65726f206164647260448201526265737360e81b6064820152608401610443565b6001600160a01b038316600090815260ca602052604090205481811015610bee5760405162461bcd60e51b815260206004820152602660248201527f45524332303a207472616e7366657220616d6f756e7420657863656564732062604482015265616c616e636560d01b6064820152608401610443565b6001600160a01b03808516600090815260ca6020526040808220858503905591851681529081208054849290610c259084906116a3565b92505081905550826001600160a01b0316846001600160a01b03167fddf252ad1be2c89b69c2b068fc378daa952ba7f163c4a11628f55a4df523b3ef84604051610c7191815260200190565b60405180910390a350505050565b6000610c8c848484610ab0565b6001600160a01b038416600090815260cb6020908152604080832033845290915290205482811015610d115760405162461bcd60e51b815260206004820152602860248201527f45524332303a207472616e7366657220616d6f756e74206578636565647320616044820152676c6c6f77616e636560c01b6064820152608401610443565b610d1e853385840361098c565b506001949350505050565b600033610d3e6033546001600160a01b031690565b6001600160a01b031614905090565b6001600160a01b038216610da35760405162461bcd60e51b815260206004820152601f60248201527f45524332303a206d696e7420746f20746865207a65726f2061646472657373006044820152606401610443565b8060cc6000828254610db591906116a3565b90915550506001600160a01b038216600090815260ca602052604081208054839290610de29084906116a3565b90915550506040518181526001600160a01b038316906000907fddf252ad1be2c89b69c2b068fc378daa952ba7f163c4a11628f55a4df523b3ef9060200160405180910390a35050565b603380546001600160a01b038381166001600160a01b0319831681179093556040519116919082907f8be0079c531659141344cd1fd0a4f28419497f9722a3daafe3b4186f6b6457e090600090a35050565b600054610100900460ff16610ea55760405162461bcd60e51b815260040161044390611735565b610ead61117c565b6105c982826111a3565b600054610100900460ff16610ed25760005460ff1615610ed6565b303b155b610ef25760405162461bcd60e51b8152600401610443906116e7565b600054610100900460ff16158015610f14576000805461ffff19166101011790555b6106f46111f1565b6001600160a01b038216610f7c5760405162461bcd60e51b815260206004820152602160248201527f45524332303a206275726e2066726f6d20746865207a65726f206164647265736044820152607360f81b6064820152608401610443565b6001600160a01b038216600090815260ca602052604090205481811015610ff05760405162461bcd60e51b815260206004820152602260248201527f45524332303a206275726e20616d6f756e7420657863656564732062616c616e604482015261636560f01b6064820152608401610443565b6001600160a01b038316600090815260ca60205260408120838303905560cc805484929061101f908490611780565b90915550506040518281526000906001600160a01b038516907fddf252ad1be2c89b69c2b068fc378daa952ba7f163c4a11628f55a4df523b3ef9060200160405180910390a3505050565b60655460ff16156110b05760405162461bcd60e51b815260206004820152601060248201526f14185d5cd8589b194e881c185d5cd95960821b6044820152606401610443565b6065805460ff191660011790557f62e78cea01bee320cd4e420270b5ea74000d11b0c9f74754ebdbfc544b05a2586110e53390565b6040516001600160a01b03909116815260200160405180910390a1565b60655460ff1661114b5760405162461bcd60e51b815260206004820152601460248201527314185d5cd8589b194e881b9bdd081c185d5cd95960621b6044820152606401610443565b6065805460ff191690557f5db9ee0a495bf2e6ff9c91a7834c1ba4fdd244a5e8aa4e537bd38aeae4b073aa336110e5565b600054610100900460ff1661064f5760405162461bcd60e51b815260040161044390611735565b600054610100900460ff166111ca5760405162461bcd60e51b815260040161044390611735565b81516111dd9060cd906020850190611397565b5080516105419060ce906020840190611397565b600054610100900460ff1661120c5760005460ff1615611210565b303b155b61122c5760405162461bcd60e51b8152600401610443906116e7565b600054610100900460ff1615801561124e576000805461ffff19166101011790555b6106f4600054610100900460ff1661126c5760005460ff1615611270565b303b155b61128c5760405162461bcd60e51b8152600401610443906116e7565b600054610100900460ff161580156112ae576000805461ffff19166101011790555b6112b66112c6565b6112be6112fd565b6106f461106a565b600054610100900460ff166112ed5760405162461bcd60e51b815260040161044390611735565b6112f561117c565b61064f611334565b600054610100900460ff166113245760405162461bcd60e51b815260040161044390611735565b61132c61117c565b61064f611364565b600054610100900460ff1661135b5760405162461bcd60e51b815260040161044390611735565b61064f33610e2c565b600054610100900460ff1661138b5760405162461bcd60e51b815260040161044390611735565b6065805460ff19169055565b8280546113a3906115ec565b90600052602060002090601f0160209004810192826113c5576000855561140b565b82601f106113de57805160ff191683800117855561140b565b8280016001018555821561140b579182015b8281111561140b5782518255916020019190600101906113f0565b5061141792915061141b565b5090565b5b80821115611417576000815560010161141c565b600060208083528351808285015260005b8181101561145d57858101830151858201604001528201611441565b8181111561146f576000604083870101525b50601f01601f1916929092016040019392505050565b80356001600160a01b038116811461149c57600080fd5b919050565b600080604083850312156114b457600080fd5b6114bd83611485565b946020939093013593505050565b6000602082840312156114dd57600080fd5b61049e82611485565b6000806000606084860312156114fb57600080fd5b61150484611485565b925061151260208501611485565b9150604084013590509250925092565b6000806020838503121561153557600080fd5b823567ffffffffffffffff8082111561154d57600080fd5b818501915085601f83011261156157600080fd5b81358181111561157057600080fd5b8660208260051b850101111561158557600080fd5b60209290920196919550909350505050565b6000602082840312156115a957600080fd5b8135801515811461049e57600080fd5b600080604083850312156115cc57600080fd5b6115d583611485565b91506115e360208401611485565b90509250929050565b600181811c9082168061160057607f821691505b6020821081141561162157634e487b7160e01b600052602260045260246000fd5b50919050565b6020808252818101527f4f776e61626c653a2063616c6c6572206973206e6f7420746865206f776e6572604082015260600190565b634e487b7160e01b600052603260045260246000fd5b634e487b7160e01b600052601160045260246000fd5b600060001982141561169c5761169c611672565b5060010190565b600082198211156116b6576116b6611672565b500190565b6020808252601290820152712737ba1030b236b4b71037b91037bbb732b960711b604082015260600190565b6020808252602e908201527f496e697469616c697a61626c653a20636f6e747261637420697320616c72656160408201526d191e481a5b9a5d1a585b1a5e995960921b606082015260800190565b6020808252602b908201527f496e697469616c697a61626c653a20636f6e7472616374206973206e6f74206960408201526a6e697469616c697a696e6760a81b606082015260800190565b60008282101561179257611792611672565b50039056fea2646970667358221220ed1ee4735ae60dfac0aedb048906b27c225e072582c70cba5a9a5e025fe14e2464736f6c63430008090033",
  "devdoc": {
    "kind": "dev",
    "methods": {
      "allowance(address,address)": {
        "details": "See {IERC20-allowance}."
      },
      "approve(address,uint256)": {
        "details": "See {IERC20-approve}. Requirements: - `spender` cannot be the zero address."
      },
      "burn(address,uint256)": {
        "params": {
          "amount": "the amount of $GP to burn",
          "from": "the holder of the $GP"
        }
      },
      "decimals()": {
        "details": "Returns the number of decimals used to get its user representation. For example, if `decimals` equals `2`, a balance of `505` tokens should be displayed to a user as `5.05` (`505 / 10 ** 2`). Tokens usually opt for a value of 18, imitating the relationship between Ether and Wei. This is the value {ERC20} uses, unless this function is overridden; NOTE: This information is only used for _display_ purposes: it in no way affects any of the arithmetic of the contract, including {IERC20-balanceOf} and {IERC20-transfer}."
      },
      "decreaseAllowance(address,uint256)": {
        "details": "Atomically decreases the allowance granted to `spender` by the caller. This is an alternative to {approve} that can be used as a mitigation for problems described in {IERC20-approve}. Emits an {Approval} event indicating the updated allowance. Requirements: - `spender` cannot be the zero address. - `spender` must have allowance for the caller of at least `subtractedValue`."
      },
      "increaseAllowance(address,uint256)": {
        "details": "Atomically increases the allowance granted to `spender` by the caller. This is an alternative to {approve} that can be used as a mitigation for problems described in {IERC20-approve}. Emits an {Approval} event indicating the updated allowance. Requirements: - `spender` cannot be the zero address."
      },
      "mint(address,uint256)": {
        "params": {
          "amount": "the amount of $GP to mint",
          "to": "the recipient of the $GP"
        }
      },
      "name()": {
        "details": "Returns the name of the token."
      },
      "owner()": {
        "details": "Returns the address of the current owner."
      },
      "paused()": {
        "details": "Returns true if the contract is paused, and false otherwise."
      },
      "renounceOwnership()": {
        "details": "Leaves the contract without owner. It will not be possible to call `onlyOwner` functions anymore. Can only be called by the current owner. NOTE: Renouncing ownership will leave the contract without an owner, thereby removing any functionality that is only available to the owner."
      },
      "symbol()": {
        "details": "Returns the symbol of the token, usually a shorter version of the name."
      },
      "totalSupply()": {
        "details": "See {IERC20-totalSupply}."
      },
      "transfer(address,uint256)": {
        "details": "See {IERC20-transfer}. Requirements: - `recipient` cannot be the zero address. - the caller must have a balance of at least `amount`."
      },
      "transferFrom(address,address,uint256)": {
        "details": "See {IERC20-transferFrom}. Emits an {Approval} event indicating the updated allowance. This is not required by the EIP. See the note at the beginning of {ERC20}. Requirements: - `sender` and `recipient` cannot be the zero address. - `sender` must have a balance of at least `amount`. - the caller must have allowance for ``sender``'s tokens of at least `amount`."
      },
      "transferOwnership(address)": {
        "details": "Transfers ownership of the contract to a new account (`newOwner`). Can only be called by the current owner."
      }
    },
    "version": 1
  },
  "userdoc": {
    "kind": "user",
    "methods": {
      "burn(address,uint256)": {
        "notice": "burns $GP from a holder"
      },
      "mint(address,uint256)": {
        "notice": "mints $GP to a recipient"
      }
    },
    "version": 1
  },
  "storageLayout": {
    "storage": [
      {
        "astId": 2787,
        "contract": "contracts/wnd/tokens/gp/GP.sol:GP",
        "label": "_initialized",
        "offset": 0,
        "slot": "0",
        "type": "t_bool"
      },
      {
        "astId": 2790,
        "contract": "contracts/wnd/tokens/gp/GP.sol:GP",
        "label": "_initializing",
        "offset": 1,
        "slot": "0",
        "type": "t_bool"
      },
      {
        "astId": 6838,
        "contract": "contracts/wnd/tokens/gp/GP.sol:GP",
        "label": "__gap",
        "offset": 0,
        "slot": "1",
        "type": "t_array(t_uint256)50_storage"
      },
      {
        "astId": 2665,
        "contract": "contracts/wnd/tokens/gp/GP.sol:GP",
        "label": "_owner",
        "offset": 0,
        "slot": "51",
        "type": "t_address"
      },
      {
        "astId": 2779,
        "contract": "contracts/wnd/tokens/gp/GP.sol:GP",
        "label": "__gap",
        "offset": 0,
        "slot": "52",
        "type": "t_array(t_uint256)49_storage"
      },
      {
        "astId": 2875,
        "contract": "contracts/wnd/tokens/gp/GP.sol:GP",
        "label": "_paused",
        "offset": 0,
        "slot": "101",
        "type": "t_bool"
      },
      {
        "astId": 2966,
        "contract": "contracts/wnd/tokens/gp/GP.sol:GP",
        "label": "__gap",
        "offset": 0,
        "slot": "102",
        "type": "t_array(t_uint256)49_storage"
      },
      {
        "astId": 12019,
        "contract": "contracts/wnd/tokens/gp/GP.sol:GP",
        "label": "admins",
        "offset": 0,
        "slot": "151",
        "type": "t_mapping(t_address,t_bool)"
      },
      {
        "astId": 12179,
        "contract": "contracts/wnd/tokens/gp/GP.sol:GP",
        "label": "__gap",
        "offset": 0,
        "slot": "152",
        "type": "t_array(t_uint256)50_storage"
      },
      {
        "astId": 4425,
        "contract": "contracts/wnd/tokens/gp/GP.sol:GP",
        "label": "_balances",
        "offset": 0,
        "slot": "202",
        "type": "t_mapping(t_address,t_uint256)"
      },
      {
        "astId": 4431,
        "contract": "contracts/wnd/tokens/gp/GP.sol:GP",
        "label": "_allowances",
        "offset": 0,
        "slot": "203",
        "type": "t_mapping(t_address,t_mapping(t_address,t_uint256))"
      },
      {
        "astId": 4433,
        "contract": "contracts/wnd/tokens/gp/GP.sol:GP",
        "label": "_totalSupply",
        "offset": 0,
        "slot": "204",
        "type": "t_uint256"
      },
      {
        "astId": 4435,
        "contract": "contracts/wnd/tokens/gp/GP.sol:GP",
        "label": "_name",
        "offset": 0,
        "slot": "205",
        "type": "t_string_storage"
      },
      {
        "astId": 4437,
        "contract": "contracts/wnd/tokens/gp/GP.sol:GP",
        "label": "_symbol",
        "offset": 0,
        "slot": "206",
        "type": "t_string_storage"
      },
      {
        "astId": 4978,
        "contract": "contracts/wnd/tokens/gp/GP.sol:GP",
        "label": "__gap",
        "offset": 0,
        "slot": "207",
        "type": "t_array(t_uint256)45_storage"
      }
    ],
    "types": {
      "t_address": {
        "encoding": "inplace",
        "label": "address",
        "numberOfBytes": "20"
      },
      "t_array(t_uint256)45_storage": {
        "base": "t_uint256",
        "encoding": "inplace",
        "label": "uint256[45]",
        "numberOfBytes": "1440"
      },
      "t_array(t_uint256)49_storage": {
        "base": "t_uint256",
        "encoding": "inplace",
        "label": "uint256[49]",
        "numberOfBytes": "1568"
      },
      "t_array(t_uint256)50_storage": {
        "base": "t_uint256",
        "encoding": "inplace",
        "label": "uint256[50]",
        "numberOfBytes": "1600"
      },
      "t_bool": {
        "encoding": "inplace",
        "label": "bool",
        "numberOfBytes": "1"
      },
      "t_mapping(t_address,t_bool)": {
        "encoding": "mapping",
        "key": "t_address",
        "label": "mapping(address => bool)",
        "numberOfBytes": "32",
        "value": "t_bool"
      },
      "t_mapping(t_address,t_mapping(t_address,t_uint256))": {
        "encoding": "mapping",
        "key": "t_address",
        "label": "mapping(address => mapping(address => uint256))",
        "numberOfBytes": "32",
        "value": "t_mapping(t_address,t_uint256)"
      },
      "t_mapping(t_address,t_uint256)": {
        "encoding": "mapping",
        "key": "t_address",
        "label": "mapping(address => uint256)",
        "numberOfBytes": "32",
        "value": "t_uint256"
      },
      "t_string_storage": {
        "encoding": "bytes",
        "label": "string",
        "numberOfBytes": "32"
      },
      "t_uint256": {
        "encoding": "inplace",
        "label": "uint256",
        "numberOfBytes": "32"
      }
    }
  }
}