{
  "address": "0x5fa66f7ce7074Cf5a65F69Ec380918B409958417",
  "abi": [
    {
      "anonymous": false,
      "inputs": [
        {
          "indexed": true,
          "internalType": "address",
          "name": "previousOwner",
          "type": "address"
        },
        {
          "indexed": true,
          "internalType": "address",
          "name": "newOwner",
          "type": "address"
        }
      ],
      "name": "OwnershipTransferred",
      "type": "event"
    },
    {
      "anonymous": false,
      "inputs": [
        {
          "indexed": false,
          "internalType": "address",
          "name": "account",
          "type": "address"
        }
      ],
      "name": "Paused",
      "type": "event"
    },
    {
      "anonymous": false,
      "inputs": [
        {
          "indexed": false,
          "internalType": "address",
          "name": "account",
          "type": "address"
        }
      ],
      "name": "Unpaused",
      "type": "event"
    },
    {
      "anonymous": false,
      "inputs": [
        {
          "indexed": true,
          "internalType": "address",
          "name": "_owner",
          "type": "address"
        },
        {
          "indexed": true,
          "internalType": "uint256",
          "name": "_tokenId",
          "type": "uint256"
        }
      ],
      "name": "WizardKilled",
      "type": "event"
    },
    {
      "anonymous": false,
      "inputs": [
        {
          "indexed": true,
          "internalType": "address",
          "name": "_owner",
          "type": "address"
        },
        {
          "indexed": true,
          "internalType": "uint256",
          "name": "_tokenId",
          "type": "uint256"
        }
      ],
      "name": "WizardRevived",
      "type": "event"
    },
    {
      "inputs": [
        {
          "internalType": "address",
          "name": "_address",
          "type": "address"
        }
      ],
      "name": "addAdmin",
      "outputs": [],
      "stateMutability": "nonpayable",
      "type": "function"
    },
    {
      "inputs": [
        {
          "internalType": "address[]",
          "name": "_addresses",
          "type": "address[]"
        }
      ],
      "name": "addAdmins",
      "outputs": [],
      "stateMutability": "nonpayable",
      "type": "function"
    },
    {
      "inputs": [],
      "name": "areContractsSet",
      "outputs": [
        {
          "internalType": "bool",
          "name": "",
          "type": "bool"
        }
      ],
      "stateMutability": "view",
      "type": "function"
    },
    {
      "inputs": [
        {
          "internalType": "address",
          "name": "_address",
          "type": "address"
        }
      ],
      "name": "getFallenWizardsForAddr",
      "outputs": [
        {
          "internalType": "uint256[]",
          "name": "",
          "type": "uint256[]"
        }
      ],
      "stateMutability": "view",
      "type": "function"
    },
    {
      "inputs": [],
      "name": "initialize",
      "outputs": [],
      "stateMutability": "nonpayable",
      "type": "function"
    },
    {
      "inputs": [
        {
          "internalType": "address",
          "name": "_address",
          "type": "address"
        }
      ],
      "name": "isAdmin",
      "outputs": [
        {
          "internalType": "bool",
          "name": "",
          "type": "bool"
        }
      ],
      "stateMutability": "view",
      "type": "function"
    },
    {
      "inputs": [
        {
          "internalType": "uint256",
          "name": "_tokenId",
          "type": "uint256"
        },
        {
          "internalType": "address",
          "name": "_owner",
          "type": "address"
        }
      ],
      "name": "killWizard",
      "outputs": [],
      "stateMutability": "nonpayable",
      "type": "function"
    },
    {
      "inputs": [
        {
          "internalType": "address",
          "name": "",
          "type": "address"
        },
        {
          "internalType": "address",
          "name": "",
          "type": "address"
        },
        {
          "internalType": "uint256",
          "name": "",
          "type": "uint256"
        },
        {
          "internalType": "bytes",
          "name": "",
          "type": "bytes"
        }
      ],
      "name": "onERC721Received",
      "outputs": [
        {
          "internalType": "bytes4",
          "name": "",
          "type": "bytes4"
        }
      ],
      "stateMutability": "nonpayable",
      "type": "function"
    },
    {
      "inputs": [],
      "name": "owner",
      "outputs": [
        {
          "internalType": "address",
          "name": "",
          "type": "address"
        }
      ],
      "stateMutability": "view",
      "type": "function"
    },
    {
      "inputs": [],
      "name": "paused",
      "outputs": [
        {
          "internalType": "bool",
          "name": "",
          "type": "bool"
        }
      ],
      "stateMutability": "view",
      "type": "function"
    },
    {
      "inputs": [
        {
          "internalType": "address",
          "name": "_address",
          "type": "address"
        }
      ],
      "name": "removeAdmin",
      "outputs": [],
      "stateMutability": "nonpayable",
      "type": "function"
    },
    {
      "inputs": [
        {
          "internalType": "address[]",
          "name": "_addresses",
          "type": "address[]"
        }
      ],
      "name": "removeAdmins",
      "outputs": [],
      "stateMutability": "nonpayable",
      "type": "function"
    },
    {
      "inputs": [],
      "name": "renounceOwnership",
      "outputs": [],
      "stateMutability": "nonpayable",
      "type": "function"
    },
    {
      "inputs": [
        {
          "internalType": "uint256",
          "name": "_tokenId",
          "type": "uint256"
        }
      ],
      "name": "reviveWizard",
      "outputs": [],
      "stateMutability": "nonpayable",
      "type": "function"
    },
    {
      "inputs": [
        {
          "internalType": "uint256[]",
          "name": "_tokenIds",
          "type": "uint256[]"
        }
      ],
      "name": "reviveWizardBatch",
      "outputs": [],
      "stateMutability": "nonpayable",
      "type": "function"
    },
    {
      "inputs": [
        {
          "internalType": "address",
          "name": "_wndAddress",
          "type": "address"
        },
        {
          "internalType": "address",
          "name": "_consumablesAddress",
          "type": "address"
        },
        {
          "internalType": "address",
          "name": "_worldAddress",
          "type": "address"
        },
        {
          "internalType": "address",
          "name": "_trainingGameAddress",
          "type": "address"
        }
      ],
      "name": "setContracts",
      "outputs": [],
      "stateMutability": "nonpayable",
      "type": "function"
    },
    {
      "inputs": [
        {
          "internalType": "bool",
          "name": "_shouldPause",
          "type": "bool"
        }
      ],
      "name": "setPause",
      "outputs": [],
      "stateMutability": "nonpayable",
      "type": "function"
    },
    {
      "inputs": [
        {
          "internalType": "address",
          "name": "newOwner",
          "type": "address"
        }
      ],
      "name": "transferOwnership",
      "outputs": [],
      "stateMutability": "nonpayable",
      "type": "function"
    }
  ],
  "transactionHash": "0x785a5d944650f0eec4f5d8e3a46afe589894dda04bb891cf7177f5bef8933de5",
  "args": [],
  "numDeployments": 3,
  "solcInputHash": "5062a56f00c86ce15abc5fe8c449c9c4",
  "bytecode": "0x608060405234801561001057600080fd5b50611690806100206000396000f3fe608060405234801561001057600080fd5b50600436106101165760003560e01c806384d25054116100a2578063bedb86fb11610071578063bedb86fb14610245578063bf989b6e14610258578063df02c2681461026b578063e58727261461027e578063f2fde38b1461029e57600080fd5b806384d25054146101fc5780638cdcc4b41461020f5780638da5cb5b146102175780639c54df641461023257600080fd5b8063377e11e0116100e9578063377e11e0146101bb5780635c975abb146101ce57806370480275146101d9578063715018a6146101ec5780638129fc1c146101f457600080fd5b80630434829f1461011b578063150b7a02146101305780631785f53c1461016c57806324d7806c1461017f575b600080fd5b61012e61012936600461124b565b6102b1565b005b61014e61013e36600461128d565b630a85bd0160e11b949350505050565b6040516001600160e01b031990911681526020015b60405180910390f35b61012e61017a366004611369565b6103b8565b6101ab61018d366004611369565b6001600160a01b0316600090815260c9602052604090205460ff1690565b6040519015158152602001610163565b61012e6101c93660046113d0565b610403565b60975460ff166101ab565b61012e6101e7366004611369565b6104a4565b61012e6104f2565b61012e610528565b61012e61020a366004611412565b6105a2565b6101ab6105e9565b6065546040516001600160a01b039091168152602001610163565b61012e6102403660046113d0565b610642565b61012e61025336600461142b565b6106de565b61012e610266366004611454565b610731565b61012e6102793660046113d0565b6107bf565b61029161028c366004611369565b610888565b60405161016391906114a8565b61012e6102ac366004611369565b610944565b33600090815260c9602052604090205460ff16806102d257506102d26109dc565b6102f75760405162461bcd60e51b81526004016102ee906114ec565b60405180910390fd5b6001600160a01b038116600090815260fc602052604090206103199083610a00565b5060ff54604051631d684a1760e21b8152600481018490523060248201526001600160a01b03909116906375a1285c90604401600060405180830381600087803b15801561036657600080fd5b505af115801561037a573d6000803e3d6000fd5b50506040518492506001600160a01b03841691507f85c63ffb70c6fe096da191e8311f3e1becca260ae0c1c2097cf649c02668e31590600090a35050565b6065546001600160a01b031633146103e25760405162461bcd60e51b81526004016102ee90611518565b6001600160a01b0316600090815260c960205260409020805460ff19169055565b6065546001600160a01b0316331461042d5760405162461bcd60e51b81526004016102ee90611518565b60005b8181101561049f57600060c960008585858181106104505761045061154d565b90506020020160208101906104659190611369565b6001600160a01b031681526020810191909152604001600020805460ff19169115159190911790558061049781611579565b915050610430565b505050565b6065546001600160a01b031633146104ce5760405162461bcd60e51b81526004016102ee90611518565b6001600160a01b0316600090815260c960205260409020805460ff19166001179055565b6065546001600160a01b0316331461051c5760405162461bcd60e51b81526004016102ee90611518565b6105266000610a15565b565b600054610100900460ff166105435760005460ff1615610547565b303b155b6105635760405162461bcd60e51b81526004016102ee90611594565b600054610100900460ff16158015610585576000805461ffff19166101011790555b61058d610a67565b801561059f576000805461ff00191690555b50565b3332146105e05760405162461bcd60e51b815260206004820152600c60248201526b4e6f20636f6e74726163747360a01b60448201526064016102ee565b61059f81610acc565b60fd546000906001600160a01b031615801590610610575060fe546001600160a01b031615155b8015610626575060ff546001600160a01b031615155b801561063d5750610100546001600160a01b031615155b905090565b6065546001600160a01b0316331461066c5760405162461bcd60e51b81526004016102ee90611518565b60005b8181101561049f57600160c9600085858581811061068f5761068f61154d565b90506020020160208101906106a49190611369565b6001600160a01b031681526020810191909152604001600020805460ff1916911515919091179055806106d681611579565b91505061066f565b33600090815260c9602052604090205460ff16806106ff57506106ff6109dc565b61071b5760405162461bcd60e51b81526004016102ee906114ec565b80156107295761059f610cef565b61059f610d87565b33600090815260c9602052604090205460ff168061075257506107526109dc565b61076e5760405162461bcd60e51b81526004016102ee906114ec565b60fd80546001600160a01b039586166001600160a01b03199182161790915560fe80549486169482169490941790935560ff8054928516928416929092179091556101008054919093169116179055565b3332146107fd5760405162461bcd60e51b815260206004820152600c60248201526b4e6f20636f6e74726163747360a01b60448201526064016102ee565b8061084a5760405162461bcd60e51b815260206004820152601d60248201527f6d757374206769766520746f6b656e2069647320746f2072657669766500000060448201526064016102ee565b60005b8181101561049f5761087683838381811061086a5761086a61154d565b90506020020135610acc565b8061088081611579565b91505061084d565b6001600160a01b038116600090815260fc602052604081206060916108ac82610e01565b67ffffffffffffffff8111156108c4576108c4611277565b6040519080825280602002602001820160405280156108ed578160200160208202803683370190505b50905060005b6108fc83610e01565b81101561093c5761090d8382610e0b565b82828151811061091f5761091f61154d565b60209081029190910101528061093481611579565b9150506108f3565b509392505050565b6065546001600160a01b0316331461096e5760405162461bcd60e51b81526004016102ee90611518565b6001600160a01b0381166109d35760405162461bcd60e51b815260206004820152602660248201527f4f776e61626c653a206e6577206f776e657220697320746865207a65726f206160448201526564647265737360d01b60648201526084016102ee565b61059f81610a15565b6000336109f16065546001600160a01b031690565b6001600160a01b031614905090565b6000610a0c8383610e17565b90505b92915050565b606580546001600160a01b038381166001600160a01b0319831681179093556040519116919082907f8be0079c531659141344cd1fd0a4f28419497f9722a3daafe3b4186f6b6457e090600090a35050565b600054610100900460ff16610a825760005460ff1615610a86565b303b155b610aa25760405162461bcd60e51b81526004016102ee90611594565b600054610100900460ff16158015610ac4576000805461ffff19166101011790555b61058d610e66565b33600090815260fc60205260409020610ae59082610eed565b610b315760405162461bcd60e51b815260206004820181905260248201527f4e6f742064656164206f72206e6f74206f776e65642062792063616c6c65722e60448201526064016102ee565b60fe546101015460408051631d24e23160e21b8152600481019290925260016024830152336044830152516001600160a01b039092169163749388c49160648082019260009290919082900301818387803b158015610b8f57600080fd5b505af1158015610ba3573d6000803e3d6000fd5b505061010054604051636aee3d0760e11b8152600481018590526001600160a01b03909116925063d5dc7a0e9150602401600060405180830381600087803b158015610bee57600080fd5b505af1158015610c02573d6000803e3d6000fd5b50505050610c348160fc6000610c153390565b6001600160a01b03168152602081019190915260400160002090610f05565b5060fd546001600160a01b03166323b872dd30336040516001600160e01b031960e085901b1681526001600160a01b0392831660048201529116602482015260448101849052606401600060405180830381600087803b158015610c9757600080fd5b505af1158015610cab573d6000803e3d6000fd5b5050505080610cb73390565b6001600160a01b03167f443e736538f4d08332c4161771306987ca06ab660df32a5cb01d0f475b19240d60405160405180910390a350565b60975460ff1615610d355760405162461bcd60e51b815260206004820152601060248201526f14185d5cd8589b194e881c185d5cd95960821b60448201526064016102ee565b6097805460ff191660011790557f62e78cea01bee320cd4e420270b5ea74000d11b0c9f74754ebdbfc544b05a258610d6a3390565b6040516001600160a01b03909116815260200160405180910390a1565b60975460ff16610dd05760405162461bcd60e51b815260206004820152601460248201527314185d5cd8589b194e881b9bdd081c185d5cd95960621b60448201526064016102ee565b6097805460ff191690557f5db9ee0a495bf2e6ff9c91a7834c1ba4fdd244a5e8aa4e537bd38aeae4b073aa33610d6a565b6000610a0f825490565b6000610a0c8383610f11565b6000818152600183016020526040812054610e5e57508154600181810184556000848152602080822090930184905584548482528286019093526040902091909155610a0f565b506000610a0f565b600054610100900460ff16610e815760005460ff1615610e85565b303b155b610ea15760405162461bcd60e51b81526004016102ee90611594565b600054610100900460ff16158015610ec3576000805461ffff19166101011790555b610ecb610f3b565b610ed3610fa0565b600461010155801561059f576000805461ff001916905550565b60008181526001830160205260408120541515610a0c565b6000610a0c8383610fcf565b6000826000018281548110610f2857610f2861154d565b9060005260206000200154905092915050565b600054610100900460ff16610f565760005460ff1615610f5a565b303b155b610f765760405162461bcd60e51b81526004016102ee90611594565b600054610100900460ff16158015610f98576000805461ffff19166101011790555b61058d6110c2565b600054610100900460ff16610fc75760405162461bcd60e51b81526004016102ee906115e2565b610526611137565b600081815260018301602052604081205480156110b8576000610ff360018361162d565b85549091506000906110079060019061162d565b905081811461106c5760008660000182815481106110275761102761154d565b906000526020600020015490508087600001848154811061104a5761104a61154d565b6000918252602080832090910192909255918252600188019052604090208390555b855486908061107d5761107d611644565b600190038181906000526020600020016000905590558560010160008681526020019081526020016000206000905560019350505050610a0f565b6000915050610a0f565b600054610100900460ff166110dd5760005460ff16156110e1565b303b155b6110fd5760405162461bcd60e51b81526004016102ee90611594565b600054610100900460ff1615801561111f576000805461ffff19166101011790555b61112761115e565b61112f611195565b61058d610cef565b600054610100900460ff166105265760405162461bcd60e51b81526004016102ee906115e2565b600054610100900460ff166111855760405162461bcd60e51b81526004016102ee906115e2565b61118d611137565b6105266111cc565b600054610100900460ff166111bc5760405162461bcd60e51b81526004016102ee906115e2565b6111c4611137565b6105266111fc565b600054610100900460ff166111f35760405162461bcd60e51b81526004016102ee906115e2565b61052633610a15565b600054610100900460ff166112235760405162461bcd60e51b81526004016102ee906115e2565b6097805460ff19169055565b80356001600160a01b038116811461124657600080fd5b919050565b6000806040838503121561125e57600080fd5b8235915061126e6020840161122f565b90509250929050565b634e487b7160e01b600052604160045260246000fd5b600080600080608085870312156112a357600080fd5b6112ac8561122f565b93506112ba6020860161122f565b925060408501359150606085013567ffffffffffffffff808211156112de57600080fd5b818701915087601f8301126112f257600080fd5b81358181111561130457611304611277565b604051601f8201601f19908116603f0116810190838211818310171561132c5761132c611277565b816040528281528a602084870101111561134557600080fd5b82602086016020830137600060208483010152809550505050505092959194509250565b60006020828403121561137b57600080fd5b610a0c8261122f565b60008083601f84011261139657600080fd5b50813567ffffffffffffffff8111156113ae57600080fd5b6020830191508360208260051b85010111156113c957600080fd5b9250929050565b600080602083850312156113e357600080fd5b823567ffffffffffffffff8111156113fa57600080fd5b61140685828601611384565b90969095509350505050565b60006020828403121561142457600080fd5b5035919050565b60006020828403121561143d57600080fd5b8135801515811461144d57600080fd5b9392505050565b6000806000806080858703121561146a57600080fd5b6114738561122f565b93506114816020860161122f565b925061148f6040860161122f565b915061149d6060860161122f565b905092959194509250565b6020808252825182820181905260009190848201906040850190845b818110156114e0578351835292840192918401916001016114c4565b50909695505050505050565b6020808252601290820152712737ba1030b236b4b71037b91037bbb732b960711b604082015260600190565b6020808252818101527f4f776e61626c653a2063616c6c6572206973206e6f7420746865206f776e6572604082015260600190565b634e487b7160e01b600052603260045260246000fd5b634e487b7160e01b600052601160045260246000fd5b600060001982141561158d5761158d611563565b5060010190565b6020808252602e908201527f496e697469616c697a61626c653a20636f6e747261637420697320616c72656160408201526d191e481a5b9a5d1a585b1a5e995960921b606082015260800190565b6020808252602b908201527f496e697469616c697a61626c653a20636f6e7472616374206973206e6f74206960408201526a6e697469616c697a696e6760a81b606082015260800190565b60008282101561163f5761163f611563565b500390565b634e487b7160e01b600052603160045260246000fdfea2646970667358221220102376c51a4c1b61c8f29bec8f6c7bbc4201ef01492955fee950b1911793e12064736f6c63430008090033",
  "devdoc": {
    "kind": "dev",
    "methods": {
      "onERC721Received(address,address,uint256,bytes)": {
        "details": "See {IERC721Receiver-onERC721Received}. Always returns `IERC721Receiver.onERC721Received.selector`."
      },
      "owner()": {
        "details": "Returns the address of the current owner."
      },
      "paused()": {
        "details": "Returns true if the contract is paused, and false otherwise."
      },
      "renounceOwnership()": {
        "details": "Leaves the contract without owner. It will not be possible to call `onlyOwner` functions anymore. Can only be called by the current owner. NOTE: Renouncing ownership will leave the contract without an owner, thereby removing any functionality that is only available to the owner."
      },
      "transferOwnership(address)": {
        "details": "Transfers ownership of the contract to a new account (`newOwner`). Can only be called by the current owner."
      }
    },
    "version": 1
  },
  "userdoc": {
    "kind": "user",
    "methods": {
      "getFallenWizardsForAddr(address)": {
        "notice": "Do not call from other contracts as this could be gassy depending on the number of wizards who have died for this player. "
      },
      "killWizard(uint256,address)": {
        "notice": "Transfer and mark the tokenId as killed. Owner validation must be handled outside of this contract."
      },
      "reviveWizard(uint256)": {
        "notice": "Revive a wizard by burning a phoenix down. Transfers revived asset to owner's wallet. "
      },
      "reviveWizardBatch(uint256[])": {
        "notice": "Revive a wizard by burning a phoenix down. Transfers revived asset to owner's wallet. "
      }
    },
    "version": 1
  },
  "storageLayout": {
    "storage": [
      {
        "astId": 2787,
        "contract": "contracts/wnd/graveyard/Graveyard.sol:Graveyard",
        "label": "_initialized",
        "offset": 0,
        "slot": "0",
        "type": "t_bool"
      },
      {
        "astId": 2790,
        "contract": "contracts/wnd/graveyard/Graveyard.sol:Graveyard",
        "label": "_initializing",
        "offset": 1,
        "slot": "0",
        "type": "t_bool"
      },
      {
        "astId": 6549,
        "contract": "contracts/wnd/graveyard/Graveyard.sol:Graveyard",
        "label": "__gap",
        "offset": 0,
        "slot": "1",
        "type": "t_array(t_uint256)50_storage"
      },
      {
        "astId": 6838,
        "contract": "contracts/wnd/graveyard/Graveyard.sol:Graveyard",
        "label": "__gap",
        "offset": 0,
        "slot": "51",
        "type": "t_array(t_uint256)50_storage"
      },
      {
        "astId": 2665,
        "contract": "contracts/wnd/graveyard/Graveyard.sol:Graveyard",
        "label": "_owner",
        "offset": 0,
        "slot": "101",
        "type": "t_address"
      },
      {
        "astId": 2779,
        "contract": "contracts/wnd/graveyard/Graveyard.sol:Graveyard",
        "label": "__gap",
        "offset": 0,
        "slot": "102",
        "type": "t_array(t_uint256)49_storage"
      },
      {
        "astId": 2875,
        "contract": "contracts/wnd/graveyard/Graveyard.sol:Graveyard",
        "label": "_paused",
        "offset": 0,
        "slot": "151",
        "type": "t_bool"
      },
      {
        "astId": 2966,
        "contract": "contracts/wnd/graveyard/Graveyard.sol:Graveyard",
        "label": "__gap",
        "offset": 0,
        "slot": "152",
        "type": "t_array(t_uint256)49_storage"
      },
      {
        "astId": 12059,
        "contract": "contracts/wnd/graveyard/Graveyard.sol:Graveyard",
        "label": "admins",
        "offset": 0,
        "slot": "201",
        "type": "t_mapping(t_address,t_bool)"
      },
      {
        "astId": 12219,
        "contract": "contracts/wnd/graveyard/Graveyard.sol:Graveyard",
        "label": "__gap",
        "offset": 0,
        "slot": "202",
        "type": "t_array(t_uint256)50_storage"
      },
      {
        "astId": 16853,
        "contract": "contracts/wnd/graveyard/Graveyard.sol:Graveyard",
        "label": "ownerToKilledTokens",
        "offset": 0,
        "slot": "252",
        "type": "t_mapping(t_address,t_struct(UintSet)7569_storage)"
      },
      {
        "astId": 16856,
        "contract": "contracts/wnd/graveyard/Graveyard.sol:Graveyard",
        "label": "wnd",
        "offset": 0,
        "slot": "253",
        "type": "t_contract(IWnD)22052"
      },
      {
        "astId": 16859,
        "contract": "contracts/wnd/graveyard/Graveyard.sol:Graveyard",
        "label": "consumables",
        "offset": 0,
        "slot": "254",
        "type": "t_contract(IConsumables)20627"
      },
      {
        "astId": 16862,
        "contract": "contracts/wnd/graveyard/Graveyard.sol:Graveyard",
        "label": "world",
        "offset": 0,
        "slot": "255",
        "type": "t_contract(IWorld)26243"
      },
      {
        "astId": 16865,
        "contract": "contracts/wnd/graveyard/Graveyard.sol:Graveyard",
        "label": "trainingGame",
        "offset": 0,
        "slot": "256",
        "type": "t_contract(ITrainingGame)22440"
      },
      {
        "astId": 16867,
        "contract": "contracts/wnd/graveyard/Graveyard.sol:Graveyard",
        "label": "phoenixDownTokenId",
        "offset": 0,
        "slot": "257",
        "type": "t_uint256"
      }
    ],
    "types": {
      "t_address": {
        "encoding": "inplace",
        "label": "address",
        "numberOfBytes": "20"
      },
      "t_array(t_bytes32)dyn_storage": {
        "base": "t_bytes32",
        "encoding": "dynamic_array",
        "label": "bytes32[]",
        "numberOfBytes": "32"
      },
      "t_array(t_uint256)49_storage": {
        "base": "t_uint256",
        "encoding": "inplace",
        "label": "uint256[49]",
        "numberOfBytes": "1568"
      },
      "t_array(t_uint256)50_storage": {
        "base": "t_uint256",
        "encoding": "inplace",
        "label": "uint256[50]",
        "numberOfBytes": "1600"
      },
      "t_bool": {
        "encoding": "inplace",
        "label": "bool",
        "numberOfBytes": "1"
      },
      "t_bytes32": {
        "encoding": "inplace",
        "label": "bytes32",
        "numberOfBytes": "32"
      },
      "t_contract(IConsumables)20627": {
        "encoding": "inplace",
        "label": "contract IConsumables",
        "numberOfBytes": "20"
      },
      "t_contract(ITrainingGame)22440": {
        "encoding": "inplace",
        "label": "contract ITrainingGame",
        "numberOfBytes": "20"
      },
      "t_contract(IWnD)22052": {
        "encoding": "inplace",
        "label": "contract IWnD",
        "numberOfBytes": "20"
      },
      "t_contract(IWorld)26243": {
        "encoding": "inplace",
        "label": "contract IWorld",
        "numberOfBytes": "20"
      },
      "t_mapping(t_address,t_bool)": {
        "encoding": "mapping",
        "key": "t_address",
        "label": "mapping(address => bool)",
        "numberOfBytes": "32",
        "value": "t_bool"
      },
      "t_mapping(t_address,t_struct(UintSet)7569_storage)": {
        "encoding": "mapping",
        "key": "t_address",
        "label": "mapping(address => struct EnumerableSetUpgradeable.UintSet)",
        "numberOfBytes": "32",
        "value": "t_struct(UintSet)7569_storage"
      },
      "t_mapping(t_bytes32,t_uint256)": {
        "encoding": "mapping",
        "key": "t_bytes32",
        "label": "mapping(bytes32 => uint256)",
        "numberOfBytes": "32",
        "value": "t_uint256"
      },
      "t_struct(Set)7111_storage": {
        "encoding": "inplace",
        "label": "struct EnumerableSetUpgradeable.Set",
        "members": [
          {
            "astId": 7106,
            "contract": "contracts/wnd/graveyard/Graveyard.sol:Graveyard",
            "label": "_values",
            "offset": 0,
            "slot": "0",
            "type": "t_array(t_bytes32)dyn_storage"
          },
          {
            "astId": 7110,
            "contract": "contracts/wnd/graveyard/Graveyard.sol:Graveyard",
            "label": "_indexes",
            "offset": 0,
            "slot": "1",
            "type": "t_mapping(t_bytes32,t_uint256)"
          }
        ],
        "numberOfBytes": "64"
      },
      "t_struct(UintSet)7569_storage": {
        "encoding": "inplace",
        "label": "struct EnumerableSetUpgradeable.UintSet",
        "members": [
          {
            "astId": 7568,
            "contract": "contracts/wnd/graveyard/Graveyard.sol:Graveyard",
            "label": "_inner",
            "offset": 0,
            "slot": "0",
            "type": "t_struct(Set)7111_storage"
          }
        ],
        "numberOfBytes": "64"
      },
      "t_uint256": {
        "encoding": "inplace",
        "label": "uint256",
        "numberOfBytes": "32"
      }
    }
  }
}