{
  "address": "0x7Ac9f25995c8dDEf712B2EF52162aB14B2e89765",
  "abi": [
    {
      "inputs": [
        {
          "internalType": "address",
          "name": "_vrfCoordinator",
          "type": "address"
        },
        {
          "internalType": "address",
          "name": "_linkToken",
          "type": "address"
        },
        {
          "internalType": "bytes32",
          "name": "_keyHash",
          "type": "bytes32"
        }
      ],
      "stateMutability": "nonpayable",
      "type": "constructor"
    },
    {
      "anonymous": false,
      "inputs": [
        {
          "indexed": true,
          "internalType": "address",
          "name": "previousOwner",
          "type": "address"
        },
        {
          "indexed": true,
          "internalType": "address",
          "name": "newOwner",
          "type": "address"
        }
      ],
      "name": "OwnershipTransferred",
      "type": "event"
    },
    {
      "anonymous": false,
      "inputs": [
        {
          "indexed": false,
          "internalType": "address",
          "name": "account",
          "type": "address"
        }
      ],
      "name": "Paused",
      "type": "event"
    },
    {
      "anonymous": false,
      "inputs": [
        {
          "indexed": false,
          "internalType": "address",
          "name": "account",
          "type": "address"
        }
      ],
      "name": "Unpaused",
      "type": "event"
    },
    {
      "inputs": [
        {
          "internalType": "address",
          "name": "_address",
          "type": "address"
        }
      ],
      "name": "addAdmin",
      "outputs": [],
      "stateMutability": "nonpayable",
      "type": "function"
    },
    {
      "inputs": [
        {
          "internalType": "address[]",
          "name": "_addresses",
          "type": "address[]"
        }
      ],
      "name": "addAdmins",
      "outputs": [],
      "stateMutability": "nonpayable",
      "type": "function"
    },
    {
      "inputs": [],
      "name": "getRandomNumber",
      "outputs": [
        {
          "internalType": "bytes32",
          "name": "",
          "type": "bytes32"
        }
      ],
      "stateMutability": "nonpayable",
      "type": "function"
    },
    {
      "inputs": [
        {
          "internalType": "address",
          "name": "_address",
          "type": "address"
        }
      ],
      "name": "isAdmin",
      "outputs": [
        {
          "internalType": "bool",
          "name": "",
          "type": "bool"
        }
      ],
      "stateMutability": "view",
      "type": "function"
    },
    {
      "inputs": [
        {
          "internalType": "bytes32",
          "name": "_requestID",
          "type": "bytes32"
        }
      ],
      "name": "isRequestIDFulfilled",
      "outputs": [
        {
          "internalType": "bool",
          "name": "",
          "type": "bool"
        }
      ],
      "stateMutability": "view",
      "type": "function"
    },
    {
      "inputs": [],
      "name": "owner",
      "outputs": [
        {
          "internalType": "address",
          "name": "",
          "type": "address"
        }
      ],
      "stateMutability": "view",
      "type": "function"
    },
    {
      "inputs": [],
      "name": "paused",
      "outputs": [
        {
          "internalType": "bool",
          "name": "",
          "type": "bool"
        }
      ],
      "stateMutability": "view",
      "type": "function"
    },
    {
      "inputs": [
        {
          "internalType": "bytes32",
          "name": "_requestID",
          "type": "bytes32"
        }
      ],
      "name": "randomForRequestID",
      "outputs": [
        {
          "internalType": "uint256",
          "name": "",
          "type": "uint256"
        }
      ],
      "stateMutability": "view",
      "type": "function"
    },
    {
      "inputs": [
        {
          "internalType": "bytes32",
          "name": "requestId",
          "type": "bytes32"
        },
        {
          "internalType": "uint256",
          "name": "randomness",
          "type": "uint256"
        }
      ],
      "name": "rawFulfillRandomness",
      "outputs": [],
      "stateMutability": "nonpayable",
      "type": "function"
    },
    {
      "inputs": [
        {
          "internalType": "address",
          "name": "_address",
          "type": "address"
        }
      ],
      "name": "removeAdmin",
      "outputs": [],
      "stateMutability": "nonpayable",
      "type": "function"
    },
    {
      "inputs": [
        {
          "internalType": "address[]",
          "name": "_addresses",
          "type": "address[]"
        }
      ],
      "name": "removeAdmins",
      "outputs": [],
      "stateMutability": "nonpayable",
      "type": "function"
    },
    {
      "inputs": [],
      "name": "renounceOwnership",
      "outputs": [],
      "stateMutability": "nonpayable",
      "type": "function"
    },
    {
      "inputs": [
        {
          "internalType": "uint256",
          "name": "_fee",
          "type": "uint256"
        },
        {
          "internalType": "bytes32",
          "name": "_keyHash",
          "type": "bytes32"
        }
      ],
      "name": "setKeyHashAndFee",
      "outputs": [],
      "stateMutability": "nonpayable",
      "type": "function"
    },
    {
      "inputs": [
        {
          "internalType": "bool",
          "name": "_shouldPause",
          "type": "bool"
        }
      ],
      "name": "setPause",
      "outputs": [],
      "stateMutability": "nonpayable",
      "type": "function"
    },
    {
      "inputs": [
        {
          "internalType": "address",
          "name": "newOwner",
          "type": "address"
        }
      ],
      "name": "transferOwnership",
      "outputs": [],
      "stateMutability": "nonpayable",
      "type": "function"
    },
    {
      "inputs": [],
      "name": "withdrawLink",
      "outputs": [],
      "stateMutability": "nonpayable",
      "type": "function"
    }
  ],
  "transactionHash": "0x45b71c55f3093dd3744361e33ec9c73d10a8703307b34ac42c96bd49ae0b2def",
  "args": [
    "0x3d2341ADb2D31f1c5530cDC622016af293177AE0",
    "0xb0897686c545045aFc77CF20eC7A532E3120E0F1",
    "0xf86195cf7690c55907b2b611ebb7343a6f649bff128701cc542f0569e2c549da"
  ],
  "numDeployments": 1,
  "solcInputHash": "b27224762b700ac3dafd5126496854c7",
  "bytecode": "0x60c060405234801561001057600080fd5b506040516110f53803806110f583398101604081905261002f916100d9565b828261003a3361006d565b6000805460ff60a01b191690556001600160a01b0391821660a052166080526004555050655af3107a4000600555610115565b600080546001600160a01b038381166001600160a01b0319831681178455604051919092169283917f8be0079c531659141344cd1fd0a4f28419497f9722a3daafe3b4186f6b6457e09190a35050565b80516001600160a01b03811681146100d457600080fd5b919050565b6000806000606084860312156100ee57600080fd5b6100f7846100bd565b9250610105602085016100bd565b9150604084015190509250925092565b60805160a051610fa661014f600039600081816106320152610ba30152600081816104bc0152818161086a0152610b740152610fa66000f3fe608060405234801561001057600080fd5b50600436106101005760003560e01c80638da5cb5b116100975780639c54df64116100665780639c54df6414610227578063bedb86fb1461023a578063dbdff2c11461024d578063f2fde38b1461025557600080fd5b80638da5cb5b146101d05780638dc654a2146101eb57806391ac00ca146101f357806394985ddd1461021457600080fd5b806370480275116100d35780637048027514610180578063715018a6146101935780638321b3831461019b5780638c821cb0146101ae57600080fd5b80631785f53c1461010557806324d7806c1461011a578063377e11e01461015b5780635c975abb1461016e575b600080fd5b610118610113366004610d03565b610268565b005b610146610128366004610d03565b6001600160a01b031660009081526001602052604090205460ff1690565b60405190151581526020015b60405180910390f35b610118610169366004610d33565b6102bc565b600054600160a01b900460ff16610146565b61011861018e366004610d03565b61035f565b6101186103ff565b6101186101a9366004610da8565b610435565b6101466101bc366004610dca565b600090815260036020526040902054151590565b6000546040516001600160a01b039091168152602001610152565b61011861047d565b610206610201366004610dca565b6105c9565b604051908152602001610152565b610118610222366004610da8565b610627565b610118610235366004610d33565b6106b1565b610118610248366004610df1565b6107c2565b610206610815565b610118610263366004610d03565b61093f565b6000546001600160a01b0316331461029b5760405162461bcd60e51b815260040161029290610e0e565b60405180910390fd5b6001600160a01b03166000908152600160205260409020805460ff19169055565b6000546001600160a01b031633146102e65760405162461bcd60e51b815260040161029290610e0e565b8060005b818110156103595760006001600086868581811061030a5761030a610e43565b905060200201602081019061031f9190610d03565b6001600160a01b031681526020810191909152604001600020805460ff19169115159190911790558061035181610e6f565b9150506102ea565b50505050565b6000546001600160a01b031633146103895760405162461bcd60e51b815260040161029290610e0e565b6000816001600160a01b03163b116103d85760405162461bcd60e51b81526020600482015260126024820152711b5d5cdd08189948184818dbdb9d1c9858dd60721b6044820152606401610292565b6001600160a01b03166000908152600160208190526040909120805460ff19169091179055565b6000546001600160a01b031633146104295760405162461bcd60e51b815260040161029290610e0e565b61043360006109d3565b565b3360009081526001602052604090205460ff16806104565750610456610a23565b6104725760405162461bcd60e51b815260040161029290610e8a565b600591909155600455565b6000546001600160a01b031633146104a75760405162461bcd60e51b815260040161029290610e0e565b6040516370a0823160e01b81523060048201527f00000000000000000000000000000000000000000000000000000000000000006001600160a01b03169063a9059cbb90339083906370a082319060240160206040518083038186803b15801561051057600080fd5b505afa158015610524573d6000803e3d6000fd5b505050506040513d601f19601f820116820180604052508101906105489190610eb6565b6040516001600160e01b031960e085901b1681526001600160a01b0390921660048301526024820152604401602060405180830381600087803b15801561058e57600080fd5b505af11580156105a2573d6000803e3d6000fd5b505050506040513d601f19601f820116820180604052508101906105c69190610ecf565b50565b6000818152600360205260408120546106145760405162461bcd60e51b815260206004820152600d60248201526c139bdd08199d5b199a5b1b1959609a1b6044820152606401610292565b5060009081526003602052604090205490565b336001600160a01b037f0000000000000000000000000000000000000000000000000000000000000000161461069f5760405162461bcd60e51b815260206004820152601f60248201527f4f6e6c7920565246436f6f7264696e61746f722063616e2066756c66696c6c006044820152606401610292565b60009182526003602052604090912055565b6000546001600160a01b031633146106db5760405162461bcd60e51b815260040161029290610e0e565b8060005b818110156103595760008484838181106106fb576106fb610e43565b90506020020160208101906107109190610d03565b6001600160a01b03163b1161075c5760405162461bcd60e51b81526020600482015260126024820152711b5d5cdd08189948184818dbdb9d1c9858dd60721b6044820152606401610292565b600180600086868581811061077357610773610e43565b90506020020160208101906107889190610d03565b6001600160a01b031681526020810191909152604001600020805460ff1916911515919091179055806107ba81610e6f565b9150506106df565b3360009081526001602052604090205460ff16806107e357506107e3610a23565b6107ff5760405162461bcd60e51b815260040161029290610e8a565b801561080d576105c6610a47565b6105c6610aec565b3360009081526001602052604081205460ff16806108365750610836610a23565b6108525760405162461bcd60e51b815260040161029290610e8a565b6005546040516370a0823160e01b81523060048201527f00000000000000000000000000000000000000000000000000000000000000006001600160a01b0316906370a082319060240160206040518083038186803b1580156108b457600080fd5b505afa1580156108c8573d6000803e3d6000fd5b505050506040513d601f19601f820116820180604052508101906108ec9190610eb6565b101561092c5760405162461bcd60e51b815260206004820152600f60248201526e4e6f7420656e6f756768204c494e4b60881b6044820152606401610292565b61093a600454600554610b70565b905090565b6000546001600160a01b031633146109695760405162461bcd60e51b815260040161029290610e0e565b6001600160a01b0381166109ce5760405162461bcd60e51b815260206004820152602660248201527f4f776e61626c653a206e6577206f776e657220697320746865207a65726f206160448201526564647265737360d01b6064820152608401610292565b6105c6815b600080546001600160a01b038381166001600160a01b0319831681178455604051919092169283917f8be0079c531659141344cd1fd0a4f28419497f9722a3daafe3b4186f6b6457e09190a35050565b600033610a386000546001600160a01b031690565b6001600160a01b031614905090565b600054600160a01b900460ff1615610a945760405162461bcd60e51b815260206004820152601060248201526f14185d5cd8589b194e881c185d5cd95960821b6044820152606401610292565b6000805460ff60a01b1916600160a01b1790557f62e78cea01bee320cd4e420270b5ea74000d11b0c9f74754ebdbfc544b05a258610acf3390565b6040516001600160a01b03909116815260200160405180910390a1565b600054600160a01b900460ff16610b3c5760405162461bcd60e51b815260206004820152601460248201527314185d5cd8589b194e881b9bdd081c185d5cd95960621b6044820152606401610292565b6000805460ff60a01b191690557f5db9ee0a495bf2e6ff9c91a7834c1ba4fdd244a5e8aa4e537bd38aeae4b073aa33610acf565b60007f00000000000000000000000000000000000000000000000000000000000000006001600160a01b0316634000aea07f000000000000000000000000000000000000000000000000000000000000000084866000604051602001610be0929190918252602082015260400190565b6040516020818303038152906040526040518463ffffffff1660e01b8152600401610c0d93929190610eec565b602060405180830381600087803b158015610c2757600080fd5b505af1158015610c3b573d6000803e3d6000fd5b505050506040513d601f19601f82011682018060405250810190610c5f9190610ecf565b50600083815260026020818152604080842054815180840189905280830186905230606082015260808082018390528351808303909101815260a090910190925281519183019190912093879052919052610cbb906001610f58565b600085815260026020526040902055610cfb8482604080516020808201949094528082019290925280518083038201815260609092019052805191012090565b949350505050565b600060208284031215610d1557600080fd5b81356001600160a01b0381168114610d2c57600080fd5b9392505050565b60008060208385031215610d4657600080fd5b823567ffffffffffffffff80821115610d5e57600080fd5b818501915085601f830112610d7257600080fd5b813581811115610d8157600080fd5b8660208260051b8501011115610d9657600080fd5b60209290920196919550909350505050565b60008060408385031215610dbb57600080fd5b50508035926020909101359150565b600060208284031215610ddc57600080fd5b5035919050565b80151581146105c657600080fd5b600060208284031215610e0357600080fd5b8135610d2c81610de3565b6020808252818101527f4f776e61626c653a2063616c6c6572206973206e6f7420746865206f776e6572604082015260600190565b634e487b7160e01b600052603260045260246000fd5b634e487b7160e01b600052601160045260246000fd5b6000600019821415610e8357610e83610e59565b5060010190565b6020808252601290820152712737ba1030b236b4b71037b91037bbb732b960711b604082015260600190565b600060208284031215610ec857600080fd5b5051919050565b600060208284031215610ee157600080fd5b8151610d2c81610de3565b60018060a01b038416815260006020848184015260606040840152835180606085015260005b81811015610f2e57858101830151858201608001528201610f12565b81811115610f40576000608083870101525b50601f01601f19169290920160800195945050505050565b60008219821115610f6b57610f6b610e59565b50019056fea26469706673582212203567d189316f1ee3c8b8873f047725f26935ef96ebaf66f740a5464cade8a45564736f6c63430008090033",
  "devdoc": {
    "kind": "dev",
    "methods": {
      "owner()": {
        "details": "Returns the address of the current owner."
      },
      "paused()": {
        "details": "Returns true if the contract is paused, and false otherwise."
      },
      "renounceOwnership()": {
        "details": "Leaves the contract without owner. It will not be possible to call `onlyOwner` functions anymore. Can only be called by the current owner. NOTE: Renouncing ownership will leave the contract without an owner, thereby removing any functionality that is only available to the owner."
      },
      "transferOwnership(address)": {
        "details": "Transfers ownership of the contract to a new account (`newOwner`). Can only be called by the current owner."
      }
    },
    "version": 1
  },
  "userdoc": {
    "kind": "user",
    "methods": {
      "withdrawLink()": {
        "notice": "allows owner to withdraw funds from minting"
      }
    },
    "version": 1
  },
  "storageLayout": {
    "storage": [
      {
        "astId": 7707,
        "contract": "contracts/shared/randomizercl/RandomizerCL.sol:RandomizerCL",
        "label": "_owner",
        "offset": 0,
        "slot": "0",
        "type": "t_address"
      },
      {
        "astId": 7822,
        "contract": "contracts/shared/randomizercl/RandomizerCL.sol:RandomizerCL",
        "label": "_paused",
        "offset": 20,
        "slot": "0",
        "type": "t_bool"
      },
      {
        "astId": 11835,
        "contract": "contracts/shared/randomizercl/RandomizerCL.sol:RandomizerCL",
        "label": "admins",
        "offset": 0,
        "slot": "1",
        "type": "t_mapping(t_address,t_bool)"
      },
      {
        "astId": 79,
        "contract": "contracts/shared/randomizercl/RandomizerCL.sol:RandomizerCL",
        "label": "nonces",
        "offset": 0,
        "slot": "2",
        "type": "t_mapping(t_bytes32,t_uint256)"
      },
      {
        "astId": 12832,
        "contract": "contracts/shared/randomizercl/RandomizerCL.sol:RandomizerCL",
        "label": "requestIdToRandomness",
        "offset": 0,
        "slot": "3",
        "type": "t_mapping(t_bytes32,t_uint256)"
      },
      {
        "astId": 12834,
        "contract": "contracts/shared/randomizercl/RandomizerCL.sol:RandomizerCL",
        "label": "keyHash",
        "offset": 0,
        "slot": "4",
        "type": "t_bytes32"
      },
      {
        "astId": 12836,
        "contract": "contracts/shared/randomizercl/RandomizerCL.sol:RandomizerCL",
        "label": "fee",
        "offset": 0,
        "slot": "5",
        "type": "t_uint256"
      }
    ],
    "types": {
      "t_address": {
        "encoding": "inplace",
        "label": "address",
        "numberOfBytes": "20"
      },
      "t_bool": {
        "encoding": "inplace",
        "label": "bool",
        "numberOfBytes": "1"
      },
      "t_bytes32": {
        "encoding": "inplace",
        "label": "bytes32",
        "numberOfBytes": "32"
      },
      "t_mapping(t_address,t_bool)": {
        "encoding": "mapping",
        "key": "t_address",
        "label": "mapping(address => bool)",
        "numberOfBytes": "32",
        "value": "t_bool"
      },
      "t_mapping(t_bytes32,t_uint256)": {
        "encoding": "mapping",
        "key": "t_bytes32",
        "label": "mapping(bytes32 => uint256)",
        "numberOfBytes": "32",
        "value": "t_uint256"
      },
      "t_uint256": {
        "encoding": "inplace",
        "label": "uint256",
        "numberOfBytes": "32"
      }
    }
  }
}