{
  "address": "0x72BA684794A69D89a3B4E5608EE3D44e45fdDA50",
  "abi": [
    {
      "anonymous": false,
      "inputs": [
        {
          "indexed": true,
          "internalType": "address",
          "name": "_oldOwner",
          "type": "address"
        },
        {
          "indexed": true,
          "internalType": "address",
          "name": "_newOwner",
          "type": "address"
        },
        {
          "indexed": true,
          "internalType": "uint256",
          "name": "_savedTokenId",
          "type": "uint256"
        }
      ],
      "name": "ChestStolen",
      "type": "event"
    },
    {
      "anonymous": false,
      "inputs": [
        {
          "indexed": true,
          "internalType": "address",
          "name": "previousOwner",
          "type": "address"
        },
        {
          "indexed": true,
          "internalType": "address",
          "name": "newOwner",
          "type": "address"
        }
      ],
      "name": "OwnershipTransferred",
      "type": "event"
    },
    {
      "anonymous": false,
      "inputs": [
        {
          "indexed": false,
          "internalType": "address",
          "name": "account",
          "type": "address"
        }
      ],
      "name": "Paused",
      "type": "event"
    },
    {
      "anonymous": false,
      "inputs": [
        {
          "indexed": true,
          "internalType": "address",
          "name": "_owner",
          "type": "address"
        },
        {
          "indexed": true,
          "internalType": "uint256",
          "name": "_tokenId",
          "type": "uint256"
        }
      ],
      "name": "TokenWithdrawn",
      "type": "event"
    },
    {
      "anonymous": false,
      "inputs": [
        {
          "indexed": false,
          "internalType": "address",
          "name": "account",
          "type": "address"
        }
      ],
      "name": "Unpaused",
      "type": "event"
    },
    {
      "anonymous": false,
      "inputs": [
        {
          "indexed": true,
          "internalType": "address",
          "name": "_oldOwner",
          "type": "address"
        },
        {
          "indexed": true,
          "internalType": "address",
          "name": "_newOwner",
          "type": "address"
        },
        {
          "indexed": true,
          "internalType": "uint256",
          "name": "_tokenId",
          "type": "uint256"
        }
      ],
      "name": "WizardStolen",
      "type": "event"
    },
    {
      "inputs": [
        {
          "internalType": "address",
          "name": "_address",
          "type": "address"
        }
      ],
      "name": "addAdmin",
      "outputs": [],
      "stateMutability": "nonpayable",
      "type": "function"
    },
    {
      "inputs": [
        {
          "internalType": "address[]",
          "name": "_addresses",
          "type": "address[]"
        }
      ],
      "name": "addAdmins",
      "outputs": [],
      "stateMutability": "nonpayable",
      "type": "function"
    },
    {
      "inputs": [
        {
          "internalType": "address",
          "name": "",
          "type": "address"
        }
      ],
      "name": "addressToGPStaked",
      "outputs": [
        {
          "internalType": "uint256",
          "name": "",
          "type": "uint256"
        }
      ],
      "stateMutability": "view",
      "type": "function"
    },
    {
      "inputs": [],
      "name": "amountCurrentlyStaked",
      "outputs": [
        {
          "internalType": "uint256",
          "name": "",
          "type": "uint256"
        }
      ],
      "stateMutability": "view",
      "type": "function"
    },
    {
      "inputs": [],
      "name": "amountNeededToOpenPortal",
      "outputs": [
        {
          "internalType": "uint256",
          "name": "",
          "type": "uint256"
        }
      ],
      "stateMutability": "view",
      "type": "function"
    },
    {
      "inputs": [],
      "name": "areContractsSet",
      "outputs": [
        {
          "internalType": "bool",
          "name": "",
          "type": "bool"
        }
      ],
      "stateMutability": "view",
      "type": "function"
    },
    {
      "inputs": [],
      "name": "chanceWizardStolen",
      "outputs": [
        {
          "internalType": "uint8",
          "name": "",
          "type": "uint8"
        }
      ],
      "stateMutability": "view",
      "type": "function"
    },
    {
      "inputs": [],
      "name": "childTunnel",
      "outputs": [
        {
          "internalType": "contract IChildTunnel",
          "name": "",
          "type": "address"
        }
      ],
      "stateMutability": "view",
      "type": "function"
    },
    {
      "inputs": [],
      "name": "consumables",
      "outputs": [
        {
          "internalType": "contract IConsumables",
          "name": "",
          "type": "address"
        }
      ],
      "stateMutability": "view",
      "type": "function"
    },
    {
      "inputs": [
        {
          "internalType": "address",
          "name": "_addr",
          "type": "address"
        }
      ],
      "name": "getPendingWizards",
      "outputs": [
        {
          "internalType": "uint256[]",
          "name": "",
          "type": "uint256[]"
        }
      ],
      "stateMutability": "view",
      "type": "function"
    },
    {
      "inputs": [
        {
          "internalType": "address",
          "name": "_address",
          "type": "address"
        }
      ],
      "name": "getRiftTier",
      "outputs": [
        {
          "internalType": "uint256",
          "name": "",
          "type": "uint256"
        }
      ],
      "stateMutability": "view",
      "type": "function"
    },
    {
      "inputs": [],
      "name": "gp",
      "outputs": [
        {
          "internalType": "contract IGP",
          "name": "",
          "type": "address"
        }
      ],
      "stateMutability": "view",
      "type": "function"
    },
    {
      "inputs": [
        {
          "internalType": "bytes",
          "name": "_data",
          "type": "bytes"
        }
      ],
      "name": "handleMessage",
      "outputs": [],
      "stateMutability": "nonpayable",
      "type": "function"
    },
    {
      "inputs": [],
      "name": "initialize",
      "outputs": [],
      "stateMutability": "nonpayable",
      "type": "function"
    },
    {
      "inputs": [
        {
          "internalType": "address",
          "name": "_address",
          "type": "address"
        }
      ],
      "name": "isAdmin",
      "outputs": [
        {
          "internalType": "bool",
          "name": "",
          "type": "bool"
        }
      ],
      "stateMutability": "view",
      "type": "function"
    },
    {
      "inputs": [
        {
          "internalType": "address",
          "name": "",
          "type": "address"
        },
        {
          "internalType": "address",
          "name": "",
          "type": "address"
        },
        {
          "internalType": "uint256[]",
          "name": "",
          "type": "uint256[]"
        },
        {
          "internalType": "uint256[]",
          "name": "",
          "type": "uint256[]"
        },
        {
          "internalType": "bytes",
          "name": "",
          "type": "bytes"
        }
      ],
      "name": "onERC1155BatchReceived",
      "outputs": [
        {
          "internalType": "bytes4",
          "name": "",
          "type": "bytes4"
        }
      ],
      "stateMutability": "nonpayable",
      "type": "function"
    },
    {
      "inputs": [
        {
          "internalType": "address",
          "name": "",
          "type": "address"
        },
        {
          "internalType": "address",
          "name": "",
          "type": "address"
        },
        {
          "internalType": "uint256",
          "name": "",
          "type": "uint256"
        },
        {
          "internalType": "uint256",
          "name": "",
          "type": "uint256"
        },
        {
          "internalType": "bytes",
          "name": "",
          "type": "bytes"
        }
      ],
      "name": "onERC1155Received",
      "outputs": [
        {
          "internalType": "bytes4",
          "name": "",
          "type": "bytes4"
        }
      ],
      "stateMutability": "nonpayable",
      "type": "function"
    },
    {
      "inputs": [
        {
          "internalType": "address",
          "name": "",
          "type": "address"
        },
        {
          "internalType": "address",
          "name": "",
          "type": "address"
        },
        {
          "internalType": "uint256",
          "name": "",
          "type": "uint256"
        },
        {
          "internalType": "bytes",
          "name": "",
          "type": "bytes"
        }
      ],
      "name": "onERC721Received",
      "outputs": [
        {
          "internalType": "bytes4",
          "name": "",
          "type": "bytes4"
        }
      ],
      "stateMutability": "nonpayable",
      "type": "function"
    },
    {
      "inputs": [],
      "name": "owner",
      "outputs": [
        {
          "internalType": "address",
          "name": "",
          "type": "address"
        }
      ],
      "stateMutability": "view",
      "type": "function"
    },
    {
      "inputs": [],
      "name": "paused",
      "outputs": [
        {
          "internalType": "bool",
          "name": "",
          "type": "bool"
        }
      ],
      "stateMutability": "view",
      "type": "function"
    },
    {
      "inputs": [
        {
          "internalType": "address",
          "name": "_to",
          "type": "address"
        },
        {
          "internalType": "uint256",
          "name": "_gpAmount",
          "type": "uint256"
        },
        {
          "internalType": "uint256[]",
          "name": "_wndTokenIds",
          "type": "uint256[]"
        },
        {
          "components": [
            {
              "internalType": "bool",
              "name": "isWizard",
              "type": "bool"
            },
            {
              "internalType": "uint8",
              "name": "body",
              "type": "uint8"
            },
            {
              "internalType": "uint8",
              "name": "head",
              "type": "uint8"
            },
            {
              "internalType": "uint8",
              "name": "spell",
              "type": "uint8"
            },
            {
              "internalType": "uint8",
              "name": "eyes",
              "type": "uint8"
            },
            {
              "internalType": "uint8",
              "name": "neck",
              "type": "uint8"
            },
            {
              "internalType": "uint8",
              "name": "mouth",
              "type": "uint8"
            },
            {
              "internalType": "uint8",
              "name": "wand",
              "type": "uint8"
            },
            {
              "internalType": "uint8",
              "name": "tail",
              "type": "uint8"
            },
            {
              "internalType": "uint8",
              "name": "rankIndex",
              "type": "uint8"
            }
          ],
          "internalType": "struct WizardDragon[]",
          "name": "_traits",
          "type": "tuple[]"
        },
        {
          "internalType": "uint256[]",
          "name": "_saIds",
          "type": "uint256[]"
        },
        {
          "internalType": "uint256[]",
          "name": "_saAmounts",
          "type": "uint256[]"
        },
        {
          "internalType": "uint256[]",
          "name": "_consumableIds",
          "type": "uint256[]"
        },
        {
          "internalType": "uint256[]",
          "name": "_consumableAmounts",
          "type": "uint256[]"
        }
      ],
      "name": "processMessageFromRoot",
      "outputs": [],
      "stateMutability": "nonpayable",
      "type": "function"
    },
    {
      "inputs": [],
      "name": "randomizer",
      "outputs": [
        {
          "internalType": "contract IRandomizerCL",
          "name": "",
          "type": "address"
        }
      ],
      "stateMutability": "view",
      "type": "function"
    },
    {
      "inputs": [
        {
          "internalType": "address",
          "name": "",
          "type": "address"
        },
        {
          "internalType": "uint256",
          "name": "",
          "type": "uint256"
        }
      ],
      "name": "recipientToRequestIDs",
      "outputs": [
        {
          "internalType": "bytes32",
          "name": "",
          "type": "bytes32"
        }
      ],
      "stateMutability": "view",
      "type": "function"
    },
    {
      "inputs": [
        {
          "internalType": "address",
          "name": "_address",
          "type": "address"
        }
      ],
      "name": "removeAdmin",
      "outputs": [],
      "stateMutability": "nonpayable",
      "type": "function"
    },
    {
      "inputs": [
        {
          "internalType": "address[]",
          "name": "_addresses",
          "type": "address[]"
        }
      ],
      "name": "removeAdmins",
      "outputs": [],
      "stateMutability": "nonpayable",
      "type": "function"
    },
    {
      "inputs": [],
      "name": "renounceOwnership",
      "outputs": [],
      "stateMutability": "nonpayable",
      "type": "function"
    },
    {
      "inputs": [
        {
          "internalType": "bytes32",
          "name": "",
          "type": "bytes32"
        },
        {
          "internalType": "uint256",
          "name": "",
          "type": "uint256"
        }
      ],
      "name": "requestIdToTokens",
      "outputs": [
        {
          "internalType": "uint256",
          "name": "",
          "type": "uint256"
        }
      ],
      "stateMutability": "view",
      "type": "function"
    },
    {
      "inputs": [
        {
          "internalType": "uint256",
          "name": "",
          "type": "uint256"
        }
      ],
      "name": "riftTierAmts",
      "outputs": [
        {
          "internalType": "uint256",
          "name": "",
          "type": "uint256"
        }
      ],
      "stateMutability": "view",
      "type": "function"
    },
    {
      "inputs": [],
      "name": "sacrificialAlter",
      "outputs": [
        {
          "internalType": "contract ISacrificialAlter",
          "name": "",
          "type": "address"
        }
      ],
      "stateMutability": "view",
      "type": "function"
    },
    {
      "inputs": [
        {
          "internalType": "address",
          "name": "_worldAddress",
          "type": "address"
        },
        {
          "internalType": "address",
          "name": "_wndAddress",
          "type": "address"
        },
        {
          "internalType": "address",
          "name": "_trainingProficiencyAddress",
          "type": "address"
        },
        {
          "internalType": "address",
          "name": "_randomizerAddress",
          "type": "address"
        },
        {
          "internalType": "address",
          "name": "_childTunnelAddress",
          "type": "address"
        },
        {
          "internalType": "address",
          "name": "_gpAddress",
          "type": "address"
        },
        {
          "internalType": "address",
          "name": "_sacrificialAlterAddress",
          "type": "address"
        },
        {
          "internalType": "address",
          "name": "_consumablesAddress",
          "type": "address"
        }
      ],
      "name": "setContracts",
      "outputs": [],
      "stateMutability": "nonpayable",
      "type": "function"
    },
    {
      "inputs": [
        {
          "internalType": "bool",
          "name": "_shouldPause",
          "type": "bool"
        }
      ],
      "name": "setPause",
      "outputs": [],
      "stateMutability": "nonpayable",
      "type": "function"
    },
    {
      "inputs": [
        {
          "internalType": "uint256[]",
          "name": "_tiers",
          "type": "uint256[]"
        }
      ],
      "name": "setRiftTiers",
      "outputs": [],
      "stateMutability": "nonpayable",
      "type": "function"
    },
    {
      "inputs": [
        {
          "internalType": "uint8",
          "name": "_chanceWizardStolen",
          "type": "uint8"
        },
        {
          "internalType": "uint256",
          "name": "_treasureChestId",
          "type": "uint256"
        }
      ],
      "name": "setWizardSettings",
      "outputs": [],
      "stateMutability": "nonpayable",
      "type": "function"
    },
    {
      "inputs": [
        {
          "internalType": "uint256",
          "name": "_tokenId",
          "type": "uint256"
        },
        {
          "internalType": "address",
          "name": "_owner",
          "type": "address"
        }
      ],
      "name": "stake",
      "outputs": [],
      "stateMutability": "nonpayable",
      "type": "function"
    },
    {
      "inputs": [
        {
          "internalType": "uint256",
          "name": "_amount",
          "type": "uint256"
        }
      ],
      "name": "stakeGP",
      "outputs": [],
      "stateMutability": "nonpayable",
      "type": "function"
    },
    {
      "inputs": [
        {
          "internalType": "bytes4",
          "name": "interfaceId",
          "type": "bytes4"
        }
      ],
      "name": "supportsInterface",
      "outputs": [
        {
          "internalType": "bool",
          "name": "",
          "type": "bool"
        }
      ],
      "stateMutability": "view",
      "type": "function"
    },
    {
      "inputs": [],
      "name": "trainingProficiency",
      "outputs": [
        {
          "internalType": "contract ITrainingProficiency",
          "name": "",
          "type": "address"
        }
      ],
      "stateMutability": "view",
      "type": "function"
    },
    {
      "inputs": [
        {
          "internalType": "address",
          "name": "newOwner",
          "type": "address"
        }
      ],
      "name": "transferOwnership",
      "outputs": [],
      "stateMutability": "nonpayable",
      "type": "function"
    },
    {
      "inputs": [
        {
          "internalType": "uint256",
          "name": "_gpAmount",
          "type": "uint256"
        },
        {
          "internalType": "uint256[]",
          "name": "_wndTokenIds",
          "type": "uint256[]"
        },
        {
          "internalType": "uint256[]",
          "name": "_saIds",
          "type": "uint256[]"
        },
        {
          "internalType": "uint256[]",
          "name": "_saAmounts",
          "type": "uint256[]"
        },
        {
          "internalType": "uint256[]",
          "name": "_consumablesIds",
          "type": "uint256[]"
        },
        {
          "internalType": "uint256[]",
          "name": "_consumablesAmounts",
          "type": "uint256[]"
        }
      ],
      "name": "transferToL1",
      "outputs": [],
      "stateMutability": "nonpayable",
      "type": "function"
    },
    {
      "inputs": [],
      "name": "treasureChestId",
      "outputs": [
        {
          "internalType": "uint256",
          "name": "",
          "type": "uint256"
        }
      ],
      "stateMutability": "view",
      "type": "function"
    },
    {
      "inputs": [
        {
          "internalType": "uint256",
          "name": "_tokenId",
          "type": "uint256"
        },
        {
          "internalType": "bool",
          "name": "doTransfer",
          "type": "bool"
        }
      ],
      "name": "unstake",
      "outputs": [],
      "stateMutability": "nonpayable",
      "type": "function"
    },
    {
      "inputs": [
        {
          "internalType": "uint256",
          "name": "_amount",
          "type": "uint256"
        }
      ],
      "name": "unstakeGP",
      "outputs": [],
      "stateMutability": "nonpayable",
      "type": "function"
    },
    {
      "inputs": [
        {
          "internalType": "uint256",
          "name": "_amountNeededToOpenPortal",
          "type": "uint256"
        }
      ],
      "name": "updateStakeSettings",
      "outputs": [],
      "stateMutability": "nonpayable",
      "type": "function"
    },
    {
      "inputs": [],
      "name": "withdrawWizardsToWallet",
      "outputs": [],
      "stateMutability": "nonpayable",
      "type": "function"
    },
    {
      "inputs": [],
      "name": "wnd",
      "outputs": [
        {
          "internalType": "contract IWnD",
          "name": "",
          "type": "address"
        }
      ],
      "stateMutability": "view",
      "type": "function"
    },
    {
      "inputs": [],
      "name": "world",
      "outputs": [
        {
          "internalType": "contract IWorld",
          "name": "",
          "type": "address"
        }
      ],
      "stateMutability": "view",
      "type": "function"
    }
  ],
  "transactionHash": "0xbeee3fbce9ed02bcfe3777de9d0ad2fca7ef13cc4c21fee66944844e687a6777",
  "args": [],
  "numDeployments": 11,
  "solcInputHash": "1aace8d9207097bff04aaf5121321192",
  "bytecode": "0x608060405234801561001057600080fd5b506148fe806100206000396000f3fe608060405234801561001057600080fd5b506004361061028a5760003560e01c80638a902f8b1161015c578063b95eb64c116100ce578063f01abe8411610087578063f01abe84146105e1578063f10fb584146105f4578063f23a6e6114610608578063f2fde38b14610627578063fd501c6d1461063a578063ff47b9f51461064e57600080fd5b8063b95eb64c14610562578063babb509214610575578063bc197c8114610588578063bedb86fb146105a7578063c5788031146105ba578063d46b9330146105cd57600080fd5b806390a486a11161012057806390a486a1146104f95780639ad8d6f71461050c5780639c54df641461051f5780639ebea88c14610532578063b831c56e14610545578063b8a812e61461054f57600080fd5b80638a902f8b146104af5780638be886d5146104b95780638cdcc4b4146104cc5780638da5cb5b146104d457806390528e11146104e557600080fd5b8063377e11e011610200578063715018a6116101b9578063715018a6146104455780637acb77571461044d5780637e2eb0161461046057806380a59707146104735780638129fc1c146104875780638a600f4e1461048f57600080fd5b8063377e11e0146103e35780635c975abb146103f65780636d6aa34d146104025780636d7b9f6b14610416578063704802751461041e578063711f8ed61461043157600080fd5b80631785f53c116102525780631785f53c1461032f5780631b3a57d01461034457806324d7806c14610357578063263ed2851461038457806330b67baa146103a457806335195cec146103d057600080fd5b806301ffc9a71461028f5780630b0bbf69146102b75780630b6bc17d146102e65780630cf89beb146102f9578063150b7a0214610303575b600080fd5b6102a261029d366004613956565b610661565b60405190151581526020015b60405180910390f35b6102d86102c53660046139a5565b6101a16020526000908152604090205481565b6040519081526020016102ae565b6102d86102f43660046139c2565b610698565b6102d861019e5481565b610316610311366004613ac2565b6106ca565b6040516001600160e01b031990911681526020016102ae565b61034261033d3660046139a5565b6106db565b005b610342610352366004613b2d565b610730565b6102a26103653660046139a5565b6001600160a01b0316600090815261015f602052604090205460ff1690565b61019c546103929060ff1681565b60405160ff90911681526020016102ae565b610193546103b8906001600160a01b031681565b6040516001600160a01b0390911681526020016102ae565b6103426103de366004613d2a565b610774565b6103426103f1366004613e85565b610ef5565b61012d5460ff166102a2565b610196546103b8906001600160a01b031681565b610342610f97565b61034261042c3660046139a5565b611408565b610194546103b8906001600160a01b031681565b610342611457565b61034261045b366004613ec6565b61148b565b61034261046e366004613ef6565b611559565b610192546103b8906001600160a01b031681565b6103426115d8565b6104a261049d3660046139a5565b611652565b6040516102ae9190613fa2565b6102d86101a25481565b6102d86104c73660046139a5565b6118eb565b6102a2611985565b60fb546001600160a01b03166103b8565b610199546103b8906001600160a01b031681565b610342610507366004613fb5565b611a3d565b61034261051a366004613fe1565b611aef565b61034261052d366004613e85565b611bc3565b61034261054036600461408a565b611c60565b6102d86101a35481565b61034261055d366004613b2d565b611db4565b6103426105703660046140af565b611f4a565b6102d8610583366004614199565b612234565b6103166105963660046141b7565b63bc197c8160e01b95945050505050565b6103426105b5366004614264565b612251565b6102d86105c8366004613b2d565b6122a5565b610197546103b8906001600160a01b031681565b6103426105ef366004613e85565b6122c7565b610195546103b8906001600160a01b031681565b610316610616366004614281565b63f23a6e6160e01b95945050505050565b6103426106353660046139a5565b612312565b610198546103b8906001600160a01b031681565b61034261065c366004613b2d565b6123aa565b60006001600160e01b03198216630271189760e51b148061069257506301ffc9a760e01b6001600160e01b03198316145b92915050565b61019a60205281600052604060002081815481106106b557600080fd5b90600052602060002001600091509150505481565b630a85bd0160e11b5b949350505050565b60fb546001600160a01b0316331461070e5760405162461bcd60e51b8152600401610705906142e9565b60405180910390fd5b6001600160a01b0316600090815261015f60205260409020805460ff19169055565b33600090815261015f602052604090205460ff16806107525750610752612552565b61076e5760405162461bcd60e51b81526004016107059061431e565b6101a255565b33600090815261015f602052604090205460ff16806107965750610796612552565b6107b25760405162461bcd60e51b81526004016107059061431e565b82518451146107f45760405162461bcd60e51b815260206004820152600e60248201526d42616420534120416d6f756e747360901b6044820152606401610705565b805182511461083e5760405162461bcd60e51b815260206004820152601660248201527542616420436f6e73756d61626c6520416d6f756e747360501b6044820152606401610705565b84518651146108815760405162461bcd60e51b815260206004820152600f60248201526e42616420576e44206c656e6774687360881b6044820152606401610705565b86156108ef57610197546040516340c10f1960e01b81526001600160a01b038a81166004830152602482018a9052909116906340c10f1990604401600060405180830381600087803b1580156108d657600080fd5b505af11580156108ea573d6000803e3d6000fd5b505050505b60005b865181101561098f57600087828151811061090f5761090f61434a565b6020026020010151905080600014156109595760405162461bcd60e51b815260206004820152600c60248201526b109859081d1bdad95b881a5960a21b6044820152606401610705565b61097c8188848151811061096f5761096f61434a565b6020026020010151612576565b508061098781614376565b9150506108f2565b50835115610c3557600084516001600160401b038111156109b2576109b26139e4565b6040519080825280602002602001820160405280156109db578160200160208202803683370190505b50905060005b8551811015610a2757308282815181106109fd576109fd61434a565b6001600160a01b039092166020928302919091019091015280610a1f81614376565b9150506109e1565b50610198546040516313849cfd60e21b81526000916001600160a01b031690634e1273f490610a5c9085908a90600401614391565b60006040518083038186803b158015610a7457600080fd5b505afa158015610a88573d6000803e3d6000fd5b505050506040513d6000823e601f3d908101601f19168201604052610ab091908101906143f1565b905060005b8651811015610bc8576000828281518110610ad257610ad261434a565b60200260200101519050868281518110610aee57610aee61434a565b6020026020010151811015610bb5576101985488516001600160a01b03909116906351416019908a9085908110610b2757610b2761434a565b6020026020010151838a8681518110610b4257610b4261434a565b6020026020010151610b549190614481565b6040516001600160e01b031960e085901b168152600481019290925261ffff166024820152306044820152606401600060405180830381600087803b158015610b9c57600080fd5b505af1158015610bb0573d6000803e3d6000fd5b505050505b5080610bc081614376565b915050610ab5565b5061019854604051632bda09e960e21b81526001600160a01b039091169063af6827a490610c009030908e908b908b90600401614498565b600060405180830381600087803b158015610c1a57600080fd5b505af1158015610c2e573d6000803e3d6000fd5b5050505050505b815115610eda57600082516001600160401b03811115610c5757610c576139e4565b604051908082528060200260200182016040528015610c80578160200160208202803683370190505b50905060005b8351811015610ccc5730828281518110610ca257610ca261434a565b6001600160a01b039092166020928302919091019091015280610cc481614376565b915050610c86565b50610199546040516313849cfd60e21b81526000916001600160a01b031690634e1273f490610d019085908890600401614391565b60006040518083038186803b158015610d1957600080fd5b505afa158015610d2d573d6000803e3d6000fd5b505050506040513d6000823e601f3d908101601f19168201604052610d5591908101906143f1565b905060005b8451811015610e6d576000828281518110610d7757610d7761434a565b60200260200101519050848281518110610d9357610d9361434a565b6020026020010151811015610e5a576101995486516001600160a01b039091169063e7d3fe6b90889085908110610dcc57610dcc61434a565b602002602001015183888681518110610de757610de761434a565b6020026020010151610df99190614481565b6040516001600160e01b031960e085901b168152600481019290925261ffff166024820152306044820152606401600060405180830381600087803b158015610e4157600080fd5b505af1158015610e55573d6000803e3d6000fd5b505050505b5080610e6581614376565b915050610d5a565b5061019954604051632bda09e960e21b81526001600160a01b039091169063af6827a490610ea59030908e9089908990600401614498565b600060405180830381600087803b158015610ebf57600080fd5b505af1158015610ed3573d6000803e3d6000fd5b5050505050505b855115610eeb57610eeb8887612631565b5050505050505050565b60fb546001600160a01b03163314610f1f5760405162461bcd60e51b8152600401610705906142e9565b60005b81811015610f9257600061015f6000858585818110610f4357610f4361434a565b9050602002016020810190610f5891906139a5565b6001600160a01b031681526020810191909152604001600020805460ff191691151591909117905580610f8a81614376565b915050610f22565b505050565b610f9f611985565b610fbb5760405162461bcd60e51b8152600401610705906144d6565b61012d5460ff1615610fdf5760405162461bcd60e51b81526004016107059061450d565b33321461101d5760405162461bcd60e51b815260206004820152600c60248201526b4e6f20636f6e74726163747360a01b6044820152606401610705565b600061019e54116110705760405162461bcd60e51b815260206004820152601960248201527f5472656173757265206368657374204944206e6f7420736574000000000000006044820152606401610705565b33600090815261019b60209081526040808320805482518185028101850190935280835291929091908301828280156110c857602002820191906000526020600020905b8154815260200190600101908083116110b4575b5050505050905060008151116111145760405162461bcd60e51b8152602060048201526011602482015270139bc81c995c5d595cdd1cc8199bdd5b99607a1b6044820152606401610705565b6000805b82518110156113e95760008382815181106111355761113561434a565b60200260200101519050806000801b141561115057506113d7565b610195546040516308c821cb60e41b8152600481018390526001600160a01b0390911690638c821cb09060240160206040518083038186803b15801561119557600080fd5b505afa1580156111a9573d6000803e3d6000fd5b505050506040513d601f19601f820116820180604052508101906111cd9190614537565b61120f5760405162461bcd60e51b81526020600482015260136024820152725265717565737420696e2070726f677265737360681b6044820152606401610705565b610195546040516348d6006560e11b8152600481018390526000916001600160a01b0316906391ac00ca9060240160206040518083038186803b15801561125557600080fd5b505afa158015611269573d6000803e3d6000fd5b505050506040513d601f19601f8201168201806040525081019061128d9190614554565b600083815261019a60209081526040808320805482518185028101850190935280835294955092939092918301828280156112e757602002820191906000526020600020905b8154815260200190600101908083116112d3575b5050505050905060005b815181101561137b57600082828151811061130e5761130e61434a565b6020026020010151905080600014156113275750611369565b604080516020808201879052818301849052825180830384018152606090920190925280519101206113598282612876565b61136460018961456d565b975050505b8061137381614376565b9150506112f1565b5033600090815261019b6020526040902080548590811061139e5761139e61434a565b6000918252602080832090910182905584825261019a9052604081206113c391613853565b603285106113d357505050505050565b5050505b806113e181614376565b915050611118565b5033600090815261019b6020526040812061140391613853565b50505b565b60fb546001600160a01b031633146114325760405162461bcd60e51b8152600401610705906142e9565b6001600160a01b0316600090815261015f60205260409020805460ff19166001179055565b60fb546001600160a01b031633146114815760405162461bcd60e51b8152600401610705906142e9565b6114066000612dcc565b33600090815261015f602052604090205460ff16806114ad57506114ad612552565b6114c95760405162461bcd60e51b81526004016107059061431e565b6114d1611985565b6114ed5760405162461bcd60e51b8152600401610705906144d6565b6101935460405163d826cbe160e01b81526001600160a01b039091169063d826cbe19061152390859085906001906004016145a7565b600060405180830381600087803b15801561153d57600080fd5b505af1158015611551573d6000803e3d6000fd5b505050505050565b33600090815261015f602052604090205460ff168061157b575061157b612552565b6115975760405162461bcd60e51b81526004016107059061431e565b6000808080808080806115ac898b018b613d2a565b975097509750975097509750975097506115cc8888888888888888610774565b50505050505050505050565b600054610100900460ff166115f35760005460ff16156115f7565b303b155b6116135760405162461bcd60e51b8152600401610705906145ca565b600054610100900460ff16158015611635576000805461ffff19166101011790555b61163d612e1e565b801561164f576000805461ff00191690555b50565b6001600160a01b038116600090815261019b6020908152604080832080548251818502810185019093528083526060949384939291908301828280156116b757602002820191906000526020600020905b8154815260200190600101908083116116a3575b5050505050905060005b81518110156117905760008282815181106116de576116de61434a565b60200260200101519050600061019a600083815260200190815260200160002080548060200260200160405190810160405280929190818152602001828054801561174857602002820191906000526020600020905b815481526020019060010190808311611734575b5050505050905060005b815181101561177a5761176660018761456d565b95508061177281614376565b915050611752565b505050808061178890614376565b9150506116c1565b506000826001600160401b038111156117ab576117ab6139e4565b6040519080825280602002602001820160405280156117d4578160200160208202803683370190505b5090506000805b83518110156118e05760008482815181106117f8576117f861434a565b60200260200101519050600061019a600083815260200190815260200160002080548060200260200160405190810160405280929190818152602001828054801561186257602002820191906000526020600020905b81548152602001906001019080831161184e575b5050505050905060005b81518110156118ca578181815181106118875761188761434a565b602002602001015186868061189b90614376565b9750815181106118ad576118ad61434a565b6020908102919091010152806118c281614376565b91505061186c565b50505080806118d890614376565b9150506117db565b509095945050505050565b6001600160a01b03811660009081526101a16020526040812054815b61019d5481101561197b5761019d5461192290600190614481565b81108015611958575061019d61193982600161456d565b815481106119495761194961434a565b90600052602060002001548210155b1561196257611969565b9392505050565b8061197381614376565b915050611907565b5060009392505050565b610193546000906001600160a01b0316158015906119ae5750610194546001600160a01b031615155b80156119c55750610195546001600160a01b031615155b80156119dc5750610192546001600160a01b031615155b80156119f35750610197546001600160a01b031615155b8015611a0a5750610198546001600160a01b031615155b8015611a215750610199546001600160a01b031615155b8015611a385750610196546001600160a01b031615155b905090565b33600090815261015f602052604090205460ff1680611a5f5750611a5f612552565b611a7b5760405162461bcd60e51b81526004016107059061431e565b60088260ff1610158015611a93575060648260ff1611155b611ad35760405162461bcd60e51b81526020600482015260116024820152704261642077697a617264206368616e636560781b6044820152606401610705565b61019c805460ff191660ff939093169290921790915561019e55565b33600090815261015f602052604090205460ff1680611b115750611b11612552565b611b2d5760405162461bcd60e51b81526004016107059061431e565b61019380546001600160a01b03199081166001600160a01b039a8b161790915561019280548216988a1698909817909755610194805488169689169690961790955561019580548716948816949094179093556101968054861692871692909217909155610197805485169186169190911790556101988054841691851691909117905561019980549092169216919091179055565b60fb546001600160a01b03163314611bed5760405162461bcd60e51b8152600401610705906142e9565b60005b81811015610f9257600161015f6000858585818110611c1157611c1161434a565b9050602002016020810190611c2691906139a5565b6001600160a01b031681526020810191909152604001600020805460ff191691151591909117905580611c5881614376565b915050611bf0565b33600090815261015f602052604090205460ff1680611c825750611c82612552565b611c9e5760405162461bcd60e51b81526004016107059061431e565b611ca6611985565b611cc25760405162461bcd60e51b8152600401610705906144d6565b80156114035761019354604051630974560360e11b8152600481018490526000916001600160a01b0316906312e8ac069060240160206040518083038186803b158015611d0e57600080fd5b505afa158015611d22573d6000803e3d6000fd5b505050506040513d601f19601f82011682018060405250810190611d469190614618565b610193546040516301ef725160e11b8152600481018690526001600160a01b0380841660248301529293509116906303dee4a290604401600060405180830381600087803b158015611d9757600080fd5b505af1158015611dab573d6000803e3d6000fd5b50505050505050565b61012d5460ff1615611dd85760405162461bcd60e51b81526004016107059061450d565b60008111611e1e5760405162461bcd60e51b815260206004820152601360248201527226bab9ba1039ba30b5b29039b7b6b29023a81760691b6044820152606401610705565b806101a36000828254611e31919061456d565b90915550503360009081526101a1602052604081208054839290611e5690849061456d565b90915550503360009081526101a06020526040902054611e7e57611e7c61019f33612e83565b505b610197546040516323b872dd60e01b81526000916001600160a01b0316906323b872dd90611eb490339030908790600401614635565b602060405180830381600087803b158015611ece57600080fd5b505af1158015611ee2573d6000803e3d6000fd5b505050506040513d601f19601f82011682018060405250810190611f069190614537565b9050806114035760405162461bcd60e51b815260206004820152601260248201527111d4081b9bdd081d1c985b9cd9995c9c995960721b6044820152606401610705565b61012d5460ff1615611f6e5760405162461bcd60e51b81526004016107059061450d565b611f76611985565b611f925760405162461bcd60e51b8152600401610705906144d6565b600a871115611fe35760405162461bcd60e51b815260206004820152601960248201527f746f6f206d616e79204e46547320746f207472616e73666572000000000000006044820152606401610705565b6000891180611ff157508615155b80611ffb57508415155b80612007575060008251115b6120535760405162461bcd60e51b815260206004820152601d60248201527f4d7573742073656c65637420736f6d657468696e6720746f2073656e640000006044820152606401610705565b8483146120935760405162461bcd60e51b815260206004820152600e60248201526d426164205341206c656e6774687360901b6044820152606401610705565b80518251146120d25760405162461bcd60e51b815260206004820152600b60248201526a426164206c656e6774687360a81b6044820152606401610705565b6101a2546101a354101561211f5760405162461bcd60e51b8152602060048201526014602482015273139bdd08195b9bdd59da0811d4081cdd185ad95960621b6044820152606401610705565b60006121c48a8a8a8080602002602001604051908101604052809392919081815260200183836020028082843760009201919091525050604080516020808e0282810182019093528d82529093508d92508c91829185019084908082843760009201919091525050604080516020808d0282810182019093528c82529093508c92508b9182918501908490808284376000920191909152508a9250899150612e989050565b61019654604051634d089f7160e11b81529192506001600160a01b031690639a113ee2906121f6908490600401614659565b600060405180830381600087803b15801561221057600080fd5b505af1158015612224573d6000803e3d6000fd5b5050505050505050505050505050565b61019b60205281600052604060002081815481106106b557600080fd5b33600090815261015f602052604090205460ff16806122735750612273612552565b61228f5760405162461bcd60e51b81526004016107059061431e565b801561229d5761164f613104565b61164f61317b565b61019d81815481106122b657600080fd5b600091825260209091200154905081565b33600090815261015f602052604090205460ff16806122e957506122e9612552565b6123055760405162461bcd60e51b81526004016107059061431e565b610f9261019d8383613871565b60fb546001600160a01b0316331461233c5760405162461bcd60e51b8152600401610705906142e9565b6001600160a01b0381166123a15760405162461bcd60e51b815260206004820152602660248201527f4f776e61626c653a206e6577206f776e657220697320746865207a65726f206160448201526564647265737360d01b6064820152608401610705565b61164f81612dcc565b61012d5460ff16156123ce5760405162461bcd60e51b81526004016107059061450d565b3360009081526101a16020526040902054818110156124285760405162461bcd60e51b8152602060048201526016602482015275546f6f206d75636820475020746f20756e7374616b6560501b6044820152606401610705565b816101a3600082825461243b9190614481565b90915550503360009081526101a1602052604081208054849290612460908490614481565b90915550503360009081526101a160205260409020546124885761248661019f336131f7565b505b6101975460405163a9059cbb60e01b8152336004820152602481018490526000916001600160a01b03169063a9059cbb90604401602060405180830381600087803b1580156124d657600080fd5b505af11580156124ea573d6000803e3d6000fd5b505050506040513d601f19601f8201168201806040525081019061250e9190614537565b905080610f925760405162461bcd60e51b815260206004820152601260248201527111d4081b9bdd081d1c985b9cd9995c9c995960721b6044820152606401610705565b60003361256760fb546001600160a01b031690565b6001600160a01b031614905090565b61019254604051634f558e7960e01b8152600481018490526001600160a01b0390911690634f558e799060240160206040518083038186803b1580156125bb57600080fd5b505afa1580156125cf573d6000803e3d6000fd5b505050506040513d601f19601f820116820180604052508101906125f39190614537565b156125fc575050565b61019254604051634e5822af60e01b81526001600160a01b0390911690634e5822af90611523903090869086906004016146ae565b600081516001600160401b0381111561264c5761264c6139e4565b604051908082528060200260200182016040528015612675578160200160208202803683370190505b5090506000805b83518110156127925760008482815181106126995761269961434a565b602002602001015190506126ac8161320c565b156126e157808484815181106126c4576126c461434a565b6020908102919091010152826126d981614376565b93505061277f565b6101925460405163b1197a3760e01b81526001600160a01b039091169063b1197a37906127169030908a908690600401614635565b600060405180830381600087803b15801561273057600080fd5b505af1158015612744573d6000803e3d6000fd5b50506040518392506001600160a01b03891691507fa2bd9fcfcdba69f52bcd9a520846ad4bd685b187483f53efc42d035b2ddebff090600090a35b508061278a81614376565b91505061267c565b508061279e5750505050565b610195546040805163dbdff2c160e01b815290516000926001600160a01b03169163dbdff2c191600480830192602092919082900301818787803b1580156127e557600080fd5b505af11580156127f9573d6000803e3d6000fd5b505050506040513d601f19601f8201168201806040525081019061281d9190614554565b600081815261019a6020908152604090912085519293506128429290918601906138bc565b506001600160a01b03909416600090815261019b602090815260408220805460018101825590835291200193909355505050565b600061288360648361476e565b610194546040516358c6a0bd60e01b8152600481018690529192506000916001600160a01b03909116906358c6a0bd9060240160206040518083038186803b1580156128ce57600080fd5b505afa1580156128e2573d6000803e3d6000fd5b505050506040513d601f19601f820116820180604052508101906129069190614790565b9050600060088260ff161161291b578161291e565b60085b61019c5490915060009061293690839060ff166147ad565b61019c5460ff918216925060009116158015906129d8575061019360009054906101000a90046001600160a01b03166001600160a01b03166386e556a96040518163ffffffff1660e01b815260040160206040518083038186803b15801561299d57600080fd5b505afa1580156129b1573d6000803e3d6000fd5b505050506040513d601f19601f820116820180604052508101906129d59190614554565b15155b80156129e357508185105b90508015612d2f57604080516020808201899052818301899052825180830384018152606083019384905280519101206101935463a6444c2f60e01b909352916000916001600160a01b039091169063a6444c2f90612a499085906001906064016147d0565b60206040518083038186803b158015612a6157600080fd5b505afa158015612a75573d6000803e3d6000fd5b505050506040513d601f19601f82011682018060405250810190612a999190614618565b6101985461019e54604051627eeac760e11b8152336004820152602481019190915291925060009182916001600160a01b03169062fdd58e9060440160206040518083038186803b158015612aed57600080fd5b505afa158015612b01573d6000803e3d6000fd5b505050506040513d601f19601f82011682018060405250810190612b259190614554565b119050808015612b39575060ff89901c6001145b15612c87576101985461019e5460405163a878b95d60e01b81523360048201526001600160a01b03858116602483015260448201929092526001606482015291169063a878b95d90608401600060405180830381600087803b158015612b9e57600080fd5b505af1158015612bb2573d6000803e3d6000fd5b50506040518c92506001600160a01b038516915033907f337590a7dc1062345f0dd79645af6f02914bf729313ead215d694c287468d7be90600090a46101925460405163b1197a3760e01b81526001600160a01b039091169063b1197a3790612c2390309033908f90600401614635565b600060405180830381600087803b158015612c3d57600080fd5b505af1158015612c51573d6000803e3d6000fd5b50506040518c92503391507fa2bd9fcfcdba69f52bcd9a520846ad4bd685b187483f53efc42d035b2ddebff090600090a3612d27565b6101925460405163b1197a3760e01b81526001600160a01b039091169063b1197a3790612cbc90309086908f90600401614635565b600060405180830381600087803b158015612cd657600080fd5b505af1158015612cea573d6000803e3d6000fd5b50506040518c92506001600160a01b038516915033907f4edefe726918ee1f76aa06153a2619479bcc3e68e75f8a94a2ecd2841a13d71a90600090a45b505050611dab565b6101925460405163b1197a3760e01b81526001600160a01b039091169063b1197a3790612d6490309033908c90600401614635565b600060405180830381600087803b158015612d7e57600080fd5b505af1158015612d92573d6000803e3d6000fd5b50506040518992503391507fa2bd9fcfcdba69f52bcd9a520846ad4bd685b187483f53efc42d035b2ddebff090600090a350505050505050565b60fb80546001600160a01b038381166001600160a01b0319831681179093556040519116919082907f8be0079c531659141344cd1fd0a4f28419497f9722a3daafe3b4186f6b6457e090600090a35050565b600054610100900460ff16612e395760005460ff1615612e3d565b303b155b612e595760405162461bcd60e51b8152600401610705906145ca565b600054610100900460ff16158015612e7b576000805461ffff19166101011790555b61163d6132b5565b6000611962836001600160a01b03841661331a565b60608615612f065761019754604051632770a7eb60e21b8152336004820152602481018990526001600160a01b0390911690639dc29fac90604401600060405180830381600087803b158015612eed57600080fd5b505af1158015612f01573d6000803e3d6000fd5b505050505b60005b8651811015612fe9576000878281518110612f2657612f2661434a565b602002602001015190508060001415612f6e5760405162461bcd60e51b815260206004820152600a6024820152691098590815db9908125160b21b6044820152606401610705565b6101925460405163b1197a3760e01b81526001600160a01b039091169063b1197a3790612fa390339030908690600401614635565b600060405180830381600087803b158015612fbd57600080fd5b505af1158015612fd1573d6000803e3d6000fd5b50505050508080612fe190614376565b915050612f09565b5084511561305b5761019854604051632bda09e960e21b81526001600160a01b039091169063af6827a49061302890339030908a908a90600401614498565b600060405180830381600087803b15801561304257600080fd5b505af1158015613056573d6000803e3d6000fd5b505050505b8251156130cc5761019954604051632bda09e960e21b81526001600160a01b039091169063af6827a490613099903390309088908890600401614498565b600060405180830381600087803b1580156130b357600080fd5b505af11580156130c7573d6000803e3d6000fd5b505050505b338787878787876040516020016130e997969594939291906147e4565b60405160208183030381529060405290509695505050505050565b61012d5460ff16156131285760405162461bcd60e51b81526004016107059061450d565b61012d805460ff191660011790557f62e78cea01bee320cd4e420270b5ea74000d11b0c9f74754ebdbfc544b05a25861315e3390565b6040516001600160a01b03909116815260200160405180910390a1565b61012d5460ff166131c55760405162461bcd60e51b815260206004820152601460248201527314185d5cd8589b194e881b9bdd081c185d5cd95960621b6044820152606401610705565b61012d805460ff191690557f5db9ee0a495bf2e6ff9c91a7834c1ba4fdd244a5e8aa4e537bd38aeae4b073aa3361315e565b6000611962836001600160a01b038416613369565b6000613a98821161321f57506000919050565b61019254604051600162ac0b8d60e01b03198152600481018490526001600160a01b039091169063ff53f4739060240160206040518083038186803b15801561326757600080fd5b505afa15801561327b573d6000803e3d6000fd5b505050506040513d601f19601f8201168201806040525081019061329f9190614537565b8015610692575061019c5460ff16151592915050565b600054610100900460ff166132d05760005460ff16156132d4565b303b155b6132f05760405162461bcd60e51b8152600401610705906145ca565b600054610100900460ff16158015613312576000805461ffff19166101011790555b61163d61345c565b600081815260018301602052604081205461336157508154600181810184556000848152602080822090930184905584548482528286019093526040902091909155610692565b506000610692565b6000818152600183016020526040812054801561345257600061338d600183614481565b85549091506000906133a190600190614481565b90508181146134065760008660000182815481106133c1576133c161434a565b90600052602060002001549050808760000184815481106133e4576133e461434a565b6000918252602080832090910192909255918252600188019052604090208390555b855486908061341757613417614867565b600190038181906000526020600020016000905590558560010160008681526020019081526020016000206000905560019350505050610692565b6000915050610692565b600054610100900460ff166134775760005460ff161561347b565b303b155b6134975760405162461bcd60e51b8152600401610705906145ca565b600054610100900460ff161580156134b9576000805461ffff19166101011790555b61163d600054610100900460ff166134d75760005460ff16156134db565b303b155b6134f75760405162461bcd60e51b8152600401610705906145ca565b600054610100900460ff16158015613519576000805461ffff19166101011790555b61163d600054610100900460ff166135375760005460ff161561353b565b303b155b6135575760405162461bcd60e51b8152600401610705906145ca565b600054610100900460ff16158015613579576000805461ffff19166101011790555b61358161361a565b61358961367f565b6135916136ae565b600561019e556a22cc750f4975516b2000006101a25561019c805460ff1916600a179055604080516080810182526000815269152d02c7e14af6800000602082015269d3c21bcecceda1000000918101919091526a084595161401484a00000060608201526136059061019d9060046138f7565b50801561164f576000805461ff001916905550565b600054610100900460ff166136355760005460ff1615613639565b303b155b6136555760405162461bcd60e51b8152600401610705906145ca565b600054610100900460ff16158015613677576000805461ffff19166101011790555b61163d6136e5565b600054610100900460ff166136a65760405162461bcd60e51b81526004016107059061487d565b61140661375a565b600054610100900460ff166136d55760405162461bcd60e51b81526004016107059061487d565b6136dd61375a565b6136a661375a565b600054610100900460ff166137005760005460ff1615613704565b303b155b6137205760405162461bcd60e51b8152600401610705906145ca565b600054610100900460ff16158015613742576000805461ffff19166101011790555b61374a613781565b6137526137b8565b61163d613104565b600054610100900460ff166114065760405162461bcd60e51b81526004016107059061487d565b600054610100900460ff166137a85760405162461bcd60e51b81526004016107059061487d565b6137b061375a565b6114066137ef565b600054610100900460ff166137df5760405162461bcd60e51b81526004016107059061487d565b6137e761375a565b61140661381f565b600054610100900460ff166138165760405162461bcd60e51b81526004016107059061487d565b61140633612dcc565b600054610100900460ff166138465760405162461bcd60e51b81526004016107059061487d565b61012d805460ff19169055565b508054600082559060005260206000209081019061164f9190613941565b8280548282559060005260206000209081019282156138ac579160200282015b828111156138ac578235825591602001919060010190613891565b506138b8929150613941565b5090565b8280548282559060005260206000209081019282156138ac579160200282015b828111156138ac5782518255916020019190600101906138dc565b8280548282559060005260206000209081019282156138ac579160200282015b828111156138ac57825182906affffffffffffffffffffff16905591602001919060010190613917565b5b808211156138b85760008155600101613942565b60006020828403121561396857600080fd5b81356001600160e01b03198116811461196257600080fd5b6001600160a01b038116811461164f57600080fd5b80356139a081613980565b919050565b6000602082840312156139b757600080fd5b813561196281613980565b600080604083850312156139d557600080fd5b50508035926020909101359150565b634e487b7160e01b600052604160045260246000fd5b60405161014081016001600160401b0381118282101715613a1d57613a1d6139e4565b60405290565b604051601f8201601f191681016001600160401b0381118282101715613a4b57613a4b6139e4565b604052919050565b600082601f830112613a6457600080fd5b81356001600160401b03811115613a7d57613a7d6139e4565b613a90601f8201601f1916602001613a23565b818152846020838601011115613aa557600080fd5b816020850160208301376000918101602001919091529392505050565b60008060008060808587031215613ad857600080fd5b8435613ae381613980565b93506020850135613af381613980565b92506040850135915060608501356001600160401b03811115613b1557600080fd5b613b2187828801613a53565b91505092959194509250565b600060208284031215613b3f57600080fd5b5035919050565b60006001600160401b03821115613b5f57613b5f6139e4565b5060051b60200190565b600082601f830112613b7a57600080fd5b81356020613b8f613b8a83613b46565b613a23565b82815260059290921b84018101918181019086841115613bae57600080fd5b8286015b84811015613bc95780358352918301918301613bb2565b509695505050505050565b801515811461164f57600080fd5b80356139a081613bd4565b60ff8116811461164f57600080fd5b80356139a081613bed565b600082601f830112613c1857600080fd5b81356020613c28613b8a83613b46565b8281526101409283028501820192828201919087851115613c4857600080fd5b8387015b85811015613d1d5781818a031215613c645760008081fd5b613c6c6139fa565b613c7582613be2565b8152613c82868301613bfc565b868201526040613c93818401613bfc565b908201526060613ca4838201613bfc565b908201526080613cb5838201613bfc565b9082015260a0613cc6838201613bfc565b9082015260c0613cd7838201613bfc565b9082015260e0613ce8838201613bfc565b90820152610100613cfa838201613bfc565b90820152610120613d0c838201613bfc565b908201528452928401928101613c4c565b5090979650505050505050565b600080600080600080600080610100898b031215613d4757600080fd5b613d5089613995565b97506020890135965060408901356001600160401b0380821115613d7357600080fd5b613d7f8c838d01613b69565b975060608b0135915080821115613d9557600080fd5b613da18c838d01613c07565b965060808b0135915080821115613db757600080fd5b613dc38c838d01613b69565b955060a08b0135915080821115613dd957600080fd5b613de58c838d01613b69565b945060c08b0135915080821115613dfb57600080fd5b613e078c838d01613b69565b935060e08b0135915080821115613e1d57600080fd5b50613e2a8b828c01613b69565b9150509295985092959890939650565b60008083601f840112613e4c57600080fd5b5081356001600160401b03811115613e6357600080fd5b6020830191508360208260051b8501011115613e7e57600080fd5b9250929050565b60008060208385031215613e9857600080fd5b82356001600160401b03811115613eae57600080fd5b613eba85828601613e3a565b90969095509350505050565b60008060408385031215613ed957600080fd5b823591506020830135613eeb81613980565b809150509250929050565b60008060208385031215613f0957600080fd5b82356001600160401b0380821115613f2057600080fd5b818501915085601f830112613f3457600080fd5b813581811115613f4357600080fd5b866020828501011115613f5557600080fd5b60209290920196919550909350505050565b600081518084526020808501945080840160005b83811015613f9757815187529582019590820190600101613f7b565b509495945050505050565b6020815260006119626020830184613f67565b60008060408385031215613fc857600080fd5b8235613fd381613bed565b946020939093013593505050565b600080600080600080600080610100898b031215613ffe57600080fd5b883561400981613980565b9750602089013561401981613980565b9650604089013561402981613980565b9550606089013561403981613980565b9450608089013561404981613980565b935060a089013561405981613980565b925060c089013561406981613980565b915060e089013561407981613980565b809150509295985092959890939650565b6000806040838503121561409d57600080fd5b823591506020830135613eeb81613bd4565b600080600080600080600080600060c08a8c0312156140cd57600080fd5b8935985060208a01356001600160401b03808211156140eb57600080fd5b6140f78d838e01613e3a565b909a50985060408c013591508082111561411057600080fd5b61411c8d838e01613e3a565b909850965060608c013591508082111561413557600080fd5b6141418d838e01613e3a565b909650945060808c013591508082111561415a57600080fd5b6141668d838e01613b69565b935060a08c013591508082111561417c57600080fd5b506141898c828d01613b69565b9150509295985092959850929598565b600080604083850312156141ac57600080fd5b8235613fd381613980565b600080600080600060a086880312156141cf57600080fd5b85356141da81613980565b945060208601356141ea81613980565b935060408601356001600160401b038082111561420657600080fd5b61421289838a01613b69565b9450606088013591508082111561422857600080fd5b61423489838a01613b69565b9350608088013591508082111561424a57600080fd5b5061425788828901613a53565b9150509295509295909350565b60006020828403121561427657600080fd5b813561196281613bd4565b600080600080600060a0868803121561429957600080fd5b85356142a481613980565b945060208601356142b481613980565b9350604086013592506060860135915060808601356001600160401b038111156142dd57600080fd5b61425788828901613a53565b6020808252818101527f4f776e61626c653a2063616c6c6572206973206e6f7420746865206f776e6572604082015260600190565b6020808252601290820152712737ba1030b236b4b71037b91037bbb732b960711b604082015260600190565b634e487b7160e01b600052603260045260246000fd5b634e487b7160e01b600052601160045260246000fd5b600060001982141561438a5761438a614360565b5060010190565b604080825283519082018190526000906020906060840190828701845b828110156143d35781516001600160a01b0316845292840192908401906001016143ae565b505050838103828501526143e78186613f67565b9695505050505050565b6000602080838503121561440457600080fd5b82516001600160401b0381111561441a57600080fd5b8301601f8101851361442b57600080fd5b8051614439613b8a82613b46565b81815260059190911b8201830190838101908783111561445857600080fd5b928401925b828410156144765783518252928401929084019061445d565b979650505050505050565b60008282101561449357614493614360565b500390565b6001600160a01b038581168252841660208201526080604082018190526000906144c490830185613f67565b82810360608401526144768185613f67565b60208082526017908201527f526966743a20436f6e747261637473206e6f7420736574000000000000000000604082015260600190565b60208082526010908201526f14185d5cd8589b194e881c185d5cd95960821b604082015260600190565b60006020828403121561454957600080fd5b815161196281613bd4565b60006020828403121561456657600080fd5b5051919050565b6000821982111561458057614580614360565b500190565b600581106145a357634e487b7160e01b600052602160045260246000fd5b9052565b8381526001600160a01b0383166020820152606081016106d36040830184614585565b6020808252602e908201527f496e697469616c697a61626c653a20636f6e747261637420697320616c72656160408201526d191e481a5b9a5d1a585b1a5e995960921b606082015260800190565b60006020828403121561462a57600080fd5b815161196281613980565b6001600160a01b039384168152919092166020820152604081019190915260600190565b600060208083528351808285015260005b818110156146865785810183015185820160400152820161466a565b81811115614698576000604083870101525b50601f01601f1916929092016040019392505050565b6001600160a01b0384168152602081018390528151151560408201526101808101602083015160ff8116606084015250604083015160ff8116608084015250606083015160ff811660a084015250608083015160ff811660c08401525060a083015160ff811660e08401525060c08301516101006147308185018360ff169052565b60e085015191506101206147488186018460ff169052565b9085015160ff908116610140860152940151909316610160909201919091529392505050565b60008261478b57634e487b7160e01b600052601260045260246000fd5b500690565b6000602082840312156147a257600080fd5b815161196281613bed565b600060ff821660ff8416808210156147c7576147c7614360565b90039392505050565b828152604081016119626020830184614585565b60018060a01b038816815286602082015260e06040820152600061480b60e0830188613f67565b828103606084015261481d8188613f67565b905082810360808401526148318187613f67565b905082810360a08401526148458186613f67565b905082810360c08401526148598185613f67565b9a9950505050505050505050565b634e487b7160e01b600052603160045260246000fd5b6020808252602b908201527f496e697469616c697a61626c653a20636f6e7472616374206973206e6f74206960408201526a6e697469616c697a696e6760a81b60608201526080019056fea264697066735822122083cdb638a92193cff38eaaa1bb783f4e6897805512b5a03eb8d19c9099b77d1464736f6c63430008090033",
  "devdoc": {
    "kind": "dev",
    "methods": {
      "onERC721Received(address,address,uint256,bytes)": {
        "details": "See {IERC721Receiver-onERC721Received}. Always returns `IERC721Receiver.onERC721Received.selector`."
      },
      "owner()": {
        "details": "Returns the address of the current owner."
      },
      "paused()": {
        "details": "Returns true if the contract is paused, and false otherwise."
      },
      "renounceOwnership()": {
        "details": "Leaves the contract without owner. It will not be possible to call `onlyOwner` functions anymore. Can only be called by the current owner. NOTE: Renouncing ownership will leave the contract without an owner, thereby removing any functionality that is only available to the owner."
      },
      "supportsInterface(bytes4)": {
        "details": "See {IERC165-supportsInterface}."
      },
      "transferOwnership(address)": {
        "details": "Transfers ownership of the contract to a new account (`newOwner`). Can only be called by the current owner."
      }
    },
    "version": 1
  },
  "userdoc": {
    "kind": "user",
    "methods": {},
    "version": 1
  },
  "storageLayout": {
    "storage": [
      {
        "astId": 2787,
        "contract": "contracts/wnd/rift/Rift.sol:Rift",
        "label": "_initialized",
        "offset": 0,
        "slot": "0",
        "type": "t_bool"
      },
      {
        "astId": 2790,
        "contract": "contracts/wnd/rift/Rift.sol:Rift",
        "label": "_initializing",
        "offset": 1,
        "slot": "0",
        "type": "t_bool"
      },
      {
        "astId": 6549,
        "contract": "contracts/wnd/rift/Rift.sol:Rift",
        "label": "__gap",
        "offset": 0,
        "slot": "1",
        "type": "t_array(t_uint256)50_storage"
      },
      {
        "astId": 7087,
        "contract": "contracts/wnd/rift/Rift.sol:Rift",
        "label": "__gap",
        "offset": 0,
        "slot": "51",
        "type": "t_array(t_uint256)50_storage"
      },
      {
        "astId": 4405,
        "contract": "contracts/wnd/rift/Rift.sol:Rift",
        "label": "__gap",
        "offset": 0,
        "slot": "101",
        "type": "t_array(t_uint256)50_storage"
      },
      {
        "astId": 4346,
        "contract": "contracts/wnd/rift/Rift.sol:Rift",
        "label": "__gap",
        "offset": 0,
        "slot": "151",
        "type": "t_array(t_uint256)50_storage"
      },
      {
        "astId": 6838,
        "contract": "contracts/wnd/rift/Rift.sol:Rift",
        "label": "__gap",
        "offset": 0,
        "slot": "201",
        "type": "t_array(t_uint256)50_storage"
      },
      {
        "astId": 2665,
        "contract": "contracts/wnd/rift/Rift.sol:Rift",
        "label": "_owner",
        "offset": 0,
        "slot": "251",
        "type": "t_address"
      },
      {
        "astId": 2779,
        "contract": "contracts/wnd/rift/Rift.sol:Rift",
        "label": "__gap",
        "offset": 0,
        "slot": "252",
        "type": "t_array(t_uint256)49_storage"
      },
      {
        "astId": 2875,
        "contract": "contracts/wnd/rift/Rift.sol:Rift",
        "label": "_paused",
        "offset": 0,
        "slot": "301",
        "type": "t_bool"
      },
      {
        "astId": 2966,
        "contract": "contracts/wnd/rift/Rift.sol:Rift",
        "label": "__gap",
        "offset": 0,
        "slot": "302",
        "type": "t_array(t_uint256)49_storage"
      },
      {
        "astId": 12059,
        "contract": "contracts/wnd/rift/Rift.sol:Rift",
        "label": "admins",
        "offset": 0,
        "slot": "351",
        "type": "t_mapping(t_address,t_bool)"
      },
      {
        "astId": 12219,
        "contract": "contracts/wnd/rift/Rift.sol:Rift",
        "label": "__gap",
        "offset": 0,
        "slot": "352",
        "type": "t_array(t_uint256)50_storage"
      },
      {
        "astId": 19004,
        "contract": "contracts/wnd/rift/Rift.sol:Rift",
        "label": "wnd",
        "offset": 0,
        "slot": "402",
        "type": "t_contract(IWnD)22085"
      },
      {
        "astId": 19007,
        "contract": "contracts/wnd/rift/Rift.sol:Rift",
        "label": "world",
        "offset": 0,
        "slot": "403",
        "type": "t_contract(IWorld)26276"
      },
      {
        "astId": 19010,
        "contract": "contracts/wnd/rift/Rift.sol:Rift",
        "label": "trainingProficiency",
        "offset": 0,
        "slot": "404",
        "type": "t_contract(ITrainingProficiency)25686"
      },
      {
        "astId": 19013,
        "contract": "contracts/wnd/rift/Rift.sol:Rift",
        "label": "randomizer",
        "offset": 0,
        "slot": "405",
        "type": "t_contract(IRandomizerCL)12779"
      },
      {
        "astId": 19016,
        "contract": "contracts/wnd/rift/Rift.sol:Rift",
        "label": "childTunnel",
        "offset": 0,
        "slot": "406",
        "type": "t_contract(IChildTunnel)25914"
      },
      {
        "astId": 19019,
        "contract": "contracts/wnd/rift/Rift.sol:Rift",
        "label": "gp",
        "offset": 0,
        "slot": "407",
        "type": "t_contract(IGP)20820"
      },
      {
        "astId": 19022,
        "contract": "contracts/wnd/rift/Rift.sol:Rift",
        "label": "sacrificialAlter",
        "offset": 0,
        "slot": "408",
        "type": "t_contract(ISacrificialAlter)20868"
      },
      {
        "astId": 19025,
        "contract": "contracts/wnd/rift/Rift.sol:Rift",
        "label": "consumables",
        "offset": 0,
        "slot": "409",
        "type": "t_contract(IConsumables)20660"
      },
      {
        "astId": 19030,
        "contract": "contracts/wnd/rift/Rift.sol:Rift",
        "label": "requestIdToTokens",
        "offset": 0,
        "slot": "410",
        "type": "t_mapping(t_bytes32,t_array(t_uint256)dyn_storage)"
      },
      {
        "astId": 19035,
        "contract": "contracts/wnd/rift/Rift.sol:Rift",
        "label": "recipientToRequestIDs",
        "offset": 0,
        "slot": "411",
        "type": "t_mapping(t_address,t_array(t_bytes32)dyn_storage)"
      },
      {
        "astId": 19037,
        "contract": "contracts/wnd/rift/Rift.sol:Rift",
        "label": "chanceWizardStolen",
        "offset": 0,
        "slot": "412",
        "type": "t_uint8"
      },
      {
        "astId": 19040,
        "contract": "contracts/wnd/rift/Rift.sol:Rift",
        "label": "riftTierAmts",
        "offset": 0,
        "slot": "413",
        "type": "t_array(t_uint256)dyn_storage"
      },
      {
        "astId": 19042,
        "contract": "contracts/wnd/rift/Rift.sol:Rift",
        "label": "treasureChestId",
        "offset": 0,
        "slot": "414",
        "type": "t_uint256"
      },
      {
        "astId": 19045,
        "contract": "contracts/wnd/rift/Rift.sol:Rift",
        "label": "addressesStaked",
        "offset": 0,
        "slot": "415",
        "type": "t_struct(AddressSet)7412_storage"
      },
      {
        "astId": 19049,
        "contract": "contracts/wnd/rift/Rift.sol:Rift",
        "label": "addressToGPStaked",
        "offset": 0,
        "slot": "417",
        "type": "t_mapping(t_address,t_uint256)"
      },
      {
        "astId": 19051,
        "contract": "contracts/wnd/rift/Rift.sol:Rift",
        "label": "amountNeededToOpenPortal",
        "offset": 0,
        "slot": "418",
        "type": "t_uint256"
      },
      {
        "astId": 19053,
        "contract": "contracts/wnd/rift/Rift.sol:Rift",
        "label": "amountCurrentlyStaked",
        "offset": 0,
        "slot": "419",
        "type": "t_uint256"
      }
    ],
    "types": {
      "t_address": {
        "encoding": "inplace",
        "label": "address",
        "numberOfBytes": "20"
      },
      "t_array(t_bytes32)dyn_storage": {
        "base": "t_bytes32",
        "encoding": "dynamic_array",
        "label": "bytes32[]",
        "numberOfBytes": "32"
      },
      "t_array(t_uint256)49_storage": {
        "base": "t_uint256",
        "encoding": "inplace",
        "label": "uint256[49]",
        "numberOfBytes": "1568"
      },
      "t_array(t_uint256)50_storage": {
        "base": "t_uint256",
        "encoding": "inplace",
        "label": "uint256[50]",
        "numberOfBytes": "1600"
      },
      "t_array(t_uint256)dyn_storage": {
        "base": "t_uint256",
        "encoding": "dynamic_array",
        "label": "uint256[]",
        "numberOfBytes": "32"
      },
      "t_bool": {
        "encoding": "inplace",
        "label": "bool",
        "numberOfBytes": "1"
      },
      "t_bytes32": {
        "encoding": "inplace",
        "label": "bytes32",
        "numberOfBytes": "32"
      },
      "t_contract(IChildTunnel)25914": {
        "encoding": "inplace",
        "label": "contract IChildTunnel",
        "numberOfBytes": "20"
      },
      "t_contract(IConsumables)20660": {
        "encoding": "inplace",
        "label": "contract IConsumables",
        "numberOfBytes": "20"
      },
      "t_contract(IGP)20820": {
        "encoding": "inplace",
        "label": "contract IGP",
        "numberOfBytes": "20"
      },
      "t_contract(IRandomizerCL)12779": {
        "encoding": "inplace",
        "label": "contract IRandomizerCL",
        "numberOfBytes": "20"
      },
      "t_contract(ISacrificialAlter)20868": {
        "encoding": "inplace",
        "label": "contract ISacrificialAlter",
        "numberOfBytes": "20"
      },
      "t_contract(ITrainingProficiency)25686": {
        "encoding": "inplace",
        "label": "contract ITrainingProficiency",
        "numberOfBytes": "20"
      },
      "t_contract(IWnD)22085": {
        "encoding": "inplace",
        "label": "contract IWnD",
        "numberOfBytes": "20"
      },
      "t_contract(IWorld)26276": {
        "encoding": "inplace",
        "label": "contract IWorld",
        "numberOfBytes": "20"
      },
      "t_mapping(t_address,t_array(t_bytes32)dyn_storage)": {
        "encoding": "mapping",
        "key": "t_address",
        "label": "mapping(address => bytes32[])",
        "numberOfBytes": "32",
        "value": "t_array(t_bytes32)dyn_storage"
      },
      "t_mapping(t_address,t_bool)": {
        "encoding": "mapping",
        "key": "t_address",
        "label": "mapping(address => bool)",
        "numberOfBytes": "32",
        "value": "t_bool"
      },
      "t_mapping(t_address,t_uint256)": {
        "encoding": "mapping",
        "key": "t_address",
        "label": "mapping(address => uint256)",
        "numberOfBytes": "32",
        "value": "t_uint256"
      },
      "t_mapping(t_bytes32,t_array(t_uint256)dyn_storage)": {
        "encoding": "mapping",
        "key": "t_bytes32",
        "label": "mapping(bytes32 => uint256[])",
        "numberOfBytes": "32",
        "value": "t_array(t_uint256)dyn_storage"
      },
      "t_mapping(t_bytes32,t_uint256)": {
        "encoding": "mapping",
        "key": "t_bytes32",
        "label": "mapping(bytes32 => uint256)",
        "numberOfBytes": "32",
        "value": "t_uint256"
      },
      "t_struct(AddressSet)7412_storage": {
        "encoding": "inplace",
        "label": "struct EnumerableSetUpgradeable.AddressSet",
        "members": [
          {
            "astId": 7411,
            "contract": "contracts/wnd/rift/Rift.sol:Rift",
            "label": "_inner",
            "offset": 0,
            "slot": "0",
            "type": "t_struct(Set)7111_storage"
          }
        ],
        "numberOfBytes": "64"
      },
      "t_struct(Set)7111_storage": {
        "encoding": "inplace",
        "label": "struct EnumerableSetUpgradeable.Set",
        "members": [
          {
            "astId": 7106,
            "contract": "contracts/wnd/rift/Rift.sol:Rift",
            "label": "_values",
            "offset": 0,
            "slot": "0",
            "type": "t_array(t_bytes32)dyn_storage"
          },
          {
            "astId": 7110,
            "contract": "contracts/wnd/rift/Rift.sol:Rift",
            "label": "_indexes",
            "offset": 0,
            "slot": "1",
            "type": "t_mapping(t_bytes32,t_uint256)"
          }
        ],
        "numberOfBytes": "64"
      },
      "t_uint256": {
        "encoding": "inplace",
        "label": "uint256",
        "numberOfBytes": "32"
      },
      "t_uint8": {
        "encoding": "inplace",
        "label": "uint8",
        "numberOfBytes": "1"
      }
    }
  }
}