{
  "address": "0x4407cF23Af423ae7d7A0b134944ceAC85e170b19",
  "abi": [
    {
      "anonymous": false,
      "inputs": [
        {
          "indexed": true,
          "internalType": "address",
          "name": "previousOwner",
          "type": "address"
        },
        {
          "indexed": true,
          "internalType": "address",
          "name": "newOwner",
          "type": "address"
        }
      ],
      "name": "OwnershipTransferred",
      "type": "event"
    },
    {
      "anonymous": false,
      "inputs": [
        {
          "indexed": false,
          "internalType": "address",
          "name": "account",
          "type": "address"
        }
      ],
      "name": "Paused",
      "type": "event"
    },
    {
      "anonymous": false,
      "inputs": [
        {
          "indexed": false,
          "internalType": "address",
          "name": "account",
          "type": "address"
        }
      ],
      "name": "Unpaused",
      "type": "event"
    },
    {
      "inputs": [
        {
          "internalType": "address",
          "name": "_address",
          "type": "address"
        }
      ],
      "name": "addAdmin",
      "outputs": [],
      "stateMutability": "nonpayable",
      "type": "function"
    },
    {
      "inputs": [
        {
          "internalType": "address[]",
          "name": "_addresses",
          "type": "address[]"
        }
      ],
      "name": "addAdmins",
      "outputs": [],
      "stateMutability": "nonpayable",
      "type": "function"
    },
    {
      "inputs": [
        {
          "internalType": "uint256",
          "name": "_tokenId",
          "type": "uint256"
        }
      ],
      "name": "increaseProficiencyForWizard",
      "outputs": [],
      "stateMutability": "nonpayable",
      "type": "function"
    },
    {
      "inputs": [],
      "name": "initialize",
      "outputs": [],
      "stateMutability": "nonpayable",
      "type": "function"
    },
    {
      "inputs": [
        {
          "internalType": "address",
          "name": "_address",
          "type": "address"
        }
      ],
      "name": "isAdmin",
      "outputs": [
        {
          "internalType": "bool",
          "name": "",
          "type": "bool"
        }
      ],
      "stateMutability": "view",
      "type": "function"
    },
    {
      "inputs": [],
      "name": "maxProficiency",
      "outputs": [
        {
          "internalType": "uint8",
          "name": "",
          "type": "uint8"
        }
      ],
      "stateMutability": "view",
      "type": "function"
    },
    {
      "inputs": [],
      "name": "owner",
      "outputs": [
        {
          "internalType": "address",
          "name": "",
          "type": "address"
        }
      ],
      "stateMutability": "view",
      "type": "function"
    },
    {
      "inputs": [],
      "name": "paused",
      "outputs": [
        {
          "internalType": "bool",
          "name": "",
          "type": "bool"
        }
      ],
      "stateMutability": "view",
      "type": "function"
    },
    {
      "inputs": [
        {
          "internalType": "uint256",
          "name": "_tokenId",
          "type": "uint256"
        }
      ],
      "name": "proficiencyForWizard",
      "outputs": [
        {
          "internalType": "uint8",
          "name": "",
          "type": "uint8"
        }
      ],
      "stateMutability": "view",
      "type": "function"
    },
    {
      "inputs": [
        {
          "internalType": "address",
          "name": "_address",
          "type": "address"
        }
      ],
      "name": "removeAdmin",
      "outputs": [],
      "stateMutability": "nonpayable",
      "type": "function"
    },
    {
      "inputs": [
        {
          "internalType": "address[]",
          "name": "_addresses",
          "type": "address[]"
        }
      ],
      "name": "removeAdmins",
      "outputs": [],
      "stateMutability": "nonpayable",
      "type": "function"
    },
    {
      "inputs": [],
      "name": "renounceOwnership",
      "outputs": [],
      "stateMutability": "nonpayable",
      "type": "function"
    },
    {
      "inputs": [
        {
          "internalType": "uint256",
          "name": "_tokenId",
          "type": "uint256"
        }
      ],
      "name": "resetProficiencyForWizard",
      "outputs": [],
      "stateMutability": "nonpayable",
      "type": "function"
    },
    {
      "inputs": [
        {
          "internalType": "uint8",
          "name": "_maxProficiency",
          "type": "uint8"
        }
      ],
      "name": "setMaxProficiency",
      "outputs": [],
      "stateMutability": "nonpayable",
      "type": "function"
    },
    {
      "inputs": [
        {
          "internalType": "bool",
          "name": "_shouldPause",
          "type": "bool"
        }
      ],
      "name": "setPause",
      "outputs": [],
      "stateMutability": "nonpayable",
      "type": "function"
    },
    {
      "inputs": [
        {
          "internalType": "uint256",
          "name": "",
          "type": "uint256"
        }
      ],
      "name": "tokenIdToProficiency",
      "outputs": [
        {
          "internalType": "uint8",
          "name": "",
          "type": "uint8"
        }
      ],
      "stateMutability": "view",
      "type": "function"
    },
    {
      "inputs": [
        {
          "internalType": "address",
          "name": "newOwner",
          "type": "address"
        }
      ],
      "name": "transferOwnership",
      "outputs": [],
      "stateMutability": "nonpayable",
      "type": "function"
    }
  ],
  "transactionHash": "0x13d33fc8bedc880dd067650f27f4491f1e795b5a0379aebb8789942d822dd27f",
  "args": [],
  "numDeployments": 2,
  "solcInputHash": "414ef7e56515ad590a03e594319d7362",
  "bytecode": "0x608060405234801561001057600080fd5b50610dc6806100206000396000f3fe608060405234801561001057600080fd5b506004361061010b5760003560e01c80638129fc1c116100a2578063b52e95e811610071578063b52e95e81461022a578063bedb86fb1461023d578063c934311314610250578063d4b8d38514610273578063f2fde38b1461028657600080fd5b80638129fc1c146101e15780638da5cb5b146101e95780639c54df6414610204578063a6ea96fa1461021757600080fd5b806358c6a0bd116100de57806358c6a0bd146101985780635c975abb146101bb57806370480275146101c6578063715018a6146101d957600080fd5b80631785f53c1461011057806324d7806c14610125578063377e11e01461016657806356c62b3914610179575b600080fd5b61012361011e366004610b2c565b610299565b005b610151610133366004610b2c565b6001600160a01b031660009081526097602052604090205460ff1690565b60405190151581526020015b60405180910390f35b610123610174366004610b5c565b6102ed565b60cb546101869060ff1681565b60405160ff909116815260200161015d565b6101866101a6366004610bd1565b600090815260ca602052604090205460ff1690565b60655460ff16610151565b6101236101d4366004610b2c565b61038e565b6101236103dc565b610123610412565b6033546040516001600160a01b03909116815260200161015d565b610123610212366004610b5c565b61048c565b610123610225366004610bea565b610528565b610123610238366004610bd1565b61057b565b61012361024b366004610c0d565b610615565b61018661025e366004610bd1565b60ca6020526000908152604090205460ff1681565b610123610281366004610bd1565b610668565b610123610294366004610b2c565b6106bd565b6033546001600160a01b031633146102cc5760405162461bcd60e51b81526004016102c390610c2f565b60405180910390fd5b6001600160a01b03166000908152609760205260409020805460ff19169055565b6033546001600160a01b031633146103175760405162461bcd60e51b81526004016102c390610c2f565b60005b818110156103895760006097600085858581811061033a5761033a610c64565b905060200201602081019061034f9190610b2c565b6001600160a01b031681526020810191909152604001600020805460ff19169115159190911790558061038181610c90565b91505061031a565b505050565b6033546001600160a01b031633146103b85760405162461bcd60e51b81526004016102c390610c2f565b6001600160a01b03166000908152609760205260409020805460ff19166001179055565b6033546001600160a01b031633146104065760405162461bcd60e51b81526004016102c390610c2f565b6104106000610751565b565b600054610100900460ff1661042d5760005460ff1615610431565b303b155b61044d5760405162461bcd60e51b81526004016102c390610cab565b600054610100900460ff1615801561046f576000805461ffff19166101011790555b6104776107a3565b8015610489576000805461ff00191690555b50565b6033546001600160a01b031633146104b65760405162461bcd60e51b81526004016102c390610c2f565b60005b81811015610389576001609760008585858181106104d9576104d9610c64565b90506020020160208101906104ee9190610b2c565b6001600160a01b031681526020810191909152604001600020805460ff19169115159190911790558061052081610c90565b9150506104b9565b3360009081526097602052604090205460ff16806105495750610549610829565b6105655760405162461bcd60e51b81526004016102c390610cf9565b60cb805460ff191660ff92909216919091179055565b3360009081526097602052604090205460ff168061059c575061059c610829565b6105b85760405162461bcd60e51b81526004016102c390610cf9565b600081815260ca602052604090205460cb5460ff918216911681106105db575050565b600082815260ca60205260408120805460ff16916105f883610d25565b91906101000a81548160ff021916908360ff160217905550505050565b3360009081526097602052604090205460ff16806106365750610636610829565b6106525760405162461bcd60e51b81526004016102c390610cf9565b80156106605761048961084d565b6104896108e5565b3360009081526097602052604090205460ff16806106895750610689610829565b6106a55760405162461bcd60e51b81526004016102c390610cf9565b600090815260ca60205260409020805460ff19169055565b6033546001600160a01b031633146106e75760405162461bcd60e51b81526004016102c390610c2f565b6001600160a01b03811661074c5760405162461bcd60e51b815260206004820152602660248201527f4f776e61626c653a206e6577206f776e657220697320746865207a65726f206160448201526564647265737360d01b60648201526084016102c3565b610489815b603380546001600160a01b038381166001600160a01b0319831681179093556040519116919082907f8be0079c531659141344cd1fd0a4f28419497f9722a3daafe3b4186f6b6457e090600090a35050565b600054610100900460ff166107be5760005460ff16156107c2565b303b155b6107de5760405162461bcd60e51b81526004016102c390610cab565b600054610100900460ff16158015610800576000805461ffff19166101011790555b61080861095f565b60cb805460ff191660081790558015610489576000805461ff001916905550565b60003361083e6033546001600160a01b031690565b6001600160a01b031614905090565b60655460ff16156108935760405162461bcd60e51b815260206004820152601060248201526f14185d5cd8589b194e881c185d5cd95960821b60448201526064016102c3565b6065805460ff191660011790557f62e78cea01bee320cd4e420270b5ea74000d11b0c9f74754ebdbfc544b05a2586108c83390565b6040516001600160a01b03909116815260200160405180910390a1565b60655460ff1661092e5760405162461bcd60e51b815260206004820152601460248201527314185d5cd8589b194e881b9bdd081c185d5cd95960621b60448201526064016102c3565b6065805460ff191690557f5db9ee0a495bf2e6ff9c91a7834c1ba4fdd244a5e8aa4e537bd38aeae4b073aa336108c8565b600054610100900460ff1661097a5760005460ff161561097e565b303b155b61099a5760405162461bcd60e51b81526004016102c390610cab565b600054610100900460ff161580156109bc576000805461ffff19166101011790555b610477600054610100900460ff166109da5760005460ff16156109de565b303b155b6109fa5760405162461bcd60e51b81526004016102c390610cab565b600054610100900460ff16158015610a1c576000805461ffff19166101011790555b610a24610a34565b610a2c610a6b565b61047761084d565b600054610100900460ff16610a5b5760405162461bcd60e51b81526004016102c390610d45565b610a63610aa2565b610410610ac9565b600054610100900460ff16610a925760405162461bcd60e51b81526004016102c390610d45565b610a9a610aa2565b610410610af9565b600054610100900460ff166104105760405162461bcd60e51b81526004016102c390610d45565b600054610100900460ff16610af05760405162461bcd60e51b81526004016102c390610d45565b61041033610751565b600054610100900460ff16610b205760405162461bcd60e51b81526004016102c390610d45565b6065805460ff19169055565b600060208284031215610b3e57600080fd5b81356001600160a01b0381168114610b5557600080fd5b9392505050565b60008060208385031215610b6f57600080fd5b823567ffffffffffffffff80821115610b8757600080fd5b818501915085601f830112610b9b57600080fd5b813581811115610baa57600080fd5b8660208260051b8501011115610bbf57600080fd5b60209290920196919550909350505050565b600060208284031215610be357600080fd5b5035919050565b600060208284031215610bfc57600080fd5b813560ff81168114610b5557600080fd5b600060208284031215610c1f57600080fd5b81358015158114610b5557600080fd5b6020808252818101527f4f776e61626c653a2063616c6c6572206973206e6f7420746865206f776e6572604082015260600190565b634e487b7160e01b600052603260045260246000fd5b634e487b7160e01b600052601160045260246000fd5b6000600019821415610ca457610ca4610c7a565b5060010190565b6020808252602e908201527f496e697469616c697a61626c653a20636f6e747261637420697320616c72656160408201526d191e481a5b9a5d1a585b1a5e995960921b606082015260800190565b6020808252601290820152712737ba1030b236b4b71037b91037bbb732b960711b604082015260600190565b600060ff821660ff811415610d3c57610d3c610c7a565b60010192915050565b6020808252602b908201527f496e697469616c697a61626c653a20636f6e7472616374206973206e6f74206960408201526a6e697469616c697a696e6760a81b60608201526080019056fea26469706673582212209d51cd3af6f9b3bce983baf4f04f3d65278c42879b6eabbe1effc68fec78370964736f6c63430008090033",
  "devdoc": {
    "kind": "dev",
    "methods": {
      "owner()": {
        "details": "Returns the address of the current owner."
      },
      "paused()": {
        "details": "Returns true if the contract is paused, and false otherwise."
      },
      "renounceOwnership()": {
        "details": "Leaves the contract without owner. It will not be possible to call `onlyOwner` functions anymore. Can only be called by the current owner. NOTE: Renouncing ownership will leave the contract without an owner, thereby removing any functionality that is only available to the owner."
      },
      "transferOwnership(address)": {
        "details": "Transfers ownership of the contract to a new account (`newOwner`). Can only be called by the current owner."
      }
    },
    "version": 1
  },
  "userdoc": {
    "kind": "user",
    "methods": {},
    "version": 1
  },
  "storageLayout": {
    "storage": [
      {
        "astId": 2787,
        "contract": "contracts/wnd/trainingproficiency/TrainingProficiency.sol:TrainingProficiency",
        "label": "_initialized",
        "offset": 0,
        "slot": "0",
        "type": "t_bool"
      },
      {
        "astId": 2790,
        "contract": "contracts/wnd/trainingproficiency/TrainingProficiency.sol:TrainingProficiency",
        "label": "_initializing",
        "offset": 1,
        "slot": "0",
        "type": "t_bool"
      },
      {
        "astId": 6838,
        "contract": "contracts/wnd/trainingproficiency/TrainingProficiency.sol:TrainingProficiency",
        "label": "__gap",
        "offset": 0,
        "slot": "1",
        "type": "t_array(t_uint256)50_storage"
      },
      {
        "astId": 2665,
        "contract": "contracts/wnd/trainingproficiency/TrainingProficiency.sol:TrainingProficiency",
        "label": "_owner",
        "offset": 0,
        "slot": "51",
        "type": "t_address"
      },
      {
        "astId": 2779,
        "contract": "contracts/wnd/trainingproficiency/TrainingProficiency.sol:TrainingProficiency",
        "label": "__gap",
        "offset": 0,
        "slot": "52",
        "type": "t_array(t_uint256)49_storage"
      },
      {
        "astId": 2875,
        "contract": "contracts/wnd/trainingproficiency/TrainingProficiency.sol:TrainingProficiency",
        "label": "_paused",
        "offset": 0,
        "slot": "101",
        "type": "t_bool"
      },
      {
        "astId": 2966,
        "contract": "contracts/wnd/trainingproficiency/TrainingProficiency.sol:TrainingProficiency",
        "label": "__gap",
        "offset": 0,
        "slot": "102",
        "type": "t_array(t_uint256)49_storage"
      },
      {
        "astId": 12019,
        "contract": "contracts/wnd/trainingproficiency/TrainingProficiency.sol:TrainingProficiency",
        "label": "admins",
        "offset": 0,
        "slot": "151",
        "type": "t_mapping(t_address,t_bool)"
      },
      {
        "astId": 12179,
        "contract": "contracts/wnd/trainingproficiency/TrainingProficiency.sol:TrainingProficiency",
        "label": "__gap",
        "offset": 0,
        "slot": "152",
        "type": "t_array(t_uint256)50_storage"
      },
      {
        "astId": 24028,
        "contract": "contracts/wnd/trainingproficiency/TrainingProficiency.sol:TrainingProficiency",
        "label": "tokenIdToProficiency",
        "offset": 0,
        "slot": "202",
        "type": "t_mapping(t_uint256,t_uint8)"
      },
      {
        "astId": 24030,
        "contract": "contracts/wnd/trainingproficiency/TrainingProficiency.sol:TrainingProficiency",
        "label": "maxProficiency",
        "offset": 0,
        "slot": "203",
        "type": "t_uint8"
      }
    ],
    "types": {
      "t_address": {
        "encoding": "inplace",
        "label": "address",
        "numberOfBytes": "20"
      },
      "t_array(t_uint256)49_storage": {
        "base": "t_uint256",
        "encoding": "inplace",
        "label": "uint256[49]",
        "numberOfBytes": "1568"
      },
      "t_array(t_uint256)50_storage": {
        "base": "t_uint256",
        "encoding": "inplace",
        "label": "uint256[50]",
        "numberOfBytes": "1600"
      },
      "t_bool": {
        "encoding": "inplace",
        "label": "bool",
        "numberOfBytes": "1"
      },
      "t_mapping(t_address,t_bool)": {
        "encoding": "mapping",
        "key": "t_address",
        "label": "mapping(address => bool)",
        "numberOfBytes": "32",
        "value": "t_bool"
      },
      "t_mapping(t_uint256,t_uint8)": {
        "encoding": "mapping",
        "key": "t_uint256",
        "label": "mapping(uint256 => uint8)",
        "numberOfBytes": "32",
        "value": "t_uint8"
      },
      "t_uint256": {
        "encoding": "inplace",
        "label": "uint256",
        "numberOfBytes": "32"
      },
      "t_uint8": {
        "encoding": "inplace",
        "label": "uint8",
        "numberOfBytes": "1"
      }
    }
  }
}