{
  "address": "0xD2Ed02a97f82fCAF9482128732665F6CC5363483",
  "abi": [
    {
      "anonymous": false,
      "inputs": [
        {
          "indexed": true,
          "internalType": "address",
          "name": "previousOwner",
          "type": "address"
        },
        {
          "indexed": true,
          "internalType": "address",
          "name": "newOwner",
          "type": "address"
        }
      ],
      "name": "OwnershipTransferred",
      "type": "event"
    },
    {
      "anonymous": false,
      "inputs": [
        {
          "indexed": false,
          "internalType": "address",
          "name": "account",
          "type": "address"
        }
      ],
      "name": "Paused",
      "type": "event"
    },
    {
      "anonymous": false,
      "inputs": [
        {
          "indexed": true,
          "internalType": "address",
          "name": "_owner",
          "type": "address"
        },
        {
          "indexed": true,
          "internalType": "uint256",
          "name": "_tokenId",
          "type": "uint256"
        },
        {
          "indexed": true,
          "internalType": "uint256",
          "name": "_rewardId",
          "type": "uint256"
        },
        {
          "indexed": false,
          "internalType": "uint256",
          "name": "_amount",
          "type": "uint256"
        },
        {
          "indexed": false,
          "internalType": "uint256",
          "name": "_gpAmt",
          "type": "uint256"
        }
      ],
      "name": "RewardMinted",
      "type": "event"
    },
    {
      "anonymous": false,
      "inputs": [
        {
          "indexed": true,
          "internalType": "address",
          "name": "_owner",
          "type": "address"
        },
        {
          "indexed": true,
          "internalType": "uint256",
          "name": "_tokenId",
          "type": "uint256"
        },
        {
          "indexed": true,
          "internalType": "bytes32",
          "name": "_requestId",
          "type": "bytes32"
        }
      ],
      "name": "TrainingStarted",
      "type": "event"
    },
    {
      "anonymous": false,
      "inputs": [
        {
          "indexed": false,
          "internalType": "address",
          "name": "account",
          "type": "address"
        }
      ],
      "name": "Unpaused",
      "type": "event"
    },
    {
      "inputs": [],
      "name": "ODDS_TOTAL",
      "outputs": [
        {
          "internalType": "uint256",
          "name": "",
          "type": "uint256"
        }
      ],
      "stateMutability": "view",
      "type": "function"
    },
    {
      "inputs": [
        {
          "internalType": "uint256",
          "name": "_tokenId",
          "type": "uint256"
        }
      ],
      "name": "_getTrainingFee",
      "outputs": [
        {
          "internalType": "uint256",
          "name": "",
          "type": "uint256"
        }
      ],
      "stateMutability": "view",
      "type": "function"
    },
    {
      "inputs": [
        {
          "internalType": "address",
          "name": "_address",
          "type": "address"
        }
      ],
      "name": "addAdmin",
      "outputs": [],
      "stateMutability": "nonpayable",
      "type": "function"
    },
    {
      "inputs": [
        {
          "internalType": "address[]",
          "name": "_addresses",
          "type": "address[]"
        }
      ],
      "name": "addAdmins",
      "outputs": [],
      "stateMutability": "nonpayable",
      "type": "function"
    },
    {
      "inputs": [],
      "name": "areContractsSet",
      "outputs": [
        {
          "internalType": "bool",
          "name": "",
          "type": "bool"
        }
      ],
      "stateMutability": "view",
      "type": "function"
    },
    {
      "inputs": [],
      "name": "armorDamageReductionAmt",
      "outputs": [
        {
          "internalType": "uint8",
          "name": "",
          "type": "uint8"
        }
      ],
      "stateMutability": "view",
      "type": "function"
    },
    {
      "inputs": [],
      "name": "baseChanceWizardBurned",
      "outputs": [
        {
          "internalType": "uint8",
          "name": "",
          "type": "uint8"
        }
      ],
      "stateMutability": "view",
      "type": "function"
    },
    {
      "inputs": [],
      "name": "baseDamage",
      "outputs": [
        {
          "internalType": "uint8",
          "name": "",
          "type": "uint8"
        }
      ],
      "stateMutability": "view",
      "type": "function"
    },
    {
      "inputs": [],
      "name": "baseHP",
      "outputs": [
        {
          "internalType": "uint8",
          "name": "",
          "type": "uint8"
        }
      ],
      "stateMutability": "view",
      "type": "function"
    },
    {
      "inputs": [
        {
          "internalType": "uint256",
          "name": "_tokenId",
          "type": "uint256"
        }
      ],
      "name": "canWizardPlay",
      "outputs": [
        {
          "internalType": "bool",
          "name": "",
          "type": "bool"
        }
      ],
      "stateMutability": "view",
      "type": "function"
    },
    {
      "inputs": [],
      "name": "consumables",
      "outputs": [
        {
          "internalType": "contract IConsumables",
          "name": "",
          "type": "address"
        }
      ],
      "stateMutability": "view",
      "type": "function"
    },
    {
      "inputs": [],
      "name": "damagePercentChance",
      "outputs": [
        {
          "internalType": "uint8",
          "name": "",
          "type": "uint8"
        }
      ],
      "stateMutability": "view",
      "type": "function"
    },
    {
      "inputs": [],
      "name": "elixirOfHealingId",
      "outputs": [
        {
          "internalType": "uint8",
          "name": "",
          "type": "uint8"
        }
      ],
      "stateMutability": "view",
      "type": "function"
    },
    {
      "inputs": [],
      "name": "gameCooldownTime",
      "outputs": [
        {
          "internalType": "uint256",
          "name": "",
          "type": "uint256"
        }
      ],
      "stateMutability": "view",
      "type": "function"
    },
    {
      "inputs": [],
      "name": "gp",
      "outputs": [
        {
          "internalType": "contract IGP",
          "name": "",
          "type": "address"
        }
      ],
      "stateMutability": "view",
      "type": "function"
    },
    {
      "inputs": [],
      "name": "graveyard",
      "outputs": [
        {
          "internalType": "contract IGraveyard",
          "name": "",
          "type": "address"
        }
      ],
      "stateMutability": "view",
      "type": "function"
    },
    {
      "inputs": [
        {
          "internalType": "uint256",
          "name": "_tokenId",
          "type": "uint256"
        }
      ],
      "name": "hasArmor",
      "outputs": [
        {
          "internalType": "bool",
          "name": "",
          "type": "bool"
        }
      ],
      "stateMutability": "view",
      "type": "function"
    },
    {
      "inputs": [
        {
          "internalType": "uint256",
          "name": "_tokenId",
          "type": "uint256"
        },
        {
          "internalType": "uint8",
          "name": "_quantity",
          "type": "uint8"
        }
      ],
      "name": "healWithElixir",
      "outputs": [],
      "stateMutability": "nonpayable",
      "type": "function"
    },
    {
      "inputs": [
        {
          "internalType": "uint256[]",
          "name": "_tokenIds",
          "type": "uint256[]"
        },
        {
          "internalType": "uint8[]",
          "name": "_quantities",
          "type": "uint8[]"
        }
      ],
      "name": "healWithElixirBatch",
      "outputs": [],
      "stateMutability": "nonpayable",
      "type": "function"
    },
    {
      "inputs": [],
      "name": "initialize",
      "outputs": [],
      "stateMutability": "nonpayable",
      "type": "function"
    },
    {
      "inputs": [
        {
          "internalType": "address",
          "name": "_address",
          "type": "address"
        }
      ],
      "name": "isAdmin",
      "outputs": [
        {
          "internalType": "bool",
          "name": "",
          "type": "bool"
        }
      ],
      "stateMutability": "view",
      "type": "function"
    },
    {
      "inputs": [
        {
          "internalType": "uint256",
          "name": "_tokenId",
          "type": "uint256"
        }
      ],
      "name": "isWizardTraining",
      "outputs": [
        {
          "internalType": "bool",
          "name": "",
          "type": "bool"
        }
      ],
      "stateMutability": "view",
      "type": "function"
    },
    {
      "inputs": [],
      "name": "maxBurnReduction",
      "outputs": [
        {
          "internalType": "uint8",
          "name": "",
          "type": "uint8"
        }
      ],
      "stateMutability": "view",
      "type": "function"
    },
    {
      "inputs": [
        {
          "internalType": "uint256",
          "name": "_tokenId",
          "type": "uint256"
        }
      ],
      "name": "maxHPForToken",
      "outputs": [
        {
          "internalType": "uint8",
          "name": "",
          "type": "uint8"
        }
      ],
      "stateMutability": "view",
      "type": "function"
    },
    {
      "inputs": [
        {
          "internalType": "address",
          "name": "",
          "type": "address"
        },
        {
          "internalType": "address",
          "name": "",
          "type": "address"
        },
        {
          "internalType": "uint256[]",
          "name": "",
          "type": "uint256[]"
        },
        {
          "internalType": "uint256[]",
          "name": "",
          "type": "uint256[]"
        },
        {
          "internalType": "bytes",
          "name": "",
          "type": "bytes"
        }
      ],
      "name": "onERC1155BatchReceived",
      "outputs": [
        {
          "internalType": "bytes4",
          "name": "",
          "type": "bytes4"
        }
      ],
      "stateMutability": "nonpayable",
      "type": "function"
    },
    {
      "inputs": [
        {
          "internalType": "address",
          "name": "",
          "type": "address"
        },
        {
          "internalType": "address",
          "name": "",
          "type": "address"
        },
        {
          "internalType": "uint256",
          "name": "",
          "type": "uint256"
        },
        {
          "internalType": "uint256",
          "name": "",
          "type": "uint256"
        },
        {
          "internalType": "bytes",
          "name": "",
          "type": "bytes"
        }
      ],
      "name": "onERC1155Received",
      "outputs": [
        {
          "internalType": "bytes4",
          "name": "",
          "type": "bytes4"
        }
      ],
      "stateMutability": "nonpayable",
      "type": "function"
    },
    {
      "inputs": [
        {
          "internalType": "address",
          "name": "",
          "type": "address"
        },
        {
          "internalType": "address",
          "name": "",
          "type": "address"
        },
        {
          "internalType": "uint256",
          "name": "",
          "type": "uint256"
        },
        {
          "internalType": "bytes",
          "name": "",
          "type": "bytes"
        }
      ],
      "name": "onERC721Received",
      "outputs": [
        {
          "internalType": "bytes4",
          "name": "",
          "type": "bytes4"
        }
      ],
      "stateMutability": "nonpayable",
      "type": "function"
    },
    {
      "inputs": [],
      "name": "owner",
      "outputs": [
        {
          "internalType": "address",
          "name": "",
          "type": "address"
        }
      ],
      "stateMutability": "view",
      "type": "function"
    },
    {
      "inputs": [],
      "name": "paused",
      "outputs": [
        {
          "internalType": "bool",
          "name": "",
          "type": "bool"
        }
      ],
      "stateMutability": "view",
      "type": "function"
    },
    {
      "inputs": [],
      "name": "randomizer",
      "outputs": [
        {
          "internalType": "contract IRandomizerCL",
          "name": "",
          "type": "address"
        }
      ],
      "stateMutability": "view",
      "type": "function"
    },
    {
      "inputs": [
        {
          "internalType": "address",
          "name": "_address",
          "type": "address"
        }
      ],
      "name": "removeAdmin",
      "outputs": [],
      "stateMutability": "nonpayable",
      "type": "function"
    },
    {
      "inputs": [
        {
          "internalType": "address[]",
          "name": "_addresses",
          "type": "address[]"
        }
      ],
      "name": "removeAdmins",
      "outputs": [],
      "stateMutability": "nonpayable",
      "type": "function"
    },
    {
      "inputs": [],
      "name": "renounceOwnership",
      "outputs": [],
      "stateMutability": "nonpayable",
      "type": "function"
    },
    {
      "inputs": [
        {
          "internalType": "uint256",
          "name": "_tokenId",
          "type": "uint256"
        }
      ],
      "name": "resetWizard",
      "outputs": [],
      "stateMutability": "nonpayable",
      "type": "function"
    },
    {
      "inputs": [
        {
          "internalType": "uint256",
          "name": "_tokenId",
          "type": "uint256"
        }
      ],
      "name": "revealTrainingReward",
      "outputs": [],
      "stateMutability": "nonpayable",
      "type": "function"
    },
    {
      "inputs": [
        {
          "internalType": "uint256[]",
          "name": "_tokenIds",
          "type": "uint256[]"
        }
      ],
      "name": "revealTrainingRewardBatch",
      "outputs": [],
      "stateMutability": "nonpayable",
      "type": "function"
    },
    {
      "inputs": [],
      "name": "rift",
      "outputs": [
        {
          "internalType": "contract IRift",
          "name": "",
          "type": "address"
        }
      ],
      "stateMutability": "view",
      "type": "function"
    },
    {
      "inputs": [],
      "name": "sacrificialAlter",
      "outputs": [
        {
          "internalType": "contract ISacrificialAlter",
          "name": "",
          "type": "address"
        }
      ],
      "stateMutability": "view",
      "type": "function"
    },
    {
      "inputs": [
        {
          "internalType": "address",
          "name": "_worldAddress",
          "type": "address"
        },
        {
          "internalType": "address",
          "name": "_sacrificialAlterAddress",
          "type": "address"
        },
        {
          "internalType": "address",
          "name": "_consumables",
          "type": "address"
        },
        {
          "internalType": "address",
          "name": "_gpAddress",
          "type": "address"
        },
        {
          "internalType": "address",
          "name": "_wndAddress",
          "type": "address"
        },
        {
          "internalType": "address",
          "name": "_trainingProficiencyAddress",
          "type": "address"
        },
        {
          "internalType": "address",
          "name": "_randomizerAddress",
          "type": "address"
        },
        {
          "internalType": "address",
          "name": "_riftAddress",
          "type": "address"
        },
        {
          "internalType": "address",
          "name": "_graveyard",
          "type": "address"
        }
      ],
      "name": "setContracts",
      "outputs": [],
      "stateMutability": "nonpayable",
      "type": "function"
    },
    {
      "inputs": [
        {
          "internalType": "uint256[]",
          "name": "_gpAmts",
          "type": "uint256[]"
        },
        {
          "internalType": "uint32[]",
          "name": "_gpOdds",
          "type": "uint32[]"
        }
      ],
      "name": "setGPRewardSettings",
      "outputs": [],
      "stateMutability": "nonpayable",
      "type": "function"
    },
    {
      "inputs": [
        {
          "internalType": "uint256",
          "name": "_gameCooldownTime",
          "type": "uint256"
        }
      ],
      "name": "setGameCooldown",
      "outputs": [],
      "stateMutability": "nonpayable",
      "type": "function"
    },
    {
      "inputs": [
        {
          "internalType": "bool",
          "name": "_shouldPause",
          "type": "bool"
        }
      ],
      "name": "setPause",
      "outputs": [],
      "stateMutability": "nonpayable",
      "type": "function"
    },
    {
      "inputs": [
        {
          "internalType": "uint8[]",
          "name": "_proficiencyToGamesPlayed",
          "type": "uint8[]"
        }
      ],
      "name": "setProficiencyToGamesPlayed",
      "outputs": [],
      "stateMutability": "nonpayable",
      "type": "function"
    },
    {
      "inputs": [
        {
          "internalType": "uint256[]",
          "name": "_rewardIds",
          "type": "uint256[]"
        },
        {
          "internalType": "uint32[]",
          "name": "_rewardOdds",
          "type": "uint32[]"
        },
        {
          "components": [
            {
              "internalType": "uint16[9]",
              "name": "min",
              "type": "uint16[9]"
            },
            {
              "internalType": "uint16[9]",
              "name": "max",
              "type": "uint16[9]"
            }
          ],
          "internalType": "struct TrainingGameState.RewardMultiplier[]",
          "name": "_rewardMultipliers",
          "type": "tuple[]"
        }
      ],
      "name": "setRewardSettings",
      "outputs": [],
      "stateMutability": "nonpayable",
      "type": "function"
    },
    {
      "inputs": [
        {
          "internalType": "uint256",
          "name": "_trainingFee",
          "type": "uint256"
        },
        {
          "internalType": "uint8",
          "name": "_baseChanceWizardBurned",
          "type": "uint8"
        },
        {
          "internalType": "uint8",
          "name": "_maxBurnReduction",
          "type": "uint8"
        }
      ],
      "name": "setTrainingSettings",
      "outputs": [],
      "stateMutability": "nonpayable",
      "type": "function"
    },
    {
      "inputs": [
        {
          "internalType": "bytes4",
          "name": "interfaceId",
          "type": "bytes4"
        }
      ],
      "name": "supportsInterface",
      "outputs": [
        {
          "internalType": "bool",
          "name": "",
          "type": "bool"
        }
      ],
      "stateMutability": "view",
      "type": "function"
    },
    {
      "inputs": [
        {
          "internalType": "uint256",
          "name": "_tokenId",
          "type": "uint256"
        }
      ],
      "name": "timeWizardCanPlayNext",
      "outputs": [
        {
          "internalType": "uint256",
          "name": "",
          "type": "uint256"
        }
      ],
      "stateMutability": "view",
      "type": "function"
    },
    {
      "inputs": [
        {
          "internalType": "uint256",
          "name": "",
          "type": "uint256"
        }
      ],
      "name": "tokenIdToInfo",
      "outputs": [
        {
          "internalType": "bytes32",
          "name": "requestId",
          "type": "bytes32"
        },
        {
          "internalType": "uint64",
          "name": "timeNextPlay",
          "type": "uint64"
        },
        {
          "internalType": "uint32",
          "name": "gamesPlayed",
          "type": "uint32"
        },
        {
          "internalType": "uint8",
          "name": "hp",
          "type": "uint8"
        },
        {
          "internalType": "bool",
          "name": "hasArmor",
          "type": "bool"
        }
      ],
      "stateMutability": "view",
      "type": "function"
    },
    {
      "inputs": [
        {
          "internalType": "uint256",
          "name": "_tokenId",
          "type": "uint256"
        },
        {
          "internalType": "bool",
          "name": "equipWizard",
          "type": "bool"
        }
      ],
      "name": "train",
      "outputs": [],
      "stateMutability": "nonpayable",
      "type": "function"
    },
    {
      "inputs": [
        {
          "components": [
            {
              "internalType": "uint256",
              "name": "tokenId",
              "type": "uint256"
            },
            {
              "internalType": "bool",
              "name": "isEquipped",
              "type": "bool"
            }
          ],
          "internalType": "struct TrainingInfo[]",
          "name": "_tokensToTrain",
          "type": "tuple[]"
        }
      ],
      "name": "trainBatch",
      "outputs": [],
      "stateMutability": "nonpayable",
      "type": "function"
    },
    {
      "inputs": [],
      "name": "trainingFee",
      "outputs": [
        {
          "internalType": "uint256",
          "name": "",
          "type": "uint256"
        }
      ],
      "stateMutability": "view",
      "type": "function"
    },
    {
      "inputs": [],
      "name": "trainingProficiency",
      "outputs": [
        {
          "internalType": "contract ITrainingProficiency",
          "name": "",
          "type": "address"
        }
      ],
      "stateMutability": "view",
      "type": "function"
    },
    {
      "inputs": [
        {
          "internalType": "address",
          "name": "newOwner",
          "type": "address"
        }
      ],
      "name": "transferOwnership",
      "outputs": [],
      "stateMutability": "nonpayable",
      "type": "function"
    },
    {
      "inputs": [],
      "name": "wnd",
      "outputs": [
        {
          "internalType": "contract IWnD",
          "name": "",
          "type": "address"
        }
      ],
      "stateMutability": "view",
      "type": "function"
    },
    {
      "inputs": [],
      "name": "world",
      "outputs": [
        {
          "internalType": "contract IWorld",
          "name": "",
          "type": "address"
        }
      ],
      "stateMutability": "view",
      "type": "function"
    }
  ],
  "transactionHash": "0x5745c05e05c74c98e3ea2d723834e03fcc1ccb52fe5ae2b021bab9a12d774a9f",
  "args": [],
  "numDeployments": 3,
  "solcInputHash": "bb35e662fa4641ee485d9194edd52338",
  "bytecode": "0x608060405234801561001057600080fd5b50614b99806100206000396000f3fe608060405234801561001057600080fd5b506004361061035d5760003560e01c80638cdcc4b4116101d3578063d8d32d5511610104578063f10fb584116100a2578063f2fde38b1161007c578063f2fde38b146107fa578063fd501c6d1461080d578063ff5cbc7414610821578063ff69ea901461083557600080fd5b8063f10fb584146107b4578063f230173c146107c8578063f23a6e61146107db57600080fd5b8063e1062481116100de578063e106248114610754578063e1574e2014610767578063ecdd310d1461077a578063ed899d7c1461079157600080fd5b8063d8d32d5514610716578063df2d6faf14610729578063e0cf4c741461073e57600080fd5b8063a888306011610171578063bc197c811161014b578063bc197c81146106bd578063bedb86fb146106dc578063d46b9330146106ef578063d5dc7a0e1461070357600080fd5b8063a888306014610684578063aa04c19414610697578063b4b61cd1146106aa57600080fd5b8063914314a7116101ad578063914314a7146106405780639c54df64146106535780639c70899f14610666578063a2df10451461067a57600080fd5b80638cdcc4b4146106135780638da5cb5b1461061b57806390528e111461062c57600080fd5b80635920390a116102ad5780637853eb071161024b5780638129fc1c116102255780638129fc1c146105d1578063815e066b146105d957806383efaae6146105ec57806386ff27441461060057600080fd5b80637853eb071461059c5780637abb5e2c146105af57806380a59707146105bd57600080fd5b80637048027511610287578063704802751461053f578063711f8ed614610552578063715018a61461056657806371b2df641461056e57600080fd5b80635920390a146104fc5780635c975abb14610529578063669f72191461053557600080fd5b806324d7806c1161031a57806335562de2116102f457806335562de2146104a9578063377e11e0146104bc57806351affeeb146104cf5780635475b187146104e457600080fd5b806324d7806c1461042b57806330b67baa1461045857806330f60ba71461048457600080fd5b806301ffc9a714610362578063050480bf1461038a57806308a864f51461039f5780630b6d9404146103b2578063150b7a02146103e15780631785f53c14610418575b600080fd5b610375610370366004613ebe565b6108c9565b60405190151581526020015b60405180910390f35b61039d610398366004613ee8565b610900565b005b61039d6103ad366004613f4c565b610963565b6103756103c0366004613ee8565b60009081526101a460205260409020600101546001600160401b0316421190565b6103ff6103ef3660046140df565b630a85bd0160e11b949350505050565b6040516001600160e01b03199091168152602001610381565b61039d61042636600461414a565b610c32565b61037561043936600461414a565b6001600160a01b0316600090815261015f602052604090205460ff1690565b6101925461046c906001600160a01b031681565b6040516001600160a01b039091168152602001610381565b6101a85461049790610100900460ff1681565b60405160ff9091168152602001610381565b61039d6104b7366004614167565b610c7e565b61039d6104ca3660046141d2565b610d95565b6101a854610497906301000000900460ff1681565b6104ee6101a75481565b604051908152602001610381565b6104ee61050a366004613ee8565b60009081526101a460205260409020600101546001600160401b031690565b61012d5460ff16610375565b6104ee6101a65481565b61039d61054d36600461414a565b610e37565b6101975461046c906001600160a01b031681565b61039d610e86565b61037561057c366004613ee8565b60009081526101a46020526040902060010154600160681b900460ff1690565b61039d6105aa3660046141d2565b610ebc565b6101a8546104979060ff1681565b6101965461046c906001600160a01b031681565b61039d610f92565b61039d6105e7366004614222565b611013565b6101a8546104979062010000900460ff1681565b61039d61060e366004614167565b6110bf565b6103756112f5565b60fb546001600160a01b031661046c565b6101945461046c906001600160a01b031681565b61049761064e366004613ee8565b6113c4565b61039d6106613660046141d2565b61145a565b61019a5461046c906001600160a01b031681565b6104ee61019b5481565b61039d610692366004614264565b6114f7565b61039d6106a5366004614320565b6116c3565b61039d6106b83660046141d2565b6116f0565b6103ff6106cb3660046143cf565b63bc197c8160e01b95945050505050565b61039d6106ea36600461448a565b61173b565b6101955461046c906001600160a01b031681565b61039d610711366004613ee8565b61178f565b6104ee610724366004613ee8565b611854565b6101a85461049790600160301b900460ff1681565b6101a85461049790640100000000900460ff1681565b61039d610762366004613ee8565b61193f565b61039d6107753660046144a7565b611983565b6101a8546104979065010000000000900460ff1681565b61037561079f366004613ee8565b60009081526101a46020526040902054151590565b6101985461046c906001600160a01b031681565b61039d6107d63660046144cc565b611a1e565b6103ff6107e9366004614540565b63f23a6e6160e01b95945050505050565b61039d61080836600461414a565b611b0c565b6101935461046c906001600160a01b031681565b6101995461046c906001600160a01b031681565b61088a610843366004613ee8565b6101a460205260009081526040902080546001909101546001600160401b0381169063ffffffff600160401b8204169060ff600160601b8204811691600160681b90041685565b604080519586526001600160401b03909416602086015263ffffffff9092169284019290925260ff90911660608301521515608082015260a001610381565b60006001600160e01b03198216630271189760e51b14806108fa57506301ffc9a760e01b6001600160e01b03198316145b92915050565b6109086112f5565b61092d5760405162461bcd60e51b8152600401610924906145a8565b60405180910390fd5b600061093a61019d611ba4565b116109575760405162461bcd60e51b8152600401610924906145df565b61096081611bae565b50565b33600090815261015f602052604090205460ff16806109855750610985611e23565b6109a15760405162461bcd60e51b815260040161092490614608565b84831480156109af57508281145b6109ed5760405162461bcd60e51b815260206004820152600f60248201526e496e76616c6964206c656e6774687360881b6044820152606401610924565b60006109fa61019d611e47565b905060005b8151811015610ad357610a36828281518110610a1d57610a1d614634565b602002602001015161019d611e5b90919063ffffffff16565b5061019f6000838381518110610a4e57610a4e614634565b6020026020010151815260200190815260200160002060006101000a81549063ffffffff02191690556101a06000838381518110610a8e57610a8e614634565b6020026020010151815260200190815260200160002060008082016000610ab791905060009055565b6000600183015550508080610acb90614660565b9150506109ff565b506000805b87811015610bea576000898983818110610af457610af4614634565b905060200201359050610b128161019d611e6790919063ffffffff16565b50878783818110610b2557610b25614634565b9050602002016020810190610b3a919061467b565b610b4a9063ffffffff16846146a1565b9250878783818110610b5e57610b5e614634565b9050602002016020810190610b73919061467b565b600082815261019f60205260409020805463ffffffff191663ffffffff92909216919091179055858583818110610bac57610bac614634565b905061024002016101a060008381526020019081526020016000208181610bd391906146ec565b905050508080610be290614660565b915050610ad8565b5061019b548114610c285760405162461bcd60e51b8152602060048201526008602482015267426164206f64647360c01b6044820152606401610924565b5050505050505050565b60fb546001600160a01b03163314610c5c5760405162461bcd60e51b8152600401610924906147a2565b6001600160a01b0316600090815261015f60205260409020805460ff19169055565b333214610c9d5760405162461bcd60e51b8152600401610924906147d7565b828114610cdc5760405162461bcd60e51b815260206004820152600d60248201526c1a5b9d985b1a59081a5b9c1d5d609a1b6044820152606401610924565b82610d295760405162461bcd60e51b815260206004820152601860248201527f4e6f2077697a6172647320676976656e20746f206865616c00000000000000006044820152606401610924565b60005b83811015610d8e57610d7c858583818110610d4957610d49614634565b90506020020135848484818110610d6257610d62614634565b9050602002016020810190610d7791906147fd565b611e73565b80610d8681614660565b915050610d2c565b5050505050565b60fb546001600160a01b03163314610dbf5760405162461bcd60e51b8152600401610924906147a2565b60005b81811015610e3257600061015f6000858585818110610de357610de3614634565b9050602002016020810190610df8919061414a565b6001600160a01b031681526020810191909152604001600020805460ff191691151591909117905580610e2a81614660565b915050610dc2565b505050565b60fb546001600160a01b03163314610e615760405162461bcd60e51b8152600401610924906147a2565b6001600160a01b0316600090815261015f60205260409020805460ff19166001179055565b60fb546001600160a01b03163314610eb05760405162461bcd60e51b8152600401610924906147a2565b610eba60006120f2565b565b610ec46112f5565b610ee05760405162461bcd60e51b8152600401610924906145a8565b6000610eed61019d611ba4565b11610f0a5760405162461bcd60e51b8152600401610924906145df565b8080610f4e5760405162461bcd60e51b8152602060048201526013602482015272139bc81dda5e985c991cc81cd95b1958dd1959606a1b6044820152606401610924565b60005b81811015610f8c57610f7a848483818110610f6e57610f6e614634565b90506020020135611bae565b80610f8481614660565b915050610f51565b50505050565b600054610100900460ff16610fad5760005460ff1615610fb1565b303b155b610fcd5760405162461bcd60e51b81526004016109249061481a565b600054610100900460ff16158015610fef576000805461ffff19166101011790555b610ff7612144565b610fff612144565b8015610960576000805461ff001916905550565b33600090815261015f602052604090205460ff16806110355750611035611e23565b6110515760405162461bcd60e51b815260040161092490614608565b8060ff168260ff1610156110965760405162461bcd60e51b815260206004820152600c60248201526b4261642073657474696e677360a01b6044820152606401610924565b6101a7929092556101a8805460ff9384166101000261ffff199091169390921692909217179055565b33600090815261015f602052604090205460ff16806110e157506110e1611e23565b6110fd5760405162461bcd60e51b815260040161092490614608565b82811461113e5760405162461bcd60e51b815260206004820152600f60248201526e496e76616c6964206c656e6774687360881b6044820152606401610924565b600061114b6101a1611e47565b905060005b81518110156111d65761118782828151811061116e5761116e614634565b60200260200101516101a1611e5b90919063ffffffff16565b506101a3600083838151811061119f5761119f614634565b6020908102919091018101518252810191909152604001600020805463ffffffff19169055806111ce81614660565b915050611150565b506000805b858110156112af5760008787838181106111f7576111f7614634565b905060200201359050611215816101a1611e6790919063ffffffff16565b5085858381811061122857611228614634565b905060200201602081019061123d919061467b565b61124d9063ffffffff16846146a1565b925085858381811061126157611261614634565b9050602002016020810190611276919061467b565b60009182526101a36020526040909120805463ffffffff191663ffffffff909216919091179055806112a781614660565b9150506111db565b5061019b5481146112ed5760405162461bcd60e51b8152602060048201526008602482015267426164206f64647360c01b6044820152606401610924565b505050505050565b610192546000906001600160a01b03161580159061131e5750610195546001600160a01b031615155b80156113355750610196546001600160a01b031615155b801561134c5750610197546001600160a01b031615155b80156113635750610198546001600160a01b031615155b801561137a5750610193546001600160a01b031615155b80156113915750610194546001600160a01b031615155b80156113a85750610199546001600160a01b031615155b80156113bf575061019a546001600160a01b031615155b905090565b610197546040516358c6a0bd60e01b8152600481018390526000916001600160a01b0316906358c6a0bd9060240160206040518083038186803b15801561140a57600080fd5b505afa15801561141e573d6000803e3d6000fd5b505050506040513d601f19601f820116820180604052508101906114429190614868565b6101a8546108fa91906301000000900460ff16614885565b60fb546001600160a01b031633146114845760405162461bcd60e51b8152600401610924906147a2565b60005b81811015610e3257600161015f60008585858181106114a8576114a8614634565b90506020020160208101906114bd919061414a565b6001600160a01b031681526020810191909152604001600020805460ff1916911515919091179055806114ef81614660565b915050611487565b33600090815261015f602052604090205460ff16806115195750611519611e23565b6115355760405162461bcd60e51b815260040161092490614608565b6001600160a01b0389161580159061155557506001600160a01b03861615155b801561156957506001600160a01b03851615155b801561157d57506001600160a01b03841615155b801561159157506001600160a01b03831615155b80156115a557506001600160a01b03881615155b80156115b957506001600160a01b03871615155b80156115cd57506001600160a01b03821615155b80156115e157506001600160a01b03811615155b61161c5760405162461bcd60e51b815260206004820152600c60248201526b2130b21030b2323932b9b99760a11b6044820152606401610924565b61019280546001600160a01b03199081166001600160a01b039b8c161790915561019380548216998b169990991790985561019580548916968a1696909617909555610196805488169489169490941790935561019780548716928816929092179091556101988054861691871691909117905561019980548516918616919091179055610194805484169285169290921790915561019a80549092169216919091179055565b3332146116e25760405162461bcd60e51b8152600401610924906147d7565b6116ec8282611e73565b5050565b33600090815261015f602052604090205460ff16806117125750611712611e23565b61172e5760405162461bcd60e51b815260040161092490614608565b610e326101a58383613d99565b33600090815261015f602052604090205460ff168061175d575061175d611e23565b6117795760405162461bcd60e51b815260040161092490614608565b8015611787576109606121a9565b610960612220565b33600090815261015f602052604090205460ff16806117b157506117b1611e23565b6117cd5760405162461bcd60e51b815260040161092490614608565b60008181526101a46020526040808220918255600190910180546dffffffffffffffffffffffffffff1916905561019754905163d4b8d38560e01b8152600481018390526001600160a01b039091169063d4b8d38590602401600060405180830381600087803b15801561184057600080fd5b505af1158015610d8e573d6000803e3d6000fd5b6000613a988211158015611885575060008281526101a46020526040902060010154600160401b900463ffffffff16155b1561189257506000919050565b610197546040516358c6a0bd60e01b8152600481018490526000916001600160a01b0316906358c6a0bd9060240160206040518083038186803b1580156118d857600080fd5b505afa1580156118ec573d6000803e3d6000fd5b505050506040513d601f19601f820116820180604052508101906119109190614868565b9050683635c9adc5dea000006119298160ff84166146b9565b6101a75461193791906148aa565b949350505050565b33600090815261015f602052604090205460ff16806119615750611961611e23565b61197d5760405162461bcd60e51b815260040161092490614608565b6101a655565b61198b6112f5565b6119a75760405162461bcd60e51b8152600401610924906145a8565b61012d5460ff16156119cb5760405162461bcd60e51b8152600401610924906148c1565b60006119d861019d611ba4565b116119f55760405162461bcd60e51b8152600401610924906145df565b333214611a145760405162461bcd60e51b8152600401610924906147d7565b6116ec828261229c565b611a266112f5565b611a425760405162461bcd60e51b8152600401610924906145a8565b61012d5460ff1615611a665760405162461bcd60e51b8152600401610924906148c1565b6000611a7361019d611ba4565b11611a905760405162461bcd60e51b8152600401610924906145df565b333214611aaf5760405162461bcd60e51b8152600401610924906147d7565b8060005b81811015610f8c576000848483818110611acf57611acf614634565b905060400201803603810190611ae591906148eb565b9050611af98160000151826020015161229c565b5080611b0481614660565b915050611ab3565b60fb546001600160a01b03163314611b365760405162461bcd60e51b8152600401610924906147a2565b6001600160a01b038116611b9b5760405162461bcd60e51b815260206004820152602660248201527f4f776e61626c653a206e6577206f776e657220697320746865207a65726f206160448201526564647265737360d01b6064820152608401610924565b610960816120f2565b60006108fa825490565b60008181526101a4602052604090205480611bfa5760405162461bcd60e51b815260206004820152600c60248201526b4e6f7420747261696e696e6760a01b6044820152606401610924565b610198546040516308c821cb60e41b8152600481018390526001600160a01b0390911690638c821cb09060240160206040518083038186803b158015611c3f57600080fd5b505afa158015611c53573d6000803e3d6000fd5b505050506040513d601f19601f82011682018060405250810190611c779190614940565b611cb35760405162461bcd60e51b815260206004820152600d60248201526c139bc81c985b991bdb481e595d609a1b6044820152606401610924565b61019254604051630974560360e11b8152600481018490526000916001600160a01b0316906312e8ac069060240160206040518083038186803b158015611cf957600080fd5b505afa158015611d0d573d6000803e3d6000fd5b505050506040513d601f19601f82011682018060405250810190611d31919061495d565b90506001600160a01b038116331480611d5a575033600090815261015f602052604090205460ff165b611d985760405162461bcd60e51b815260206004820152600f60248201526e426164207065726d697373696f6e7360881b6044820152606401610924565b610198546040516348d6006560e11b8152600481018490526000916001600160a01b0316906391ac00ca9060240160206040518083038186803b158015611dde57600080fd5b505afa158015611df2573d6000803e3d6000fd5b505050506040513d601f19601f82011682018060405250810190611e16919061497a565b9050610f8c84838361293c565b600033611e3860fb546001600160a01b031690565b6001600160a01b031614905090565b60606000611e5483612cec565b9392505050565b6000611e548383612d48565b6000611e548383612e3b565b60008281526101a46020526040812060010154600160601b900460ff1690611e9a846113c4565b60ff16905060008211611eff5760405162461bcd60e51b815260206004820152602760248201527f547261696e696e6747616d653a204850206d75737420626520677265617465726044820152660207468616e20360cc1b6064820152608401610924565b60008360ff1611611f625760405162461bcd60e51b815260206004820152602760248201527f547261696e696e6747616d653a2043616e2774206865616c2077697468203020604482015266656c697869727360c81b6064820152608401610924565b80611f7060ff8516846146a1565b1115611fbe5760405162461bcd60e51b815260206004820152601f60248201527f547261696e696e6747616d653a205175616e746974792069732077726f6e67006044820152606401610924565b6101a854600160301b900460ff1661202b5760405162461bcd60e51b815260206004820152602a60248201527f547261696e696e6747616d653a20456c69786972206f66204865616c696e67206044820152691251081b9bdd081cd95d60b21b6064820152608401610924565b610194546101a854604051631d24e23160e21b8152600160301b90910460ff9081166004830152851660248201523360448201526001600160a01b039091169063749388c490606401600060405180830381600087803b15801561208e57600080fd5b505af11580156120a2573d6000803e3d6000fd5b50505060008581526101a4602052604090206001018054859250600c906120d4908490600160601b900460ff16614885565b92506101000a81548160ff021916908360ff16021790555050505050565b60fb80546001600160a01b038381166001600160a01b0319831681179093556040519116919082907f8be0079c531659141344cd1fd0a4f28419497f9722a3daafe3b4186f6b6457e090600090a35050565b600054610100900460ff1661215f5760005460ff1615612163565b303b155b61217f5760405162461bcd60e51b81526004016109249061481a565b600054610100900460ff161580156121a1576000805461ffff19166101011790555b610fff612e8a565b61012d5460ff16156121cd5760405162461bcd60e51b8152600401610924906148c1565b61012d805460ff191660011790557f62e78cea01bee320cd4e420270b5ea74000d11b0c9f74754ebdbfc544b05a2586122033390565b6040516001600160a01b03909116815260200160405180910390a1565b61012d5460ff1661226a5760405162461bcd60e51b815260206004820152601460248201527314185d5cd8589b194e881b9bdd081c185d5cd95960621b6044820152606401610924565b61012d805460ff191690557f5db9ee0a495bf2e6ff9c91a7834c1ba4fdd244a5e8aa4e537bd38aeae4b073aa33612203565b61019654604051600162ac0b8d60e01b03198152600481018490526001600160a01b039091169063ff53f4739060240160206040518083038186803b1580156122e457600080fd5b505afa1580156122f8573d6000803e3d6000fd5b505050506040513d601f19601f8201168201806040525081019061231c9190614940565b6123575760405162461bcd60e51b815260206004820152600c60248201526b139bdd0818481dda5e985c9960a21b6044820152606401610924565b60008281526101a460205260409020600101546001600160401b031642116123b95760405162461bcd60e51b81526020600482015260156024820152742bb4bd30b9321036bab9ba1031b7b7b6103237bbb760591b6044820152606401610924565b60008281526101a46020526040902054156124095760405162461bcd60e51b815260206004820152601060248201526f416c726561647920747261696e696e6760801b6044820152606401610924565b61019254604051630974560360e11b8152600481018490526000916001600160a01b0316906312e8ac069060240160206040518083038186803b15801561244f57600080fd5b505afa158015612463573d6000803e3d6000fd5b505050506040513d601f19601f82011682018060405250810190612487919061495d565b90506001600160a01b0381163314806124b0575033600090815261015f602052604090205460ff165b6124f15760405162461bcd60e51b81526020600482015260126024820152712737ba1037bbb732b91037b3103a37b5b2b760711b6044820152606401610924565b60006124fc84611854565b610195546040516370a0823160e01b81526001600160a01b0385811660048301529293508392909116906370a082319060240160206040518083038186803b15801561254757600080fd5b505afa15801561255b573d6000803e3d6000fd5b505050506040513d601f19601f8201168201806040525081019061257f919061497a565b10156125bd5760405162461bcd60e51b815260206004820152600d60248201526c04e6f7420656e6f75676820475609c1b6044820152606401610924565b61019254604051635a140c0f60e11b8152600481018690526003916001600160a01b03169063b428181e9060240160206040518083038186803b15801561260357600080fd5b505afa158015612617573d6000803e3d6000fd5b505050506040513d601f19601f8201168201806040525081019061263b91906149a9565b600481111561264c5761264c614993565b1461268c5760405162461bcd60e51b815260206004820152601060248201526f4e6f74207374616b656420617420544760801b6044820152606401610924565b8215612775576101945461019c54604051627eeac760e11b81526000926001600160a01b03169162fdd58e916126da9187916004016001600160a01b03929092168252602082015260400190565b60206040518083038186803b1580156126f257600080fd5b505afa158015612706573d6000803e3d6000fd5b505050506040513d601f19601f8201168201806040525081019061272a919061497a565b1161276b5760405162461bcd60e51b815260206004820152601160248201527004e6f2061726d6f7220746f20657175697607c1b6044820152606401610924565b6127758483612eef565b61277f8483612f8d565b61019554604051632770a7eb60e21b81526001600160a01b0384811660048301526024820184905290911690639dc29fac90604401600060405180830381600087803b1580156127ce57600080fd5b505af11580156127e2573d6000803e3d6000fd5b50505060008581526101a46020526040902060010154600160401b900463ffffffff16159050801561282e575060008481526101a46020526040902060010154600160601b900460ff16155b1561286c5761283c846113c4565b60008581526101a460205260409020600101805460ff92909216600160601b0260ff60601b199092169190911790555b610198546040805163dbdff2c160e01b815290516000926001600160a01b03169163dbdff2c191600480830192602092919082900301818787803b1580156128b357600080fd5b505af11580156128c7573d6000803e3d6000fd5b505050506040513d601f19601f820116820180604052508101906128eb919061497a565b60008681526101a4602052604080822083905551919250829187916001600160a01b038716917f15c846ed996000a226c34e21e33441a7e678ef93a2352e57406493b03440da009190a45050505050565b610197546040516358c6a0bd60e01b8152600481018590526000916001600160a01b0316906358c6a0bd9060240160206040518083038186803b15801561298257600080fd5b505afa158015612996573d6000803e3d6000fd5b505050506040513d601f19601f820116820180604052508101906129ba9190614868565b905060006129c78261306e565b90506000806129d76064866149ca565b905060ff83168110808015612a06575060008881526101a46020526040902060010154600160681b900460ff16155b15612a7b5761019a54604051630434829f60e01b8152600481018a90526001600160a01b03898116602483015290911690630434829f90604401600060405180830381600087803b158015612a5a57600080fd5b505af1158015612a6e573d6000803e3d6000fd5b5050505060019250612cd3565b808015612aa1575060008881526101a46020526040902060010154600160681b900460ff165b15612aaf57612aaf886130b2565b604080516020810188905290810187905260600160408051601f19818403018152919052805160209091012095506000612aea6064886149ca565b90506000612af78761319f565b60ff16905080821015612c5f576101a854640100000000900460ff16612b378b60009081526101a46020526040902060010154600160681b900460ff1690565b15612b61576101a854612b569065010000000000900460ff16826149ec565b9050612b618b6130b2565b60008b81526101a4602052604090206001015460ff808316600160601b9092041611612c155760008b81526101a4602052604090819020600101805460ff60601b1916905561019a549051630434829f60e01b8152600481018d90526001600160a01b038c8116602483015290911690630434829f90604401600060405180830381600087803b158015612bf457600080fd5b505af1158015612c08573d6000803e3d6000fd5b5050505060019550612c5d565b60008b81526101a4602052604090206001018054829190600c90612c44908490600160601b900460ff166149ec565b92506101000a81548160ff021916908360ff1602179055505b505b84612ca4576040805160208082018b90528183018d905282518083038401815260609092019092528051910120612c988b8b838b6131c3565b612ca28b89613364565b505b60008a81526101a46020526040902060010154600160681b900460ff1615612cd057612cd08a8a6134db565b50505b505050600094855250506101a460205250506040812055565b606081600001805480602002602001604051908101604052809291908181526020018280548015612d3c57602002820191906000526020600020905b815481526020019060010190808311612d28575b50505050509050919050565b60008181526001830160205260408120548015612e31576000612d6c6001836148aa565b8554909150600090612d80906001906148aa565b9050818114612de5576000866000018281548110612da057612da0614634565b9060005260206000200154905080876000018481548110612dc357612dc3614634565b6000918252602080832090910192909255918252600188019052604090208390555b8554869080612df657612df6614a0f565b6001900381819060005260206000200160009055905585600101600086815260200190815260200160002060009055600193505050506108fa565b60009150506108fa565b6000818152600183016020526040812054612e82575081546001818101845560008481526020808220909301849055845484825282860190935260409020919091556108fa565b5060006108fa565b600054610100900460ff16612ea55760005460ff1615612ea9565b303b155b612ec55760405162461bcd60e51b81526004016109249061481a565b600054610100900460ff16158015612ee7576000805461ffff19166101011790555b610fff6135d0565b6101945461019c5460405163a878b95d60e01b81526001600160a01b03848116600483015230602483015260448201929092526001606482015291169063a878b95d90608401600060405180830381600087803b158015612f4f57600080fd5b505af1158015612f63573d6000803e3d6000fd5b505050600092835250506101a460205260409020600101805460ff60681b1916600160681b179055565b61019954604051638be886d560e01b81526001600160a01b03838116600483015290911690638be886d59060240160206040518083038186803b158015612fd357600080fd5b505afa158015612fe7573d6000803e3d6000fd5b505050506040513d601f19601f8201168201806040525081019061300b919061497a565b6130169060046146b9565b61302190603c6146b9565b6101a65461302f90426146a1565b61303991906148aa565b60009283526101a46020526040909220600101805467ffffffffffffffff19166001600160401b039093169290921790915550565b6101a85460009060ff808216916101009004811690841611156130a8576101a8546130a190610100900460ff16826149ec565b90506108fa565b611e5483826149ec565b60008181526101a46020526040902060010154600160681b900460ff1661310f5760405162461bcd60e51b8152602060048201526011602482015270139bc8185c9b5bdc88195c5d5a5c1c1959607a1b6044820152606401610924565b6101945461019c54604051631d24e23160e21b81526004810191909152600160248201523060448201526001600160a01b039091169063749388c490606401600060405180830381600087803b15801561316857600080fd5b505af115801561317c573d6000803e3d6000fd5b5050506000918252506101a460205260409020600101805460ff60681b19169055565b60006131ac826002614a25565b6101a8546108fa919062010000900460ff166149ec565b60006131ce83613702565b9050602083901c925060006131e2846137d8565b905060008485604051602001613202929190918252602082015260400190565b6040516020818303038152906040528051906020012060001c9050600061322a848387613865565b6101945460405163e7d3fe6b60e01b81526004810187905261ffff831660248201526001600160a01b038a8116604483015292935091169063e7d3fe6b90606401600060405180830381600087803b15801561328557600080fd5b505af1158015613299573d6000803e3d6000fd5b50505050600083111561330e57610195546040516340c10f1960e01b81526001600160a01b03898116600483015260248201869052909116906340c10f1990604401600060405180830381600087803b1580156132f557600080fd5b505af1158015613309573d6000803e3d6000fd5b505050505b6040805161ffff831681526020810185905285918a916001600160a01b038b16917f5acb7107807e6ac6fb396459bbd2bb6da2e48bec16722e45823671541ebcb53d910160405180910390a45050505050505050565b60008281526101a4602052604090206001018054600160401b900463ffffffff1690600861339183614a4e565b91906101000a81548163ffffffff021916908363ffffffff1602179055505060016101a5805490506133c391906148aa565b8160ff1610801561343057506101a56133dd826001614885565b60ff16815481106133f0576133f0614634565b6000918252602080832081830401548584526101a490915260409092206001015463ffffffff600160401b9091041660ff601f9092166101000a90920416145b156116ec57610197546040516316a5d2bd60e31b8152600481018490526001600160a01b039091169063b52e95e890602401600060405180830381600087803b15801561347c57600080fd5b505af1158015613490573d6000803e3d6000fd5b50505060008381526101a4602052604090206001018054600160601b900460ff169150600c6134be83614a72565b91906101000a81548160ff021916908360ff160217905550505050565b60008281526101a46020526040902060010154600160681b900460ff166135385760405162461bcd60e51b8152602060048201526011602482015270139bc8185c9b5bdc88195c5d5a5c1c1959607a1b6044820152606401610924565b6101945461019c5460405163a878b95d60e01b81523060048201526001600160a01b03848116602483015260448201929092526001606482015291169063a878b95d90608401600060405180830381600087803b15801561359857600080fd5b505af11580156135ac573d6000803e3d6000fd5b505050600092835250506101a460205260409020600101805460ff60681b19169055565b600054610100900460ff166135eb5760005460ff16156135ef565b303b155b61360b5760405162461bcd60e51b81526004016109249061481a565b600054610100900460ff1615801561362d576000805461ffff19166101011790555b613635613b2a565b61363d613b8f565b613645613bbe565b620186a061019b55620151806101a65569028a857425466f8000006101a7556101a8805461ffff191661080a17905560408051610120810182526000815260066020820152600891810191909152600a6060820152600c6080820152600e60a0820152601060c0820152601260e082015260146101008201526136cd906101a5906009613e42565b50600261019c556101a8805466ffffffffff0000191666010306073200001790558015610960576000805461ff001916905550565b60008061019b548361371491906149ca565b90506000805b61372561019d611ba4565b8160ff16101561378f57600061374061019d60ff8416613bf5565b600081815261019f60205260409020549091506137639063ffffffff1684614a92565b92508263ffffffff1684101561377c5795945050505050565b508061378781614a72565b91505061371a565b5060405162461bcd60e51b815260206004820152601760248201527f546865206f6464732061726520696e636f72726563742e0000000000000000006044820152606401610924565b60008061019b54836137ea91906149ca565b90506000805b6137fb6101a1611ba4565b8160ff16101561378f5760006138166101a160ff8416613bf5565b60008181526101a360205260409020549091506138399063ffffffff1684614a92565b92508263ffffffff168410156138525795945050505050565b508061385d81614a72565b9150506137f0565b60008381526101a0602052604080822081516101608101808452849391929183919082019083906009908288855b82829054906101000a900461ffff1661ffff16815260200190600201906020826001010492830192600103820291508084116138935750505092845250506040805161012081019182905260209093019291506001840190600990826000855b82829054906101000a900461ffff1661ffff16815260200190600201906020826001010492830192600103820291508084116138f35790505050505050815250509050600060088460ff1611613949578361394c565b60085b9050600082600001518260ff166009811061396957613969614634565b60200201519050600083602001518360ff166009811061398b5761398b614634565b602002015190508061ffff168261ffff1614156139ad57509250611e54915050565b60006139b98383614aba565b6139c4906001614add565b905060008161ffff166001600160401b038111156139e4576139e461402a565b604051908082528060200260200182016040528015613a0d578160200160208202803683370190505b50905060016000835b61ffff811615613a71578284613a2d600184614aba565b61ffff1681518110613a4157613a41614634565b6020908102919091010152613a5683836146a1565b60019390931b92915080613a6981614afa565b915050613a16565b506000613a7e828d6149ca565b90506000805b85518160ff161015613af357858160ff1681518110613aa557613aa5614634565b602002602001015182613ab891906146a1565b915081831015613ae157613acf60ff82168a614add565b9b505050505050505050505050611e54565b80613aeb81614a72565b915050613a84565b5060405162461bcd60e51b815260206004820152600b60248201526a27b2323990313937b5b2b760a91b6044820152606401610924565b600054610100900460ff16613b455760005460ff1615613b49565b303b155b613b655760405162461bcd60e51b81526004016109249061481a565b600054610100900460ff16158015613b87576000805461ffff19166101011790555b610fff613c01565b600054610100900460ff16613bb65760405162461bcd60e51b815260040161092490614b18565b610eba613c76565b600054610100900460ff16613be55760405162461bcd60e51b815260040161092490614b18565b613bed613c76565b613bb6613c76565b6000611e548383613c9d565b600054610100900460ff16613c1c5760005460ff1615613c20565b303b155b613c3c5760405162461bcd60e51b81526004016109249061481a565b600054610100900460ff16158015613c5e576000805461ffff19166101011790555b613c66613cc7565b613c6e613cfe565b610fff6121a9565b600054610100900460ff16610eba5760405162461bcd60e51b815260040161092490614b18565b6000826000018281548110613cb457613cb4614634565b9060005260206000200154905092915050565b600054610100900460ff16613cee5760405162461bcd60e51b815260040161092490614b18565b613cf6613c76565b610eba613d35565b600054610100900460ff16613d255760405162461bcd60e51b815260040161092490614b18565b613d2d613c76565b610eba613d65565b600054610100900460ff16613d5c5760405162461bcd60e51b815260040161092490614b18565b610eba336120f2565b600054610100900460ff16613d8c5760405162461bcd60e51b815260040161092490614b18565b61012d805460ff19169055565b82805482825590600052602060002090601f01602090048101928215613e325791602002820160005b83821115613e0357833560ff1683826101000a81548160ff021916908360ff1602179055509260200192600101602081600001049283019260010302613dc2565b8015613e305782816101000a81549060ff0219169055600101602081600001049283019260010302613e03565b505b50613e3e929150613ea9565b5090565b82805482825590600052602060002090601f01602090048101928215613e325791602002820160005b83821115613e0357835183826101000a81548160ff021916908360ff1602179055509260200192600101602081600001049283019260010302613e6b565b5b80821115613e3e5760008155600101613eaa565b600060208284031215613ed057600080fd5b81356001600160e01b031981168114611e5457600080fd5b600060208284031215613efa57600080fd5b5035919050565b60008083601f840112613f1357600080fd5b5081356001600160401b03811115613f2a57600080fd5b6020830191508360208260051b8501011115613f4557600080fd5b9250929050565b60008060008060008060608789031215613f6557600080fd5b86356001600160401b0380821115613f7c57600080fd5b613f888a838b01613f01565b90985096506020890135915080821115613fa157600080fd5b613fad8a838b01613f01565b90965094506040890135915080821115613fc657600080fd5b818901915089601f830112613fda57600080fd5b813581811115613fe957600080fd5b8a602061024083028501011115613fff57600080fd5b6020830194508093505050509295509295509295565b6001600160a01b038116811461096057600080fd5b634e487b7160e01b600052604160045260246000fd5b604051601f8201601f191681016001600160401b03811182821017156140685761406861402a565b604052919050565b600082601f83011261408157600080fd5b81356001600160401b0381111561409a5761409a61402a565b6140ad601f8201601f1916602001614040565b8181528460208386010111156140c257600080fd5b816020850160208301376000918101602001919091529392505050565b600080600080608085870312156140f557600080fd5b843561410081614015565b9350602085013561411081614015565b92506040850135915060608501356001600160401b0381111561413257600080fd5b61413e87828801614070565b91505092959194509250565b60006020828403121561415c57600080fd5b8135611e5481614015565b6000806000806040858703121561417d57600080fd5b84356001600160401b038082111561419457600080fd5b6141a088838901613f01565b909650945060208701359150808211156141b957600080fd5b506141c687828801613f01565b95989497509550505050565b600080602083850312156141e557600080fd5b82356001600160401b038111156141fb57600080fd5b61420785828601613f01565b90969095509350505050565b60ff8116811461096057600080fd5b60008060006060848603121561423757600080fd5b83359250602084013561424981614213565b9150604084013561425981614213565b809150509250925092565b60008060008060008060008060006101208a8c03121561428357600080fd5b893561428e81614015565b985060208a013561429e81614015565b975060408a01356142ae81614015565b965060608a01356142be81614015565b955060808a01356142ce81614015565b945060a08a01356142de81614015565b935060c08a01356142ee81614015565b925060e08a01356142fe81614015565b91506101008a013561430f81614015565b809150509295985092959850929598565b6000806040838503121561433357600080fd5b82359150602083013561434581614213565b809150509250929050565b600082601f83011261436157600080fd5b813560206001600160401b0382111561437c5761437c61402a565b8160051b61438b828201614040565b92835284810182019282810190878511156143a557600080fd5b83870192505b848310156143c4578235825291830191908301906143ab565b979650505050505050565b600080600080600060a086880312156143e757600080fd5b85356143f281614015565b9450602086013561440281614015565b935060408601356001600160401b038082111561441e57600080fd5b61442a89838a01614350565b9450606088013591508082111561444057600080fd5b61444c89838a01614350565b9350608088013591508082111561446257600080fd5b5061446f88828901614070565b9150509295509295909350565b801515811461096057600080fd5b60006020828403121561449c57600080fd5b8135611e548161447c565b600080604083850312156144ba57600080fd5b8235915060208301356143458161447c565b600080602083850312156144df57600080fd5b82356001600160401b03808211156144f657600080fd5b818501915085601f83011261450a57600080fd5b81358181111561451957600080fd5b8660208260061b850101111561452e57600080fd5b60209290920196919550909350505050565b600080600080600060a0868803121561455857600080fd5b853561456381614015565b9450602086013561457381614015565b9350604086013592506060860135915060808601356001600160401b0381111561459c57600080fd5b61446f88828901614070565b6020808252601f908201527f547261696e696e6747616d653a20436f6e747261637473206e6f742073657400604082015260600190565b6020808252600f908201526e14995dd85c991cc81b9bdd081cd95d608a1b604082015260600190565b6020808252601290820152712737ba1030b236b4b71037b91037bbb732b960711b604082015260600190565b634e487b7160e01b600052603260045260246000fd5b634e487b7160e01b600052601160045260246000fd5b60006000198214156146745761467461464a565b5060010190565b60006020828403121561468d57600080fd5b813563ffffffff81168114611e5457600080fd5b600082198211156146b4576146b461464a565b500190565b60008160001904831182151516156146d3576146d361464a565b500290565b6000813561ffff811681146108fa57600080fd5b81816000805b600981101561474d57614725614707856146d8565b845461ffff600386901b81811b801990931693909116901b16178455565b602084019350600282019150601e82111561474557600091506001830192505b6001016146f2565b50505050600161012083018183016000805b600981101561479957614774614707856146d8565b602084019350600282019150601e8211156147925791840191600091505b840161475f565b50505050505050565b6020808252818101527f4f776e61626c653a2063616c6c6572206973206e6f7420746865206f776e6572604082015260600190565b6020808252600c908201526b4e6f20636f6e74726163747360a01b604082015260600190565b60006020828403121561480f57600080fd5b8135611e5481614213565b6020808252602e908201527f496e697469616c697a61626c653a20636f6e747261637420697320616c72656160408201526d191e481a5b9a5d1a585b1a5e995960921b606082015260800190565b60006020828403121561487a57600080fd5b8151611e5481614213565b600060ff821660ff84168060ff038211156148a2576148a261464a565b019392505050565b6000828210156148bc576148bc61464a565b500390565b60208082526010908201526f14185d5cd8589b194e881c185d5cd95960821b604082015260600190565b6000604082840312156148fd57600080fd5b604051604081018181106001600160401b038211171561491f5761491f61402a565b6040528235815260208301356149348161447c565b60208201529392505050565b60006020828403121561495257600080fd5b8151611e548161447c565b60006020828403121561496f57600080fd5b8151611e5481614015565b60006020828403121561498c57600080fd5b5051919050565b634e487b7160e01b600052602160045260246000fd5b6000602082840312156149bb57600080fd5b815160058110611e5457600080fd5b6000826149e757634e487b7160e01b600052601260045260246000fd5b500690565b600060ff821660ff841680821015614a0657614a0661464a565b90039392505050565b634e487b7160e01b600052603160045260246000fd5b600060ff821660ff84168160ff0481118215151615614a4657614a4661464a565b029392505050565b600063ffffffff80831681811415614a6857614a6861464a565b6001019392505050565b600060ff821660ff811415614a8957614a8961464a565b60010192915050565b600063ffffffff808316818516808303821115614ab157614ab161464a565b01949350505050565b600061ffff83811690831681811015614ad557614ad561464a565b039392505050565b600061ffff808316818516808303821115614ab157614ab161464a565b600061ffff821680614b0e57614b0e61464a565b6000190192915050565b6020808252602b908201527f496e697469616c697a61626c653a20636f6e7472616374206973206e6f74206960408201526a6e697469616c697a696e6760a81b60608201526080019056fea26469706673582212205877f9dc8475c5c3e927b4a98260f226ee8d0a3cad59eaaf71509bb93c78ba4364736f6c63430008090033",
  "devdoc": {
    "kind": "dev",
    "methods": {
      "onERC721Received(address,address,uint256,bytes)": {
        "details": "See {IERC721Receiver-onERC721Received}. Always returns `IERC721Receiver.onERC721Received.selector`."
      },
      "owner()": {
        "details": "Returns the address of the current owner."
      },
      "paused()": {
        "details": "Returns true if the contract is paused, and false otherwise."
      },
      "renounceOwnership()": {
        "details": "Leaves the contract without owner. It will not be possible to call `onlyOwner` functions anymore. Can only be called by the current owner. NOTE: Renouncing ownership will leave the contract without an owner, thereby removing any functionality that is only available to the owner."
      },
      "supportsInterface(bytes4)": {
        "details": "See {IERC165-supportsInterface}."
      },
      "transferOwnership(address)": {
        "details": "Transfers ownership of the contract to a new account (`newOwner`). Can only be called by the current owner."
      }
    },
    "version": 1
  },
  "userdoc": {
    "kind": "user",
    "methods": {},
    "version": 1
  },
  "storageLayout": {
    "storage": [
      {
        "astId": 2787,
        "contract": "contracts/wnd/traininggame/TrainingGame.sol:TrainingGame",
        "label": "_initialized",
        "offset": 0,
        "slot": "0",
        "type": "t_bool"
      },
      {
        "astId": 2790,
        "contract": "contracts/wnd/traininggame/TrainingGame.sol:TrainingGame",
        "label": "_initializing",
        "offset": 1,
        "slot": "0",
        "type": "t_bool"
      },
      {
        "astId": 6549,
        "contract": "contracts/wnd/traininggame/TrainingGame.sol:TrainingGame",
        "label": "__gap",
        "offset": 0,
        "slot": "1",
        "type": "t_array(t_uint256)50_storage"
      },
      {
        "astId": 7087,
        "contract": "contracts/wnd/traininggame/TrainingGame.sol:TrainingGame",
        "label": "__gap",
        "offset": 0,
        "slot": "51",
        "type": "t_array(t_uint256)50_storage"
      },
      {
        "astId": 4405,
        "contract": "contracts/wnd/traininggame/TrainingGame.sol:TrainingGame",
        "label": "__gap",
        "offset": 0,
        "slot": "101",
        "type": "t_array(t_uint256)50_storage"
      },
      {
        "astId": 4346,
        "contract": "contracts/wnd/traininggame/TrainingGame.sol:TrainingGame",
        "label": "__gap",
        "offset": 0,
        "slot": "151",
        "type": "t_array(t_uint256)50_storage"
      },
      {
        "astId": 6838,
        "contract": "contracts/wnd/traininggame/TrainingGame.sol:TrainingGame",
        "label": "__gap",
        "offset": 0,
        "slot": "201",
        "type": "t_array(t_uint256)50_storage"
      },
      {
        "astId": 2665,
        "contract": "contracts/wnd/traininggame/TrainingGame.sol:TrainingGame",
        "label": "_owner",
        "offset": 0,
        "slot": "251",
        "type": "t_address"
      },
      {
        "astId": 2779,
        "contract": "contracts/wnd/traininggame/TrainingGame.sol:TrainingGame",
        "label": "__gap",
        "offset": 0,
        "slot": "252",
        "type": "t_array(t_uint256)49_storage"
      },
      {
        "astId": 2875,
        "contract": "contracts/wnd/traininggame/TrainingGame.sol:TrainingGame",
        "label": "_paused",
        "offset": 0,
        "slot": "301",
        "type": "t_bool"
      },
      {
        "astId": 2966,
        "contract": "contracts/wnd/traininggame/TrainingGame.sol:TrainingGame",
        "label": "__gap",
        "offset": 0,
        "slot": "302",
        "type": "t_array(t_uint256)49_storage"
      },
      {
        "astId": 12059,
        "contract": "contracts/wnd/traininggame/TrainingGame.sol:TrainingGame",
        "label": "admins",
        "offset": 0,
        "slot": "351",
        "type": "t_mapping(t_address,t_bool)"
      },
      {
        "astId": 12219,
        "contract": "contracts/wnd/traininggame/TrainingGame.sol:TrainingGame",
        "label": "__gap",
        "offset": 0,
        "slot": "352",
        "type": "t_array(t_uint256)50_storage"
      },
      {
        "astId": 24471,
        "contract": "contracts/wnd/traininggame/TrainingGame.sol:TrainingGame",
        "label": "world",
        "offset": 0,
        "slot": "402",
        "type": "t_contract(IWorld)26249"
      },
      {
        "astId": 24474,
        "contract": "contracts/wnd/traininggame/TrainingGame.sol:TrainingGame",
        "label": "sacrificialAlter",
        "offset": 0,
        "slot": "403",
        "type": "t_contract(ISacrificialAlter)20841"
      },
      {
        "astId": 24477,
        "contract": "contracts/wnd/traininggame/TrainingGame.sol:TrainingGame",
        "label": "consumables",
        "offset": 0,
        "slot": "404",
        "type": "t_contract(IConsumables)20633"
      },
      {
        "astId": 24480,
        "contract": "contracts/wnd/traininggame/TrainingGame.sol:TrainingGame",
        "label": "gp",
        "offset": 0,
        "slot": "405",
        "type": "t_contract(IGP)20793"
      },
      {
        "astId": 24483,
        "contract": "contracts/wnd/traininggame/TrainingGame.sol:TrainingGame",
        "label": "wnd",
        "offset": 0,
        "slot": "406",
        "type": "t_contract(IWnD)22058"
      },
      {
        "astId": 24486,
        "contract": "contracts/wnd/traininggame/TrainingGame.sol:TrainingGame",
        "label": "trainingProficiency",
        "offset": 0,
        "slot": "407",
        "type": "t_contract(ITrainingProficiency)25659"
      },
      {
        "astId": 24489,
        "contract": "contracts/wnd/traininggame/TrainingGame.sol:TrainingGame",
        "label": "randomizer",
        "offset": 0,
        "slot": "408",
        "type": "t_contract(IRandomizerCL)12779"
      },
      {
        "astId": 24492,
        "contract": "contracts/wnd/traininggame/TrainingGame.sol:TrainingGame",
        "label": "rift",
        "offset": 0,
        "slot": "409",
        "type": "t_contract(IRift)17251"
      },
      {
        "astId": 24495,
        "contract": "contracts/wnd/traininggame/TrainingGame.sol:TrainingGame",
        "label": "graveyard",
        "offset": 0,
        "slot": "410",
        "type": "t_contract(IGraveyard)16917"
      },
      {
        "astId": 24497,
        "contract": "contracts/wnd/traininggame/TrainingGame.sol:TrainingGame",
        "label": "ODDS_TOTAL",
        "offset": 0,
        "slot": "411",
        "type": "t_uint256"
      },
      {
        "astId": 24499,
        "contract": "contracts/wnd/traininggame/TrainingGame.sol:TrainingGame",
        "label": "equipmentTokenId",
        "offset": 0,
        "slot": "412",
        "type": "t_uint256"
      },
      {
        "astId": 24502,
        "contract": "contracts/wnd/traininggame/TrainingGame.sol:TrainingGame",
        "label": "rewardIds",
        "offset": 0,
        "slot": "413",
        "type": "t_struct(UintSet)7569_storage"
      },
      {
        "astId": 24506,
        "contract": "contracts/wnd/traininggame/TrainingGame.sol:TrainingGame",
        "label": "rewardIdToOdds",
        "offset": 0,
        "slot": "415",
        "type": "t_mapping(t_uint256,t_uint32)"
      },
      {
        "astId": 24511,
        "contract": "contracts/wnd/traininggame/TrainingGame.sol:TrainingGame",
        "label": "rewardIdToMultiplier",
        "offset": 0,
        "slot": "416",
        "type": "t_mapping(t_uint256,t_struct(RewardMultiplier)24457_storage)"
      },
      {
        "astId": 24514,
        "contract": "contracts/wnd/traininggame/TrainingGame.sol:TrainingGame",
        "label": "gpAmts",
        "offset": 0,
        "slot": "417",
        "type": "t_struct(UintSet)7569_storage"
      },
      {
        "astId": 24518,
        "contract": "contracts/wnd/traininggame/TrainingGame.sol:TrainingGame",
        "label": "gpAmtsToOdds",
        "offset": 0,
        "slot": "419",
        "type": "t_mapping(t_uint256,t_uint32)"
      },
      {
        "astId": 24523,
        "contract": "contracts/wnd/traininggame/TrainingGame.sol:TrainingGame",
        "label": "tokenIdToInfo",
        "offset": 0,
        "slot": "420",
        "type": "t_mapping(t_uint256,t_struct(TokenTrainingInfo)24468_storage)"
      },
      {
        "astId": 24526,
        "contract": "contracts/wnd/traininggame/TrainingGame.sol:TrainingGame",
        "label": "proficiencyToGamesPlayed",
        "offset": 0,
        "slot": "421",
        "type": "t_array(t_uint8)dyn_storage"
      },
      {
        "astId": 24528,
        "contract": "contracts/wnd/traininggame/TrainingGame.sol:TrainingGame",
        "label": "gameCooldownTime",
        "offset": 0,
        "slot": "422",
        "type": "t_uint256"
      },
      {
        "astId": 24530,
        "contract": "contracts/wnd/traininggame/TrainingGame.sol:TrainingGame",
        "label": "trainingFee",
        "offset": 0,
        "slot": "423",
        "type": "t_uint256"
      },
      {
        "astId": 24532,
        "contract": "contracts/wnd/traininggame/TrainingGame.sol:TrainingGame",
        "label": "baseChanceWizardBurned",
        "offset": 0,
        "slot": "424",
        "type": "t_uint8"
      },
      {
        "astId": 24534,
        "contract": "contracts/wnd/traininggame/TrainingGame.sol:TrainingGame",
        "label": "maxBurnReduction",
        "offset": 1,
        "slot": "424",
        "type": "t_uint8"
      },
      {
        "astId": 24536,
        "contract": "contracts/wnd/traininggame/TrainingGame.sol:TrainingGame",
        "label": "damagePercentChance",
        "offset": 2,
        "slot": "424",
        "type": "t_uint8"
      },
      {
        "astId": 24538,
        "contract": "contracts/wnd/traininggame/TrainingGame.sol:TrainingGame",
        "label": "baseHP",
        "offset": 3,
        "slot": "424",
        "type": "t_uint8"
      },
      {
        "astId": 24540,
        "contract": "contracts/wnd/traininggame/TrainingGame.sol:TrainingGame",
        "label": "baseDamage",
        "offset": 4,
        "slot": "424",
        "type": "t_uint8"
      },
      {
        "astId": 24542,
        "contract": "contracts/wnd/traininggame/TrainingGame.sol:TrainingGame",
        "label": "armorDamageReductionAmt",
        "offset": 5,
        "slot": "424",
        "type": "t_uint8"
      },
      {
        "astId": 24544,
        "contract": "contracts/wnd/traininggame/TrainingGame.sol:TrainingGame",
        "label": "elixirOfHealingId",
        "offset": 6,
        "slot": "424",
        "type": "t_uint8"
      }
    ],
    "types": {
      "t_address": {
        "encoding": "inplace",
        "label": "address",
        "numberOfBytes": "20"
      },
      "t_array(t_bytes32)dyn_storage": {
        "base": "t_bytes32",
        "encoding": "dynamic_array",
        "label": "bytes32[]",
        "numberOfBytes": "32"
      },
      "t_array(t_uint16)9_storage": {
        "base": "t_uint16",
        "encoding": "inplace",
        "label": "uint16[9]",
        "numberOfBytes": "32"
      },
      "t_array(t_uint256)49_storage": {
        "base": "t_uint256",
        "encoding": "inplace",
        "label": "uint256[49]",
        "numberOfBytes": "1568"
      },
      "t_array(t_uint256)50_storage": {
        "base": "t_uint256",
        "encoding": "inplace",
        "label": "uint256[50]",
        "numberOfBytes": "1600"
      },
      "t_array(t_uint8)dyn_storage": {
        "base": "t_uint8",
        "encoding": "dynamic_array",
        "label": "uint8[]",
        "numberOfBytes": "32"
      },
      "t_bool": {
        "encoding": "inplace",
        "label": "bool",
        "numberOfBytes": "1"
      },
      "t_bytes32": {
        "encoding": "inplace",
        "label": "bytes32",
        "numberOfBytes": "32"
      },
      "t_contract(IConsumables)20633": {
        "encoding": "inplace",
        "label": "contract IConsumables",
        "numberOfBytes": "20"
      },
      "t_contract(IGP)20793": {
        "encoding": "inplace",
        "label": "contract IGP",
        "numberOfBytes": "20"
      },
      "t_contract(IGraveyard)16917": {
        "encoding": "inplace",
        "label": "contract IGraveyard",
        "numberOfBytes": "20"
      },
      "t_contract(IRandomizerCL)12779": {
        "encoding": "inplace",
        "label": "contract IRandomizerCL",
        "numberOfBytes": "20"
      },
      "t_contract(IRift)17251": {
        "encoding": "inplace",
        "label": "contract IRift",
        "numberOfBytes": "20"
      },
      "t_contract(ISacrificialAlter)20841": {
        "encoding": "inplace",
        "label": "contract ISacrificialAlter",
        "numberOfBytes": "20"
      },
      "t_contract(ITrainingProficiency)25659": {
        "encoding": "inplace",
        "label": "contract ITrainingProficiency",
        "numberOfBytes": "20"
      },
      "t_contract(IWnD)22058": {
        "encoding": "inplace",
        "label": "contract IWnD",
        "numberOfBytes": "20"
      },
      "t_contract(IWorld)26249": {
        "encoding": "inplace",
        "label": "contract IWorld",
        "numberOfBytes": "20"
      },
      "t_mapping(t_address,t_bool)": {
        "encoding": "mapping",
        "key": "t_address",
        "label": "mapping(address => bool)",
        "numberOfBytes": "32",
        "value": "t_bool"
      },
      "t_mapping(t_bytes32,t_uint256)": {
        "encoding": "mapping",
        "key": "t_bytes32",
        "label": "mapping(bytes32 => uint256)",
        "numberOfBytes": "32",
        "value": "t_uint256"
      },
      "t_mapping(t_uint256,t_struct(RewardMultiplier)24457_storage)": {
        "encoding": "mapping",
        "key": "t_uint256",
        "label": "mapping(uint256 => struct TrainingGameState.RewardMultiplier)",
        "numberOfBytes": "32",
        "value": "t_struct(RewardMultiplier)24457_storage"
      },
      "t_mapping(t_uint256,t_struct(TokenTrainingInfo)24468_storage)": {
        "encoding": "mapping",
        "key": "t_uint256",
        "label": "mapping(uint256 => struct TrainingGameState.TokenTrainingInfo)",
        "numberOfBytes": "32",
        "value": "t_struct(TokenTrainingInfo)24468_storage"
      },
      "t_mapping(t_uint256,t_uint32)": {
        "encoding": "mapping",
        "key": "t_uint256",
        "label": "mapping(uint256 => uint32)",
        "numberOfBytes": "32",
        "value": "t_uint32"
      },
      "t_struct(RewardMultiplier)24457_storage": {
        "encoding": "inplace",
        "label": "struct TrainingGameState.RewardMultiplier",
        "members": [
          {
            "astId": 24452,
            "contract": "contracts/wnd/traininggame/TrainingGame.sol:TrainingGame",
            "label": "min",
            "offset": 0,
            "slot": "0",
            "type": "t_array(t_uint16)9_storage"
          },
          {
            "astId": 24456,
            "contract": "contracts/wnd/traininggame/TrainingGame.sol:TrainingGame",
            "label": "max",
            "offset": 0,
            "slot": "1",
            "type": "t_array(t_uint16)9_storage"
          }
        ],
        "numberOfBytes": "64"
      },
      "t_struct(Set)7111_storage": {
        "encoding": "inplace",
        "label": "struct EnumerableSetUpgradeable.Set",
        "members": [
          {
            "astId": 7106,
            "contract": "contracts/wnd/traininggame/TrainingGame.sol:TrainingGame",
            "label": "_values",
            "offset": 0,
            "slot": "0",
            "type": "t_array(t_bytes32)dyn_storage"
          },
          {
            "astId": 7110,
            "contract": "contracts/wnd/traininggame/TrainingGame.sol:TrainingGame",
            "label": "_indexes",
            "offset": 0,
            "slot": "1",
            "type": "t_mapping(t_bytes32,t_uint256)"
          }
        ],
        "numberOfBytes": "64"
      },
      "t_struct(TokenTrainingInfo)24468_storage": {
        "encoding": "inplace",
        "label": "struct TrainingGameState.TokenTrainingInfo",
        "members": [
          {
            "astId": 24459,
            "contract": "contracts/wnd/traininggame/TrainingGame.sol:TrainingGame",
            "label": "requestId",
            "offset": 0,
            "slot": "0",
            "type": "t_bytes32"
          },
          {
            "astId": 24461,
            "contract": "contracts/wnd/traininggame/TrainingGame.sol:TrainingGame",
            "label": "timeNextPlay",
            "offset": 0,
            "slot": "1",
            "type": "t_uint64"
          },
          {
            "astId": 24463,
            "contract": "contracts/wnd/traininggame/TrainingGame.sol:TrainingGame",
            "label": "gamesPlayed",
            "offset": 8,
            "slot": "1",
            "type": "t_uint32"
          },
          {
            "astId": 24465,
            "contract": "contracts/wnd/traininggame/TrainingGame.sol:TrainingGame",
            "label": "hp",
            "offset": 12,
            "slot": "1",
            "type": "t_uint8"
          },
          {
            "astId": 24467,
            "contract": "contracts/wnd/traininggame/TrainingGame.sol:TrainingGame",
            "label": "hasArmor",
            "offset": 13,
            "slot": "1",
            "type": "t_bool"
          }
        ],
        "numberOfBytes": "64"
      },
      "t_struct(UintSet)7569_storage": {
        "encoding": "inplace",
        "label": "struct EnumerableSetUpgradeable.UintSet",
        "members": [
          {
            "astId": 7568,
            "contract": "contracts/wnd/traininggame/TrainingGame.sol:TrainingGame",
            "label": "_inner",
            "offset": 0,
            "slot": "0",
            "type": "t_struct(Set)7111_storage"
          }
        ],
        "numberOfBytes": "64"
      },
      "t_uint16": {
        "encoding": "inplace",
        "label": "uint16",
        "numberOfBytes": "2"
      },
      "t_uint256": {
        "encoding": "inplace",
        "label": "uint256",
        "numberOfBytes": "32"
      },
      "t_uint32": {
        "encoding": "inplace",
        "label": "uint32",
        "numberOfBytes": "4"
      },
      "t_uint64": {
        "encoding": "inplace",
        "label": "uint64",
        "numberOfBytes": "8"
      },
      "t_uint8": {
        "encoding": "inplace",
        "label": "uint8",
        "numberOfBytes": "1"
      }
    }
  }
}