{
  "address": "0x890d2106Ba6d55064a50f54345a58ECe1B4c6e2f",
  "abi": [
    {
      "anonymous": false,
      "inputs": [
        {
          "indexed": true,
          "internalType": "address",
          "name": "_oldOwner",
          "type": "address"
        },
        {
          "indexed": true,
          "internalType": "address",
          "name": "_newOwner",
          "type": "address"
        },
        {
          "indexed": true,
          "internalType": "uint256",
          "name": "_savedTokenId",
          "type": "uint256"
        }
      ],
      "name": "ChestStolen",
      "type": "event"
    },
    {
      "anonymous": false,
      "inputs": [
        {
          "indexed": true,
          "internalType": "address",
          "name": "previousOwner",
          "type": "address"
        },
        {
          "indexed": true,
          "internalType": "address",
          "name": "newOwner",
          "type": "address"
        }
      ],
      "name": "OwnershipTransferred",
      "type": "event"
    },
    {
      "anonymous": false,
      "inputs": [
        {
          "indexed": false,
          "internalType": "address",
          "name": "account",
          "type": "address"
        }
      ],
      "name": "Paused",
      "type": "event"
    },
    {
      "anonymous": false,
      "inputs": [
        {
          "indexed": false,
          "internalType": "address",
          "name": "account",
          "type": "address"
        }
      ],
      "name": "Unpaused",
      "type": "event"
    },
    {
      "anonymous": false,
      "inputs": [
        {
          "indexed": true,
          "internalType": "address",
          "name": "_owner",
          "type": "address"
        },
        {
          "indexed": true,
          "internalType": "uint256",
          "name": "_tokenId",
          "type": "uint256"
        }
      ],
      "name": "WizardStakingFinish",
      "type": "event"
    },
    {
      "anonymous": false,
      "inputs": [
        {
          "indexed": true,
          "internalType": "address",
          "name": "_owner",
          "type": "address"
        },
        {
          "indexed": true,
          "internalType": "uint256",
          "name": "_tokenId",
          "type": "uint256"
        },
        {
          "indexed": true,
          "internalType": "bytes32",
          "name": "_requestId",
          "type": "bytes32"
        }
      ],
      "name": "WizardStakingStart",
      "type": "event"
    },
    {
      "anonymous": false,
      "inputs": [
        {
          "indexed": true,
          "internalType": "address",
          "name": "_oldOwner",
          "type": "address"
        },
        {
          "indexed": true,
          "internalType": "address",
          "name": "_newOwner",
          "type": "address"
        },
        {
          "indexed": true,
          "internalType": "uint256",
          "name": "_tokenId",
          "type": "uint256"
        }
      ],
      "name": "WizardStolen",
      "type": "event"
    },
    {
      "anonymous": false,
      "inputs": [
        {
          "indexed": true,
          "internalType": "address",
          "name": "_owner",
          "type": "address"
        },
        {
          "indexed": true,
          "internalType": "uint256",
          "name": "_tokenId",
          "type": "uint256"
        }
      ],
      "name": "WizardUnstakingFinish",
      "type": "event"
    },
    {
      "anonymous": false,
      "inputs": [
        {
          "indexed": true,
          "internalType": "address",
          "name": "_owner",
          "type": "address"
        },
        {
          "indexed": true,
          "internalType": "uint256",
          "name": "_tokenId",
          "type": "uint256"
        },
        {
          "indexed": true,
          "internalType": "bytes32",
          "name": "_requestId",
          "type": "bytes32"
        }
      ],
      "name": "WizardUnstakingStart",
      "type": "event"
    },
    {
      "inputs": [
        {
          "internalType": "address",
          "name": "_address",
          "type": "address"
        }
      ],
      "name": "addAdmin",
      "outputs": [],
      "stateMutability": "nonpayable",
      "type": "function"
    },
    {
      "inputs": [
        {
          "internalType": "address[]",
          "name": "_addresses",
          "type": "address[]"
        }
      ],
      "name": "addAdmins",
      "outputs": [],
      "stateMutability": "nonpayable",
      "type": "function"
    },
    {
      "inputs": [],
      "name": "areContractsSet",
      "outputs": [
        {
          "internalType": "bool",
          "name": "",
          "type": "bool"
        }
      ],
      "stateMutability": "view",
      "type": "function"
    },
    {
      "inputs": [],
      "name": "chanceWizardStolen",
      "outputs": [
        {
          "internalType": "uint8",
          "name": "",
          "type": "uint8"
        }
      ],
      "stateMutability": "view",
      "type": "function"
    },
    {
      "inputs": [
        {
          "internalType": "uint256",
          "name": "_tokenId",
          "type": "uint256"
        }
      ],
      "name": "finishStake",
      "outputs": [],
      "stateMutability": "nonpayable",
      "type": "function"
    },
    {
      "inputs": [
        {
          "internalType": "uint256",
          "name": "_tokenId",
          "type": "uint256"
        }
      ],
      "name": "finishUnstake",
      "outputs": [],
      "stateMutability": "nonpayable",
      "type": "function"
    },
    {
      "inputs": [],
      "name": "gp",
      "outputs": [
        {
          "internalType": "contract IGP",
          "name": "",
          "type": "address"
        }
      ],
      "stateMutability": "view",
      "type": "function"
    },
    {
      "inputs": [],
      "name": "initialize",
      "outputs": [],
      "stateMutability": "nonpayable",
      "type": "function"
    },
    {
      "inputs": [
        {
          "internalType": "address",
          "name": "_address",
          "type": "address"
        }
      ],
      "name": "isAdmin",
      "outputs": [
        {
          "internalType": "bool",
          "name": "",
          "type": "bool"
        }
      ],
      "stateMutability": "view",
      "type": "function"
    },
    {
      "inputs": [],
      "name": "minTimeStaked",
      "outputs": [
        {
          "internalType": "uint256",
          "name": "",
          "type": "uint256"
        }
      ],
      "stateMutability": "view",
      "type": "function"
    },
    {
      "inputs": [],
      "name": "owner",
      "outputs": [
        {
          "internalType": "address",
          "name": "",
          "type": "address"
        }
      ],
      "stateMutability": "view",
      "type": "function"
    },
    {
      "inputs": [],
      "name": "paused",
      "outputs": [
        {
          "internalType": "bool",
          "name": "",
          "type": "bool"
        }
      ],
      "stateMutability": "view",
      "type": "function"
    },
    {
      "inputs": [],
      "name": "randomizer",
      "outputs": [
        {
          "internalType": "contract IRandomizerCL",
          "name": "",
          "type": "address"
        }
      ],
      "stateMutability": "view",
      "type": "function"
    },
    {
      "inputs": [
        {
          "internalType": "address",
          "name": "_address",
          "type": "address"
        }
      ],
      "name": "removeAdmin",
      "outputs": [],
      "stateMutability": "nonpayable",
      "type": "function"
    },
    {
      "inputs": [
        {
          "internalType": "address[]",
          "name": "_addresses",
          "type": "address[]"
        }
      ],
      "name": "removeAdmins",
      "outputs": [],
      "stateMutability": "nonpayable",
      "type": "function"
    },
    {
      "inputs": [],
      "name": "renounceOwnership",
      "outputs": [],
      "stateMutability": "nonpayable",
      "type": "function"
    },
    {
      "inputs": [
        {
          "internalType": "uint256",
          "name": "_tokenId",
          "type": "uint256"
        }
      ],
      "name": "requestIdForTokenId",
      "outputs": [
        {
          "internalType": "bytes32",
          "name": "",
          "type": "bytes32"
        }
      ],
      "stateMutability": "view",
      "type": "function"
    },
    {
      "inputs": [],
      "name": "sacrificialAlter",
      "outputs": [
        {
          "internalType": "contract ISacrificialAlter",
          "name": "",
          "type": "address"
        }
      ],
      "stateMutability": "view",
      "type": "function"
    },
    {
      "inputs": [
        {
          "internalType": "address",
          "name": "_worldAddress",
          "type": "address"
        },
        {
          "internalType": "address",
          "name": "_sacrificialAlterAddress",
          "type": "address"
        },
        {
          "internalType": "address",
          "name": "_gpAddress",
          "type": "address"
        },
        {
          "internalType": "address",
          "name": "_trainingProficiencyAddress",
          "type": "address"
        },
        {
          "internalType": "address",
          "name": "_trainingGameAddress",
          "type": "address"
        },
        {
          "internalType": "address",
          "name": "_randomizerAddress",
          "type": "address"
        }
      ],
      "name": "setContracts",
      "outputs": [],
      "stateMutability": "nonpayable",
      "type": "function"
    },
    {
      "inputs": [
        {
          "internalType": "bool",
          "name": "_shouldPause",
          "type": "bool"
        }
      ],
      "name": "setPause",
      "outputs": [],
      "stateMutability": "nonpayable",
      "type": "function"
    },
    {
      "inputs": [
        {
          "internalType": "uint256",
          "name": "_wizardStakingCost",
          "type": "uint256"
        },
        {
          "internalType": "uint8",
          "name": "_chanceWizardStolen",
          "type": "uint8"
        },
        {
          "internalType": "uint256",
          "name": "_minTimeStaked",
          "type": "uint256"
        },
        {
          "internalType": "uint256",
          "name": "_treasureChestId",
          "type": "uint256"
        }
      ],
      "name": "setStakingSettings",
      "outputs": [],
      "stateMutability": "nonpayable",
      "type": "function"
    },
    {
      "inputs": [
        {
          "internalType": "uint256",
          "name": "_tokenId",
          "type": "uint256"
        },
        {
          "internalType": "address",
          "name": "_owner",
          "type": "address"
        }
      ],
      "name": "stake",
      "outputs": [],
      "stateMutability": "nonpayable",
      "type": "function"
    },
    {
      "inputs": [
        {
          "internalType": "uint256",
          "name": "_tokenId",
          "type": "uint256"
        },
        {
          "internalType": "address",
          "name": "_owner",
          "type": "address"
        }
      ],
      "name": "startStake",
      "outputs": [],
      "stateMutability": "nonpayable",
      "type": "function"
    },
    {
      "inputs": [
        {
          "internalType": "uint256",
          "name": "_tokenId",
          "type": "uint256"
        }
      ],
      "name": "startUnstake",
      "outputs": [],
      "stateMutability": "nonpayable",
      "type": "function"
    },
    {
      "inputs": [
        {
          "internalType": "uint256",
          "name": "",
          "type": "uint256"
        }
      ],
      "name": "tokenIdToTimeStaked",
      "outputs": [
        {
          "internalType": "uint256",
          "name": "",
          "type": "uint256"
        }
      ],
      "stateMutability": "view",
      "type": "function"
    },
    {
      "inputs": [],
      "name": "trainingGame",
      "outputs": [
        {
          "internalType": "contract ITrainingGame",
          "name": "",
          "type": "address"
        }
      ],
      "stateMutability": "view",
      "type": "function"
    },
    {
      "inputs": [],
      "name": "trainingProficiency",
      "outputs": [
        {
          "internalType": "contract ITrainingProficiency",
          "name": "",
          "type": "address"
        }
      ],
      "stateMutability": "view",
      "type": "function"
    },
    {
      "inputs": [
        {
          "internalType": "address",
          "name": "newOwner",
          "type": "address"
        }
      ],
      "name": "transferOwnership",
      "outputs": [],
      "stateMutability": "nonpayable",
      "type": "function"
    },
    {
      "inputs": [],
      "name": "treasureChestId",
      "outputs": [
        {
          "internalType": "uint256",
          "name": "",
          "type": "uint256"
        }
      ],
      "stateMutability": "view",
      "type": "function"
    },
    {
      "inputs": [
        {
          "internalType": "uint256",
          "name": "_tokenId",
          "type": "uint256"
        },
        {
          "internalType": "bool",
          "name": "doTransfer",
          "type": "bool"
        }
      ],
      "name": "unstake",
      "outputs": [],
      "stateMutability": "nonpayable",
      "type": "function"
    },
    {
      "inputs": [],
      "name": "wizardStakingCost",
      "outputs": [
        {
          "internalType": "uint256",
          "name": "",
          "type": "uint256"
        }
      ],
      "stateMutability": "view",
      "type": "function"
    },
    {
      "inputs": [],
      "name": "world",
      "outputs": [
        {
          "internalType": "contract IWorld",
          "name": "",
          "type": "address"
        }
      ],
      "stateMutability": "view",
      "type": "function"
    }
  ],
  "transactionHash": "0x677791e1bdaee574a5a3300516bb9a5ce035cc152acf6d7b860e5b65109958a5",
  "args": [],
  "numDeployments": 2,
  "solcInputHash": "414ef7e56515ad590a03e594319d7362",
  "bytecode": "0x608060405234801561001057600080fd5b50612500806100206000396000f3fe608060405234801561001057600080fd5b50600436106101f05760003560e01c8063715018a61161010f5780639ebea88c116100a2578063f10fb58411610071578063f10fb5841461042f578063f2fde38b14610442578063fac2122014610455578063fd501c6d1461047557600080fd5b80639ebea88c146103ed578063b532797f14610400578063bedb86fb14610409578063d46b93301461041c57600080fd5b80638cdcc4b4116100de5780638cdcc4b4146103ae5780638da5cb5b146103b65780639c2fa04b146103c75780639c54df64146103da57600080fd5b8063715018a6146103785780637acb7757146103805780638129fc1c146103935780638a61b0271461039b57600080fd5b806334dfb268116101875780636d27ff61116101565780636d27ff611461032c578063704802751461033f57806370d8dec914610352578063711f8ed61461036557600080fd5b806334dfb268146102e8578063377e11e0146102fb578063573bde661461030e5780635c975abb1461032157600080fd5b806324d7806c116101c357806324d7806c14610259578063263ed2851461029557806327623fa7146102b457806330b67baa146102bd57600080fd5b80630cf89beb146101f55780631785f53c1461021157806322a629c9146102265780632463a55a14610246575b600080fd5b6101fe60ce5481565b6040519081526020015b60405180910390f35b61022461021f366004612019565b610488565b005b6101fe61023436600461203d565b60ca6020526000908152604090205481565b610224610254366004612056565b6104dc565b610285610267366004612019565b6001600160a01b031660009081526097602052604090205460ff1690565b6040519015158152602001610208565b60cc546102a29060ff1681565b60405160ff9091168152602001610208565b6101fe60cd5481565b60cf546102d0906001600160a01b031681565b6040516001600160a01b039091168152602001610208565b6102246102f636600461203d565b610633565b6102246103093660046120d8565b610846565b60d3546102d0906001600160a01b031681565b60655460ff16610285565b61022461033a36600461203d565b6108e2565b61022461034d366004612019565b610951565b61022461036036600461215c565b61099f565b60d2546102d0906001600160a01b031681565b610224610a4a565b61022461038e366004612199565b610a80565b610224610b4c565b6102246103a9366004612199565b610bcd565b610285610c3e565b6033546001600160a01b03166102d0565b6102246103d536600461203d565b610cc2565b6102246103e83660046120d8565b610d2e565b6102246103fb3660046121d7565b610dca565b6101fe60cb5481565b6102246104173660046121fc565b610f1b565b60d1546102d0906001600160a01b031681565b60d4546102d0906001600160a01b031681565b610224610450366004612019565b610f6e565b6101fe61046336600461203d565b600090815260d5602052604090205490565b60d0546102d0906001600160a01b031681565b6033546001600160a01b031633146104bb5760405162461bcd60e51b81526004016104b290612219565b60405180910390fd5b6001600160a01b03166000908152609760205260409020805460ff19169055565b3360009081526097602052604090205460ff16806104fd57506104fd611006565b6105195760405162461bcd60e51b81526004016104b29061224e565b6001600160a01b0386161580159061053957506001600160a01b03841615155b801561054d57506001600160a01b03831615155b801561056157506001600160a01b03821615155b801561057557506001600160a01b03811615155b801561058957506001600160a01b03851615155b6105c45760405162461bcd60e51b815260206004820152600c60248201526b2130b21030b2323932b9b99760a11b60448201526064016104b2565b60cf80546001600160a01b03199081166001600160a01b039889161790915560d0805482169688169690961790955560d1805486169487169490941790935560d2805485169286169290921790915560d38054841691851691909117905560d480549092169216919091179055565b3360009081526097602052604090205460ff16806106545750610654611006565b6106705760405162461bcd60e51b81526004016104b29061224e565b610678610c3e565b6106945760405162461bcd60e51b81526004016104b29061227a565b600081815260ca602052604090205460cd546106b090826122d2565b42116106ed5760405162461bcd60e51b815260206004820152600c60248201526b29ba30b5b2903637b733b2b960a11b60448201526064016104b2565b60d354604051633b62675f60e21b8152600481018490526001600160a01b039091169063ed899d7c9060240160206040518083038186803b15801561073157600080fd5b505afa158015610745573d6000803e3d6000fd5b505050506040513d601f19601f8201168201806040525081019061076991906122ea565b156107b65760405162461bcd60e51b815260206004820152601c60248201527f43616e277420756e7374616b65207768696c6520747261696e696e670000000060448201526064016104b2565b60cf54604051630974560360e11b8152600481018490526000916001600160a01b0316906312e8ac069060240160206040518083038186803b1580156107fb57600080fd5b505afa15801561080f573d6000803e3d6000fd5b505050506040513d601f19601f820116820180604052508101906108339190612307565b90506108418382600061102a565b505050565b6033546001600160a01b031633146108705760405162461bcd60e51b81526004016104b290612219565b60005b818110156108415760006097600085858581811061089357610893612324565b90506020020160208101906108a89190612019565b6001600160a01b031681526020810191909152604001600020805460ff1916911515919091179055806108da8161233a565b915050610873565b3360009081526097602052604090205460ff16806109035750610903611006565b61091f5760405162461bcd60e51b81526004016104b29061224e565b610927610c3e565b6109435760405162461bcd60e51b81526004016104b29061227a565b61094e81600161135f565b50565b6033546001600160a01b0316331461097b5760405162461bcd60e51b81526004016104b290612219565b6001600160a01b03166000908152609760205260409020805460ff19166001179055565b3360009081526097602052604090205460ff16806109c057506109c0611006565b6109dc5760405162461bcd60e51b81526004016104b29061224e565b60648360ff161115610a245760405162461bcd60e51b81526020600482015260116024820152704261642073746f6c656e206368616e636560781b60448201526064016104b2565b60cb9390935560cc805460ff191660ff939093169290921790915560ce9190915560cd55565b6033546001600160a01b03163314610a745760405162461bcd60e51b81526004016104b290612219565b610a7e6000611955565b565b3360009081526097602052604090205460ff1680610aa15750610aa1611006565b610abd5760405162461bcd60e51b81526004016104b29061224e565b610ac5610c3e565b610ae15760405162461bcd60e51b81526004016104b29061227a565b60cf5460405163d826cbe160e01b81526001600160a01b039091169063d826cbe190610b169085908590600390600401612377565b600060405180830381600087803b158015610b3057600080fd5b505af1158015610b44573d6000803e3d6000fd5b505050505050565b600054610100900460ff16610b675760005460ff1615610b6b565b303b155b610b875760405162461bcd60e51b81526004016104b2906123a2565b600054610100900460ff16158015610ba9576000805461ffff19166101011790555b610bb16119a7565b610bb96119a7565b801561094e576000805461ff001916905550565b3360009081526097602052604090205460ff1680610bee5750610bee611006565b610c0a5760405162461bcd60e51b81526004016104b29061224e565b610c12610c3e565b610c2e5760405162461bcd60e51b81526004016104b29061227a565b610c3a8282600161102a565b5050565b60cf546000906001600160a01b031615801590610c65575060d1546001600160a01b031615155b8015610c7b575060d2546001600160a01b031615155b8015610c91575060d3546001600160a01b031615155b8015610ca7575060d4546001600160a01b031615155b8015610cbd575060d0546001600160a01b031615155b905090565b3360009081526097602052604090205460ff1680610ce35750610ce3611006565b610cff5760405162461bcd60e51b81526004016104b29061224e565b610d07610c3e565b610d235760405162461bcd60e51b81526004016104b29061227a565b61094e81600061135f565b6033546001600160a01b03163314610d585760405162461bcd60e51b81526004016104b290612219565b60005b8181101561084157600160976000858585818110610d7b57610d7b612324565b9050602002016020810190610d909190612019565b6001600160a01b031681526020810191909152604001600020805460ff191691151591909117905580610dc28161233a565b915050610d5b565b3360009081526097602052604090205460ff1680610deb5750610deb611006565b610e075760405162461bcd60e51b81526004016104b29061224e565b610e0f610c3e565b610e2b5760405162461bcd60e51b81526004016104b29061227a565b8015610c3a5760cf54604051630974560360e11b8152600481018490526000916001600160a01b0316906312e8ac069060240160206040518083038186803b158015610e7657600080fd5b505afa158015610e8a573d6000803e3d6000fd5b505050506040513d601f19601f82011682018060405250810190610eae9190612307565b60cf546040516301ef725160e11b8152600481018690526001600160a01b0380841660248301529293509116906303dee4a290604401600060405180830381600087803b158015610efe57600080fd5b505af1158015610f12573d6000803e3d6000fd5b50505050505050565b3360009081526097602052604090205460ff1680610f3c5750610f3c611006565b610f585760405162461bcd60e51b81526004016104b29061224e565b8015610f665761094e611a0c565b61094e611aa4565b6033546001600160a01b03163314610f985760405162461bcd60e51b81526004016104b290612219565b6001600160a01b038116610ffd5760405162461bcd60e51b815260206004820152602660248201527f4f776e61626c653a206e6577206f776e657220697320746865207a65726f206160448201526564647265737360d01b60648201526084016104b2565b61094e81611955565b60003361101b6033546001600160a01b031690565b6001600160a01b031614905090565b613a9883111561115c5760cb5460d1546040516370a0823160e01b81526001600160a01b038581166004830152909116906370a082319060240160206040518083038186803b15801561107c57600080fd5b505afa158015611090573d6000803e3d6000fd5b505050506040513d601f19601f820116820180604052508101906110b491906123f0565b10156110f25760405162461bcd60e51b815260206004820152600d60248201526c04e6f7420656e6f75676820475609c1b60448201526064016104b2565b60d15460cb54604051632770a7eb60e21b81526001600160a01b0385811660048301526024820192909252911690639dc29fac90604401600060405180830381600087803b15801561114357600080fd5b505af1158015611157573d6000803e3d6000fd5b505050505b80156111ce5760cf546040516309c4b85160e41b81526001600160a01b0390911690639c4b8510906111979086908690600290600401612377565b600060405180830381600087803b1580156111b157600080fd5b505af11580156111c5573d6000803e3d6000fd5b50505050611233565b60cf54604051639a99171560e01b81526001600160a01b0390911690639a991715906112009086906004908101612409565b600060405180830381600087803b15801561121a57600080fd5b505af115801561122e573d6000803e3d6000fd5b505050505b61123c83611b1e565b156113545760d4546040805163dbdff2c160e01b815290516000926001600160a01b03169163dbdff2c191600480830192602092919082900301818787803b15801561128757600080fd5b505af115801561129b573d6000803e3d6000fd5b505050506040513d601f19601f820116820180604052508101906112bf91906123f0565b600085815260d56020526040902081905590508115611315578084846001600160a01b03167ff441e9d893d44ab73a5d7a1f11b1d6a1a4faa755dd090cc59025c285b87688a960405160405180910390a461134e565b8084846001600160a01b03167f6dd76602ab6b0c6cde9cc5812f3bc50f5b43daf1b20b0b022d8bc56d89e9fc9f60405160405180910390a45b50505050565b610841828483611bcc565b600082815260d5602052604081205460d4546040516308c821cb60e41b8152600481018390529192506001600160a01b031690638c821cb09060240160206040518083038186803b1580156113b357600080fd5b505afa1580156113c7573d6000803e3d6000fd5b505050506040513d601f19601f820116820180604052508101906113eb91906122ea565b6114235760405162461bcd60e51b81526020600482015260096024820152684e6f7420726561647960b81b60448201526064016104b2565b600083815260d5602052604080822082905560cf549051630974560360e11b8152600481018690526001600160a01b03909116906312e8ac069060240160206040518083038186803b15801561147857600080fd5b505afa15801561148c573d6000803e3d6000fd5b505050506040513d601f19601f820116820180604052508101906114b09190612307565b60d4546040516348d6006560e11b8152600481018590529192506000916001600160a01b03909116906391ac00ca9060240160206040518083038186803b1580156114fa57600080fd5b505afa15801561150e573d6000803e3d6000fd5b505050506040513d601f19601f8201168201806040525081019061153291906123f0565b9050600061154160648361241d565b60d2546040516358c6a0bd60e01b8152600481018990529192506000916001600160a01b03909116906358c6a0bd9060240160206040518083038186803b15801561158b57600080fd5b505afa15801561159f573d6000803e3d6000fd5b505050506040513d601f19601f820116820180604052508101906115c3919061243f565b9050600060088260ff16116115d857816115db565b60085b60cc549091506000906115f290839060ff1661245c565b60ff16905060cf60009054906101000a90046001600160a01b03166001600160a01b03166386e556a96040518163ffffffff1660e01b815260040160206040518083038186803b15801561164557600080fd5b505afa158015611659573d6000803e3d6000fd5b505050506040513d601f19601f8201168201806040525081019061167d91906123f0565b1580159061168a57508084105b1561193f5760cf5460405163a6444c2f60e01b81526000916001600160a01b03169063a6444c2f906116c3908990600390600401612409565b60206040518083038186803b1580156116db57600080fd5b505afa1580156116ef573d6000803e3d6000fd5b505050506040513d601f19601f820116820180604052508101906117139190612307565b60d05460ce54604051627eeac760e11b815292935060009283926001600160a01b03169162fdd58e9161175e918d916004016001600160a01b03929092168252602082015260400190565b60206040518083038186803b15801561177657600080fd5b505afa15801561178a573d6000803e3d6000fd5b505050506040513d601f19601f820116820180604052508101906117ae91906123f0565b1190508080156117c2575060ff87901c6001145b156118905760d05460ce5460405163a878b95d60e01b81526001600160a01b038b81166004830152858116602483015260448201929092526001606482015291169063a878b95d90608401600060405180830381600087803b15801561182757600080fd5b505af115801561183b573d6000803e3d6000fd5b505050508a826001600160a01b0316896001600160a01b03167f337590a7dc1062345f0dd79645af6f02914bf729313ead215d694c287468d7be60405160405180910390a461188b888c8c611bcc565b611938565b60cf54604051631d684a1760e21b8152600481018d90526001600160a01b038481166024830152909116906375a1285c90604401600060405180830381600087803b1580156118de57600080fd5b505af11580156118f2573d6000803e3d6000fd5b505050508a826001600160a01b0316896001600160a01b03167f4edefe726918ee1f76aa06153a2619479bcc3e68e75f8a94a2ecd2841a13d71a60405160405180910390a45b505061194a565b61194a868a8a611bcc565b505050505050505050565b603380546001600160a01b038381166001600160a01b0319831681179093556040519116919082907f8be0079c531659141344cd1fd0a4f28419497f9722a3daafe3b4186f6b6457e090600090a35050565b600054610100900460ff166119c25760005460ff16156119c6565b303b155b6119e25760405162461bcd60e51b81526004016104b2906123a2565b600054610100900460ff16158015611a04576000805461ffff19166101011790555b610bb9611d37565b60655460ff1615611a525760405162461bcd60e51b815260206004820152601060248201526f14185d5cd8589b194e881c185d5cd95960821b60448201526064016104b2565b6065805460ff191660011790557f62e78cea01bee320cd4e420270b5ea74000d11b0c9f74754ebdbfc544b05a258611a873390565b6040516001600160a01b03909116815260200160405180910390a1565b60655460ff16611aed5760405162461bcd60e51b815260206004820152601460248201527314185d5cd8589b194e881b9bdd081c185d5cd95960621b60448201526064016104b2565b6065805460ff191690557f5db9ee0a495bf2e6ff9c91a7834c1ba4fdd244a5e8aa4e537bd38aeae4b073aa33611a87565b60cc5460009060ff1615801590611bb9575060cf60009054906101000a90046001600160a01b03166001600160a01b03166386e556a96040518163ffffffff1660e01b815260040160206040518083038186803b158015611b7e57600080fd5b505afa158015611b92573d6000803e3d6000fd5b505050506040513d601f19601f82011682018060405250810190611bb691906123f0565b15155b8015611bc65750613a9882115b92915050565b8015611c8457600082815260ca60205260409081902042905560cf549051639a99171560e01b81526001600160a01b0390911690639a99171590611c17908590600390600401612409565b600060405180830381600087803b158015611c3157600080fd5b505af1158015611c45573d6000803e3d6000fd5b50506040518492506001600160a01b03861691507f798e186efb0cf44b1777ecfba23a15578922d75d557802faba8b7aa8158c9e6490600090a3505050565b600082815260ca60205260408082209190915560cf549051631d684a1760e21b8152600481018490526001600160a01b038581166024830152909116906375a1285c90604401600060405180830381600087803b158015611ce457600080fd5b505af1158015611cf8573d6000803e3d6000fd5b50506040518492506001600160a01b03861691507f58a599f87d74dd3dac6656de90f60904d11574e154c2f3612a3bbc56da4f401690600090a3505050565b600054610100900460ff16611d525760005460ff1615611d56565b303b155b611d725760405162461bcd60e51b81526004016104b2906123a2565b600054610100900460ff16158015611d94576000805461ffff19166101011790555b610bb9600054610100900460ff16611db25760005460ff1615611db6565b303b155b611dd25760405162461bcd60e51b81526004016104b2906123a2565b600054610100900460ff16158015611df4576000805461ffff19166101011790555b611dfc611e37565b6901b1ae4d6e2ef500000060cb5560cc805460ff1916600a1790556202a30060cd55600560ce55801561094e576000805461ff001916905550565b600054610100900460ff16611e525760005460ff1615611e56565b303b155b611e725760405162461bcd60e51b81526004016104b2906123a2565b600054610100900460ff16158015611e94576000805461ffff19166101011790555b610bb9600054610100900460ff16611eb25760005460ff1615611eb6565b303b155b611ed25760405162461bcd60e51b81526004016104b2906123a2565b600054610100900460ff16158015611ef4576000805461ffff19166101011790555b611efc611f0c565b611f04611f43565b610bb9611a0c565b600054610100900460ff16611f335760405162461bcd60e51b81526004016104b29061247f565b611f3b611f7a565b610a7e611fa1565b600054610100900460ff16611f6a5760405162461bcd60e51b81526004016104b29061247f565b611f72611f7a565b610a7e611fd1565b600054610100900460ff16610a7e5760405162461bcd60e51b81526004016104b29061247f565b600054610100900460ff16611fc85760405162461bcd60e51b81526004016104b29061247f565b610a7e33611955565b600054610100900460ff16611ff85760405162461bcd60e51b81526004016104b29061247f565b6065805460ff19169055565b6001600160a01b038116811461094e57600080fd5b60006020828403121561202b57600080fd5b813561203681612004565b9392505050565b60006020828403121561204f57600080fd5b5035919050565b60008060008060008060c0878903121561206f57600080fd5b863561207a81612004565b9550602087013561208a81612004565b9450604087013561209a81612004565b935060608701356120aa81612004565b925060808701356120ba81612004565b915060a08701356120ca81612004565b809150509295509295509295565b600080602083850312156120eb57600080fd5b823567ffffffffffffffff8082111561210357600080fd5b818501915085601f83011261211757600080fd5b81358181111561212657600080fd5b8660208260051b850101111561213b57600080fd5b60209290920196919550909350505050565b60ff8116811461094e57600080fd5b6000806000806080858703121561217257600080fd5b8435935060208501356121848161214d565b93969395505050506040820135916060013590565b600080604083850312156121ac57600080fd5b8235915060208301356121be81612004565b809150509250929050565b801515811461094e57600080fd5b600080604083850312156121ea57600080fd5b8235915060208301356121be816121c9565b60006020828403121561220e57600080fd5b8135612036816121c9565b6020808252818101527f4f776e61626c653a2063616c6c6572206973206e6f7420746865206f776e6572604082015260600190565b6020808252601290820152712737ba1030b236b4b71037b91037bbb732b960711b604082015260600190565b60208082526022908201527f547261696e696e6747726f756e64733a20436f6e747261637473206e6f742073604082015261195d60f21b606082015260800190565b634e487b7160e01b600052601160045260246000fd5b600082198211156122e5576122e56122bc565b500190565b6000602082840312156122fc57600080fd5b8151612036816121c9565b60006020828403121561231957600080fd5b815161203681612004565b634e487b7160e01b600052603260045260246000fd5b600060001982141561234e5761234e6122bc565b5060010190565b6005811061237357634e487b7160e01b600052602160045260246000fd5b9052565b8381526001600160a01b03831660208201526060810161239a6040830184612355565b949350505050565b6020808252602e908201527f496e697469616c697a61626c653a20636f6e747261637420697320616c72656160408201526d191e481a5b9a5d1a585b1a5e995960921b606082015260800190565b60006020828403121561240257600080fd5b5051919050565b828152604081016120366020830184612355565b60008261243a57634e487b7160e01b600052601260045260246000fd5b500690565b60006020828403121561245157600080fd5b81516120368161214d565b600060ff821660ff841680821015612476576124766122bc565b90039392505050565b6020808252602b908201527f496e697469616c697a61626c653a20636f6e7472616374206973206e6f74206960408201526a6e697469616c697a696e6760a81b60608201526080019056fea2646970667358221220c456d3d786d84d7eb6fdc48fc2a9e80eb4ec692c9b61d662248bb86c7a2b1f5064736f6c63430008090033",
  "devdoc": {
    "kind": "dev",
    "methods": {
      "owner()": {
        "details": "Returns the address of the current owner."
      },
      "paused()": {
        "details": "Returns true if the contract is paused, and false otherwise."
      },
      "renounceOwnership()": {
        "details": "Leaves the contract without owner. It will not be possible to call `onlyOwner` functions anymore. Can only be called by the current owner. NOTE: Renouncing ownership will leave the contract without an owner, thereby removing any functionality that is only available to the owner."
      },
      "transferOwnership(address)": {
        "details": "Transfers ownership of the contract to a new account (`newOwner`). Can only be called by the current owner."
      }
    },
    "version": 1
  },
  "userdoc": {
    "kind": "user",
    "methods": {},
    "version": 1
  },
  "storageLayout": {
    "storage": [
      {
        "astId": 2787,
        "contract": "contracts/wnd/traininggrounds/TrainingGrounds.sol:TrainingGrounds",
        "label": "_initialized",
        "offset": 0,
        "slot": "0",
        "type": "t_bool"
      },
      {
        "astId": 2790,
        "contract": "contracts/wnd/traininggrounds/TrainingGrounds.sol:TrainingGrounds",
        "label": "_initializing",
        "offset": 1,
        "slot": "0",
        "type": "t_bool"
      },
      {
        "astId": 6838,
        "contract": "contracts/wnd/traininggrounds/TrainingGrounds.sol:TrainingGrounds",
        "label": "__gap",
        "offset": 0,
        "slot": "1",
        "type": "t_array(t_uint256)50_storage"
      },
      {
        "astId": 2665,
        "contract": "contracts/wnd/traininggrounds/TrainingGrounds.sol:TrainingGrounds",
        "label": "_owner",
        "offset": 0,
        "slot": "51",
        "type": "t_address"
      },
      {
        "astId": 2779,
        "contract": "contracts/wnd/traininggrounds/TrainingGrounds.sol:TrainingGrounds",
        "label": "__gap",
        "offset": 0,
        "slot": "52",
        "type": "t_array(t_uint256)49_storage"
      },
      {
        "astId": 2875,
        "contract": "contracts/wnd/traininggrounds/TrainingGrounds.sol:TrainingGrounds",
        "label": "_paused",
        "offset": 0,
        "slot": "101",
        "type": "t_bool"
      },
      {
        "astId": 2966,
        "contract": "contracts/wnd/traininggrounds/TrainingGrounds.sol:TrainingGrounds",
        "label": "__gap",
        "offset": 0,
        "slot": "102",
        "type": "t_array(t_uint256)49_storage"
      },
      {
        "astId": 12019,
        "contract": "contracts/wnd/traininggrounds/TrainingGrounds.sol:TrainingGrounds",
        "label": "admins",
        "offset": 0,
        "slot": "151",
        "type": "t_mapping(t_address,t_bool)"
      },
      {
        "astId": 12179,
        "contract": "contracts/wnd/traininggrounds/TrainingGrounds.sol:TrainingGrounds",
        "label": "__gap",
        "offset": 0,
        "slot": "152",
        "type": "t_array(t_uint256)50_storage"
      },
      {
        "astId": 23362,
        "contract": "contracts/wnd/traininggrounds/TrainingGrounds.sol:TrainingGrounds",
        "label": "tokenIdToTimeStaked",
        "offset": 0,
        "slot": "202",
        "type": "t_mapping(t_uint256,t_uint256)"
      },
      {
        "astId": 23364,
        "contract": "contracts/wnd/traininggrounds/TrainingGrounds.sol:TrainingGrounds",
        "label": "wizardStakingCost",
        "offset": 0,
        "slot": "203",
        "type": "t_uint256"
      },
      {
        "astId": 23366,
        "contract": "contracts/wnd/traininggrounds/TrainingGrounds.sol:TrainingGrounds",
        "label": "chanceWizardStolen",
        "offset": 0,
        "slot": "204",
        "type": "t_uint8"
      },
      {
        "astId": 23368,
        "contract": "contracts/wnd/traininggrounds/TrainingGrounds.sol:TrainingGrounds",
        "label": "minTimeStaked",
        "offset": 0,
        "slot": "205",
        "type": "t_uint256"
      },
      {
        "astId": 23370,
        "contract": "contracts/wnd/traininggrounds/TrainingGrounds.sol:TrainingGrounds",
        "label": "treasureChestId",
        "offset": 0,
        "slot": "206",
        "type": "t_uint256"
      },
      {
        "astId": 23373,
        "contract": "contracts/wnd/traininggrounds/TrainingGrounds.sol:TrainingGrounds",
        "label": "world",
        "offset": 0,
        "slot": "207",
        "type": "t_contract(IWorld)24514"
      },
      {
        "astId": 23376,
        "contract": "contracts/wnd/traininggrounds/TrainingGrounds.sol:TrainingGrounds",
        "label": "sacrificialAlter",
        "offset": 0,
        "slot": "208",
        "type": "t_contract(ISacrificialAlter)19106"
      },
      {
        "astId": 23379,
        "contract": "contracts/wnd/traininggrounds/TrainingGrounds.sol:TrainingGrounds",
        "label": "gp",
        "offset": 0,
        "slot": "209",
        "type": "t_contract(IGP)19058"
      },
      {
        "astId": 23382,
        "contract": "contracts/wnd/traininggrounds/TrainingGrounds.sol:TrainingGrounds",
        "label": "trainingProficiency",
        "offset": 0,
        "slot": "210",
        "type": "t_contract(ITrainingProficiency)23924"
      },
      {
        "astId": 23385,
        "contract": "contracts/wnd/traininggrounds/TrainingGrounds.sol:TrainingGrounds",
        "label": "trainingGame",
        "offset": 0,
        "slot": "211",
        "type": "t_contract(ITrainingGame)20711"
      },
      {
        "astId": 23388,
        "contract": "contracts/wnd/traininggrounds/TrainingGrounds.sol:TrainingGrounds",
        "label": "randomizer",
        "offset": 0,
        "slot": "212",
        "type": "t_contract(IRandomizerCL)12739"
      },
      {
        "astId": 23392,
        "contract": "contracts/wnd/traininggrounds/TrainingGrounds.sol:TrainingGrounds",
        "label": "tokenIdToRequestId",
        "offset": 0,
        "slot": "213",
        "type": "t_mapping(t_uint256,t_bytes32)"
      }
    ],
    "types": {
      "t_address": {
        "encoding": "inplace",
        "label": "address",
        "numberOfBytes": "20"
      },
      "t_array(t_uint256)49_storage": {
        "base": "t_uint256",
        "encoding": "inplace",
        "label": "uint256[49]",
        "numberOfBytes": "1568"
      },
      "t_array(t_uint256)50_storage": {
        "base": "t_uint256",
        "encoding": "inplace",
        "label": "uint256[50]",
        "numberOfBytes": "1600"
      },
      "t_bool": {
        "encoding": "inplace",
        "label": "bool",
        "numberOfBytes": "1"
      },
      "t_bytes32": {
        "encoding": "inplace",
        "label": "bytes32",
        "numberOfBytes": "32"
      },
      "t_contract(IGP)19058": {
        "encoding": "inplace",
        "label": "contract IGP",
        "numberOfBytes": "20"
      },
      "t_contract(IRandomizerCL)12739": {
        "encoding": "inplace",
        "label": "contract IRandomizerCL",
        "numberOfBytes": "20"
      },
      "t_contract(ISacrificialAlter)19106": {
        "encoding": "inplace",
        "label": "contract ISacrificialAlter",
        "numberOfBytes": "20"
      },
      "t_contract(ITrainingGame)20711": {
        "encoding": "inplace",
        "label": "contract ITrainingGame",
        "numberOfBytes": "20"
      },
      "t_contract(ITrainingProficiency)23924": {
        "encoding": "inplace",
        "label": "contract ITrainingProficiency",
        "numberOfBytes": "20"
      },
      "t_contract(IWorld)24514": {
        "encoding": "inplace",
        "label": "contract IWorld",
        "numberOfBytes": "20"
      },
      "t_mapping(t_address,t_bool)": {
        "encoding": "mapping",
        "key": "t_address",
        "label": "mapping(address => bool)",
        "numberOfBytes": "32",
        "value": "t_bool"
      },
      "t_mapping(t_uint256,t_bytes32)": {
        "encoding": "mapping",
        "key": "t_uint256",
        "label": "mapping(uint256 => bytes32)",
        "numberOfBytes": "32",
        "value": "t_bytes32"
      },
      "t_mapping(t_uint256,t_uint256)": {
        "encoding": "mapping",
        "key": "t_uint256",
        "label": "mapping(uint256 => uint256)",
        "numberOfBytes": "32",
        "value": "t_uint256"
      },
      "t_uint256": {
        "encoding": "inplace",
        "label": "uint256",
        "numberOfBytes": "32"
      },
      "t_uint8": {
        "encoding": "inplace",
        "label": "uint8",
        "numberOfBytes": "1"
      }
    }
  }
}