{
  "address": "0x411cB8F6b046DbC8751189F933Bf3D394027bd21",
  "abi": [
    {
      "anonymous": false,
      "inputs": [
        {
          "indexed": true,
          "internalType": "address",
          "name": "previousOwner",
          "type": "address"
        },
        {
          "indexed": true,
          "internalType": "address",
          "name": "newOwner",
          "type": "address"
        }
      ],
      "name": "OwnershipTransferred",
      "type": "event"
    },
    {
      "anonymous": false,
      "inputs": [
        {
          "indexed": false,
          "internalType": "address",
          "name": "account",
          "type": "address"
        }
      ],
      "name": "Paused",
      "type": "event"
    },
    {
      "anonymous": false,
      "inputs": [
        {
          "indexed": false,
          "internalType": "address",
          "name": "account",
          "type": "address"
        }
      ],
      "name": "Unpaused",
      "type": "event"
    },
    {
      "inputs": [
        {
          "internalType": "address",
          "name": "_address",
          "type": "address"
        }
      ],
      "name": "addAdmin",
      "outputs": [],
      "stateMutability": "nonpayable",
      "type": "function"
    },
    {
      "inputs": [
        {
          "internalType": "address[]",
          "name": "_addresses",
          "type": "address[]"
        }
      ],
      "name": "addAdmins",
      "outputs": [],
      "stateMutability": "nonpayable",
      "type": "function"
    },
    {
      "inputs": [
        {
          "internalType": "address",
          "name": "",
          "type": "address"
        }
      ],
      "name": "addressToGPStaked",
      "outputs": [
        {
          "internalType": "uint256",
          "name": "",
          "type": "uint256"
        }
      ],
      "stateMutability": "view",
      "type": "function"
    },
    {
      "inputs": [],
      "name": "amountCurrentlyStaked",
      "outputs": [
        {
          "internalType": "uint256",
          "name": "",
          "type": "uint256"
        }
      ],
      "stateMutability": "view",
      "type": "function"
    },
    {
      "inputs": [],
      "name": "amountNeededToOpenPortal",
      "outputs": [
        {
          "internalType": "uint256",
          "name": "",
          "type": "uint256"
        }
      ],
      "stateMutability": "view",
      "type": "function"
    },
    {
      "inputs": [],
      "name": "areContractsSet",
      "outputs": [
        {
          "internalType": "bool",
          "name": "",
          "type": "bool"
        }
      ],
      "stateMutability": "view",
      "type": "function"
    },
    {
      "inputs": [],
      "name": "consumables",
      "outputs": [
        {
          "internalType": "contract IConsumables",
          "name": "",
          "type": "address"
        }
      ],
      "stateMutability": "view",
      "type": "function"
    },
    {
      "inputs": [],
      "name": "gp",
      "outputs": [
        {
          "internalType": "contract IGP",
          "name": "",
          "type": "address"
        }
      ],
      "stateMutability": "view",
      "type": "function"
    },
    {
      "inputs": [
        {
          "internalType": "bytes",
          "name": "_data",
          "type": "bytes"
        }
      ],
      "name": "handleMessage",
      "outputs": [],
      "stateMutability": "nonpayable",
      "type": "function"
    },
    {
      "inputs": [],
      "name": "initialize",
      "outputs": [],
      "stateMutability": "nonpayable",
      "type": "function"
    },
    {
      "inputs": [
        {
          "internalType": "address",
          "name": "_address",
          "type": "address"
        }
      ],
      "name": "isAdmin",
      "outputs": [
        {
          "internalType": "bool",
          "name": "",
          "type": "bool"
        }
      ],
      "stateMutability": "view",
      "type": "function"
    },
    {
      "inputs": [],
      "name": "oldTrainingGrounds",
      "outputs": [
        {
          "internalType": "contract IOldTrainingGrounds",
          "name": "",
          "type": "address"
        }
      ],
      "stateMutability": "view",
      "type": "function"
    },
    {
      "inputs": [
        {
          "internalType": "address",
          "name": "",
          "type": "address"
        },
        {
          "internalType": "address",
          "name": "",
          "type": "address"
        },
        {
          "internalType": "uint256[]",
          "name": "",
          "type": "uint256[]"
        },
        {
          "internalType": "uint256[]",
          "name": "",
          "type": "uint256[]"
        },
        {
          "internalType": "bytes",
          "name": "",
          "type": "bytes"
        }
      ],
      "name": "onERC1155BatchReceived",
      "outputs": [
        {
          "internalType": "bytes4",
          "name": "",
          "type": "bytes4"
        }
      ],
      "stateMutability": "nonpayable",
      "type": "function"
    },
    {
      "inputs": [
        {
          "internalType": "address",
          "name": "",
          "type": "address"
        },
        {
          "internalType": "address",
          "name": "",
          "type": "address"
        },
        {
          "internalType": "uint256",
          "name": "",
          "type": "uint256"
        },
        {
          "internalType": "uint256",
          "name": "",
          "type": "uint256"
        },
        {
          "internalType": "bytes",
          "name": "",
          "type": "bytes"
        }
      ],
      "name": "onERC1155Received",
      "outputs": [
        {
          "internalType": "bytes4",
          "name": "",
          "type": "bytes4"
        }
      ],
      "stateMutability": "nonpayable",
      "type": "function"
    },
    {
      "inputs": [
        {
          "internalType": "address",
          "name": "",
          "type": "address"
        },
        {
          "internalType": "address",
          "name": "",
          "type": "address"
        },
        {
          "internalType": "uint256",
          "name": "",
          "type": "uint256"
        },
        {
          "internalType": "bytes",
          "name": "",
          "type": "bytes"
        }
      ],
      "name": "onERC721Received",
      "outputs": [
        {
          "internalType": "bytes4",
          "name": "",
          "type": "bytes4"
        }
      ],
      "stateMutability": "nonpayable",
      "type": "function"
    },
    {
      "inputs": [],
      "name": "owner",
      "outputs": [
        {
          "internalType": "address",
          "name": "",
          "type": "address"
        }
      ],
      "stateMutability": "view",
      "type": "function"
    },
    {
      "inputs": [],
      "name": "paused",
      "outputs": [
        {
          "internalType": "bool",
          "name": "",
          "type": "bool"
        }
      ],
      "stateMutability": "view",
      "type": "function"
    },
    {
      "inputs": [
        {
          "internalType": "address",
          "name": "_to",
          "type": "address"
        },
        {
          "internalType": "uint256",
          "name": "_gpAmount",
          "type": "uint256"
        },
        {
          "internalType": "uint256[]",
          "name": "_wndTokenIds",
          "type": "uint256[]"
        },
        {
          "internalType": "uint256[]",
          "name": "_saIds",
          "type": "uint256[]"
        },
        {
          "internalType": "uint256[]",
          "name": "_saAmounts",
          "type": "uint256[]"
        },
        {
          "internalType": "uint256[]",
          "name": "_consumableIds",
          "type": "uint256[]"
        },
        {
          "internalType": "uint256[]",
          "name": "_consumableAmounts",
          "type": "uint256[]"
        }
      ],
      "name": "processMessageFromChild",
      "outputs": [],
      "stateMutability": "nonpayable",
      "type": "function"
    },
    {
      "inputs": [
        {
          "internalType": "address",
          "name": "_address",
          "type": "address"
        }
      ],
      "name": "removeAdmin",
      "outputs": [],
      "stateMutability": "nonpayable",
      "type": "function"
    },
    {
      "inputs": [
        {
          "internalType": "address[]",
          "name": "_addresses",
          "type": "address[]"
        }
      ],
      "name": "removeAdmins",
      "outputs": [],
      "stateMutability": "nonpayable",
      "type": "function"
    },
    {
      "inputs": [],
      "name": "renounceOwnership",
      "outputs": [],
      "stateMutability": "nonpayable",
      "type": "function"
    },
    {
      "inputs": [],
      "name": "rootTunnel",
      "outputs": [
        {
          "internalType": "contract IRootTunnel",
          "name": "",
          "type": "address"
        }
      ],
      "stateMutability": "view",
      "type": "function"
    },
    {
      "inputs": [],
      "name": "sacrificialAlter",
      "outputs": [
        {
          "internalType": "contract ISacrificialAlter",
          "name": "",
          "type": "address"
        }
      ],
      "stateMutability": "view",
      "type": "function"
    },
    {
      "inputs": [
        {
          "internalType": "address",
          "name": "_gpAddress",
          "type": "address"
        },
        {
          "internalType": "address",
          "name": "_wndAddress",
          "type": "address"
        },
        {
          "internalType": "address",
          "name": "_sacrificialAlterAddress",
          "type": "address"
        },
        {
          "internalType": "address",
          "name": "_consumablesAddress",
          "type": "address"
        },
        {
          "internalType": "address",
          "name": "_rootTunnelAddress",
          "type": "address"
        },
        {
          "internalType": "address",
          "name": "_oldTrainingGroundsAddress",
          "type": "address"
        }
      ],
      "name": "setContracts",
      "outputs": [],
      "stateMutability": "nonpayable",
      "type": "function"
    },
    {
      "inputs": [
        {
          "internalType": "bool",
          "name": "_shouldPause",
          "type": "bool"
        }
      ],
      "name": "setPause",
      "outputs": [],
      "stateMutability": "nonpayable",
      "type": "function"
    },
    {
      "inputs": [
        {
          "internalType": "uint256",
          "name": "_amount",
          "type": "uint256"
        }
      ],
      "name": "stakeGP",
      "outputs": [],
      "stateMutability": "nonpayable",
      "type": "function"
    },
    {
      "inputs": [
        {
          "internalType": "bytes4",
          "name": "interfaceId",
          "type": "bytes4"
        }
      ],
      "name": "supportsInterface",
      "outputs": [
        {
          "internalType": "bool",
          "name": "",
          "type": "bool"
        }
      ],
      "stateMutability": "view",
      "type": "function"
    },
    {
      "inputs": [
        {
          "internalType": "address",
          "name": "newOwner",
          "type": "address"
        }
      ],
      "name": "transferOwnership",
      "outputs": [],
      "stateMutability": "nonpayable",
      "type": "function"
    },
    {
      "inputs": [
        {
          "internalType": "uint256",
          "name": "_gpAmount",
          "type": "uint256"
        },
        {
          "internalType": "uint256[]",
          "name": "_wndTokenIds",
          "type": "uint256[]"
        },
        {
          "internalType": "uint256[]",
          "name": "_saIds",
          "type": "uint256[]"
        },
        {
          "internalType": "uint256[]",
          "name": "_saAmounts",
          "type": "uint256[]"
        },
        {
          "internalType": "uint256[]",
          "name": "_consumableIds",
          "type": "uint256[]"
        },
        {
          "internalType": "uint256[]",
          "name": "_consumableAmounts",
          "type": "uint256[]"
        }
      ],
      "name": "transferToL2",
      "outputs": [],
      "stateMutability": "nonpayable",
      "type": "function"
    },
    {
      "inputs": [
        {
          "internalType": "uint256",
          "name": "_amount",
          "type": "uint256"
        }
      ],
      "name": "unstakeGP",
      "outputs": [],
      "stateMutability": "nonpayable",
      "type": "function"
    },
    {
      "inputs": [
        {
          "internalType": "uint256",
          "name": "_amountNeededToOpenPortal",
          "type": "uint256"
        }
      ],
      "name": "updateStakeSettings",
      "outputs": [],
      "stateMutability": "nonpayable",
      "type": "function"
    },
    {
      "inputs": [],
      "name": "wnd",
      "outputs": [
        {
          "internalType": "contract IWnDRoot",
          "name": "",
          "type": "address"
        }
      ],
      "stateMutability": "view",
      "type": "function"
    }
  ],
  "transactionHash": "0xcafe275dcd8650156a5930ae8dc0efab7a58bf4e1bf72e627ccf36d048b1f6af",
  "args": [],
  "numDeployments": 2,
  "solcInputHash": "709f04a4faafb074e5031cd59126da23",
  "bytecode": "0x608060405234801561001057600080fd5b50613105806100206000396000f3fe608060405234801561001057600080fd5b50600436106101f05760003560e01c80638129fc1c1161010f578063bc197c81116100a2578063f23a6e6111610071578063f23a6e6114610467578063f2fde38b14610486578063fd501c6d14610499578063ff47b9f5146104ad57600080fd5b8063bc197c811461040d578063bedb86fb1461042c578063cc9b4ccd1461043f578063d46b93301461045357600080fd5b806390528e11116100de57806390528e11146103c95780639c54df64146103dd578063b831c56e146103f0578063b8a812e6146103fa57600080fd5b80638129fc1c1461039e5780638a902f8b146103a65780638cdcc4b4146103b05780638da5cb5b146103b857600080fd5b8063377e11e011610187578063715018a611610156578063715018a61461035c5780637e2eb016146103645780638025ee281461037757806380a597071461038a57600080fd5b8063377e11e014610317578063541825a01461032a5780635c975abb1461033d578063704802751461034957600080fd5b80631b3a57d0116101c35780631b3a57d014610298578063210184b4146102ab5780632463a55a146102d757806324d7806c146102ea57600080fd5b806301ffc9a7146101f55780630b0bbf691461021d578063150b7a021461024c5780631785f53c14610283575b600080fd5b6102086102033660046123cb565b6104c0565b60405190151581526020015b60405180910390f35b61023e61022b36600461241a565b61019a6020526000908152604090205481565b604051908152602001610214565b61026a61025a366004612515565b630a85bd0160e11b949350505050565b6040516001600160e01b03199091168152602001610214565b61029661029136600461241a565b6104f7565b005b6102966102a6366004612580565b61054c565b610196546102bf906001600160a01b031681565b6040516001600160a01b039091168152602001610214565b6102966102e5366004612599565b610590565b6102086102f836600461241a565b6001600160a01b0316600090815261015f602052604090205460ff1690565b610296610325366004612666565b610643565b610296610338366004612735565b6106e5565b61012d5460ff16610208565b61029661035736600461241a565b610e4e565b610296610e9d565b610296610372366004612820565b610ed3565b610296610385366004612891565b610f4d565b610193546102bf906001600160a01b031681565b610296611258565b61023e61019b5481565b6102086112d2565b60fb546001600160a01b03166102bf565b610195546102bf906001600160a01b031681565b6102966103eb366004612666565b61135c565b61023e61019c5481565b610296610408366004612580565b6113f9565b61026a61041b36600461297b565b63bc197c8160e01b95945050505050565b61029661043a366004612a36565b61156b565b610197546102bf906001600160a01b031681565b610192546102bf906001600160a01b031681565b61026a610475366004612a53565b63f23a6e6160e01b95945050505050565b61029661049436600461241a565b6115bf565b610194546102bf906001600160a01b031681565b6102966104bb366004612580565b611657565b60006001600160e01b03198216630271189760e51b14806104f157506301ffc9a760e01b6001600160e01b03198316145b92915050565b60fb546001600160a01b0316331461052a5760405162461bcd60e51b815260040161052190612abb565b60405180910390fd5b6001600160a01b0316600090815261015f60205260409020805460ff19169055565b33600090815261015f602052604090205460ff168061056e575061056e6117db565b61058a5760405162461bcd60e51b815260040161052190612af0565b61019b55565b33600090815261015f602052604090205460ff16806105b257506105b26117db565b6105ce5760405162461bcd60e51b815260040161052190612af0565b61019280546001600160a01b03199081166001600160a01b03988916179091556101938054821696881696909617909555610194805486169487169490941790935561019580548516928616929092179091556101968054841691851691909117905561019780549092169216919091179055565b60fb546001600160a01b0316331461066d5760405162461bcd60e51b815260040161052190612abb565b60005b818110156106e057600061015f600085858581811061069157610691612b1c565b90506020020160208101906106a6919061241a565b6001600160a01b031681526020810191909152604001600020805460ff1916911515919091179055806106d881612b48565b915050610670565b505050565b33600090815261015f602052604090205460ff168061070757506107076117db565b6107235760405162461bcd60e51b815260040161052190612af0565b82518451146107655760405162461bcd60e51b815260206004820152600e60248201526d42616420534120416d6f756e747360901b6044820152606401610521565b80518251146107a75760405162461bcd60e51b815260206004820152600e60248201526d42616420534120416d6f756e747360901b6044820152606401610521565b851561081557610192546040516340c10f1960e01b81526001600160a01b03898116600483015260248201899052909116906340c10f1990604401600060405180830381600087803b1580156107fc57600080fd5b505af1158015610810573d6000803e3d6000fd5b505050505b60005b85518110156108fa57600086828151811061083557610835612b1c565b60200260200101519050806000141561087f5760405162461bcd60e51b815260206004820152600c60248201526b109859081d1bdad95b881a5960a21b6044820152606401610521565b61019354604051632142170760e11b81526001600160a01b03909116906342842e0e906108b49030908d908690600401612b63565b600060405180830381600087803b1580156108ce57600080fd5b505af11580156108e2573d6000803e3d6000fd5b505050505080806108f290612b48565b915050610818565b50835115610ba057600084516001600160401b0381111561091d5761091d612437565b604051908082528060200260200182016040528015610946578160200160208202803683370190505b50905060005b8551811015610992573082828151811061096857610968612b1c565b6001600160a01b03909216602092830291909101909101528061098a81612b48565b91505061094c565b50610194546040516313849cfd60e21b81526000916001600160a01b031690634e1273f4906109c79085908a90600401612bc2565b60006040518083038186803b1580156109df57600080fd5b505afa1580156109f3573d6000803e3d6000fd5b505050506040513d6000823e601f3d908101601f19168201604052610a1b9190810190612c22565b905060005b8651811015610b33576000828281518110610a3d57610a3d612b1c565b60200260200101519050868281518110610a5957610a59612b1c565b6020026020010151811015610b20576101945488516001600160a01b03909116906351416019908a9085908110610a9257610a92612b1c565b6020026020010151838a8681518110610aad57610aad612b1c565b6020026020010151610abf9190612cb2565b6040516001600160e01b031960e085901b168152600481019290925261ffff166024820152306044820152606401600060405180830381600087803b158015610b0757600080fd5b505af1158015610b1b573d6000803e3d6000fd5b505050505b5080610b2b81612b48565b915050610a20565b5061019454604051631759616b60e11b81526001600160a01b0390911690632eb2c2d690610b6b9030908d908b908b90600401612cc9565b600060405180830381600087803b158015610b8557600080fd5b505af1158015610b99573d6000803e3d6000fd5b5050505050505b815115610e4557600082516001600160401b03811115610bc257610bc2612437565b604051908082528060200260200182016040528015610beb578160200160208202803683370190505b50905060005b8351811015610c375730828281518110610c0d57610c0d612b1c565b6001600160a01b039092166020928302919091019091015280610c2f81612b48565b915050610bf1565b50610195546040516313849cfd60e21b81526000916001600160a01b031690634e1273f490610c6c9085908890600401612bc2565b60006040518083038186803b158015610c8457600080fd5b505afa158015610c98573d6000803e3d6000fd5b505050506040513d6000823e601f3d908101601f19168201604052610cc09190810190612c22565b905060005b8451811015610dd8576000828281518110610ce257610ce2612b1c565b60200260200101519050848281518110610cfe57610cfe612b1c565b6020026020010151811015610dc5576101955486516001600160a01b039091169063e7d3fe6b90889085908110610d3757610d37612b1c565b602002602001015183888681518110610d5257610d52612b1c565b6020026020010151610d649190612cb2565b6040516001600160e01b031960e085901b168152600481019290925261ffff166024820152306044820152606401600060405180830381600087803b158015610dac57600080fd5b505af1158015610dc0573d6000803e3d6000fd5b505050505b5080610dd081612b48565b915050610cc5565b5061019554604051632bda09e960e21b81526001600160a01b039091169063af6827a490610e109030908d9089908990600401612d24565b600060405180830381600087803b158015610e2a57600080fd5b505af1158015610e3e573d6000803e3d6000fd5b5050505050505b50505050505050565b60fb546001600160a01b03163314610e785760405162461bcd60e51b815260040161052190612abb565b6001600160a01b0316600090815261015f60205260409020805460ff19166001179055565b60fb546001600160a01b03163314610ec75760405162461bcd60e51b815260040161052190612abb565b610ed160006117ff565b565b33600090815261015f602052604090205460ff1680610ef55750610ef56117db565b610f115760405162461bcd60e51b815260040161052190612af0565b6000808080808080610f25888a018a612735565b9650965096509650965096509650610f42878787878787876106e5565b505050505050505050565b333214610f8b5760405162461bcd60e51b815260206004820152600c60248201526b4e6f20636f6e74726163747360a01b6044820152606401610521565b61012d5460ff1615610fd25760405162461bcd60e51b815260206004820152601060248201526f14185d5cd8589b194e881c185d5cd95960821b6044820152606401610521565b610fda6112d2565b6110265760405162461bcd60e51b815260206004820152601e60248201527f52696674526f6f743a20436f6e747261637473206172656e27742073657400006044820152606401610521565b8483146110665760405162461bcd60e51b815260206004820152600e60248201526d426164205341206c656e6774687360901b6044820152606401610521565b80518251146110a55760405162461bcd60e51b815260206004820152600b60248201526a426164206c656e6774687360a81b6044820152606401610521565b600a8711156110f65760405162461bcd60e51b815260206004820152601960248201527f746f6f206d616e79204e46547320746f207472616e73666572000000000000006044820152606401610521565b61019b5461019c5410156111435760405162461bcd60e51b8152602060048201526014602482015273139bdd08195b9bdd59da0811d4081cdd185ad95960621b6044820152606401610521565b60006111e88a8a8a8080602002602001604051908101604052809392919081815260200183836020028082843760009201919091525050604080516020808e0282810182019093528d82529093508d92508c91829185019084908082843760009201919091525050604080516020808d0282810182019093528c82529093508c92508b9182918501908490808284376000920191909152508a92508991506118519050565b610196546040516309813cdd60e31b81529192506001600160a01b031690634c09e6e89061121a908490600401612d62565b600060405180830381600087803b15801561123457600080fd5b505af1158015611248573d6000803e3d6000fd5b5050505050505050505050505050565b600054610100900460ff166112735760005460ff1615611277565b303b155b6112935760405162461bcd60e51b815260040161052190612db7565b600054610100900460ff161580156112b5576000805461ffff19166101011790555b6112bd611d88565b80156112cf576000805461ff00191690555b50565b610192546000906001600160a01b0316158015906112fb5750610193546001600160a01b031615155b80156113125750610194546001600160a01b031615155b80156113295750610196546001600160a01b031615155b80156113405750610197546001600160a01b031615155b80156113575750610195546001600160a01b031615155b905090565b60fb546001600160a01b031633146113865760405162461bcd60e51b815260040161052190612abb565b60005b818110156106e057600161015f60008585858181106113aa576113aa612b1c565b90506020020160208101906113bf919061241a565b6001600160a01b031681526020810191909152604001600020805460ff1916911515919091179055806113f181612b48565b915050611389565b6000811161143f5760405162461bcd60e51b815260206004820152601360248201527226bab9ba1039ba30b5b29039b7b6b29023a81760691b6044820152606401610521565b8061019c60008282546114529190612e05565b909155505033600090815261019a602052604081208054839290611477908490612e05565b90915550611489905061019833611ded565b61149b5761149961019833611e12565b505b610192546040516323b872dd60e01b81526000916001600160a01b0316906323b872dd906114d190339030908790600401612b63565b602060405180830381600087803b1580156114eb57600080fd5b505af11580156114ff573d6000803e3d6000fd5b505050506040513d601f19601f820116820180604052508101906115239190612e28565b9050806115675760405162461bcd60e51b815260206004820152601260248201527111d4081b9bdd081d1c985b9cd9995c9c995960721b6044820152606401610521565b5050565b33600090815261015f602052604090205460ff168061158d575061158d6117db565b6115a95760405162461bcd60e51b815260040161052190612af0565b80156115b7576112cf611e27565b6112cf611ec1565b60fb546001600160a01b031633146115e95760405162461bcd60e51b815260040161052190612abb565b6001600160a01b03811661164e5760405162461bcd60e51b815260206004820152602660248201527f4f776e61626c653a206e6577206f776e657220697320746865207a65726f206160448201526564647265737360d01b6064820152608401610521565b6112cf816117ff565b33600090815261019a6020526040902054818110156116b15760405162461bcd60e51b8152602060048201526016602482015275546f6f206d75636820475020746f20756e7374616b6560501b6044820152606401610521565b8161019c60008282546116c49190612cb2565b909155505033600090815261019a6020526040812080548492906116e9908490612cb2565b909155505033600090815261019a60205260409020546117115761170f61019833611f3d565b505b6101925460405163a9059cbb60e01b8152336004820152602481018490526000916001600160a01b03169063a9059cbb90604401602060405180830381600087803b15801561175f57600080fd5b505af1158015611773573d6000803e3d6000fd5b505050506040513d601f19601f820116820180604052508101906117979190612e28565b9050806106e05760405162461bcd60e51b815260206004820152601260248201527111d4081b9bdd081d1c985b9cd9995c9c995960721b6044820152606401610521565b6000336117f060fb546001600160a01b031690565b6001600160a01b031614905090565b60fb80546001600160a01b038381166001600160a01b0319831681179093556040519116919082907f8be0079c531659141344cd1fd0a4f28419497f9722a3daafe3b4186f6b6457e090600090a35050565b606086156118bf5761019254604051632770a7eb60e21b8152336004820152602481018990526001600160a01b0390911690639dc29fac90604401600060405180830381600087803b1580156118a657600080fd5b505af11580156118ba573d6000803e3d6000fd5b505050505b600086516001600160401b038111156118da576118da612437565b60405190808252806020026020018201604052801561195957816020015b604080516101408101825260008082526020808301829052928201819052606082018190526080820181905260a0820181905260c0820181905260e08201819052610100820181905261012082015282526000199092019101816118f85790505b50905060005b8751811015611c6757600088828151811061197c5761197c612b1c565b6020026020010151905080600014156119c45760405162461bcd60e51b815260206004820152600a6024820152691098590815db9908125160b21b6044820152606401610521565b610193546040516394e5684760e01b8152600481018390526001600160a01b03909116906394e568479060240161014060405180830381600087803b158015611a0c57600080fd5b505af1158015611a20573d6000803e3d6000fd5b505050506040513d601f19601f82011682018060405250810190611a449190612e56565b838381518110611a5657611a56612b1c565b602090810291909101015261019754610193546040516331a9108f60e11b8152600481018490526001600160a01b039283169290911690636352211e90602401602060405180830381600087803b158015611ab057600080fd5b505af1158015611ac4573d6000803e3d6000fd5b505050506040513d601f19601f82011682018060405250810190611ae89190612f1e565b6001600160a01b0316148015611b7657506101975460405163f04d65fd60e01b8152600481018390526001600160a01b039091169063f04d65fd9060240160206040518083038186803b158015611b3e57600080fd5b505afa158015611b52573d6000803e3d6000fd5b505050506040513d601f19601f82011682018060405250810190611b769190612e28565b15611bec5761019354610197546040516323b872dd60e01b81526001600160a01b03928316926323b872dd92611bb59291169030908690600401612b63565b600060405180830381600087803b158015611bcf57600080fd5b505af1158015611be3573d6000803e3d6000fd5b50505050611c54565b61019354604051632142170760e11b81526001600160a01b03909116906342842e0e90611c2190339030908690600401612b63565b600060405180830381600087803b158015611c3b57600080fd5b505af1158015611c4f573d6000803e3d6000fd5b505050505b5080611c5f81612b48565b91505061195f565b50855115611cd95761019454604051631759616b60e11b81526001600160a01b0390911690632eb2c2d690611ca690339030908b908b90600401612cc9565b600060405180830381600087803b158015611cc057600080fd5b505af1158015611cd4573d6000803e3d6000fd5b505050505b835115611d4a5761019554604051632bda09e960e21b81526001600160a01b039091169063af6827a490611d17903390309089908990600401612d24565b600060405180830381600087803b158015611d3157600080fd5b505af1158015611d45573d6000803e3d6000fd5b505050505b6000338989848a8a8a8a604051602001611d6b989796959493929190612f3b565b60408051808303601f190181529190529998505050505050505050565b600054610100900460ff16611da35760005460ff1615611da7565b303b155b611dc35760405162461bcd60e51b815260040161052190612db7565b600054610100900460ff16158015611de5576000805461ffff19166101011790555b6112bd611f52565b6001600160a01b038116600090815260018301602052604081205415155b9392505050565b6000611e0b836001600160a01b038416611fb7565b61012d5460ff1615611e6e5760405162461bcd60e51b815260206004820152601060248201526f14185d5cd8589b194e881c185d5cd95960821b6044820152606401610521565b61012d805460ff191660011790557f62e78cea01bee320cd4e420270b5ea74000d11b0c9f74754ebdbfc544b05a258611ea43390565b6040516001600160a01b03909116815260200160405180910390a1565b61012d5460ff16611f0b5760405162461bcd60e51b815260206004820152601460248201527314185d5cd8589b194e881b9bdd081c185d5cd95960621b6044820152606401610521565b61012d805460ff191690557f5db9ee0a495bf2e6ff9c91a7834c1ba4fdd244a5e8aa4e537bd38aeae4b073aa33611ea4565b6000611e0b836001600160a01b038416612006565b600054610100900460ff16611f6d5760005460ff1615611f71565b303b155b611f8d5760405162461bcd60e51b815260040161052190612db7565b600054610100900460ff16158015611faf576000805461ffff19166101011790555b6112bd6120f9565b6000818152600183016020526040812054611ffe575081546001818101845560008481526020808220909301849055845484825282860190935260409020919091556104f1565b5060006104f1565b600081815260018301602052604081205480156120ef57600061202a600183612cb2565b855490915060009061203e90600190612cb2565b90508181146120a357600086600001828154811061205e5761205e612b1c565b906000526020600020015490508087600001848154811061208157612081612b1c565b6000918252602080832090910192909255918252600188019052604090208390555b85548690806120b4576120b461306e565b6001900381819060005260206000200160009055905585600101600086815260200190815260200160002060009055600193505050506104f1565b60009150506104f1565b600054610100900460ff166121145760005460ff1615612118565b303b155b6121345760405162461bcd60e51b815260040161052190612db7565b600054610100900460ff16158015612156576000805461ffff19166101011790555b61215e612192565b6121666121f7565b61216e612226565b6a22bdd88fed9efc6a00000061019b5580156112cf576000805461ff001916905550565b600054610100900460ff166121ad5760005460ff16156121b1565b303b155b6121cd5760405162461bcd60e51b815260040161052190612db7565b600054610100900460ff161580156121ef576000805461ffff19166101011790555b6112bd61225d565b600054610100900460ff1661221e5760405162461bcd60e51b815260040161052190613084565b610ed16122d2565b600054610100900460ff1661224d5760405162461bcd60e51b815260040161052190613084565b6122556122d2565b61221e6122d2565b600054610100900460ff166122785760005460ff161561227c565b303b155b6122985760405162461bcd60e51b815260040161052190612db7565b600054610100900460ff161580156122ba576000805461ffff19166101011790555b6122c26122f9565b6122ca612330565b6112bd611e27565b600054610100900460ff16610ed15760405162461bcd60e51b815260040161052190613084565b600054610100900460ff166123205760405162461bcd60e51b815260040161052190613084565b6123286122d2565b610ed1612367565b600054610100900460ff166123575760405162461bcd60e51b815260040161052190613084565b61235f6122d2565b610ed1612397565b600054610100900460ff1661238e5760405162461bcd60e51b815260040161052190613084565b610ed1336117ff565b600054610100900460ff166123be5760405162461bcd60e51b815260040161052190613084565b61012d805460ff19169055565b6000602082840312156123dd57600080fd5b81356001600160e01b031981168114611e0b57600080fd5b6001600160a01b03811681146112cf57600080fd5b8035612415816123f5565b919050565b60006020828403121561242c57600080fd5b8135611e0b816123f5565b634e487b7160e01b600052604160045260246000fd5b60405161014081016001600160401b038111828210171561247057612470612437565b60405290565b604051601f8201601f191681016001600160401b038111828210171561249e5761249e612437565b604052919050565b600082601f8301126124b757600080fd5b81356001600160401b038111156124d0576124d0612437565b6124e3601f8201601f1916602001612476565b8181528460208386010111156124f857600080fd5b816020850160208301376000918101602001919091529392505050565b6000806000806080858703121561252b57600080fd5b8435612536816123f5565b93506020850135612546816123f5565b92506040850135915060608501356001600160401b0381111561256857600080fd5b612574878288016124a6565b91505092959194509250565b60006020828403121561259257600080fd5b5035919050565b60008060008060008060c087890312156125b257600080fd5b86356125bd816123f5565b955060208701356125cd816123f5565b945060408701356125dd816123f5565b935060608701356125ed816123f5565b925060808701356125fd816123f5565b915060a087013561260d816123f5565b809150509295509295509295565b60008083601f84011261262d57600080fd5b5081356001600160401b0381111561264457600080fd5b6020830191508360208260051b850101111561265f57600080fd5b9250929050565b6000806020838503121561267957600080fd5b82356001600160401b0381111561268f57600080fd5b61269b8582860161261b565b90969095509350505050565b60006001600160401b038211156126c0576126c0612437565b5060051b60200190565b600082601f8301126126db57600080fd5b813560206126f06126eb836126a7565b612476565b82815260059290921b8401810191818101908684111561270f57600080fd5b8286015b8481101561272a5780358352918301918301612713565b509695505050505050565b600080600080600080600060e0888a03121561275057600080fd5b6127598861240a565b96506020880135955060408801356001600160401b038082111561277c57600080fd5b6127888b838c016126ca565b965060608a013591508082111561279e57600080fd5b6127aa8b838c016126ca565b955060808a01359150808211156127c057600080fd5b6127cc8b838c016126ca565b945060a08a01359150808211156127e257600080fd5b6127ee8b838c016126ca565b935060c08a013591508082111561280457600080fd5b506128118a828b016126ca565b91505092959891949750929550565b6000806020838503121561283357600080fd5b82356001600160401b038082111561284a57600080fd5b818501915085601f83011261285e57600080fd5b81358181111561286d57600080fd5b86602082850101111561287f57600080fd5b60209290920196919550909350505050565b600080600080600080600080600060c08a8c0312156128af57600080fd5b8935985060208a01356001600160401b03808211156128cd57600080fd5b6128d98d838e0161261b565b909a50985060408c01359150808211156128f257600080fd5b6128fe8d838e0161261b565b909850965060608c013591508082111561291757600080fd5b6129238d838e0161261b565b909650945060808c013591508082111561293c57600080fd5b6129488d838e016126ca565b935060a08c013591508082111561295e57600080fd5b5061296b8c828d016126ca565b9150509295985092959850929598565b600080600080600060a0868803121561299357600080fd5b853561299e816123f5565b945060208601356129ae816123f5565b935060408601356001600160401b03808211156129ca57600080fd5b6129d689838a016126ca565b945060608801359150808211156129ec57600080fd5b6129f889838a016126ca565b93506080880135915080821115612a0e57600080fd5b50612a1b888289016124a6565b9150509295509295909350565b80151581146112cf57600080fd5b600060208284031215612a4857600080fd5b8135611e0b81612a28565b600080600080600060a08688031215612a6b57600080fd5b8535612a76816123f5565b94506020860135612a86816123f5565b9350604086013592506060860135915060808601356001600160401b03811115612aaf57600080fd5b612a1b888289016124a6565b6020808252818101527f4f776e61626c653a2063616c6c6572206973206e6f7420746865206f776e6572604082015260600190565b6020808252601290820152712737ba1030b236b4b71037b91037bbb732b960711b604082015260600190565b634e487b7160e01b600052603260045260246000fd5b634e487b7160e01b600052601160045260246000fd5b6000600019821415612b5c57612b5c612b32565b5060010190565b6001600160a01b039384168152919092166020820152604081019190915260600190565b600081518084526020808501945080840160005b83811015612bb757815187529582019590820190600101612b9b565b509495945050505050565b604080825283519082018190526000906020906060840190828701845b82811015612c045781516001600160a01b031684529284019290840190600101612bdf565b50505083810382850152612c188186612b87565b9695505050505050565b60006020808385031215612c3557600080fd5b82516001600160401b03811115612c4b57600080fd5b8301601f81018513612c5c57600080fd5b8051612c6a6126eb826126a7565b81815260059190911b82018301908381019087831115612c8957600080fd5b928401925b82841015612ca757835182529284019290840190612c8e565b979650505050505050565b600082821015612cc457612cc4612b32565b500390565b6001600160a01b0385811682528416602082015260a060408201819052600090612cf590830185612b87565b8281036060840152612d078185612b87565b838103608090940193909352505060008152602001949350505050565b6001600160a01b03858116825284166020820152608060408201819052600090612d5090830185612b87565b8281036060840152612ca78185612b87565b600060208083528351808285015260005b81811015612d8f57858101830151858201604001528201612d73565b81811115612da1576000604083870101525b50601f01601f1916929092016040019392505050565b6020808252602e908201527f496e697469616c697a61626c653a20636f6e747261637420697320616c72656160408201526d191e481a5b9a5d1a585b1a5e995960921b606082015260800190565b60008219821115612e1857612e18612b32565b500190565b805161241581612a28565b600060208284031215612e3a57600080fd5b8151611e0b81612a28565b805160ff8116811461241557600080fd5b60006101408284031215612e6957600080fd5b612e7161244d565b612e7a83612e1d565b8152612e8860208401612e45565b6020820152612e9960408401612e45565b6040820152612eaa60608401612e45565b6060820152612ebb60808401612e45565b6080820152612ecc60a08401612e45565b60a0820152612edd60c08401612e45565b60c0820152612eee60e08401612e45565b60e0820152610100612f01818501612e45565b90820152610120612f13848201612e45565b908201529392505050565b600060208284031215612f3057600080fd5b8151611e0b816123f5565b600061010060018060a01b038b16835260208a8185015260408281860152612f658386018c612b87565b8581036060878101919091528b51808352848d019285019060005b8181101561300a5784518051151584528781015160ff90811689860152878201518116888601528582015181168686015260808083015182169086015260a08083015182169086015260c08083015182169086015260e0808301518216908601528982015181168a8601526101209182015116908401529386019361014090920191600101612f80565b5050878103608089015261301e818d612b87565b9550505050505082810360a08401526130378187612b87565b905082810360c084015261304b8186612b87565b905082810360e084015261305f8185612b87565b9b9a5050505050505050505050565b634e487b7160e01b600052603160045260246000fd5b6020808252602b908201527f496e697469616c697a61626c653a20636f6e7472616374206973206e6f74206960408201526a6e697469616c697a696e6760a81b60608201526080019056fea264697066735822122053b6fa76f6b1a1cacb7c6379ee234c5f6d5002fe17ceacfeb25bce241b01458e64736f6c63430008090033",
  "devdoc": {
    "kind": "dev",
    "methods": {
      "onERC721Received(address,address,uint256,bytes)": {
        "details": "See {IERC721Receiver-onERC721Received}. Always returns `IERC721Receiver.onERC721Received.selector`."
      },
      "owner()": {
        "details": "Returns the address of the current owner."
      },
      "paused()": {
        "details": "Returns true if the contract is paused, and false otherwise."
      },
      "renounceOwnership()": {
        "details": "Leaves the contract without owner. It will not be possible to call `onlyOwner` functions anymore. Can only be called by the current owner. NOTE: Renouncing ownership will leave the contract without an owner, thereby removing any functionality that is only available to the owner."
      },
      "supportsInterface(bytes4)": {
        "details": "See {IERC165-supportsInterface}."
      },
      "transferOwnership(address)": {
        "details": "Transfers ownership of the contract to a new account (`newOwner`). Can only be called by the current owner."
      }
    },
    "version": 1
  },
  "userdoc": {
    "kind": "user",
    "methods": {},
    "version": 1
  },
  "storageLayout": {
    "storage": [
      {
        "astId": 2787,
        "contract": "contracts/wnd/riftroot/RiftRoot.sol:RiftRoot",
        "label": "_initialized",
        "offset": 0,
        "slot": "0",
        "type": "t_bool"
      },
      {
        "astId": 2790,
        "contract": "contracts/wnd/riftroot/RiftRoot.sol:RiftRoot",
        "label": "_initializing",
        "offset": 1,
        "slot": "0",
        "type": "t_bool"
      },
      {
        "astId": 6549,
        "contract": "contracts/wnd/riftroot/RiftRoot.sol:RiftRoot",
        "label": "__gap",
        "offset": 0,
        "slot": "1",
        "type": "t_array(t_uint256)50_storage"
      },
      {
        "astId": 7087,
        "contract": "contracts/wnd/riftroot/RiftRoot.sol:RiftRoot",
        "label": "__gap",
        "offset": 0,
        "slot": "51",
        "type": "t_array(t_uint256)50_storage"
      },
      {
        "astId": 4405,
        "contract": "contracts/wnd/riftroot/RiftRoot.sol:RiftRoot",
        "label": "__gap",
        "offset": 0,
        "slot": "101",
        "type": "t_array(t_uint256)50_storage"
      },
      {
        "astId": 4346,
        "contract": "contracts/wnd/riftroot/RiftRoot.sol:RiftRoot",
        "label": "__gap",
        "offset": 0,
        "slot": "151",
        "type": "t_array(t_uint256)50_storage"
      },
      {
        "astId": 6838,
        "contract": "contracts/wnd/riftroot/RiftRoot.sol:RiftRoot",
        "label": "__gap",
        "offset": 0,
        "slot": "201",
        "type": "t_array(t_uint256)50_storage"
      },
      {
        "astId": 2665,
        "contract": "contracts/wnd/riftroot/RiftRoot.sol:RiftRoot",
        "label": "_owner",
        "offset": 0,
        "slot": "251",
        "type": "t_address"
      },
      {
        "astId": 2779,
        "contract": "contracts/wnd/riftroot/RiftRoot.sol:RiftRoot",
        "label": "__gap",
        "offset": 0,
        "slot": "252",
        "type": "t_array(t_uint256)49_storage"
      },
      {
        "astId": 2875,
        "contract": "contracts/wnd/riftroot/RiftRoot.sol:RiftRoot",
        "label": "_paused",
        "offset": 0,
        "slot": "301",
        "type": "t_bool"
      },
      {
        "astId": 2966,
        "contract": "contracts/wnd/riftroot/RiftRoot.sol:RiftRoot",
        "label": "__gap",
        "offset": 0,
        "slot": "302",
        "type": "t_array(t_uint256)49_storage"
      },
      {
        "astId": 12019,
        "contract": "contracts/wnd/riftroot/RiftRoot.sol:RiftRoot",
        "label": "admins",
        "offset": 0,
        "slot": "351",
        "type": "t_mapping(t_address,t_bool)"
      },
      {
        "astId": 12179,
        "contract": "contracts/wnd/riftroot/RiftRoot.sol:RiftRoot",
        "label": "__gap",
        "offset": 0,
        "slot": "352",
        "type": "t_array(t_uint256)50_storage"
      },
      {
        "astId": 18571,
        "contract": "contracts/wnd/riftroot/RiftRoot.sol:RiftRoot",
        "label": "gp",
        "offset": 0,
        "slot": "402",
        "type": "t_contract(IGP)19210"
      },
      {
        "astId": 18574,
        "contract": "contracts/wnd/riftroot/RiftRoot.sol:RiftRoot",
        "label": "wnd",
        "offset": 0,
        "slot": "403",
        "type": "t_contract(IWnDRoot)20426"
      },
      {
        "astId": 18577,
        "contract": "contracts/wnd/riftroot/RiftRoot.sol:RiftRoot",
        "label": "sacrificialAlter",
        "offset": 0,
        "slot": "404",
        "type": "t_contract(ISacrificialAlter)19258"
      },
      {
        "astId": 18580,
        "contract": "contracts/wnd/riftroot/RiftRoot.sol:RiftRoot",
        "label": "consumables",
        "offset": 0,
        "slot": "405",
        "type": "t_contract(IConsumables)19050"
      },
      {
        "astId": 18583,
        "contract": "contracts/wnd/riftroot/RiftRoot.sol:RiftRoot",
        "label": "rootTunnel",
        "offset": 0,
        "slot": "406",
        "type": "t_contract(IRootTunnel)24320"
      },
      {
        "astId": 18586,
        "contract": "contracts/wnd/riftroot/RiftRoot.sol:RiftRoot",
        "label": "oldTrainingGrounds",
        "offset": 0,
        "slot": "407",
        "type": "t_contract(IOldTrainingGrounds)17580"
      },
      {
        "astId": 18589,
        "contract": "contracts/wnd/riftroot/RiftRoot.sol:RiftRoot",
        "label": "addressesStaked",
        "offset": 0,
        "slot": "408",
        "type": "t_struct(AddressSet)7412_storage"
      },
      {
        "astId": 18593,
        "contract": "contracts/wnd/riftroot/RiftRoot.sol:RiftRoot",
        "label": "addressToGPStaked",
        "offset": 0,
        "slot": "410",
        "type": "t_mapping(t_address,t_uint256)"
      },
      {
        "astId": 18595,
        "contract": "contracts/wnd/riftroot/RiftRoot.sol:RiftRoot",
        "label": "amountNeededToOpenPortal",
        "offset": 0,
        "slot": "411",
        "type": "t_uint256"
      },
      {
        "astId": 18597,
        "contract": "contracts/wnd/riftroot/RiftRoot.sol:RiftRoot",
        "label": "amountCurrentlyStaked",
        "offset": 0,
        "slot": "412",
        "type": "t_uint256"
      }
    ],
    "types": {
      "t_address": {
        "encoding": "inplace",
        "label": "address",
        "numberOfBytes": "20"
      },
      "t_array(t_bytes32)dyn_storage": {
        "base": "t_bytes32",
        "encoding": "dynamic_array",
        "label": "bytes32[]",
        "numberOfBytes": "32"
      },
      "t_array(t_uint256)49_storage": {
        "base": "t_uint256",
        "encoding": "inplace",
        "label": "uint256[49]",
        "numberOfBytes": "1568"
      },
      "t_array(t_uint256)50_storage": {
        "base": "t_uint256",
        "encoding": "inplace",
        "label": "uint256[50]",
        "numberOfBytes": "1600"
      },
      "t_bool": {
        "encoding": "inplace",
        "label": "bool",
        "numberOfBytes": "1"
      },
      "t_bytes32": {
        "encoding": "inplace",
        "label": "bytes32",
        "numberOfBytes": "32"
      },
      "t_contract(IConsumables)19050": {
        "encoding": "inplace",
        "label": "contract IConsumables",
        "numberOfBytes": "20"
      },
      "t_contract(IGP)19210": {
        "encoding": "inplace",
        "label": "contract IGP",
        "numberOfBytes": "20"
      },
      "t_contract(IOldTrainingGrounds)17580": {
        "encoding": "inplace",
        "label": "contract IOldTrainingGrounds",
        "numberOfBytes": "20"
      },
      "t_contract(IRootTunnel)24320": {
        "encoding": "inplace",
        "label": "contract IRootTunnel",
        "numberOfBytes": "20"
      },
      "t_contract(ISacrificialAlter)19258": {
        "encoding": "inplace",
        "label": "contract ISacrificialAlter",
        "numberOfBytes": "20"
      },
      "t_contract(IWnDRoot)20426": {
        "encoding": "inplace",
        "label": "contract IWnDRoot",
        "numberOfBytes": "20"
      },
      "t_mapping(t_address,t_bool)": {
        "encoding": "mapping",
        "key": "t_address",
        "label": "mapping(address => bool)",
        "numberOfBytes": "32",
        "value": "t_bool"
      },
      "t_mapping(t_address,t_uint256)": {
        "encoding": "mapping",
        "key": "t_address",
        "label": "mapping(address => uint256)",
        "numberOfBytes": "32",
        "value": "t_uint256"
      },
      "t_mapping(t_bytes32,t_uint256)": {
        "encoding": "mapping",
        "key": "t_bytes32",
        "label": "mapping(bytes32 => uint256)",
        "numberOfBytes": "32",
        "value": "t_uint256"
      },
      "t_struct(AddressSet)7412_storage": {
        "encoding": "inplace",
        "label": "struct EnumerableSetUpgradeable.AddressSet",
        "members": [
          {
            "astId": 7411,
            "contract": "contracts/wnd/riftroot/RiftRoot.sol:RiftRoot",
            "label": "_inner",
            "offset": 0,
            "slot": "0",
            "type": "t_struct(Set)7111_storage"
          }
        ],
        "numberOfBytes": "64"
      },
      "t_struct(Set)7111_storage": {
        "encoding": "inplace",
        "label": "struct EnumerableSetUpgradeable.Set",
        "members": [
          {
            "astId": 7106,
            "contract": "contracts/wnd/riftroot/RiftRoot.sol:RiftRoot",
            "label": "_values",
            "offset": 0,
            "slot": "0",
            "type": "t_array(t_bytes32)dyn_storage"
          },
          {
            "astId": 7110,
            "contract": "contracts/wnd/riftroot/RiftRoot.sol:RiftRoot",
            "label": "_indexes",
            "offset": 0,
            "slot": "1",
            "type": "t_mapping(t_bytes32,t_uint256)"
          }
        ],
        "numberOfBytes": "64"
      },
      "t_uint256": {
        "encoding": "inplace",
        "label": "uint256",
        "numberOfBytes": "32"
      }
    }
  }
}