{
  "address": "0x2233b32d47CD12e0864d33b7514C80e624e234d5",
  "abi": [
    {
      "inputs": [
        {
          "internalType": "address",
          "name": "_checkpointManager",
          "type": "address"
        },
        {
          "internalType": "address",
          "name": "_fxRoot",
          "type": "address"
        }
      ],
      "stateMutability": "nonpayable",
      "type": "constructor"
    },
    {
      "anonymous": false,
      "inputs": [
        {
          "indexed": true,
          "internalType": "address",
          "name": "previousOwner",
          "type": "address"
        },
        {
          "indexed": true,
          "internalType": "address",
          "name": "newOwner",
          "type": "address"
        }
      ],
      "name": "OwnershipTransferred",
      "type": "event"
    },
    {
      "anonymous": false,
      "inputs": [
        {
          "indexed": false,
          "internalType": "address",
          "name": "account",
          "type": "address"
        }
      ],
      "name": "Paused",
      "type": "event"
    },
    {
      "anonymous": false,
      "inputs": [
        {
          "indexed": false,
          "internalType": "address",
          "name": "account",
          "type": "address"
        }
      ],
      "name": "Unpaused",
      "type": "event"
    },
    {
      "inputs": [],
      "name": "SEND_MESSAGE_EVENT_SIG",
      "outputs": [
        {
          "internalType": "bytes32",
          "name": "",
          "type": "bytes32"
        }
      ],
      "stateMutability": "view",
      "type": "function"
    },
    {
      "inputs": [
        {
          "internalType": "address",
          "name": "_address",
          "type": "address"
        }
      ],
      "name": "addAdmin",
      "outputs": [],
      "stateMutability": "nonpayable",
      "type": "function"
    },
    {
      "inputs": [
        {
          "internalType": "address[]",
          "name": "_addresses",
          "type": "address[]"
        }
      ],
      "name": "addAdmins",
      "outputs": [],
      "stateMutability": "nonpayable",
      "type": "function"
    },
    {
      "inputs": [],
      "name": "checkpointManager",
      "outputs": [
        {
          "internalType": "contract ICheckpointManager",
          "name": "",
          "type": "address"
        }
      ],
      "stateMutability": "view",
      "type": "function"
    },
    {
      "inputs": [],
      "name": "fxChildTunnel",
      "outputs": [
        {
          "internalType": "address",
          "name": "",
          "type": "address"
        }
      ],
      "stateMutability": "view",
      "type": "function"
    },
    {
      "inputs": [],
      "name": "fxRoot",
      "outputs": [
        {
          "internalType": "contract IFxStateSender",
          "name": "",
          "type": "address"
        }
      ],
      "stateMutability": "view",
      "type": "function"
    },
    {
      "inputs": [
        {
          "internalType": "address",
          "name": "_address",
          "type": "address"
        }
      ],
      "name": "isAdmin",
      "outputs": [
        {
          "internalType": "bool",
          "name": "",
          "type": "bool"
        }
      ],
      "stateMutability": "view",
      "type": "function"
    },
    {
      "inputs": [],
      "name": "messageHandler",
      "outputs": [
        {
          "internalType": "contract IMessageHandler",
          "name": "",
          "type": "address"
        }
      ],
      "stateMutability": "view",
      "type": "function"
    },
    {
      "inputs": [],
      "name": "owner",
      "outputs": [
        {
          "internalType": "address",
          "name": "",
          "type": "address"
        }
      ],
      "stateMutability": "view",
      "type": "function"
    },
    {
      "inputs": [],
      "name": "paused",
      "outputs": [
        {
          "internalType": "bool",
          "name": "",
          "type": "bool"
        }
      ],
      "stateMutability": "view",
      "type": "function"
    },
    {
      "inputs": [
        {
          "internalType": "bytes32",
          "name": "",
          "type": "bytes32"
        }
      ],
      "name": "processedExits",
      "outputs": [
        {
          "internalType": "bool",
          "name": "",
          "type": "bool"
        }
      ],
      "stateMutability": "view",
      "type": "function"
    },
    {
      "inputs": [
        {
          "internalType": "bytes",
          "name": "inputData",
          "type": "bytes"
        }
      ],
      "name": "receiveMessage",
      "outputs": [],
      "stateMutability": "nonpayable",
      "type": "function"
    },
    {
      "inputs": [
        {
          "internalType": "address",
          "name": "_address",
          "type": "address"
        }
      ],
      "name": "removeAdmin",
      "outputs": [],
      "stateMutability": "nonpayable",
      "type": "function"
    },
    {
      "inputs": [
        {
          "internalType": "address[]",
          "name": "_addresses",
          "type": "address[]"
        }
      ],
      "name": "removeAdmins",
      "outputs": [],
      "stateMutability": "nonpayable",
      "type": "function"
    },
    {
      "inputs": [],
      "name": "renounceOwnership",
      "outputs": [],
      "stateMutability": "nonpayable",
      "type": "function"
    },
    {
      "inputs": [
        {
          "internalType": "bytes",
          "name": "_data",
          "type": "bytes"
        }
      ],
      "name": "sendMessageToChild",
      "outputs": [],
      "stateMutability": "nonpayable",
      "type": "function"
    },
    {
      "inputs": [
        {
          "internalType": "address",
          "name": "_fxChildTunnel",
          "type": "address"
        }
      ],
      "name": "setFxChildTunnel",
      "outputs": [],
      "stateMutability": "nonpayable",
      "type": "function"
    },
    {
      "inputs": [
        {
          "internalType": "address",
          "name": "_messageHandlerAddress",
          "type": "address"
        }
      ],
      "name": "setMessageHandler",
      "outputs": [],
      "stateMutability": "nonpayable",
      "type": "function"
    },
    {
      "inputs": [
        {
          "internalType": "bool",
          "name": "_shouldPause",
          "type": "bool"
        }
      ],
      "name": "setPause",
      "outputs": [],
      "stateMutability": "nonpayable",
      "type": "function"
    },
    {
      "inputs": [
        {
          "internalType": "address",
          "name": "newOwner",
          "type": "address"
        }
      ],
      "name": "transferOwnership",
      "outputs": [],
      "stateMutability": "nonpayable",
      "type": "function"
    }
  ],
  "transactionHash": "0x7555353a48958f4ee87d8f4a5bded81ae1af7480be56fbbf94f8c5ac3f336f78",
  "args": [
    "0x86E4Dc95c7FBdBf52e33D563BbDB00823894C287",
    "0xfe5e5D361b2ad62c541bAb87C45a0B9B018389a2"
  ],
  "numDeployments": 1,
  "solcInputHash": "71916760efffa75e8315f179b7509b27",
  "bytecode": "0x60806040523480156200001157600080fd5b5060405162002927380380620029278339810160408190526200003491620001b6565b600180546001600160a01b038085166001600160a01b031992831617909255600080549284169290911691909117905562000076620000703390565b62000095565b6004805460ff60a01b191690556200008d620000e7565b5050620001ee565b600480546001600160a01b038381166001600160a01b0319831681179093556040519116919082907f8be0079c531659141344cd1fd0a4f28419497f9722a3daafe3b4186f6b6457e090600090a35050565b620000fb600454600160a01b900460ff1690565b15620001405760405162461bcd60e51b815260206004820152601060248201526f14185d5cd8589b194e881c185d5cd95960821b604482015260640160405180910390fd5b6004805460ff60a01b1916600160a01b1790557f62e78cea01bee320cd4e420270b5ea74000d11b0c9f74754ebdbfc544b05a2586200017c3390565b6040516001600160a01b03909116815260200160405180910390a1565b80516001600160a01b0381168114620001b157600080fd5b919050565b60008060408385031215620001ca57600080fd5b620001d58362000199565b9150620001e56020840162000199565b90509250929050565b61272980620001fe6000396000f3fe608060405234801561001057600080fd5b506004361061012c5760003560e01c8063715018a6116100ad578063bedb86fb11610071578063bedb86fb146102ba578063c0857ba0146102cd578063de9b771f146102e0578063f2fde38b146102f3578063f953cec71461030657600080fd5b8063715018a6146102685780638da5cb5b14610270578063972c4928146102815780639c54df6414610294578063aea4e49e146102a757600080fd5b8063377e11e0116100f4578063377e11e0146101fa5780634c09e6e81461020d5780635c975abb14610220578063607f2d4214610232578063704802751461025557600080fd5b80630a83ab91146101315780630e387de6146101465780630fe36ccf146101805780631785f53c146101ab57806324d7806c146101be575b600080fd5b61014461013f3660046120d2565b610319565b005b61016d7f8c5261668696ce22758910d05bab8f186d6eb247ceac2af2e82c7dc17669b03681565b6040519081526020015b60405180910390f35b600654610193906001600160a01b031681565b6040516001600160a01b039091168152602001610177565b6101446101b93660046120d2565b6103d7565b6101ea6101cc3660046120d2565b6001600160a01b031660009081526005602052604090205460ff1690565b6040519015158152602001610177565b6101446102083660046120ef565b610422565b61014461021b366004612163565b6104c5565b600454600160a01b900460ff166101ea565b6101ea6102403660046121c2565b60036020526000908152604090205460ff1681565b6101446102633660046120d2565b610596565b610144610633565b6004546001600160a01b0316610193565b600254610193906001600160a01b031681565b6101446102a23660046120ef565b610669565b6101446102b53660046120d2565b61077b565b6101446102c83660046121db565b610809565b600154610193906001600160a01b031681565b600054610193906001600160a01b031681565b6101446103013660046120d2565b61085f565b61014461031436600461226a565b6108f7565b3360009081526005602052604090205460ff168061033a575061033a61090d565b61035f5760405162461bcd60e51b8152600401610356906122e9565b60405180910390fd5b6001600160a01b0381166103b55760405162461bcd60e51b815260206004820152601760248201527f696e76616c6964206d6573736167652068616e646c65720000000000000000006044820152606401610356565b600680546001600160a01b0319166001600160a01b0392909216919091179055565b6004546001600160a01b031633146104015760405162461bcd60e51b815260040161035690612315565b6001600160a01b03166000908152600560205260409020805460ff19169055565b6004546001600160a01b0316331461044c5760405162461bcd60e51b815260040161035690612315565b8060005b818110156104bf576000600560008686858181106104705761047061234a565b905060200201602081019061048591906120d2565b6001600160a01b031681526020810191909152604001600020805460ff1916911515919091179055806104b781612376565b915050610450565b50505050565b3360009081526005602052604090205460ff16806104e657506104e661090d565b6105025760405162461bcd60e51b8152600401610356906122e9565b6006546001600160a01b03166105535760405162461bcd60e51b8152602060048201526016602482015275139bc81b595cdcd859d9481a185b991b195c881cd95d60521b6044820152606401610356565b61059282828080601f01602080910402602001604051908101604052809392919081815260200183838082843760009201919091525061093192505050565b5050565b6004546001600160a01b031633146105c05760405162461bcd60e51b815260040161035690612315565b6000816001600160a01b03163b1161060f5760405162461bcd60e51b81526020600482015260126024820152711b5d5cdd08189948184818dbdb9d1c9858dd60721b6044820152606401610356565b6001600160a01b03166000908152600560205260409020805460ff19166001179055565b6004546001600160a01b0316331461065d5760405162461bcd60e51b815260040161035690612315565b610667600061099c565b565b6004546001600160a01b031633146106935760405162461bcd60e51b815260040161035690612315565b8060005b818110156104bf5760008484838181106106b3576106b361234a565b90506020020160208101906106c891906120d2565b6001600160a01b03163b116107145760405162461bcd60e51b81526020600482015260126024820152711b5d5cdd08189948184818dbdb9d1c9858dd60721b6044820152606401610356565b60016005600086868581811061072c5761072c61234a565b905060200201602081019061074191906120d2565b6001600160a01b031681526020810191909152604001600020805460ff19169115159190911790558061077381612376565b915050610697565b6002546001600160a01b0316156107e75760405162461bcd60e51b815260206004820152602a60248201527f467842617365526f6f7454756e6e656c3a204348494c445f54554e4e454c5f4160448201526913149150511657d4d15560b21b6064820152608401610356565b600280546001600160a01b0319166001600160a01b0392909216919091179055565b3360009081526005602052604090205460ff168061082a575061082a61090d565b6108465760405162461bcd60e51b8152600401610356906122e9565b8015610857576108546109ee565b50565b610854610a93565b6004546001600160a01b031633146108895760405162461bcd60e51b815260040161035690612315565b6001600160a01b0381166108ee5760405162461bcd60e51b815260206004820152602660248201527f4f776e61626c653a206e6577206f776e657220697320746865207a65726f206160448201526564647265737360d01b6064820152608401610356565b6108548161099c565b600061090282610b17565b905061059281610dfd565b6000336109226004546001600160a01b031690565b6001600160a01b031614905090565b60005460025460405163b472047760e01b81526001600160a01b039283169263b4720477926109679291169085906004016123e9565b600060405180830381600087803b15801561098157600080fd5b505af1158015610995573d6000803e3d6000fd5b5050505050565b600480546001600160a01b038381166001600160a01b0319831681179093556040519116919082907f8be0079c531659141344cd1fd0a4f28419497f9722a3daafe3b4186f6b6457e090600090a35050565b600454600160a01b900460ff1615610a3b5760405162461bcd60e51b815260206004820152601060248201526f14185d5cd8589b194e881c185d5cd95960821b6044820152606401610356565b6004805460ff60a01b1916600160a01b1790557f62e78cea01bee320cd4e420270b5ea74000d11b0c9f74754ebdbfc544b05a258610a763390565b6040516001600160a01b03909116815260200160405180910390a1565b600454600160a01b900460ff16610ae35760405162461bcd60e51b815260206004820152601460248201527314185d5cd8589b194e881b9bdd081c185d5cd95960621b6044820152606401610356565b6004805460ff60a01b191690557f5db9ee0a495bf2e6ff9c91a7834c1ba4fdd244a5e8aa4e537bd38aeae4b073aa33610a76565b60606000610b2483610e7e565b90506000610b3182610edd565b90506000610b3e83610f0c565b9050600081610b4c84610f35565b610b55866110f1565b604051602001610b679392919061240d565b60408051601f1981840301815291815281516020928301206000818152600390935291205490915060ff1615610beb5760405162461bcd60e51b8152602060048201526024808201527f4678526f6f7454756e6e656c3a20455849545f414c52454144595f50524f434560448201526314d4d15160e21b6064820152608401610356565b6000818152600360205260408120805460ff19166001179055610c0d8561110d565b90506000610c1a82611256565b9050610c25816112e6565b6002546001600160a01b03908116911614610c905760405162461bcd60e51b815260206004820152602560248201527f4678526f6f7454756e6e656c3a20494e56414c49445f46585f4348494c445f54604482015264155393915360da1b6064820152608401610356565b6000610c9b8761130f565b9050610cbb610cab846020015190565b87610cb58a61132b565b84611347565b610d135760405162461bcd60e51b815260206004820152602360248201527f4678526f6f7454756e6e656c3a20494e56414c49445f524543454950545f505260448201526227a7a360e91b6064820152608401610356565b610d4185610d20896115fe565b610d298a61161a565b84610d338c611636565b610d3c8d611652565b61166e565b506000610d4d836117a3565b90507f8c5261668696ce22758910d05bab8f186d6eb247ceac2af2e82c7dc17669b036610d83610d7e8360006117df565b611817565b14610dd05760405162461bcd60e51b815260206004820152601f60248201527f4678526f6f7454756e6e656c3a20494e56414c49445f5349474e4154555245006044820152606401610356565b6000610ddb84611892565b806020019051810190610dee919061243a565b9b9a5050505050505050505050565b6006546001600160a01b0316610e4e5760405162461bcd60e51b8152602060048201526016602482015275139bc81b595cdcd859d9481a185b991b195c881cd95d60521b6044820152606401610356565b600654604051633f17580b60e11b81526001600160a01b0390911690637e2eb016906109679084906004016124b0565b6040805160208101909152606081526000610ec8610ec38460408051808201825260008082526020918201528151808301909252825182529182019181019190915290565b6118ae565b60408051602081019091529081529392505050565b6060610f068260000151600881518110610ef957610ef961234a565b60200260200101516119c3565b92915050565b6000610f068260000151600281518110610f2857610f2861234a565b6020026020010151611817565b60408051602081019091526000815281516060919015610f0657600080610f5d600086611a5f565b60f81c90506001811480610f7457508060ff166003145b1561101b57600185516002610f8991906124c3565b610f9391906124e2565b6001600160401b03811115610faa57610faa6121fd565b6040519080825280601f01601f191660200182016040528015610fd4576020820181803683370190505b5092506000610fe4600187611a5f565b90508084600081518110610ffa57610ffa61234a565b60200101906001600160f81b031916908160001a905350600192505061107e565b60028551600261102b91906124c3565b61103591906124e2565b6001600160401b0381111561104c5761104c6121fd565b6040519080825280601f01601f191660200182016040528015611076576020820181803683370190505b509250600091505b60ff82165b83518110156110e8576110ad61109c60ff8516836124e2565b6110a79060026124f9565b87611a5f565b8482815181106110bf576110bf61234a565b60200101906001600160f81b031916908160001a905350806110e081612376565b915050611083565b50505092915050565b6000610f068260000151600981518110610f2857610f2861234a565b61113160405180606001604052806060815260200160608152602001600081525090565b61114b8260000151600681518110610ef957610ef961234a565b60208281018290526040805180820182526000808252908301528051808201909152825181529181019082015261118181611ae0565b156111965761118f816118ae565b8252611242565b602082015180516000906111ac906001906124e2565b6001600160401b038111156111c3576111c36121fd565b6040519080825280601f01601f1916602001820160405280156111ed576020820181803683370190505b50905060008083602101915082602001905061120b82828551611b19565b60408051808201825260008082526020918201528151808301909252845182528085019082015261123b906118ae565b8652505050505b61124b836110f1565b604083015250919050565b6040805160808101825260009181018281526060808301939093528152602081019190915260006112a483600001516003815181106112975761129761234a565b60200260200101516118ae565b8360400151815181106112b9576112b961234a565b6020026020010151905060405180604001604052808281526020016112dd836118ae565b90529392505050565b6000610f0682602001516000815181106113025761130261234a565b6020026020010151611b94565b6000610f068260000151600581518110610f2857610f2861234a565b6060610f068260000151600781518110610ef957610ef961234a565b60008061137b8460408051808201825260008082526020918201528151808301909252825182529182019181019190915290565b90506000611388826118ae565b90506060808560008061139a8b610f35565b90508051600014156113b65760009750505050505050506115f6565b60005b86518110156115ed5781518311156113dc576000985050505050505050506115f6565b6113fe8782815181106113f1576113f161234a565b6020026020010151611bae565b95508580519060200120841461141f576000985050505050505050506115f6565b6114348782815181106112975761129761234a565b9450845160111415611509578151831415611496578c8051906020012061146786601081518110610ef957610ef961234a565b805190602001201415611485576001985050505050505050506115f6565b6000985050505050505050506115f6565b60008284815181106114aa576114aa61234a565b016020015160f81c905060108111156114cf57600099505050505050505050506115f6565b6114f4868260ff16815181106114e7576114e761234a565b6020026020010151611c2d565b94506115016001856124f9565b9350506115db565b84516002141561148557600061153561152e87600081518110610ef957610ef961234a565b8486611c5b565b835190915061154482866124f9565b1415611599578d8051906020012061156887600181518110610ef957610ef961234a565b80519060200120141561158757600199505050505050505050506115f6565b600099505050505050505050506115f6565b806115b057600099505050505050505050506115f6565b6115ba81856124f9565b93506115d2866001815181106114e7576114e761234a565b94506115db9050565b806115e581612376565b9150506113b9565b50505050505050505b949350505050565b6000610f068260000151600381518110610f2857610f2861234a565b6000610f068260000151600481518110610f2857610f2861234a565b6000610f068260000151600081518110610f2857610f2861234a565b6060610f068260000151600181518110610ef957610ef961234a565b6001546040516320a9cea560e11b8152600481018490526000918291829182916001600160a01b03909116906341539d4a9060240160a06040518083038186803b1580156116bb57600080fd5b505afa1580156116cf573d6000803e3d6000fd5b505050506040513d601f19601f820116820180604052508101906116f39190612511565b509350509250925061174a828b61170a91906124e2565b6040805160208082018f90528183018e9052606082018d905260808083018d90528351808403909101815260a09092019092528051910120908588611d63565b6117965760405162461bcd60e51b815260206004820152601c60248201527f4678526f6f7454756e6e656c3a20494e56414c49445f484541444552000000006044820152606401610356565b9998505050505050505050565b60408051602081019091526060815260405180602001604052806117d784602001516001815181106112975761129761234a565b905292915050565b604080518082019091526000808252602082015282518051839081106118075761180761234a565b6020026020010151905092915050565b80516000901580159061182c57508151602110155b61183557600080fd5b60006118448360200151611ec8565b9050600081846000015161185891906124e2565b905060008083866020015161186d91906124f9565b905080519150602083101561188957826020036101000a820491505b50949350505050565b6060610f068260200151600281518110610ef957610ef961234a565b60606118b982611ae0565b6118c257600080fd5b60006118cd83611f4a565b90506000816001600160401b038111156118e9576118e96121fd565b60405190808252806020026020018201604052801561192e57816020015b60408051808201909152600080825260208201528152602001906001900390816119075790505b50905060006119408560200151611ec8565b856020015161194f91906124f9565b90506000805b848110156119b85761196683611fcd565b915060405180604001604052808381526020018481525084828151811061198f5761198f61234a565b60209081029190910101526119a482846124f9565b9250806119b081612376565b915050611955565b509195945050505050565b80516060906119d157600080fd5b60006119e08360200151611ec8565b905060008184600001516119f491906124e2565b90506000816001600160401b03811115611a1057611a106121fd565b6040519080825280601f01601f191660200182016040528015611a3a576020820181803683370190505b5090506000816020019050611889848760200151611a5891906124f9565b8285612071565b6000611a6c600284612574565b15611aa657601082611a7f600286612588565b81518110611a8f57611a8f61234a565b0160200151611aa1919060f81c61259c565b611ad6565b601082611ab4600286612588565b81518110611ac457611ac461234a565b0160200151611ad6919060f81c6125be565b60f81b9392505050565b8051600090611af157506000919050565b6020820151805160001a9060c0821015611b0f575060009392505050565b5060019392505050565b80611b2357505050565b60208110611b5b5782518252611b3a6020846124f9565b9250611b476020836124f9565b9150611b546020826124e2565b9050611b23565b60006001611b6a8360206124e2565b611b76906101006126c4565b611b8091906124e2565b935183518516941916939093179091525050565b8051600090601514611ba557600080fd5b610f0682611817565b6060600082600001516001600160401b03811115611bce57611bce6121fd565b6040519080825280601f01601f191660200182016040528015611bf8576020820181803683370190505b509050805160001415611c0b5792915050565b6000816020019050611c268460200151828660000151612071565b5092915050565b8051600090602114611c3e57600080fd5b60008083602001516001611c5291906124f9565b51949350505050565b60008080611c6886610f35565b9050600081516001600160401b03811115611c8557611c856121fd565b6040519080825280601f01601f191660200182016040528015611caf576020820181803683370190505b509050845b8251611cc090876124f9565b811015611d33576000878281518110611cdb57611cdb61234a565b01602001516001600160f81b03191690508083611cf889856124e2565b81518110611d0857611d0861234a565b60200101906001600160f81b031916908160001a905350508080611d2b90612376565b915050611cb4565b50808051906020012082805190602001201415611d535781519250611d58565b600092505b509095945050505050565b600060208251611d739190612574565b15611db75760405162461bcd60e51b8152602060048201526014602482015273092dcecc2d8d2c840e0e4dedecc40d8cadccee8d60631b6044820152606401610356565b600060208351611dc79190612588565b9050611dd48160026126c4565b8510611e1a5760405162461bcd60e51b81526020600482015260156024820152744c65616620696e64657820697320746f6f2062696760581b6044820152606401610356565b60008660205b85518111611eba57858101519250611e39600289612574565b611e6e576040805160208101849052908101849052606001604051602081830303815290604052805190602001209150611e9b565b60408051602081018590529081018390526060016040516020818303038152906040528051906020012091505b611ea6600289612588565b9750611eb36020826124f9565b9050611e20565b509094149695505050505050565b8051600090811a6080811015611ee15750600092915050565b60b8811080611efc575060c08110801590611efc575060f881105b15611f0a5750600192915050565b60c0811015611f3e57611f1f600160b86126d0565b611f2c9060ff16826124e2565b611f379060016124f9565b9392505050565b611f1f600160f86126d0565b8051600090611f5b57506000919050565b600080611f6b8460200151611ec8565b8460200151611f7a91906124f9565b9050600084600001518560200151611f9291906124f9565b90505b80821015611fc457611fa682611fcd565b611fb090836124f9565b915082611fbc81612376565b935050611f95565b50909392505050565b80516000908190811a6080811015611fe85760019150611c26565b60b881101561200e57611ffc6080826124e2565b6120079060016124f9565b9150611c26565b60c081101561203b5760b78103600185019450806020036101000a85510460018201810193505050611c26565b60f881101561204f57611ffc60c0826124e2565b60019390930151602084900360f7016101000a900490920160f5190192915050565b8061207b57505050565b602081106120b357825182526120926020846124f9565b925061209f6020836124f9565b91506120ac6020826124e2565b905061207b565b80611b5b57505050565b6001600160a01b038116811461085457600080fd5b6000602082840312156120e457600080fd5b8135611f37816120bd565b6000806020838503121561210257600080fd5b82356001600160401b038082111561211957600080fd5b818501915085601f83011261212d57600080fd5b81358181111561213c57600080fd5b8660208260051b850101111561215157600080fd5b60209290920196919550909350505050565b6000806020838503121561217657600080fd5b82356001600160401b038082111561218d57600080fd5b818501915085601f8301126121a157600080fd5b8135818111156121b057600080fd5b86602082850101111561215157600080fd5b6000602082840312156121d457600080fd5b5035919050565b6000602082840312156121ed57600080fd5b81358015158114611f3757600080fd5b634e487b7160e01b600052604160045260246000fd5b604051601f8201601f191681016001600160401b038111828210171561223b5761223b6121fd565b604052919050565b60006001600160401b0382111561225c5761225c6121fd565b50601f01601f191660200190565b60006020828403121561227c57600080fd5b81356001600160401b0381111561229257600080fd5b8201601f810184136122a357600080fd5b80356122b66122b182612243565b612213565b8181528560208385010111156122cb57600080fd5b81602084016020830137600091810160200191909152949350505050565b6020808252601290820152712737ba1030b236b4b71037b91037bbb732b960711b604082015260600190565b6020808252818101527f4f776e61626c653a2063616c6c6572206973206e6f7420746865206f776e6572604082015260600190565b634e487b7160e01b600052603260045260246000fd5b634e487b7160e01b600052601160045260246000fd5b600060001982141561238a5761238a612360565b5060010190565b60005b838110156123ac578181015183820152602001612394565b838111156104bf5750506000910152565b600081518084526123d5816020860160208601612391565b601f01601f19169290920160200192915050565b6001600160a01b03831681526040602082018190526000906115f6908301846123bd565b83815260008351612425816020850160208801612391565b60209201918201929092526040019392505050565b60006020828403121561244c57600080fd5b81516001600160401b0381111561246257600080fd5b8201601f8101841361247357600080fd5b80516124816122b182612243565b81815285602083850101111561249657600080fd5b6124a7826020830160208601612391565b95945050505050565b602081526000611f3760208301846123bd565b60008160001904831182151516156124dd576124dd612360565b500290565b6000828210156124f4576124f4612360565b500390565b6000821982111561250c5761250c612360565b500190565b600080600080600060a0868803121561252957600080fd5b855194506020860151935060408601519250606086015191506080860151612550816120bd565b809150509295509295909350565b634e487b7160e01b600052601260045260246000fd5b6000826125835761258361255e565b500690565b6000826125975761259761255e565b500490565b600060ff8316806125af576125af61255e565b8060ff84160691505092915050565b600060ff8316806125d1576125d161255e565b8060ff84160491505092915050565b600181815b8085111561261b57816000190482111561260157612601612360565b8085161561260e57918102915b93841c93908002906125e5565b509250929050565b60008261263257506001610f06565b8161263f57506000610f06565b8160018114612655576002811461265f5761267b565b6001915050610f06565b60ff84111561267057612670612360565b50506001821b610f06565b5060208310610133831016604e8410600b841016171561269e575081810a610f06565b6126a883836125e0565b80600019048211156126bc576126bc612360565b029392505050565b6000611f378383612623565b600060ff821660ff8416808210156126ea576126ea612360565b9003939250505056fea2646970667358221220f44e210b25e83831d1f1998764e9ca217592f2e618bdaea127ab41e0752e4e6e64736f6c63430008090033",
  "devdoc": {
    "kind": "dev",
    "methods": {
      "owner()": {
        "details": "Returns the address of the current owner."
      },
      "paused()": {
        "details": "Returns true if the contract is paused, and false otherwise."
      },
      "receiveMessage(bytes)": {
        "details": "This function verifies if the transaction actually happened on child chain",
        "params": {
          "inputData": "RLP encoded data of the reference tx containing following list of fields  0 - headerNumber - Checkpoint header block number containing the reference tx  1 - blockProof - Proof that the block header (in the child chain) is a leaf in the submitted merkle root  2 - blockNumber - Block number containing the reference tx on child chain  3 - blockTime - Reference tx block time  4 - txRoot - Transactions root of block  5 - receiptRoot - Receipts root of block  6 - receipt - Receipt of the reference transaction  7 - receiptProof - Merkle proof of the reference receipt  8 - branchMask - 32 bits denoting the path of receipt in merkle tree  9 - receiptLogIndex - Log Index to read from the receipt"
        }
      },
      "renounceOwnership()": {
        "details": "Leaves the contract without owner. It will not be possible to call `onlyOwner` functions anymore. Can only be called by the current owner. NOTE: Renouncing ownership will leave the contract without an owner, thereby removing any functionality that is only available to the owner."
      },
      "transferOwnership(address)": {
        "details": "Transfers ownership of the contract to a new account (`newOwner`). Can only be called by the current owner."
      }
    },
    "version": 1
  },
  "userdoc": {
    "kind": "user",
    "methods": {
      "receiveMessage(bytes)": {
        "notice": "receive message from  L2 to L1, validated by proof"
      }
    },
    "version": 1
  },
  "storageLayout": {
    "storage": [
      {
        "astId": 2353,
        "contract": "contracts/wnd/tunnels/RootTunnel.sol:RootTunnel",
        "label": "fxRoot",
        "offset": 0,
        "slot": "0",
        "type": "t_contract(IFxStateSender)2303"
      },
      {
        "astId": 2356,
        "contract": "contracts/wnd/tunnels/RootTunnel.sol:RootTunnel",
        "label": "checkpointManager",
        "offset": 0,
        "slot": "1",
        "type": "t_contract(ICheckpointManager)2321"
      },
      {
        "astId": 2358,
        "contract": "contracts/wnd/tunnels/RootTunnel.sol:RootTunnel",
        "label": "fxChildTunnel",
        "offset": 0,
        "slot": "2",
        "type": "t_address"
      },
      {
        "astId": 2362,
        "contract": "contracts/wnd/tunnels/RootTunnel.sol:RootTunnel",
        "label": "processedExits",
        "offset": 0,
        "slot": "3",
        "type": "t_mapping(t_bytes32,t_bool)"
      },
      {
        "astId": 7707,
        "contract": "contracts/wnd/tunnels/RootTunnel.sol:RootTunnel",
        "label": "_owner",
        "offset": 0,
        "slot": "4",
        "type": "t_address"
      },
      {
        "astId": 7822,
        "contract": "contracts/wnd/tunnels/RootTunnel.sol:RootTunnel",
        "label": "_paused",
        "offset": 20,
        "slot": "4",
        "type": "t_bool"
      },
      {
        "astId": 11835,
        "contract": "contracts/wnd/tunnels/RootTunnel.sol:RootTunnel",
        "label": "admins",
        "offset": 0,
        "slot": "5",
        "type": "t_mapping(t_address,t_bool)"
      },
      {
        "astId": 24247,
        "contract": "contracts/wnd/tunnels/RootTunnel.sol:RootTunnel",
        "label": "messageHandler",
        "offset": 0,
        "slot": "6",
        "type": "t_contract(IMessageHandler)24224"
      }
    ],
    "types": {
      "t_address": {
        "encoding": "inplace",
        "label": "address",
        "numberOfBytes": "20"
      },
      "t_bool": {
        "encoding": "inplace",
        "label": "bool",
        "numberOfBytes": "1"
      },
      "t_bytes32": {
        "encoding": "inplace",
        "label": "bytes32",
        "numberOfBytes": "32"
      },
      "t_contract(ICheckpointManager)2321": {
        "encoding": "inplace",
        "label": "contract ICheckpointManager",
        "numberOfBytes": "20"
      },
      "t_contract(IFxStateSender)2303": {
        "encoding": "inplace",
        "label": "contract IFxStateSender",
        "numberOfBytes": "20"
      },
      "t_contract(IMessageHandler)24224": {
        "encoding": "inplace",
        "label": "contract IMessageHandler",
        "numberOfBytes": "20"
      },
      "t_mapping(t_address,t_bool)": {
        "encoding": "mapping",
        "key": "t_address",
        "label": "mapping(address => bool)",
        "numberOfBytes": "32",
        "value": "t_bool"
      },
      "t_mapping(t_bytes32,t_bool)": {
        "encoding": "mapping",
        "key": "t_bytes32",
        "label": "mapping(bytes32 => bool)",
        "numberOfBytes": "32",
        "value": "t_bool"
      }
    }
  }
}